{
  "address": "0x8d6Ddf009cd6F6FC8E8598f1C80DA2B052c26519",
  "abi": [
    {
      "inputs": [
        {
          "internalType": "address",
          "name": "capTableRegistryAddress",
          "type": "address"
        },
        {
          "internalType": "address",
          "name": "defaultOwner",
          "type": "address"
        },
        {
          "internalType": "bytes32",
          "name": "defaultPartition",
          "type": "bytes32"
        }
      ],
      "stateMutability": "nonpayable",
      "type": "constructor"
    },
    {
      "inputs": [
        {
          "internalType": "string",
          "name": "name",
          "type": "string"
        },
        {
          "internalType": "string",
          "name": "orgnr",
          "type": "string"
        },
        {
          "internalType": "address[]",
          "name": "to",
          "type": "address[]"
        },
        {
          "internalType": "uint256[]",
          "name": "value",
          "type": "uint256[]"
        }
      ],
      "name": "createCapTable",
      "outputs": [],
      "stateMutability": "nonpayable",
      "type": "function"
    },
    {
      "inputs": [],
      "name": "getCapTableRegistryAddress",
      "outputs": [
        {
          "internalType": "address",
          "name": "capTableRegistryAddress",
          "type": "address"
        }
      ],
      "stateMutability": "view",
      "type": "function"
    }
  ],
  "transactionHash": "0x40bb2087f4d2b5b435388e2cd6ef405bc976a015bceaec60506ee4ed118f6cd8",
  "args": [
    "0xead8BF70c1DEdfb7f19D3B982C3405e6bDC264F8",
    "0xe0B6C61C5215C0Fc34982c9E982b46A301049A7e",
    "0x6f7264696ec3a672650000000000000000000000000000000000000000000000"
  ],
  "numDeployments": 4,
  "solcInputHash": "96dc8816d2762da83ba1facfecd1a3d9",
  "bytecode": "0x608060405234801561001057600080fd5b506040516174ac3803806174ac83398101604081905261002f916100b8565b6001808055600280546001600160a01b039485166001600160a01b03199182161790915560038054928301815560009081527fc2575a0e9e593c00f959f8c92f12db2869c3395a3b0502d05e2516446f71f85b9092019290925580549390921692169190911790556100f3565b80516001600160a01b03811681146100b357600080fd5b919050565b6000806000606084860312156100cc578283fd5b6100d58461009c565b92506100e36020850161009c565b9150604084015190509250925092565b6173aa806101026000396000f3fe60806040523480156200001157600080fd5b50600436106200003a5760003560e01c80635f447b2e146200003f578063bb0174191462000058575b600080fd5b620000566200005036600462000600565b6200007a565b005b620000626200050a565b6040516200007191906200071d565b60405180910390f35b60006003805480602002602001604051908101604052809291908181526020018280548015620000ca57602002820191906000526020600020905b815481526020019060010190808311620000b5575b505050505090506000600454604051602001620000e8919062000714565b604080517fffffffffffffffffffffffffffffffffffffffffffffffffffffffffffffffe0818403018152600180845283830190925292506000919060208083019080368337019050509050338160008151811062000170577f4e487b7100000000000000000000000000000000000000000000000000000000600052603260045260246000fd5b602002602001019073ffffffffffffffffffffffffffffffffffffffff16908173ffffffffffffffffffffffffffffffffffffffff168152505060008b8b8b8b6001548689604051620001c39062000526565b620001d5979695949392919062000819565b604051809103906000f080158015620001f2573d6000803e3d6000fd5b506000546040517f43e3e6af00000000000000000000000000000000000000000000000000000000815291925073ffffffffffffffffffffffffffffffffffffffff16906343e3e6af90620002509084908e908e906004016200073e565b600060405180830381600087803b1580156200026b57600080fd5b505af115801562000280573d6000803e3d6000fd5b5050505060005b87811015620003e7578173ffffffffffffffffffffffffffffffffffffffff166367c849196003600081548110620002e8577f4e487b7100000000000000000000000000000000000000000000000000000000600052603260045260246000fd5b90600052602060002001548b8b858181106200032d577f4e487b7100000000000000000000000000000000000000000000000000000000600052603260045260246000fd5b9050602002016020810190620003449190620005c3565b8a8a868181106200037e577f4e487b7100000000000000000000000000000000000000000000000000000000600052603260045260246000fd5b90506020020135886040518563ffffffff1660e01b8152600401620003a7949392919062000779565b600060405180830381600087803b158015620003c257600080fd5b505af1158015620003d7573d6000803e3d6000fd5b5050505080600101905062000287565b506040517f983b2d5600000000000000000000000000000000000000000000000000000000815273ffffffffffffffffffffffffffffffffffffffff82169063983b2d56906200043c9033906004016200071d565b600060405180830381600087803b1580156200045757600080fd5b505af11580156200046c573d6000803e3d6000fd5b50506002546040517ff2fde38b00000000000000000000000000000000000000000000000000000000815273ffffffffffffffffffffffffffffffffffffffff808616945063f2fde38b9350620004c89216906004016200071d565b600060405180830381600087803b158015620004e357600080fd5b505af1158015620004f8573d6000803e3d6000fd5b50505050505050505050505050505050565b60005473ffffffffffffffffffffffffffffffffffffffff1690565b616a9280620008e383390190565b60008083601f84011262000546578182fd5b50813567ffffffffffffffff8111156200055e578182fd5b60208301915083602080830285010111156200057957600080fd5b9250929050565b60008083601f84011262000592578182fd5b50813567ffffffffffffffff811115620005aa578182fd5b6020830191508360208285010111156200057957600080fd5b600060208284031215620005d5578081fd5b813573ffffffffffffffffffffffffffffffffffffffff81168114620005f9578182fd5b9392505050565b6000806000806000806000806080898b0312156200061c578384fd5b883567ffffffffffffffff8082111562000634578586fd5b620006428c838d0162000580565b909a50985060208b01359150808211156200065b578586fd5b620006698c838d0162000580565b909850965060408b013591508082111562000682578586fd5b620006908c838d0162000534565b909650945060608b0135915080821115620006a9578384fd5b50620006b88b828c0162000534565b999c989b5096995094979396929594505050565b600082845282826020860137806020848601015260207fffffffffffffffffffffffffffffffffffffffffffffffffffffffffffffffe0601f85011685010190509392505050565b90815260200190565b73ffffffffffffffffffffffffffffffffffffffff91909116815260200190565b600073ffffffffffffffffffffffffffffffffffffffff851682526040602083015262000770604083018486620006cc565b95945050505050565b6000858252602073ffffffffffffffffffffffffffffffffffffffff861681840152846040840152608060608401528351806080850152825b81811015620007d05785810183015185820160a001528201620007b2565b81811115620007e2578360a083870101525b50601f017fffffffffffffffffffffffffffffffffffffffffffffffffffffffffffffffe0169290920160a0019695505050505050565b600060a082526200082f60a08301898b620006cc565b6020838203818501526200084582898b620006cc565b6040850188905284810360608601528651808252828801935090820190845b818110156200089857845173ffffffffffffffffffffffffffffffffffffffff168352938301939183019160010162000864565b505084810360808601528551808252908201925081860190845b81811015620008d057825185529383019391830191600101620008b2565b50929c9b50505050505050505050505056fe60806040523480156200001157600080fd5b5060405162006a9238038062006a92833981016040819052620000349162000909565b84848484846200004d6200004762000220565b62000224565b620000583362000274565b62000062620002c6565b50845162000078906004906020880190620006e8565b5083516200008e906005906020870190620006e8565b5060006007556001831015620000a357600080fd5b6006839055620000b382620002f9565b8051620000c890601490602084019062000777565b506008805462ff00001961ff001990911661010017166201000017905560408051808201909152600c81526b22a921989a18182a37b5b2b760a11b602080830191909152620001239190309062002af76200040e821b17901c565b6200015c6040518060400160405280600a81526020016922a92199182a37b5b2b760b11b815250306200040e60201b62002af71760201c565b620001966040518060400160405280600c81526020016b22a921989a18182a37b5b2b760a11b815250620004b160201b62002bcb1760201c565b620001ce6040518060400160405280600a81526020016922a92199182a37b5b2b760b11b815250620004b160201b62002bcb1760201c565b5050604051339350620001e5925087915062000a36565b604051908190038120907fbaae3ce00d3ceedebee4e035d2bab26a15d5d5e0c97fa14e2dee257f25b077f690600090a3505050505062000c23565b3390565b600080546001600160a01b038381166001600160a01b0319831681178455604051919092169283917f8be0079c531659141344cd1fd0a4f28419497f9722a3daafe3b4186f6b6457e09190a35050565b6200028f8160026200050060201b62002c541790919060201c565b6040516001600160a01b038216907f6ae172837ea30b801fbfcdd4108aa1d5bf8ff775444fd70256b44e6bf3dfc3f690600090a250565b600080620002d36200055a565b90506000620002e16200055e565b60009283526003602052604090922082905550905090565b60005b6016548110156200037857600060176000601684815481106200032f57634e487b7160e01b600052603260045260246000fd5b6000918252602080832091909101546001600160a01b031683528201929092526040019020805460ff1916911515919091179055806200036f8162000be5565b915050620002fc565b5060005b8151811015620003f457600160176000848481518110620003ad57634e487b7160e01b600052603260045260246000fd5b6020908102919091018101516001600160a01b03168252810191909152604001600020805460ff191691151591909117905580620003eb8162000be5565b9150506200037c565b5080516200040a906016906020840190620007b4565b5050565b60008260405160200162000423919062000a36565b60408051601f198184030181529082905280516020909101206329965a1d60e01b82529150731820a4b7618bde71dce8cdc73aab6c95905fad24906329965a1d90620004789030908590879060040162000a54565b600060405180830381600087803b1580156200049357600080fd5b505af1158015620004a8573d6000803e3d6000fd5b50505050505050565b600180600083604051602001620004c9919062000a36565b60408051808303601f19018152918152815160209283012083529082019290925201600020805460ff191691151591909117905550565b6200050c8282620005e8565b15620005355760405162461bcd60e51b81526004016200052c9062000aa3565b60405180910390fd5b6001600160a01b0316600090815260209190915260409020805460ff19166001179055565b4690565b6000806200056b6200055a565b905060007f8b73c3c69bb8fe3d512ecc4cf759cc79239f7b179b0ffacaa9a75d522b39400f6200059a62000633565b8051602090910120620005ac620006cd565b8051602091820120604051620005c9949392879130910162000a77565b60408051601f1981840301815291905280516020909101209250505090565b60006001600160a01b038216620006135760405162461bcd60e51b81526004016200052c9062000ada565b506001600160a01b03166000908152602091909152604090205460ff1690565b606060048054620006449062000ba8565b80601f0160208091040260200160405190810160405280929190818152602001828054620006729062000ba8565b8015620006c35780601f106200069757610100808354040283529160200191620006c3565b820191906000526020600020905b815481529060010190602001808311620006a557829003601f168201915b5050505050905090565b6040805180820190915260018152603160f81b602082015290565b828054620006f69062000ba8565b90600052602060002090601f0160209004810192826200071a576000855562000765565b82601f106200073557805160ff191683800117855562000765565b8280016001018555821562000765579182015b828111156200076557825182559160200191906001019062000748565b50620007739291506200080c565b5090565b8280548282559060005260206000209081019282156200076557916020028201828111156200076557825182559160200191906001019062000748565b82805482825590600052602060002090810192821562000765579160200282015b828111156200076557825182546001600160a01b0319166001600160a01b03909116178255602090920191600190910190620007d5565b5b808211156200077357600081556001016200080d565b600082601f83011262000834578081fd5b815160206200084d620008478362000b4f565b62000b1c565b82815281810190858301838502870184018810156200086a578586fd5b855b858110156200088a578151845292840192908401906001016200086c565b5090979650505050505050565b600082601f830112620008a8578081fd5b81516001600160401b03811115620008c457620008c462000c0d565b620008d9601f8201601f191660200162000b1c565b818152846020838601011115620008ee578283fd5b6200090182602083016020870162000b75565b949350505050565b600080600080600060a0868803121562000921578081fd5b85516001600160401b038082111562000938578283fd5b6200094689838a0162000897565b96506020915081880151818111156200095d578384fd5b6200096b8a828b0162000897565b9650506040880151945060608801518181111562000987578384fd5b8801601f81018a1362000998578384fd5b8051620009a9620008478262000b4f565b81815284810190838601868402850187018e1015620009c6578788fd5b8794505b83851015620009ff5780516001600160a01b0381168114620009ea578889fd5b835260019490940193918601918601620009ca565b5060808c015190975094505050508082111562000a1a578283fd5b5062000a298882890162000823565b9150509295509295909350565b6000825162000a4a81846020870162000b75565b9190910192915050565b6001600160a01b0393841681526020810192909252909116604082015260600190565b9485526020850193909352604084019190915260608301526001600160a01b0316608082015260a00190565b6020808252601f908201527f526f6c65733a206163636f756e7420616c72656164792068617320726f6c6500604082015260600190565b60208082526022908201527f526f6c65733a206163636f756e7420697320746865207a65726f206164647265604082015261737360f01b606082015260800190565b604051601f8201601f191681016001600160401b038111828210171562000b475762000b4762000c0d565b604052919050565b60006001600160401b0382111562000b6b5762000b6b62000c0d565b5060209081020190565b60005b8381101562000b9257818101518382015260200162000b78565b8381111562000ba2576000848401525b50505050565b60028104600182168062000bbd57607f821691505b6020821081141562000bdf57634e487b7160e01b600052602260045260246000fd5b50919050565b600060001982141562000c0657634e487b7160e01b81526011600452602481fd5b5060010190565b634e487b7160e01b600052604160045260246000fd5b615e5f8062000c336000396000f3fe608060405234801561001057600080fd5b50600436106103c55760003560e01c8063895d7386116101ff578063b10d6b411161011a578063e83c43f5116100ad578063f2fde38b1161007c578063f2fde38b146107a9578063f3d490db146107bc578063f698da25146107cf578063fad8b32a146107d7576103c5565b8063e83c43f514610768578063ea74838a14610770578063ec9a6e8714610783578063ee532f3114610796576103c5565b8063c3501848116100e9578063c350184814610727578063ca281fd91461073a578063dd62ed3e14610742578063e77c646d14610755576103c5565b8063b10d6b41146106d7578063b6363cf2146106f9578063bb3acde91461070c578063bcfdc0cf1461071f576103c5565b80639865027511610192578063a6f4f10511610161578063a6f4f10514610696578063a8082cb0146106a9578063a9059cbb146106b1578063aa271e1a146106c4576103c5565b8063986502751461066057806398ddcec7146106685780639fa5f50b1461067b578063a26734dc14610683576103c5565b8063959b8c3f116101ce578063959b8c3f1461062757806395d89b411461058e5780639675193c1461063a578063983b2d561461064d576103c5565b8063895d7386146103df5780638c0dee9c146105ec5780638da5cb5b146105ff578063933964c714610614576103c5565b80633092afd5116102ef5780636c30d17011610282578063715018a611610251578063715018a6146105a9578063740ab8f4146105b15780637cc0c3a7146105c4578063861ed3ea146105d9576103c5565b80636c30d170146105735780636d77cad61461057b5780636fd00b341461058e57806370a0823114610596576103c5565b8063556f0dc7116102be578063556f0dc71461053057806362eb00681461053857806367c849191461054b57806369598efe1461055e576103c5565b80633092afd5146104ed57806330e8280314610500578063313ce567146105135780634c783bf514610528576103c5565b806316e1aed41161036757806323b872dd1161033657806323b872dd146104ac578063249cb3fa146104bf5780632535f762146104d25780632f1cae85146104e5576103c5565b806316e1aed41461046957806317ec83ca1461047c57806318160ddd1461049c5780631d43e1c0146104a4576103c5565b8063103ef9e1116103a3578063103ef9e11461041d57806314d1e62f1461043057806315e6a93814610443578063168ecec514610456576103c5565b8063010648ca146103ca57806306fdde03146103df578063095ea7b3146103fd575b600080fd5b6103dd6103d83660046153f8565b6107ea565b005b6103e7610924565b6040516103f491906157e9565b60405180910390f35b61041061040b366004615178565b6109b7565b6040516103f491906156f1565b6103dd61042b366004615255565b610a88565b61041061043e36600461535f565b610b17565b6103dd610451366004614f9e565b610be9565b6103dd610464366004615255565b610d06565b6103dd6104773660046153ae565b610d92565b61048f61048a366004615279565b610e47565b6040516103f491906156fc565b61048f610e84565b6103e7610e8a565b6104106104ba36600461500e565b610ec1565b61048f6104cd366004615255565b61103e565b6103dd6104e03660046151a3565b611089565b6104106110d2565b6103dd6104fb366004614f9e565b6110e1565b61048f61050e366004615255565b611143565b61051b611175565b6040516103f49190615c6c565b61041061117a565b61048f611188565b6103dd610546366004615449565b61118e565b6103dd610559366004615385565b6111df565b6105666112c1565b6040516103f491906156b9565b6103dd611318565b610410610589366004615279565b6113b5565b6103e76113ca565b61048f6105a4366004614f9e565b6113d9565b6103dd611405565b6105666105bf366004614f9e565b611484565b6105cc6114fd565b6040516103f4919061565f565b6105cc6105e736600461523d565b61156b565b61048f6105fa3660046152ba565b6115e3565b6106076117e3565b6040516103f49190615596565b6103dd6106223660046150bf565b6117ff565b6103dd610635366004614f9e565b611880565b6103dd6106483660046151a3565b611927565b6103dd61065b366004614f9e565b611abe565b6103dd611b1d565b6103dd610676366004615385565b611b26565b610566611cf2565b61048f61069136600461523d565b611d48565b6103dd6106a43660046150f3565b611d5a565b61048f611e1a565b6104106106bf366004615178565b611eb9565b6104106106d2366004614f9e565b611ee0565b6106ea6106e536600461523d565b611eed565b6040516103f49392919061581e565b610410610707366004614fd6565b611fcb565b6103dd61071a3660046151a3565b611fde565b610566612137565b6103dd61073536600461523d565b61218d565b6103dd6124dc565b61048f610750366004614fd6565b612579565b6103dd610763366004615482565b6125b1565b6106076125f3565b6103dd61077e3660046151fd565b612657565b6103dd6107913660046151fd565b612706565b6103dd6107a436600461504e565b612785565b6103dd6107b7366004614f9e565b61291d565b61048f6107ca366004615385565b6129e6565b61048f612a44565b6103dd6107e5366004614f9e565b612a53565b3360009081526017602052604090205460ff1661080657600080fd5b604051806060016040528084848080601f0160208091040260200160405190810160405280939291908181526020018383808284376000920182905250938552505050602080830185905242604093840152878252600b815291902082518051919261087792849290910190614d7b565b5060208281015160018301556040928301516002909201919091556000838152600c90915220546108e257600d80546001810182557fd7b6990105719101dabeb77144f2a3385c8033acd3af97e9423a695e81ad1eb501829055546000828152600c60205260409020555b837fb4c22d60cd550a815744f04e3ff5278bf19684565ee00e2b084041b6024bd6f6848484604051610916939291906157c5565b60405180910390a250505050565b60606004805461093390615d4b565b80601f016020809104026020016040519081016040528092919081815260200182805461095f90615d4b565b80156109ac5780601f10610981576101008083540402835291602001916109ac565b820191906000526020600020905b81548152906001019060200180831161098f57829003601f168201915b505050505090505b90565b600073ffffffffffffffffffffffffffffffffffffffff8316610a0f576040517f08c379a0000000000000000000000000000000000000000000000000000000008152600401610a06906159b3565b60405180910390fd5b336000818152600a6020908152604080832073ffffffffffffffffffffffffffffffffffffffff881680855292529182902085905590519091907f8c5be1e5ebec7d5bd14f71427d1e84f3dd0314c0f7b2291e5b200ac8c7c3b92590610a769086906156fc565b60405180910390a35060015b92915050565b336000818152601960209081526040808320868452825280832073ffffffffffffffffffffffffffffffffffffffff8616808552925280832080547fffffffffffffffffffffffffffffffffffffffffffffffffffffffffffffff0016600117905551909185917f3646a897c70797ecc134b0adc32f471b07bf1d6f451133b0384badab531e3fd69190a45050565b600073ffffffffffffffffffffffffffffffffffffffff8316610b66576040517f08c379a0000000000000000000000000000000000000000000000000000000008152600401610a06906159b3565b60008481526018602090815260408083203380855290835281842073ffffffffffffffffffffffffffffffffffffffff88168086529352928190208590555190919086907ff061499aa77c2f6f5e25e34955a06623705344a88256cc861a121ec0bce5cfec90610bd79087906156fc565b60405180910390a45060019392505050565b3360009081526017602052604090205460ff16610c0557600080fd5b604080516001808252818301909252600091602080830190803683370190505090508181600081518110610c62577f4e487b7100000000000000000000000000000000000000000000000000000000600052603260045260246000fd5b602002602001019073ffffffffffffffffffffffffffffffffffffffff16908173ffffffffffffffffffffffffffffffffffffffff1681525050610ca581612ce5565b73ffffffffffffffffffffffffffffffffffffffff821633610cc56113ca565b604051610cd29190615551565b604051908190038120907fddf698a82db69118eb57511894eba2074acdc5cdf75459415afe7386360314a290600090a45050565b336000818152601960209081526040808320868452825280832073ffffffffffffffffffffffffffffffffffffffff8616808552925280832080547fffffffffffffffffffffffffffffffffffffffffffffffffffffffffffffff0016905551909185917f3b287c4f1bab4df949b33bceacef984f544dc5d5479930d00e4ee8c9d8dd96f29190a45050565b610d9a612e72565b73ffffffffffffffffffffffffffffffffffffffff16610db86117e3565b73ffffffffffffffffffffffffffffffffffffffff1614610e05576040517f08c379a0000000000000000000000000000000000000000000000000000000008152600401610a0690615ab5565b610e4283838380806020026020016040519081016040528093929190818152602001838360200280828437600092019190915250612e7692505050565b505050565b600092835260186020908152604080852073ffffffffffffffffffffffffffffffffffffffff948516865282528085209290931684525290205490565b60075490565b60408051808201909152600181527f3100000000000000000000000000000000000000000000000000000000000000602082015290565b6000610ecd338561303d565b80610f08575073ffffffffffffffffffffffffffffffffffffffff84166000908152600a602090815260408083203384529091529020548211155b610f3e576040517f08c379a0000000000000000000000000000000000000000000000000000000008152600401610a0690615b47565b73ffffffffffffffffffffffffffffffffffffffff84166000908152600a602090815260408083203384529091529020548211610fe65773ffffffffffffffffffffffffffffffffffffffff84166000908152600a60209081526040808320338452909152902054610fb090836130f0565b73ffffffffffffffffffffffffffffffffffffffff85166000908152600a60209081526040808320338452909152902055611018565b73ffffffffffffffffffffffffffffffffffffffff84166000908152600a602090815260408083203384529091528120555b61103433858585604051806020016040528060008152506130fc565b5060019392505050565b60008281526001602052604081205460ff1615611081576040516020016110649061556d565b604051602081830303815290604052805190602001209050610a82565b506000610a82565b6110cc3333868686868080601f0160208091040260200160405190810160405280939291908181526020018383808284376000920191909152506130fc92505050565b50505050565b60085462010000900460ff1690565b6110ea33611ee0565b8061112e57506110f8612e72565b73ffffffffffffffffffffffffffffffffffffffff166111166117e3565b73ffffffffffffffffffffffffffffffffffffffff16145b61113757600080fd5b611140816132f7565b50565b73ffffffffffffffffffffffffffffffffffffffff166000908152601360209081526040808320938352929052205490565b601290565b600854610100900460ff1690565b60065490565b6110cc8433338686868080601f016020809104026020016040519081016040528093929190818152602001838380828437600092018290525060408051602081019091529081529250613346915050565b6111e833611ee0565b8061122c57506111f6612e72565b73ffffffffffffffffffffffffffffffffffffffff166112146117e3565b73ffffffffffffffffffffffffffffffffffffffff16145b61123557600080fd5b60085462010000900460ff16611277576040517f08c379a0000000000000000000000000000000000000000000000000000000008152600401610a0690615a21565b6112ba8533868686868080601f01602080910402602001604051908101604052809392919081815260200183838082843760009201919091525061345792505050565b5050505050565b6060600e8054806020026020016040519081016040528092919081815260200182805480156109ac57602002820191906000526020600020905b8154815260200190600101908083116112fb575050505050905090565b611320612e72565b73ffffffffffffffffffffffffffffffffffffffff1661133e6117e3565b73ffffffffffffffffffffffffffffffffffffffff161461138b576040517f08c379a0000000000000000000000000000000000000000000000000000000008152600401610a0690615ab5565b600880547fffffffffffffffffffffffffffffffffffffffffffffffffffffffffff00ffff169055565b60006113c284848461351b565b949350505050565b60606005805461093390615d4b565b73ffffffffffffffffffffffffffffffffffffffff81166000908152600960205260409020545b919050565b61140d612e72565b73ffffffffffffffffffffffffffffffffffffffff1661142b6117e3565b73ffffffffffffffffffffffffffffffffffffffff1614611478576040517f08c379a0000000000000000000000000000000000000000000000000000000008152600401610a0690615ab5565b61148260006135be565b565b73ffffffffffffffffffffffffffffffffffffffff81166000908152601160209081526040918290208054835181840281018401909452808452606093928301828280156114f157602002820191906000526020600020905b8154815260200190600101908083116114dd575b50505050509050919050565b606060168054806020026020016040519081016040528092919081815260200182805480156109ac57602002820191906000526020600020905b815473ffffffffffffffffffffffffffffffffffffffff168152600190910190602001808311611537575050505050905090565b6000818152601a60209081526040918290208054835181840281018401909452808452606093928301828280156114f157602002820191906000526020600020905b815473ffffffffffffffffffffffffffffffffffffffff1681526001909101906020018083116115ad5750505050509050919050565b60006115f089338a61351b565b806116325750600089815260186020908152604080832073ffffffffffffffffffffffffffffffffffffffff8c16845282528083203384529091529020548611155b611668576040517f08c379a0000000000000000000000000000000000000000000000000000000008152600401610a0690615b47565b600089815260186020908152604080832073ffffffffffffffffffffffffffffffffffffffff8c1684528252808320338452909152902054861161172557600089815260186020908152604080832073ffffffffffffffffffffffffffffffffffffffff8c16845282528083203384529091529020546116e890876130f0565b60008a815260186020908152604080832073ffffffffffffffffffffffffffffffffffffffff8d168452825280832033845290915290205561175e565b600089815260186020908152604080832073ffffffffffffffffffffffffffffffffffffffff8c16845282528083203384529091528120555b6117d689338a8a8a8a8a8080601f01602080910402602001604051908101604052809392919081815260200183838082843760009201919091525050604080516020601f8e018190048102820181019092528c815292508c91508b908190840183828082843760009201919091525061363392505050565b9998505050505050505050565b60005473ffffffffffffffffffffffffffffffffffffffff1690565b611807612e72565b73ffffffffffffffffffffffffffffffffffffffff166118256117e3565b73ffffffffffffffffffffffffffffffffffffffff1614611872576040517f08c379a0000000000000000000000000000000000000000000000000000000008152600401610a0690615ab5565b61187c82826137ca565b5050565b73ffffffffffffffffffffffffffffffffffffffff81163314156118a357600080fd5b73ffffffffffffffffffffffffffffffffffffffff8116600081815260156020908152604080832033808552925280832080547fffffffffffffffffffffffffffffffffffffffffffffffffffffffffffffff00166001179055519092917ff4caeb2d6ca8932a215a353d0703c326ec2d81fc68170f320eb2ab49e9df61f991a350565b611931338561303d565b8061196c575073ffffffffffffffffffffffffffffffffffffffff84166000908152600a602090815260408083203384529091529020548311155b6119a2576040517f08c379a0000000000000000000000000000000000000000000000000000000008152600401610a0690615b47565b73ffffffffffffffffffffffffffffffffffffffff84166000908152600a602090815260408083203384529091529020548311611a4a5773ffffffffffffffffffffffffffffffffffffffff84166000908152600a60209081526040808320338452909152902054611a1490846130f0565b73ffffffffffffffffffffffffffffffffffffffff85166000908152600a60209081526040808320338452909152902055611a7c565b73ffffffffffffffffffffffffffffffffffffffff84166000908152600a602090815260408083203384529091528120555b6110cc33858585858080601f01602080910402602001604051908101604052809392919081815260200183838082843760009201919091525061387d92505050565b611ac733611ee0565b80611b0b5750611ad5612e72565b73ffffffffffffffffffffffffffffffffffffffff16611af36117e3565b73ffffffffffffffffffffffffffffffffffffffff16145b611b1457600080fd5b61114081613a6d565b611482336132f7565b611b3185338661351b565b80611b735750600085815260186020908152604080832073ffffffffffffffffffffffffffffffffffffffff8816845282528083203384529091529020548311155b611ba9576040517f08c379a0000000000000000000000000000000000000000000000000000000008152600401610a06906159ea565b600085815260186020908152604080832073ffffffffffffffffffffffffffffffffffffffff8816845282528083203384529091529020548311611c6657600085815260186020908152604080832073ffffffffffffffffffffffffffffffffffffffff881684528252808320338452909152902054611c2990846130f0565b600086815260186020908152604080832073ffffffffffffffffffffffffffffffffffffffff891684528252808320338452909152902055611c9f565b600085815260186020908152604080832073ffffffffffffffffffffffffffffffffffffffff8816845282528083203384529091528120555b6112ba853386866040518060200160405280600081525087878080601f01602080910402602001604051908101604052809392919081815260200183838082843760009201919091525061334692505050565b6060600d8054806020026020016040519081016040528092919081815260200182805480156109ac57602002820191906000526020600020908154815260200190600101908083116112fb575050505050905090565b60009081526010602052604090205490565b611d62612e72565b73ffffffffffffffffffffffffffffffffffffffff16611d806117e3565b73ffffffffffffffffffffffffffffffffffffffff1614611dcd576040517f08c379a0000000000000000000000000000000000000000000000000000000008152600401610a0690615ab5565b611e128686868080601f016020809104026020016040519081016040528093929190818152602001838380828437600092019190915250889250879150869050613abc565b505050505050565b600080611e25613bdb565b905060007f8b73c3c69bb8fe3d512ecc4cf759cc79239f7b179b0ffacaa9a75d522b39400f611e52610924565b80519060200120611e61610e8a565b8051602091820120604051611e7c9493928791309101615705565b604080517fffffffffffffffffffffffffffffffffffffffffffffffffffffffffffffffe081840301815291905280516020909101209250505090565b6000611ed733338585604051806020016040528060008152506130fc565b50600192915050565b6000610a82600283613bdf565b6000818152600b602052604081208054606092918291611f0c90615d4b565b15159050611f1957600080fd5b6000848152600b602052604090206001810154600282015482548390611f3e90615d4b565b80601f0160208091040260200160405190810160405280929190818152602001828054611f6a90615d4b565b8015611fb75780601f10611f8c57610100808354040283529160200191611fb7565b820191906000526020600020905b815481529060010190602001808311611f9a57829003601f168201915b505050505092509250925092509193909250565b6000611fd7838361303d565b9392505050565b611fe733611ee0565b8061202b5750611ff5612e72565b73ffffffffffffffffffffffffffffffffffffffff166120136117e3565b73ffffffffffffffffffffffffffffffffffffffff16145b61203457600080fd5b60085462010000900460ff16612076576040517f08c379a0000000000000000000000000000000000000000000000000000000008152600401610a0690615a21565b6014546120af576040517f08c379a0000000000000000000000000000000000000000000000000000000008152600401610a0690615a21565b6110cc60146000815481106120ed577f4e487b7100000000000000000000000000000000000000000000000000000000600052603260045260246000fd5b906000526020600020015433868686868080601f01602080910402602001604051908101604052809392919081815260200183838082843760009201919091525061345792505050565b606060148054806020026020016040519081016040528092919081815260200182805480156109ac57602002820191906000526020600020908154815260200190600101908083116112fb575050505050905090565b3360009081526017602052604090205460ff166121d6576040517f08c379a0000000000000000000000000000000000000000000000000000000008152600401610a06906158b1565b6000818152600b6020526040902080546121ef90615d4b565b15159050612229576040517f08c379a0000000000000000000000000000000000000000000000000000000008152600401610a0690615bec565b6000818152600b602052604080822081516060810190925280548290829061225090615d4b565b80601f016020809104026020016040519081016040528092919081815260200182805461227c90615d4b565b80156122c95780601f1061229e576101008083540402835291602001916122c9565b820191906000526020600020905b8154815290600101906020018083116122ac57829003601f168201915b505050505081526020016001820154815260200160028201548152505090506000600c6000836020015181526020019081526020016000205490506000811161233e576040517f08c379a0000000000000000000000000000000000000000000000000000000008152600401610a069061597c565b600d80546000919061235290600190615d08565b81548110612389577f4e487b7100000000000000000000000000000000000000000000000000000000600052603260045260246000fd5b9060005260206000200154905080600d6001846123a69190615d08565b815481106123dd577f4e487b7100000000000000000000000000000000000000000000000000000000600052603260045260246000fd5b6000918252602080832090910192909255828152600c90915260409020829055600d805480612435577f4e487b7100000000000000000000000000000000000000000000000000000000600052603160045260246000fd5b6000828152602080822083017fffffffffffffffffffffffffffffffffffffffffffffffffffffffffffffffff908101839055909201909255848101518252600c81526040808320839055868352600b9091528120906124958282614dff565b506000600182018190556002909101558251602084015160405186927f3d9bba27d3e360d8c80645beed7e991454a8271bf6f269a24f7782be0f0d065492610916926157fc565b6124e4612e72565b73ffffffffffffffffffffffffffffffffffffffff166125026117e3565b73ffffffffffffffffffffffffffffffffffffffff161461254f576040517f08c379a0000000000000000000000000000000000000000000000000000000008152600401610a0690615ab5565b600880547fffffffffffffffffffffffffffffffffffffffffffffffffffffffffffff00ff169055565b73ffffffffffffffffffffffffffffffffffffffff9182166000908152600a6020908152604080832093909416825291909152205490565b610e4233338585858080601f01602080910402602001604051908101604052809392919081815260200183838082843760009201919091525061387d92505050565b60006016600081548110612630577f4e487b7100000000000000000000000000000000000000000000000000000000600052603260045260246000fd5b60009182526020909120015473ffffffffffffffffffffffffffffffffffffffff16905090565b61265f612e72565b73ffffffffffffffffffffffffffffffffffffffff1661267d6117e3565b73ffffffffffffffffffffffffffffffffffffffff16146126ca576040517f08c379a0000000000000000000000000000000000000000000000000000000008152600401610a0690615ab5565b61187c828280806020026020016040519081016040528093929190818152602001838360200280828437600092019190915250612ce592505050565b61270e612e72565b73ffffffffffffffffffffffffffffffffffffffff1661272c6117e3565b73ffffffffffffffffffffffffffffffffffffffff1614612779576040517f08c379a0000000000000000000000000000000000000000000000000000000008152600401610a0690615ab5565b610e4260148383614e3b565b61278f338661303d565b806127ca575073ffffffffffffffffffffffffffffffffffffffff85166000908152600a602090815260408083203384529091529020548311155b612800576040517f08c379a0000000000000000000000000000000000000000000000000000000008152600401610a0690615b47565b73ffffffffffffffffffffffffffffffffffffffff85166000908152600a6020908152604080832033845290915290205483116128a85773ffffffffffffffffffffffffffffffffffffffff85166000908152600a6020908152604080832033845290915290205461287290846130f0565b73ffffffffffffffffffffffffffffffffffffffff86166000908152600a602090815260408083203384529091529020556128da565b73ffffffffffffffffffffffffffffffffffffffff85166000908152600a602090815260408083203384529091528120555b6112ba3386868686868080601f0160208091040260200160405190810160405280939291908181526020018383808284376000920191909152506130fc92505050565b612925612e72565b73ffffffffffffffffffffffffffffffffffffffff166129436117e3565b73ffffffffffffffffffffffffffffffffffffffff1614612990576040517f08c379a0000000000000000000000000000000000000000000000000000000008152600401610a0690615ab5565b73ffffffffffffffffffffffffffffffffffffffff81166129dd576040517f08c379a0000000000000000000000000000000000000000000000000000000008152600401610a069061591f565b611140816135be565b6000612a3a863333888888888080601f016020809104026020016040519081016040528093929190818152602001838380828437600092018290525060408051602081019091529081529250613633915050565b9695505050505050565b6000612a4e613c5b565b905090565b73ffffffffffffffffffffffffffffffffffffffff8116331415612a7657600080fd5b73ffffffffffffffffffffffffffffffffffffffff8116600081815260156020908152604080832033808552925280832080547fffffffffffffffffffffffffffffffffffffffffffffffffffffffffffffff00169055519092917f50546e66e5f44d728365dc3908c63bc5cfeeab470722c1677e3073a6ac294aa191a350565b600082604051602001612b0a9190615551565b604080517fffffffffffffffffffffffffffffffffffffffffffffffffffffffffffffffe08184030181529082905280516020909101207f29965a1d0000000000000000000000000000000000000000000000000000000082529150731820a4b7618bde71dce8cdc73aab6c95905fad24906329965a1d90612b94903090859087906004016155dd565b600060405180830381600087803b158015612bae57600080fd5b505af1158015612bc2573d6000803e3d6000fd5b50505050505050565b600180600083604051602001612be19190615551565b604080518083037fffffffffffffffffffffffffffffffffffffffffffffffffffffffffffffffe001815291815281516020928301208352908201929092520160002080547fffffffffffffffffffffffffffffffffffffffffffffffffffffffffffffff001691151591909117905550565b612c5e8282613bdf565b15612c95576040517f08c379a0000000000000000000000000000000000000000000000000000000008152600401610a069061587a565b73ffffffffffffffffffffffffffffffffffffffff1660009081526020919091526040902080547fffffffffffffffffffffffffffffffffffffffffffffffffffffffffffffff00166001179055565b60005b601654811015612da35760006017600060168481548110612d32577f4e487b7100000000000000000000000000000000000000000000000000000000600052603260045260246000fd5b60009182526020808320919091015473ffffffffffffffffffffffffffffffffffffffff168352820192909252604001902080547fffffffffffffffffffffffffffffffffffffffffffffffffffffffffffffff001691151591909117905580612d9b81615d9f565b915050612ce8565b5060005b8151811015612e5e57600160176000848481518110612def577f4e487b7100000000000000000000000000000000000000000000000000000000600052603260045260246000fd5b60209081029190910181015173ffffffffffffffffffffffffffffffffffffffff16825281019190915260400160002080547fffffffffffffffffffffffffffffffffffffffffffffffffffffffffffffff001691151591909117905580612e5681615d9f565b915050612da7565b50805161187c906016906020840190614e76565b3390565b60005b6000838152601a6020526040902054811015612f54576000838152601b60209081526040808320601a9092528220805483919085908110612ee3577f4e487b7100000000000000000000000000000000000000000000000000000000600052603260045260246000fd5b60009182526020808320919091015473ffffffffffffffffffffffffffffffffffffffff168352820192909252604001902080547fffffffffffffffffffffffffffffffffffffffffffffffffffffffffffffff001691151591909117905580612f4c81615d9f565b915050612e79565b5060005b815181101561301d576000838152601b60205260408120835160019290859085908110612fae577f4e487b7100000000000000000000000000000000000000000000000000000000600052603260045260246000fd5b60209081029190910181015173ffffffffffffffffffffffffffffffffffffffff16825281019190915260400160002080547fffffffffffffffffffffffffffffffffffffffffffffffffffffffffffffff00169115159190911790558061301581615d9f565b915050612f58565b506000828152601a602090815260409091208251610e4292840190614e76565b60008173ffffffffffffffffffffffffffffffffffffffff168373ffffffffffffffffffffffffffffffffffffffff1614806130ab575073ffffffffffffffffffffffffffffffffffffffff80841660009081526015602090815260408083209386168352929052205460ff165b80611fd75750600854610100900460ff168015611fd75750505073ffffffffffffffffffffffffffffffffffffffff1660009081526017602052604090205460ff1690565b6000611fd78284615d08565b601454613135576040517f08c379a0000000000000000000000000000000000000000000000000000000008152600401610a0690615a21565b816000805b6014548110156132be5773ffffffffffffffffffffffffffffffffffffffff8716600090815260136020526040812060148054919291849081106131a7577f4e487b7100000000000000000000000000000000000000000000000000000000600052603260045260246000fd5b906000526020600020015481526020019081526020016000205491508183116132365761322c60148281548110613207577f4e487b7100000000000000000000000000000000000000000000000000000000600052603260045260246000fd5b9060005260206000200154898989878960405180602001604052806000815250613633565b50600092506132be565b81156132ac5761329e60148281548110613279577f4e487b7100000000000000000000000000000000000000000000000000000000600052603260045260246000fd5b9060005260206000200154898989868960405180602001604052806000815250613633565b506132a98284615d08565b92505b806132b681615d9f565b91505061313a565b508115612bc2576040517f08c379a0000000000000000000000000000000000000000000000000000000008152600401610a0690615b7e565b613302600282613c98565b60405173ffffffffffffffffffffffffffffffffffffffff8216907fe94479a9f7e1952cc78f2d6baab678adc1b772d936c6583def489e524cb6669290600090a250565b73ffffffffffffffffffffffffffffffffffffffff841660009081526013602090815260408083208984529091529020548311156133b0576040517f08c379a0000000000000000000000000000000000000000000000000000000008152600401610a0690615b7e565b6133c08686866000878787613d25565b6133d08686866000878787613e24565b6133db848785613ee6565b6133e785858585614367565b8373ffffffffffffffffffffffffffffffffffffffff168573ffffffffffffffffffffffffffffffffffffffff16877fce306c3dbc4a497124b5a4f2be8388b41084c1d74663da27ecee1186c00239bf8685604051613447929190615c23565b60405180910390a4505050505050565b6134768585600086868660405180602001604052806000815250613e24565b613482848484846145cb565b61348d83868461479b565b6134ac858560008686866040518060200160405280600081525061490d565b8273ffffffffffffffffffffffffffffffffffffffff168473ffffffffffffffffffffffffffffffffffffffff16867ff0ded82afbb1bb3ff3fc48cb2a26584aa84e4af0bf309c804ecdb94d0f6a98bb858560405161350c929190615c3c565b60405180910390a45050505050565b6000613527838361303d565b8061356c575073ffffffffffffffffffffffffffffffffffffffff808316600090815260196020908152604080832088845282528083209387168352929052205460ff165b806113c25750600854610100900460ff1680156113c2575050506000918252601b6020908152604080842073ffffffffffffffffffffffffffffffffffffffff93909316845291905290205460ff1690565b6000805473ffffffffffffffffffffffffffffffffffffffff8381167fffffffffffffffffffffffff0000000000000000000000000000000000000000831681178455604051919092169283917f8be0079c531659141344cd1fd0a4f28419497f9722a3daafe3b4186f6b6457e09190a35050565b73ffffffffffffffffffffffffffffffffffffffff851660009081526013602090815260408083208a845290915281205484111561369d576040517f08c379a0000000000000000000000000000000000000000000000000000000008152600401610a0690615b7e565b81518890158015906136b157506040845110155b156136c3576136c089856149cf565b90505b6136d289898989898989613d25565b6136e189898989898989613e24565b6136ec878a87613ee6565b6136f7878787614a19565b61370286828761479b565b6137118189898989898961490d565b8573ffffffffffffffffffffffffffffffffffffffff168773ffffffffffffffffffffffffffffffffffffffff168a7fff4e9a26af4eb73b8bacfaa4abd4fea03d9448e7b912dc5ff4019048875aa2d48b898989604051613775949392919061560d565b60405180910390a48881146137be5780897f67c8ba31d2dd11f1384577b3405b04ed91eed1231e408432ad2458cab37b2fa1876040516137b591906156fc565b60405180910390a35b98975050505050505050565b6138096040518060400160405280600a81526020017f4552433230546f6b656e0000000000000000000000000000000000000000000081525083612af7565b6138486040518060400160405280600c81526020017f45524331343030546f6b656e000000000000000000000000000000000000000081525083612af7565b801561187c57600880547fffffffffffffffffffffffffffffffffffffffffffffffffffffffffffffff001660011790555050565b6014546138b6576040517f08c379a0000000000000000000000000000000000000000000000000000000008152600401610a0690615a21565b816000805b601454811015613a345773ffffffffffffffffffffffffffffffffffffffff861660009081526013602052604081206014805491929184908110613928577f4e487b7100000000000000000000000000000000000000000000000000000000600052603260045260246000fd5b906000526020600020015481526020019081526020016000205491508183116139b5576139ac60148281548110613988577f4e487b7100000000000000000000000000000000000000000000000000000000600052603260045260246000fd5b90600052602060002001548888868860405180602001604052806000815250613346565b60009250613a34565b613a16601482815481106139f2577f4e487b7100000000000000000000000000000000000000000000000000000000600052603260045260246000fd5b90600052602060002001548888858860405180602001604052806000815250613346565b613a208284615d08565b925080613a2c81615d9f565b9150506138bb565b508115611e12576040517f08c379a0000000000000000000000000000000000000000000000000000000008152600401610a0690615b7e565b613a78600282612c54565b60405173ffffffffffffffffffffffffffffffffffffffff8216907f6ae172837ea30b801fbfcdd4108aa1d5bf8ff775444fd70256b44e6bf3dfc3f690600090a250565b6000613ac83086614c19565b905073ffffffffffffffffffffffffffffffffffffffff811615801590613aec5750835b15613b5457613afa81611ee0565b15613b0857613b08816132f7565b73ffffffffffffffffffffffffffffffffffffffff8116600090815260176020526040902080547fffffffffffffffffffffffffffffffffffffffffffffffffffffffffffffff001690555b613b5e8587612af7565b828015613b715750613b6f86611ee0565b155b15613b7f57613b7f86613a6d565b8115611e125773ffffffffffffffffffffffffffffffffffffffff8616600090815260176020526040902080547fffffffffffffffffffffffffffffffffffffffffffffffffffffffffffffff00166001179055505050505050565b4690565b600073ffffffffffffffffffffffffffffffffffffffff8216613c2e576040517f08c379a0000000000000000000000000000000000000000000000000000000008152600401610a0690615aea565b5073ffffffffffffffffffffffffffffffffffffffff166000908152602091909152604090205460ff1690565b60008060036000613c6a613bdb565b815260208101919091526040016000205490508015613c8a5790506109b4565b613c92614d05565b91505090565b613ca28282613bdf565b613cd8576040517f08c379a0000000000000000000000000000000000000000000000000000000008152600401610a0690615a58565b73ffffffffffffffffffffffffffffffffffffffff1660009081526020919091526040902080547fffffffffffffffffffffffffffffffffffffffffffffffffffffffffffffff00169055565b6000613d66866040518060400160405280601381526020017f45524331343030546f6b656e7353656e64657200000000000000000000000000815250614c19565b905073ffffffffffffffffffffffffffffffffffffffff811615613e1a576040517f4e755a5400000000000000000000000000000000000000000000000000000000815273ffffffffffffffffffffffffffffffffffffffff821690634e755a5490613de79060009036908d908d908d908d908d908d908d9060040161573e565b600060405180830381600087803b158015613e0157600080fd5b505af1158015613e15573d6000803e3d6000fd5b505050505b5050505050505050565b6000613e65306040518060400160405280601681526020017f45524331343030546f6b656e7356616c696461746f7200000000000000000000815250614c19565b905073ffffffffffffffffffffffffffffffffffffffff811615613e1a576040517f520faa7600000000000000000000000000000000000000000000000000000000815273ffffffffffffffffffffffffffffffffffffffff82169063520faa7690613de79060009036908d908d908d908d908d908d908d9060040161573e565b73ffffffffffffffffffffffffffffffffffffffff83166000908152601360209081526040808320858452909152902054613f2190826130f0565b73ffffffffffffffffffffffffffffffffffffffff84166000908152601360209081526040808320868452825280832093909355601090522054613f6590826130f0565b60008381526010602052604090208190556140ff576000828152600f602052604090205480613fc0576040517f08c379a0000000000000000000000000000000000000000000000000000000008152600401610a06906158e8565b600e805460009190613fd490600190615d08565b8154811061400b577f4e487b7100000000000000000000000000000000000000000000000000000000600052603260045260246000fd5b9060005260206000200154905080600e6001846140289190615d08565b8154811061405f577f4e487b7100000000000000000000000000000000000000000000000000000000600052603260045260246000fd5b6000918252602080832090910192909255828152600f90915260409020829055600e8054806140b7577f4e487b7100000000000000000000000000000000000000000000000000000000600052603160045260246000fd5b6000828152602080822083017fffffffffffffffffffffffffffffffffffffffffffffffffffffffffffffffff908101839055909201909255858252600f9052604081205550505b73ffffffffffffffffffffffffffffffffffffffff83166000908152601360209081526040808320858452909152902054610e425773ffffffffffffffffffffffffffffffffffffffff831660009081526012602090815260408083208584529091529020548061419c576040517f08c379a0000000000000000000000000000000000000000000000000000000008152600401610a06906158e8565b73ffffffffffffffffffffffffffffffffffffffff8416600090815260116020526040812080546141cf90600190615d08565b81548110614206577f4e487b7100000000000000000000000000000000000000000000000000000000600052603260045260246000fd5b600091825260208083209091015473ffffffffffffffffffffffffffffffffffffffff88168352601190915260409091209091508190614247600185615d08565b8154811061427e577f4e487b7100000000000000000000000000000000000000000000000000000000600052603260045260246000fd5b600091825260208083209091019290925573ffffffffffffffffffffffffffffffffffffffff871680825260128352604080832085845284528083208690559082526011909252208054806142fc577f4e487b7100000000000000000000000000000000000000000000000000000000600052603160045260246000fd5b6000828152602080822083017fffffffffffffffffffffffffffffffffffffffffffffffffffffffffffffffff90810183905590920190925573ffffffffffffffffffffffffffffffffffffffff871682526012815260408083208784529091528120555050505050565b60085460ff16156143a4576040517f08c379a0000000000000000000000000000000000000000000000000000000008152600401610a0690615843565b6143ad82614d34565b6143e3576040517f08c379a0000000000000000000000000000000000000000000000000000000008152600401610a06906158e8565b73ffffffffffffffffffffffffffffffffffffffff8316614430576040517f08c379a0000000000000000000000000000000000000000000000000000000008152600401610a06906159b3565b73ffffffffffffffffffffffffffffffffffffffff831660009081526009602052604090205482111561448f576040517f08c379a0000000000000000000000000000000000000000000000000000000008152600401610a0690615b7e565b73ffffffffffffffffffffffffffffffffffffffff83166000908152600960205260409020546144bf90836130f0565b73ffffffffffffffffffffffffffffffffffffffff84166000908152600960205260409020556007546144f290836130f0565b6007819055508273ffffffffffffffffffffffffffffffffffffffff168473ffffffffffffffffffffffffffffffffffffffff167fb7d0d6b60740753e9f16692a2f479472a1385aec2420fa43225b02f2ffa1afe78484604051614557929190615c23565b60405180910390a3600073ffffffffffffffffffffffffffffffffffffffff168373ffffffffffffffffffffffffffffffffffffffff167fddf252ad1be2c89b69c2b068fc378daa952ba7f163c4a11628f55a4df523b3ef846040516145bd91906156fc565b60405180910390a350505050565b60085460ff1615614608576040517f08c379a0000000000000000000000000000000000000000000000000000000008152600401610a0690615843565b61461182614d34565b614647576040517f08c379a0000000000000000000000000000000000000000000000000000000008152600401610a06906158e8565b73ffffffffffffffffffffffffffffffffffffffff8316614694576040517f08c379a0000000000000000000000000000000000000000000000000000000008152600401610a0690615bb5565b6007546146a19083614d57565b60075573ffffffffffffffffffffffffffffffffffffffff83166000908152600960205260409020546146d49083614d57565b73ffffffffffffffffffffffffffffffffffffffff80851660008181526009602052604090819020939093559151908616907f0e9905d62635f049c2f4e11678ebf9dc3d1f8c4a653e290759b772e47ba00d00906147359086908690615c23565b60405180910390a38273ffffffffffffffffffffffffffffffffffffffff16600073ffffffffffffffffffffffffffffffffffffffff167fddf252ad1be2c89b69c2b068fc378daa952ba7f163c4a11628f55a4df523b3ef846040516145bd91906156fc565b8015610e425773ffffffffffffffffffffffffffffffffffffffff831660009081526012602090815260408083208584529091529020546148275773ffffffffffffffffffffffffffffffffffffffff83166000818152601160209081526040808320805460018101825581855283852001879055938352925460128252838320868452909152919020555b73ffffffffffffffffffffffffffffffffffffffff831660009081526013602090815260408083208584529091529020546148629082614d57565b73ffffffffffffffffffffffffffffffffffffffff84166000908152601360209081526040808320868452825280832093909355600f905220546148e057600e80546001810182557fbb7b4a454dc3493923482f07822329ed19e8244eff582cc204f8554c3620c3fd01839055546000838152600f60205260409020555b6000828152601060205260409020546148f99082614d57565b600083815260106020526040902055505050565b600061494e856040518060400160405280601681526020017f45524331343030546f6b656e73526563697069656e7400000000000000000000815250614c19565b905073ffffffffffffffffffffffffffffffffffffffff811615613e1a576040517ff464b57600000000000000000000000000000000000000000000000000000000815273ffffffffffffffffffffffffffffffffffffffff82169063f464b57690613de79060009036908d908d908d908d908d908d908d9060040161573e565b60208101516000907fffffffffffffffffffffffffffffffffffffffffffffffffffffffffffffffff9080821415614a0d5760408401519250614a11565b8492505b505092915050565b60085460ff1615614a56576040517f08c379a0000000000000000000000000000000000000000000000000000000008152600401610a0690615843565b614a5f81614d34565b614a95576040517f08c379a0000000000000000000000000000000000000000000000000000000008152600401610a06906158e8565b73ffffffffffffffffffffffffffffffffffffffff8216614ae2576040517f08c379a0000000000000000000000000000000000000000000000000000000008152600401610a0690615bb5565b73ffffffffffffffffffffffffffffffffffffffff8316600090815260096020526040902054811115614b41576040517f08c379a0000000000000000000000000000000000000000000000000000000008152600401610a0690615b7e565b73ffffffffffffffffffffffffffffffffffffffff8316600090815260096020526040902054614b7190826130f0565b73ffffffffffffffffffffffffffffffffffffffff8085166000908152600960205260408082209390935590841681522054614bad9082614d57565b73ffffffffffffffffffffffffffffffffffffffff80841660008181526009602052604090819020939093559151908516907fddf252ad1be2c89b69c2b068fc378daa952ba7f163c4a11628f55a4df523b3ef90614c0c9085906156fc565b60405180910390a3505050565b60008082604051602001614c2d9190615551565b604080517fffffffffffffffffffffffffffffffffffffffffffffffffffffffffffffffe08184030181529082905280516020909101207faabbb8ca0000000000000000000000000000000000000000000000000000000082529150731820a4b7618bde71dce8cdc73aab6c95905fad249063aabbb8ca90614cb590879085906004016155b7565b60206040518083038186803b158015614ccd57600080fd5b505afa158015614ce1573d6000803e3d6000fd5b505050506040513d601f19601f820116820180604052508101906113c29190614fba565b600080614d10613bdb565b90506000614d1c611e1a565b60009283526003602052604090922082905550905090565b6006546000908290614d5090614d4a8382614d63565b90614d6f565b1492915050565b6000611fd78284615c7a565b6000611fd78284615c92565b6000611fd78284615ccb565b828054614d8790615d4b565b90600052602060002090601f016020900481019282614da95760008555614def565b82601f10614dc257805160ff1916838001178555614def565b82800160010185558215614def579182015b82811115614def578251825591602001919060010190614dd4565b50614dfb929150614ef0565b5090565b508054614e0b90615d4b565b6000825580601f10614e1d5750611140565b601f0160209004906000526020600020908101906111409190614ef0565b828054828255906000526020600020908101928215614def579160200282015b82811115614def578235825591602001919060010190614e5b565b828054828255906000526020600020908101928215614def579160200282015b82811115614def57825182547fffffffffffffffffffffffff00000000000000000000000000000000000000001673ffffffffffffffffffffffffffffffffffffffff909116178255602090920191600190910190614e96565b5b80821115614dfb5760008155600101614ef1565b60008083601f840112614f16578182fd5b50813567ffffffffffffffff811115614f2d578182fd5b6020830191508360208083028501011115614f4757600080fd5b9250929050565b8035801515811461140057600080fd5b60008083601f840112614f6f578182fd5b50813567ffffffffffffffff811115614f86578182fd5b602083019150836020828501011115614f4757600080fd5b600060208284031215614faf578081fd5b8135611fd781615e07565b600060208284031215614fcb578081fd5b8151611fd781615e07565b60008060408385031215614fe8578081fd5b8235614ff381615e07565b9150602083013561500381615e07565b809150509250929050565b600080600060608486031215615022578081fd5b833561502d81615e07565b9250602084013561503d81615e07565b929592945050506040919091013590565b600080600080600060808688031215615065578081fd5b853561507081615e07565b9450602086013561508081615e07565b935060408601359250606086013567ffffffffffffffff8111156150a2578182fd5b6150ae88828901614f5e565b969995985093965092949392505050565b600080604083850312156150d1578182fd5b82356150dc81615e07565b91506150ea60208401614f4e565b90509250929050565b60008060008060008060a0878903121561510b578081fd5b863561511681615e07565b9550602087013567ffffffffffffffff811115615131578182fd5b61513d89828a01614f5e565b9096509450615150905060408801614f4e565b925061515e60608801614f4e565b915061516c60808801614f4e565b90509295509295509295565b6000806040838503121561518a578182fd5b823561519581615e07565b946020939093013593505050565b600080600080606085870312156151b8578384fd5b84356151c381615e07565b935060208501359250604085013567ffffffffffffffff8111156151e5578283fd5b6151f187828801614f5e565b95989497509550505050565b6000806020838503121561520f578182fd5b823567ffffffffffffffff811115615225578283fd5b61523185828601614f05565b90969095509350505050565b60006020828403121561524e578081fd5b5035919050565b60008060408385031215615267578182fd5b82359150602083013561500381615e07565b60008060006060848603121561528d578081fd5b83359250602084013561529f81615e07565b915060408401356152af81615e07565b809150509250925092565b60008060008060008060008060c0898b0312156152d5578586fd5b8835975060208901356152e781615e07565b965060408901356152f781615e07565b955060608901359450608089013567ffffffffffffffff8082111561531a578384fd5b6153268c838d01614f5e565b909650945060a08b013591508082111561533e578384fd5b5061534b8b828c01614f5e565b999c989b5096995094979396929594505050565b600080600060608486031215615373578081fd5b83359250602084013561503d81615e07565b60008060008060006080868803121561539c578283fd5b85359450602086013561508081615e07565b6000806000604084860312156153c2578081fd5b83359250602084013567ffffffffffffffff8111156153df578182fd5b6153eb86828701614f05565b9497909650939450505050565b6000806000806060858703121561540d578182fd5b84359350602085013567ffffffffffffffff81111561542a578283fd5b61543687828801614f5e565b9598909750949560400135949350505050565b6000806000806060858703121561545e578182fd5b8435935060208501359250604085013567ffffffffffffffff8111156151e5578283fd5b600080600060408486031215615496578081fd5b83359250602084013567ffffffffffffffff8111156154b3578182fd5b6153eb86828701614f5e565b600082845282826020860137806020848601015260207fffffffffffffffffffffffffffffffffffffffffffffffffffffffffffffffe0601f85011685010190509392505050565b6000815180845261551f816020860160208601615d1f565b601f017fffffffffffffffffffffffffffffffffffffffffffffffffffffffffffffffe0169290920160200192915050565b60008251615563818460208701615d1f565b9190910192915050565b7f455243313832305f4143434550545f4d41474943000000000000000000000000815260140190565b73ffffffffffffffffffffffffffffffffffffffff91909116815260200190565b73ffffffffffffffffffffffffffffffffffffffff929092168252602082015260400190565b73ffffffffffffffffffffffffffffffffffffffff93841681526020810192909252909116604082015260600190565b600073ffffffffffffffffffffffffffffffffffffffff86168252846020830152608060408301526156426080830185615507565b82810360608401526156548185615507565b979650505050505050565b6020808252825182820181905260009190848201906040850190845b818110156156ad57835173ffffffffffffffffffffffffffffffffffffffff168352928401929184019160010161567b565b50909695505050505050565b6020808252825182820181905260009190848201906040850190845b818110156156ad578351835292840192918401916001016156d5565b901515815260200190565b90815260200190565b94855260208501939093526040840191909152606083015273ffffffffffffffffffffffffffffffffffffffff16608082015260a00190565b60006101008083526157538184018c8e6154bf565b905089602084015273ffffffffffffffffffffffffffffffffffffffff808a16604085015280891660608501528088166080850152508560a084015282810360c08401526157a18186615507565b905082810360e08401526157b58185615507565b9c9b505050505050505050505050565b6000604082526157d96040830185876154bf565b9050826020830152949350505050565b600060208252611fd76020830184615507565b60006040825261580f6040830185615507565b90508260208301529392505050565b6000606082526158316060830186615507565b60208301949094525060400152919050565b60208082526002908201527f3534000000000000000000000000000000000000000000000000000000000000604082015260600190565b6020808252601f908201527f526f6c65733a206163636f756e7420616c72656164792068617320726f6c6500604082015260600190565b6020808252600c908201527f556e617574686f72697a65640000000000000000000000000000000000000000604082015260600190565b60208082526002908201527f3530000000000000000000000000000000000000000000000000000000000000604082015260600190565b60208082526026908201527f4f776e61626c653a206e6577206f776e657220697320746865207a65726f206160408201527f6464726573730000000000000000000000000000000000000000000000000000606082015260800190565b6020808252600d908201527f496e76616c696420696e64657800000000000000000000000000000000000000604082015260600190565b60208082526002908201527f3536000000000000000000000000000000000000000000000000000000000000604082015260600190565b60208082526002908201527f3538000000000000000000000000000000000000000000000000000000000000604082015260600190565b60208082526002908201527f3535000000000000000000000000000000000000000000000000000000000000604082015260600190565b60208082526021908201527f526f6c65733a206163636f756e7420646f6573206e6f74206861766520726f6c60408201527f6500000000000000000000000000000000000000000000000000000000000000606082015260800190565b6020808252818101527f4f776e61626c653a2063616c6c6572206973206e6f7420746865206f776e6572604082015260600190565b60208082526022908201527f526f6c65733a206163636f756e7420697320746865207a65726f20616464726560408201527f7373000000000000000000000000000000000000000000000000000000000000606082015260800190565b60208082526002908201527f3533000000000000000000000000000000000000000000000000000000000000604082015260600190565b60208082526002908201527f3532000000000000000000000000000000000000000000000000000000000000604082015260600190565b60208082526002908201527f3537000000000000000000000000000000000000000000000000000000000000604082015260600190565b60208082526015908201527f446f63756d656e7420646f65736e742065786973740000000000000000000000604082015260600190565b6000838252604060208301526113c26040830184615507565b600083825260606020830152615c556060830184615507565b828103604090930192909252815260200192915050565b60ff91909116815260200190565b60008219821115615c8d57615c8d615dd8565b500190565b600082615cc6577f4e487b710000000000000000000000000000000000000000000000000000000081526012600452602481fd5b500490565b6000817fffffffffffffffffffffffffffffffffffffffffffffffffffffffffffffffff0483118215151615615d0357615d03615dd8565b500290565b600082821015615d1a57615d1a615dd8565b500390565b60005b83811015615d3a578181015183820152602001615d22565b838111156110cc5750506000910152565b600281046001821680615d5f57607f821691505b60208210811415615d99577f4e487b7100000000000000000000000000000000000000000000000000000000600052602260045260246000fd5b50919050565b60007fffffffffffffffffffffffffffffffffffffffffffffffffffffffffffffffff821415615dd157615dd1615dd8565b5060010190565b7f4e487b7100000000000000000000000000000000000000000000000000000000600052601160045260246000fd5b73ffffffffffffffffffffffffffffffffffffffff8116811461114057600080fdfea264697066735822122027b8a591761378147dcde66f586557e159b06a190a33a4425f64b04efbbaf5d564736f6c63430008010033a2646970667358221220fe6e536fd7dbff922d70efd1b5aa131e7052affd0b090e99ce391451edc0051f64736f6c63430008010033",
  "devdoc": {
    "kind": "dev",
    "methods": {},
    "version": 1
  },
  "userdoc": {
    "kind": "user",
    "methods": {},
    "version": 1
  },
  "storageLayout": {
    "storage": [
      {
        "astId": 8643,
        "contract": "contracts/capTable/CapTableFactory.sol:CapTableFactory",
        "label": "_capTableRegistry",
        "offset": 0,
        "slot": "0",
        "type": "t_contract(CapTableRegistry)9379"
      },
      {
        "astId": 8645,
        "contract": "contracts/capTable/CapTableFactory.sol:CapTableFactory",
        "label": "_defaultGranularity",
        "offset": 0,
        "slot": "1",
        "type": "t_uint256"
      },
      {
        "astId": 8647,
        "contract": "contracts/capTable/CapTableFactory.sol:CapTableFactory",
        "label": "_defaultOwner",
        "offset": 0,
        "slot": "2",
        "type": "t_address"
      },
      {
        "astId": 8650,
        "contract": "contracts/capTable/CapTableFactory.sol:CapTableFactory",
        "label": "_defaultPartitions",
        "offset": 0,
        "slot": "3",
        "type": "t_array(t_bytes32)dyn_storage"
      },
      {
        "astId": 8652,
        "contract": "contracts/capTable/CapTableFactory.sol:CapTableFactory",
        "label": "_defaultIssueData",
        "offset": 0,
        "slot": "4",
        "type": "t_bytes32"
      }
    ],
    "types": {
      "t_address": {
        "encoding": "inplace",
        "label": "address",
        "numberOfBytes": "20"
      },
      "t_array(t_bytes32)dyn_storage": {
        "base": "t_bytes32",
        "encoding": "dynamic_array",
        "label": "bytes32[]",
        "numberOfBytes": "32"
      },
      "t_bytes32": {
        "encoding": "inplace",
        "label": "bytes32",
        "numberOfBytes": "32"
      },
      "t_contract(CapTableRegistry)9379": {
        "encoding": "inplace",
        "label": "contract CapTableRegistry",
        "numberOfBytes": "20"
      },
      "t_uint256": {
        "encoding": "inplace",
        "label": "uint256",
        "numberOfBytes": "32"
      }
    }
  }
}