{
  "address": "0xA9071ebf0ab9D158f017C28adCF0cD2Ab9AA8DaD",
  "abi": [
    {
      "inputs": [
        {
          "internalType": "string",
          "name": "name",
          "type": "string"
        },
        {
          "internalType": "string",
          "name": "orgnr",
          "type": "string"
        },
        {
          "internalType": "uint256",
          "name": "granularity",
          "type": "uint256"
        },
        {
          "internalType": "address[]",
          "name": "controllers",
          "type": "address[]"
        },
        {
          "internalType": "bytes32[]",
          "name": "defaultPartitions",
          "type": "bytes32[]"
        },
        {
          "internalType": "address",
          "name": "capTableRegistry",
          "type": "address"
        }
      ],
      "stateMutability": "nonpayable",
      "type": "constructor"
    },
    {
      "anonymous": false,
      "inputs": [
        {
          "indexed": true,
          "internalType": "address",
          "name": "owner",
          "type": "address"
        },
        {
          "indexed": true,
          "internalType": "address",
          "name": "spender",
          "type": "address"
        },
        {
          "indexed": false,
          "internalType": "uint256",
          "name": "value",
          "type": "uint256"
        }
      ],
      "name": "Approval",
      "type": "event"
    },
    {
      "anonymous": false,
      "inputs": [
        {
          "indexed": true,
          "internalType": "bytes32",
          "name": "partition",
          "type": "bytes32"
        },
        {
          "indexed": true,
          "internalType": "address",
          "name": "owner",
          "type": "address"
        },
        {
          "indexed": true,
          "internalType": "address",
          "name": "spender",
          "type": "address"
        },
        {
          "indexed": false,
          "internalType": "uint256",
          "name": "value",
          "type": "uint256"
        }
      ],
      "name": "ApprovalByPartition",
      "type": "event"
    },
    {
      "anonymous": false,
      "inputs": [
        {
          "indexed": true,
          "internalType": "address",
          "name": "operator",
          "type": "address"
        },
        {
          "indexed": true,
          "internalType": "address",
          "name": "tokenHolder",
          "type": "address"
        }
      ],
      "name": "AuthorizedOperator",
      "type": "event"
    },
    {
      "anonymous": false,
      "inputs": [
        {
          "indexed": true,
          "internalType": "bytes32",
          "name": "partition",
          "type": "bytes32"
        },
        {
          "indexed": true,
          "internalType": "address",
          "name": "operator",
          "type": "address"
        },
        {
          "indexed": true,
          "internalType": "address",
          "name": "tokenHolder",
          "type": "address"
        }
      ],
      "name": "AuthorizedOperatorByPartition",
      "type": "event"
    },
    {
      "anonymous": false,
      "inputs": [
        {
          "indexed": true,
          "internalType": "string",
          "name": "orgnr",
          "type": "string"
        },
        {
          "indexed": true,
          "internalType": "address",
          "name": "oldFagsystem",
          "type": "address"
        },
        {
          "indexed": true,
          "internalType": "address",
          "name": "newFagsystem",
          "type": "address"
        }
      ],
      "name": "CaptableChangedFagsystem",
      "type": "event"
    },
    {
      "anonymous": false,
      "inputs": [
        {
          "indexed": true,
          "internalType": "bytes32",
          "name": "fromPartition",
          "type": "bytes32"
        },
        {
          "indexed": true,
          "internalType": "bytes32",
          "name": "toPartition",
          "type": "bytes32"
        },
        {
          "indexed": false,
          "internalType": "uint256",
          "name": "value",
          "type": "uint256"
        }
      ],
      "name": "ChangedPartition",
      "type": "event"
    },
    {
      "anonymous": false,
      "inputs": [
        {
          "indexed": true,
          "internalType": "bytes32",
          "name": "name",
          "type": "bytes32"
        },
        {
          "indexed": false,
          "internalType": "string",
          "name": "uri",
          "type": "string"
        },
        {
          "indexed": false,
          "internalType": "bytes32",
          "name": "documentHash",
          "type": "bytes32"
        }
      ],
      "name": "DocumentRemoved",
      "type": "event"
    },
    {
      "anonymous": false,
      "inputs": [
        {
          "indexed": true,
          "internalType": "bytes32",
          "name": "name",
          "type": "bytes32"
        },
        {
          "indexed": false,
          "internalType": "string",
          "name": "uri",
          "type": "string"
        },
        {
          "indexed": false,
          "internalType": "bytes32",
          "name": "documentHash",
          "type": "bytes32"
        }
      ],
      "name": "DocumentUpdated",
      "type": "event"
    },
    {
      "anonymous": false,
      "inputs": [
        {
          "indexed": true,
          "internalType": "address",
          "name": "operator",
          "type": "address"
        },
        {
          "indexed": true,
          "internalType": "address",
          "name": "to",
          "type": "address"
        },
        {
          "indexed": false,
          "internalType": "uint256",
          "name": "value",
          "type": "uint256"
        },
        {
          "indexed": false,
          "internalType": "bytes",
          "name": "data",
          "type": "bytes"
        }
      ],
      "name": "Issued",
      "type": "event"
    },
    {
      "anonymous": false,
      "inputs": [
        {
          "indexed": true,
          "internalType": "bytes32",
          "name": "partition",
          "type": "bytes32"
        },
        {
          "indexed": true,
          "internalType": "address",
          "name": "operator",
          "type": "address"
        },
        {
          "indexed": true,
          "internalType": "address",
          "name": "to",
          "type": "address"
        },
        {
          "indexed": false,
          "internalType": "uint256",
          "name": "value",
          "type": "uint256"
        },
        {
          "indexed": false,
          "internalType": "bytes",
          "name": "data",
          "type": "bytes"
        },
        {
          "indexed": false,
          "internalType": "bytes",
          "name": "operatorData",
          "type": "bytes"
        }
      ],
      "name": "IssuedByPartition",
      "type": "event"
    },
    {
      "anonymous": false,
      "inputs": [
        {
          "indexed": true,
          "internalType": "address",
          "name": "account",
          "type": "address"
        }
      ],
      "name": "MinterAdded",
      "type": "event"
    },
    {
      "anonymous": false,
      "inputs": [
        {
          "indexed": true,
          "internalType": "address",
          "name": "account",
          "type": "address"
        }
      ],
      "name": "MinterRemoved",
      "type": "event"
    },
    {
      "anonymous": false,
      "inputs": [
        {
          "indexed": true,
          "internalType": "string",
          "name": "orgnr",
          "type": "string"
        },
        {
          "indexed": true,
          "internalType": "address",
          "name": "fagsystem",
          "type": "address"
        }
      ],
      "name": "NewCapTable",
      "type": "event"
    },
    {
      "anonymous": false,
      "inputs": [
        {
          "indexed": true,
          "internalType": "address",
          "name": "previousOwner",
          "type": "address"
        },
        {
          "indexed": true,
          "internalType": "address",
          "name": "newOwner",
          "type": "address"
        }
      ],
      "name": "OwnershipTransferred",
      "type": "event"
    },
    {
      "anonymous": false,
      "inputs": [
        {
          "indexed": true,
          "internalType": "address",
          "name": "operator",
          "type": "address"
        },
        {
          "indexed": true,
          "internalType": "address",
          "name": "from",
          "type": "address"
        },
        {
          "indexed": false,
          "internalType": "uint256",
          "name": "value",
          "type": "uint256"
        },
        {
          "indexed": false,
          "internalType": "bytes",
          "name": "data",
          "type": "bytes"
        }
      ],
      "name": "Redeemed",
      "type": "event"
    },
    {
      "anonymous": false,
      "inputs": [
        {
          "indexed": true,
          "internalType": "bytes32",
          "name": "partition",
          "type": "bytes32"
        },
        {
          "indexed": true,
          "internalType": "address",
          "name": "operator",
          "type": "address"
        },
        {
          "indexed": true,
          "internalType": "address",
          "name": "from",
          "type": "address"
        },
        {
          "indexed": false,
          "internalType": "uint256",
          "name": "value",
          "type": "uint256"
        },
        {
          "indexed": false,
          "internalType": "bytes",
          "name": "operatorData",
          "type": "bytes"
        }
      ],
      "name": "RedeemedByPartition",
      "type": "event"
    },
    {
      "anonymous": false,
      "inputs": [
        {
          "indexed": true,
          "internalType": "address",
          "name": "operator",
          "type": "address"
        },
        {
          "indexed": true,
          "internalType": "address",
          "name": "tokenHolder",
          "type": "address"
        }
      ],
      "name": "RevokedOperator",
      "type": "event"
    },
    {
      "anonymous": false,
      "inputs": [
        {
          "indexed": true,
          "internalType": "bytes32",
          "name": "partition",
          "type": "bytes32"
        },
        {
          "indexed": true,
          "internalType": "address",
          "name": "operator",
          "type": "address"
        },
        {
          "indexed": true,
          "internalType": "address",
          "name": "tokenHolder",
          "type": "address"
        }
      ],
      "name": "RevokedOperatorByPartition",
      "type": "event"
    },
    {
      "anonymous": false,
      "inputs": [
        {
          "indexed": true,
          "internalType": "address",
          "name": "from",
          "type": "address"
        },
        {
          "indexed": true,
          "internalType": "address",
          "name": "to",
          "type": "address"
        },
        {
          "indexed": false,
          "internalType": "uint256",
          "name": "value",
          "type": "uint256"
        }
      ],
      "name": "Transfer",
      "type": "event"
    },
    {
      "anonymous": false,
      "inputs": [
        {
          "indexed": true,
          "internalType": "bytes32",
          "name": "fromPartition",
          "type": "bytes32"
        },
        {
          "indexed": false,
          "internalType": "address",
          "name": "operator",
          "type": "address"
        },
        {
          "indexed": true,
          "internalType": "address",
          "name": "from",
          "type": "address"
        },
        {
          "indexed": true,
          "internalType": "address",
          "name": "to",
          "type": "address"
        },
        {
          "indexed": false,
          "internalType": "uint256",
          "name": "value",
          "type": "uint256"
        },
        {
          "indexed": false,
          "internalType": "bytes",
          "name": "data",
          "type": "bytes"
        },
        {
          "indexed": false,
          "internalType": "bytes",
          "name": "operatorData",
          "type": "bytes"
        }
      ],
      "name": "TransferByPartition",
      "type": "event"
    },
    {
      "inputs": [
        {
          "internalType": "address",
          "name": "account",
          "type": "address"
        }
      ],
      "name": "addMinter",
      "outputs": [],
      "stateMutability": "nonpayable",
      "type": "function"
    },
    {
      "inputs": [
        {
          "internalType": "address",
          "name": "owner",
          "type": "address"
        },
        {
          "internalType": "address",
          "name": "spender",
          "type": "address"
        }
      ],
      "name": "allowance",
      "outputs": [
        {
          "internalType": "uint256",
          "name": "",
          "type": "uint256"
        }
      ],
      "stateMutability": "view",
      "type": "function"
    },
    {
      "inputs": [
        {
          "internalType": "bytes32",
          "name": "partition",
          "type": "bytes32"
        },
        {
          "internalType": "address",
          "name": "owner",
          "type": "address"
        },
        {
          "internalType": "address",
          "name": "spender",
          "type": "address"
        }
      ],
      "name": "allowanceByPartition",
      "outputs": [
        {
          "internalType": "uint256",
          "name": "",
          "type": "uint256"
        }
      ],
      "stateMutability": "view",
      "type": "function"
    },
    {
      "inputs": [
        {
          "internalType": "address",
          "name": "spender",
          "type": "address"
        },
        {
          "internalType": "uint256",
          "name": "value",
          "type": "uint256"
        }
      ],
      "name": "approve",
      "outputs": [
        {
          "internalType": "bool",
          "name": "",
          "type": "bool"
        }
      ],
      "stateMutability": "nonpayable",
      "type": "function"
    },
    {
      "inputs": [
        {
          "internalType": "bytes32",
          "name": "partition",
          "type": "bytes32"
        },
        {
          "internalType": "address",
          "name": "spender",
          "type": "address"
        },
        {
          "internalType": "uint256",
          "name": "value",
          "type": "uint256"
        }
      ],
      "name": "approveByPartition",
      "outputs": [
        {
          "internalType": "bool",
          "name": "",
          "type": "bool"
        }
      ],
      "stateMutability": "nonpayable",
      "type": "function"
    },
    {
      "inputs": [
        {
          "internalType": "address",
          "name": "operator",
          "type": "address"
        }
      ],
      "name": "authorizeOperator",
      "outputs": [],
      "stateMutability": "nonpayable",
      "type": "function"
    },
    {
      "inputs": [
        {
          "internalType": "bytes32",
          "name": "partition",
          "type": "bytes32"
        },
        {
          "internalType": "address",
          "name": "operator",
          "type": "address"
        }
      ],
      "name": "authorizeOperatorByPartition",
      "outputs": [],
      "stateMutability": "nonpayable",
      "type": "function"
    },
    {
      "inputs": [
        {
          "internalType": "address",
          "name": "tokenHolder",
          "type": "address"
        }
      ],
      "name": "balanceOf",
      "outputs": [
        {
          "internalType": "uint256",
          "name": "",
          "type": "uint256"
        }
      ],
      "stateMutability": "view",
      "type": "function"
    },
    {
      "inputs": [
        {
          "internalType": "bytes32",
          "name": "partition",
          "type": "bytes32"
        },
        {
          "internalType": "address",
          "name": "tokenHolder",
          "type": "address"
        }
      ],
      "name": "balanceOfByPartition",
      "outputs": [
        {
          "internalType": "uint256",
          "name": "",
          "type": "uint256"
        }
      ],
      "stateMutability": "view",
      "type": "function"
    },
    {
      "inputs": [
        {
          "internalType": "bytes32",
          "name": "interfaceHash",
          "type": "bytes32"
        },
        {
          "internalType": "address",
          "name": "",
          "type": "address"
        }
      ],
      "name": "canImplementInterfaceForAddress",
      "outputs": [
        {
          "internalType": "bytes32",
          "name": "",
          "type": "bytes32"
        }
      ],
      "stateMutability": "view",
      "type": "function"
    },
    {
      "inputs": [],
      "name": "controllers",
      "outputs": [
        {
          "internalType": "address[]",
          "name": "",
          "type": "address[]"
        }
      ],
      "stateMutability": "view",
      "type": "function"
    },
    {
      "inputs": [
        {
          "internalType": "bytes32",
          "name": "partition",
          "type": "bytes32"
        }
      ],
      "name": "controllersByPartition",
      "outputs": [
        {
          "internalType": "address[]",
          "name": "",
          "type": "address[]"
        }
      ],
      "stateMutability": "view",
      "type": "function"
    },
    {
      "inputs": [],
      "name": "decimals",
      "outputs": [
        {
          "internalType": "uint8",
          "name": "",
          "type": "uint8"
        }
      ],
      "stateMutability": "pure",
      "type": "function"
    },
    {
      "inputs": [],
      "name": "domainName",
      "outputs": [
        {
          "internalType": "string",
          "name": "",
          "type": "string"
        }
      ],
      "stateMutability": "view",
      "type": "function"
    },
    {
      "inputs": [],
      "name": "domainSeparator",
      "outputs": [
        {
          "internalType": "bytes32",
          "name": "",
          "type": "bytes32"
        }
      ],
      "stateMutability": "nonpayable",
      "type": "function"
    },
    {
      "inputs": [],
      "name": "domainVersion",
      "outputs": [
        {
          "internalType": "string",
          "name": "",
          "type": "string"
        }
      ],
      "stateMutability": "view",
      "type": "function"
    },
    {
      "inputs": [],
      "name": "generateDomainSeparator",
      "outputs": [
        {
          "internalType": "bytes32",
          "name": "",
          "type": "bytes32"
        }
      ],
      "stateMutability": "view",
      "type": "function"
    },
    {
      "inputs": [],
      "name": "getAllDocuments",
      "outputs": [
        {
          "internalType": "bytes32[]",
          "name": "",
          "type": "bytes32[]"
        }
      ],
      "stateMutability": "view",
      "type": "function"
    },
    {
      "inputs": [],
      "name": "getDefaultPartitions",
      "outputs": [
        {
          "internalType": "bytes32[]",
          "name": "",
          "type": "bytes32[]"
        }
      ],
      "stateMutability": "view",
      "type": "function"
    },
    {
      "inputs": [
        {
          "internalType": "bytes32",
          "name": "name",
          "type": "bytes32"
        }
      ],
      "name": "getDocument",
      "outputs": [
        {
          "internalType": "string",
          "name": "",
          "type": "string"
        },
        {
          "internalType": "bytes32",
          "name": "",
          "type": "bytes32"
        },
        {
          "internalType": "uint256",
          "name": "",
          "type": "uint256"
        }
      ],
      "stateMutability": "view",
      "type": "function"
    },
    {
      "inputs": [],
      "name": "getFagsystem",
      "outputs": [
        {
          "internalType": "address",
          "name": "",
          "type": "address"
        }
      ],
      "stateMutability": "view",
      "type": "function"
    },
    {
      "inputs": [],
      "name": "getFagsystemDid",
      "outputs": [
        {
          "internalType": "string",
          "name": "",
          "type": "string"
        }
      ],
      "stateMutability": "view",
      "type": "function"
    },
    {
      "inputs": [],
      "name": "getOrgnr",
      "outputs": [
        {
          "internalType": "string",
          "name": "",
          "type": "string"
        }
      ],
      "stateMutability": "view",
      "type": "function"
    },
    {
      "inputs": [],
      "name": "granularity",
      "outputs": [
        {
          "internalType": "uint256",
          "name": "",
          "type": "uint256"
        }
      ],
      "stateMutability": "view",
      "type": "function"
    },
    {
      "inputs": [],
      "name": "isControllable",
      "outputs": [
        {
          "internalType": "bool",
          "name": "",
          "type": "bool"
        }
      ],
      "stateMutability": "view",
      "type": "function"
    },
    {
      "inputs": [],
      "name": "isIssuable",
      "outputs": [
        {
          "internalType": "bool",
          "name": "",
          "type": "bool"
        }
      ],
      "stateMutability": "view",
      "type": "function"
    },
    {
      "inputs": [
        {
          "internalType": "address",
          "name": "account",
          "type": "address"
        }
      ],
      "name": "isMinter",
      "outputs": [
        {
          "internalType": "bool",
          "name": "",
          "type": "bool"
        }
      ],
      "stateMutability": "view",
      "type": "function"
    },
    {
      "inputs": [
        {
          "internalType": "address",
          "name": "operator",
          "type": "address"
        },
        {
          "internalType": "address",
          "name": "tokenHolder",
          "type": "address"
        }
      ],
      "name": "isOperator",
      "outputs": [
        {
          "internalType": "bool",
          "name": "",
          "type": "bool"
        }
      ],
      "stateMutability": "view",
      "type": "function"
    },
    {
      "inputs": [
        {
          "internalType": "bytes32",
          "name": "partition",
          "type": "bytes32"
        },
        {
          "internalType": "address",
          "name": "operator",
          "type": "address"
        },
        {
          "internalType": "address",
          "name": "tokenHolder",
          "type": "address"
        }
      ],
      "name": "isOperatorForPartition",
      "outputs": [
        {
          "internalType": "bool",
          "name": "",
          "type": "bool"
        }
      ],
      "stateMutability": "view",
      "type": "function"
    },
    {
      "inputs": [
        {
          "internalType": "address",
          "name": "tokenHolder",
          "type": "address"
        },
        {
          "internalType": "uint256",
          "name": "value",
          "type": "uint256"
        },
        {
          "internalType": "bytes",
          "name": "data",
          "type": "bytes"
        }
      ],
      "name": "issue",
      "outputs": [],
      "stateMutability": "nonpayable",
      "type": "function"
    },
    {
      "inputs": [
        {
          "internalType": "bytes32",
          "name": "partition",
          "type": "bytes32"
        },
        {
          "internalType": "address",
          "name": "tokenHolder",
          "type": "address"
        },
        {
          "internalType": "uint256",
          "name": "value",
          "type": "uint256"
        },
        {
          "internalType": "bytes",
          "name": "data",
          "type": "bytes"
        }
      ],
      "name": "issueByPartition",
      "outputs": [],
      "stateMutability": "nonpayable",
      "type": "function"
    },
    {
      "inputs": [
        {
          "internalType": "address",
          "name": "newContractAddress",
          "type": "address"
        },
        {
          "internalType": "bool",
          "name": "definitive",
          "type": "bool"
        }
      ],
      "name": "migrate",
      "outputs": [],
      "stateMutability": "nonpayable",
      "type": "function"
    },
    {
      "inputs": [],
      "name": "name",
      "outputs": [
        {
          "internalType": "string",
          "name": "",
          "type": "string"
        }
      ],
      "stateMutability": "view",
      "type": "function"
    },
    {
      "inputs": [
        {
          "internalType": "bytes32",
          "name": "partition",
          "type": "bytes32"
        },
        {
          "internalType": "address",
          "name": "tokenHolder",
          "type": "address"
        },
        {
          "internalType": "uint256",
          "name": "value",
          "type": "uint256"
        },
        {
          "internalType": "bytes",
          "name": "operatorData",
          "type": "bytes"
        }
      ],
      "name": "operatorRedeemByPartition",
      "outputs": [],
      "stateMutability": "nonpayable",
      "type": "function"
    },
    {
      "inputs": [
        {
          "internalType": "bytes32",
          "name": "partition",
          "type": "bytes32"
        },
        {
          "internalType": "address",
          "name": "from",
          "type": "address"
        },
        {
          "internalType": "address",
          "name": "to",
          "type": "address"
        },
        {
          "internalType": "uint256",
          "name": "value",
          "type": "uint256"
        },
        {
          "internalType": "bytes",
          "name": "data",
          "type": "bytes"
        },
        {
          "internalType": "bytes",
          "name": "operatorData",
          "type": "bytes"
        }
      ],
      "name": "operatorTransferByPartition",
      "outputs": [
        {
          "internalType": "bytes32",
          "name": "",
          "type": "bytes32"
        }
      ],
      "stateMutability": "nonpayable",
      "type": "function"
    },
    {
      "inputs": [],
      "name": "owner",
      "outputs": [
        {
          "internalType": "address",
          "name": "",
          "type": "address"
        }
      ],
      "stateMutability": "view",
      "type": "function"
    },
    {
      "inputs": [
        {
          "internalType": "address",
          "name": "tokenHolder",
          "type": "address"
        }
      ],
      "name": "partitionsOf",
      "outputs": [
        {
          "internalType": "bytes32[]",
          "name": "",
          "type": "bytes32[]"
        }
      ],
      "stateMutability": "view",
      "type": "function"
    },
    {
      "inputs": [
        {
          "internalType": "uint256",
          "name": "value",
          "type": "uint256"
        },
        {
          "internalType": "bytes",
          "name": "data",
          "type": "bytes"
        }
      ],
      "name": "redeem",
      "outputs": [],
      "stateMutability": "nonpayable",
      "type": "function"
    },
    {
      "inputs": [
        {
          "internalType": "bytes32",
          "name": "partition",
          "type": "bytes32"
        },
        {
          "internalType": "uint256",
          "name": "value",
          "type": "uint256"
        },
        {
          "internalType": "bytes",
          "name": "data",
          "type": "bytes"
        }
      ],
      "name": "redeemByPartition",
      "outputs": [],
      "stateMutability": "nonpayable",
      "type": "function"
    },
    {
      "inputs": [
        {
          "internalType": "address",
          "name": "from",
          "type": "address"
        },
        {
          "internalType": "uint256",
          "name": "value",
          "type": "uint256"
        },
        {
          "internalType": "bytes",
          "name": "data",
          "type": "bytes"
        }
      ],
      "name": "redeemFrom",
      "outputs": [],
      "stateMutability": "nonpayable",
      "type": "function"
    },
    {
      "inputs": [
        {
          "internalType": "bytes32",
          "name": "_name",
          "type": "bytes32"
        }
      ],
      "name": "removeDocument",
      "outputs": [],
      "stateMutability": "nonpayable",
      "type": "function"
    },
    {
      "inputs": [
        {
          "internalType": "address",
          "name": "account",
          "type": "address"
        }
      ],
      "name": "removeMinter",
      "outputs": [],
      "stateMutability": "nonpayable",
      "type": "function"
    },
    {
      "inputs": [],
      "name": "renounceControl",
      "outputs": [],
      "stateMutability": "nonpayable",
      "type": "function"
    },
    {
      "inputs": [],
      "name": "renounceIssuance",
      "outputs": [],
      "stateMutability": "nonpayable",
      "type": "function"
    },
    {
      "inputs": [],
      "name": "renounceMinter",
      "outputs": [],
      "stateMutability": "nonpayable",
      "type": "function"
    },
    {
      "inputs": [],
      "name": "renounceOwnership",
      "outputs": [],
      "stateMutability": "nonpayable",
      "type": "function"
    },
    {
      "inputs": [
        {
          "internalType": "address",
          "name": "operator",
          "type": "address"
        }
      ],
      "name": "revokeOperator",
      "outputs": [],
      "stateMutability": "nonpayable",
      "type": "function"
    },
    {
      "inputs": [
        {
          "internalType": "bytes32",
          "name": "partition",
          "type": "bytes32"
        },
        {
          "internalType": "address",
          "name": "operator",
          "type": "address"
        }
      ],
      "name": "revokeOperatorByPartition",
      "outputs": [],
      "stateMutability": "nonpayable",
      "type": "function"
    },
    {
      "inputs": [
        {
          "internalType": "address",
          "name": "capTableRegistryAddress",
          "type": "address"
        }
      ],
      "name": "setCapTableRegistry",
      "outputs": [],
      "stateMutability": "nonpayable",
      "type": "function"
    },
    {
      "inputs": [
        {
          "internalType": "address[]",
          "name": "operators",
          "type": "address[]"
        }
      ],
      "name": "setControllers",
      "outputs": [],
      "stateMutability": "nonpayable",
      "type": "function"
    },
    {
      "inputs": [
        {
          "internalType": "bytes32[]",
          "name": "partitions",
          "type": "bytes32[]"
        }
      ],
      "name": "setDefaultPartitions",
      "outputs": [],
      "stateMutability": "nonpayable",
      "type": "function"
    },
    {
      "inputs": [
        {
          "internalType": "bytes32",
          "name": "name",
          "type": "bytes32"
        },
        {
          "internalType": "string",
          "name": "uri",
          "type": "string"
        },
        {
          "internalType": "bytes32",
          "name": "documentHash",
          "type": "bytes32"
        }
      ],
      "name": "setDocument",
      "outputs": [],
      "stateMutability": "nonpayable",
      "type": "function"
    },
    {
      "inputs": [
        {
          "internalType": "bytes32",
          "name": "partition",
          "type": "bytes32"
        },
        {
          "internalType": "address[]",
          "name": "operators",
          "type": "address[]"
        }
      ],
      "name": "setPartitionControllers",
      "outputs": [],
      "stateMutability": "nonpayable",
      "type": "function"
    },
    {
      "inputs": [
        {
          "internalType": "address",
          "name": "extension",
          "type": "address"
        },
        {
          "internalType": "string",
          "name": "interfaceLabel",
          "type": "string"
        },
        {
          "internalType": "bool",
          "name": "removeOldExtensionRoles",
          "type": "bool"
        },
        {
          "internalType": "bool",
          "name": "addMinterRoleForExtension",
          "type": "bool"
        },
        {
          "internalType": "bool",
          "name": "addControllerRoleForExtension",
          "type": "bool"
        }
      ],
      "name": "setTokenExtension",
      "outputs": [],
      "stateMutability": "nonpayable",
      "type": "function"
    },
    {
      "inputs": [],
      "name": "symbol",
      "outputs": [
        {
          "internalType": "string",
          "name": "",
          "type": "string"
        }
      ],
      "stateMutability": "view",
      "type": "function"
    },
    {
      "inputs": [],
      "name": "totalPartitions",
      "outputs": [
        {
          "internalType": "bytes32[]",
          "name": "",
          "type": "bytes32[]"
        }
      ],
      "stateMutability": "view",
      "type": "function"
    },
    {
      "inputs": [],
      "name": "totalSupply",
      "outputs": [
        {
          "internalType": "uint256",
          "name": "",
          "type": "uint256"
        }
      ],
      "stateMutability": "view",
      "type": "function"
    },
    {
      "inputs": [
        {
          "internalType": "bytes32",
          "name": "partition",
          "type": "bytes32"
        }
      ],
      "name": "totalSupplyByPartition",
      "outputs": [
        {
          "internalType": "uint256",
          "name": "",
          "type": "uint256"
        }
      ],
      "stateMutability": "view",
      "type": "function"
    },
    {
      "inputs": [
        {
          "internalType": "address",
          "name": "to",
          "type": "address"
        },
        {
          "internalType": "uint256",
          "name": "value",
          "type": "uint256"
        }
      ],
      "name": "transfer",
      "outputs": [
        {
          "internalType": "bool",
          "name": "",
          "type": "bool"
        }
      ],
      "stateMutability": "nonpayable",
      "type": "function"
    },
    {
      "inputs": [
        {
          "internalType": "bytes32",
          "name": "partition",
          "type": "bytes32"
        },
        {
          "internalType": "address",
          "name": "to",
          "type": "address"
        },
        {
          "internalType": "uint256",
          "name": "value",
          "type": "uint256"
        },
        {
          "internalType": "bytes",
          "name": "data",
          "type": "bytes"
        }
      ],
      "name": "transferByPartition",
      "outputs": [
        {
          "internalType": "bytes32",
          "name": "",
          "type": "bytes32"
        }
      ],
      "stateMutability": "nonpayable",
      "type": "function"
    },
    {
      "inputs": [
        {
          "internalType": "address",
          "name": "from",
          "type": "address"
        },
        {
          "internalType": "address",
          "name": "to",
          "type": "address"
        },
        {
          "internalType": "uint256",
          "name": "value",
          "type": "uint256"
        }
      ],
      "name": "transferFrom",
      "outputs": [
        {
          "internalType": "bool",
          "name": "",
          "type": "bool"
        }
      ],
      "stateMutability": "nonpayable",
      "type": "function"
    },
    {
      "inputs": [
        {
          "internalType": "address",
          "name": "from",
          "type": "address"
        },
        {
          "internalType": "address",
          "name": "to",
          "type": "address"
        },
        {
          "internalType": "uint256",
          "name": "value",
          "type": "uint256"
        },
        {
          "internalType": "bytes",
          "name": "data",
          "type": "bytes"
        }
      ],
      "name": "transferFromWithData",
      "outputs": [],
      "stateMutability": "nonpayable",
      "type": "function"
    },
    {
      "inputs": [
        {
          "internalType": "address",
          "name": "newOwner",
          "type": "address"
        }
      ],
      "name": "transferOwnership",
      "outputs": [],
      "stateMutability": "nonpayable",
      "type": "function"
    },
    {
      "inputs": [
        {
          "internalType": "address",
          "name": "to",
          "type": "address"
        },
        {
          "internalType": "uint256",
          "name": "value",
          "type": "uint256"
        },
        {
          "internalType": "bytes",
          "name": "data",
          "type": "bytes"
        }
      ],
      "name": "transferWithData",
      "outputs": [],
      "stateMutability": "nonpayable",
      "type": "function"
    },
    {
      "inputs": [],
      "name": "updateFagsystem",
      "outputs": [],
      "stateMutability": "nonpayable",
      "type": "function"
    }
  ],
  "transactionHash": "0x9d27f7ab7bdcf49c294911579b1afee0a9c21b2ebc956cd27c0150d726619cbe",
  "args": [
    "Symfoni AS",
    "915772137",
    "1000000000000000000",
    [],
    [
      "0x6f7264696ec3a672650000000000000000000000000000000000000000000000"
    ],
    "0x0000000000000000000000000000000000000000"
  ],
  "numDeployments": 1,
  "solcInputHash": "89e257a5076436ce0bf864f6544f0741",
  "bytecode": "0x60806040523480156200001157600080fd5b50604051620057fe380380620057fe8339810160408190526200003491620009b1565b85858585856200004d6200004762000241565b62000245565b620000583362000295565b62000062620002e7565b5084516200007890600490602088019062000709565b5083516200008e90600590602087019062000709565b5060006007556001831015620000a357600080fd5b6006839055620000b3826200031a565b8051620000c890601490602084019062000798565b506008805462ff00001961ff001990911661010017166201000017905560408051808201909152600c81526b22a921989a18182a37b5b2b760a11b6020808301919091526200012391903090620023e66200042f821b17901c565b6200015c6040518060400160405280600a81526020016922a92199182a37b5b2b760b11b815250306200042f60201b620023e61760201c565b620001966040518060400160405280600c81526020016b22a921989a18182a37b5b2b760a11b815250620004d260201b620024831760201c565b620001ce6040518060400160405280600a81526020016922a92199182a37b5b2b760b11b815250620004d260201b620024831760201c565b5050604051339350620001e5925088915062000a80565b604051908190038120907fbaae3ce00d3ceedebee4e035d2bab26a15d5d5e0c97fa14e2dee257f25b077f690600090a3601c80546001600160a01b0319166001600160a01b03929092169190911790555062000c6d9350505050565b3390565b600080546001600160a01b038381166001600160a01b0319831681178455604051919092169283917f8be0079c531659141344cd1fd0a4f28419497f9722a3daafe3b4186f6b6457e09190a35050565b620002b08160026200052160201b620024d01790919060201c565b6040516001600160a01b038216907f6ae172837ea30b801fbfcdd4108aa1d5bf8ff775444fd70256b44e6bf3dfc3f690600090a250565b600080620002f46200057b565b90506000620003026200057f565b60009283526003602052604090922082905550905090565b60005b6016548110156200039957600060176000601684815481106200035057634e487b7160e01b600052603260045260246000fd5b6000918252602080832091909101546001600160a01b031683528201929092526040019020805460ff191691151591909117905580620003908162000c2f565b9150506200031d565b5060005b81518110156200041557600160176000848481518110620003ce57634e487b7160e01b600052603260045260246000fd5b6020908102919091018101516001600160a01b03168252810191909152604001600020805460ff1916911515919091179055806200040c8162000c2f565b9150506200039d565b5080516200042b906016906020840190620007d5565b5050565b60008260405160200162000444919062000a80565b60408051601f198184030181529082905280516020909101206329965a1d60e01b82529150731820a4b7618bde71dce8cdc73aab6c95905fad24906329965a1d90620004999030908590879060040162000a9e565b600060405180830381600087803b158015620004b457600080fd5b505af1158015620004c9573d6000803e3d6000fd5b50505050505050565b600180600083604051602001620004ea919062000a80565b60408051808303601f19018152918152815160209283012083529082019290925201600020805460ff191691151591909117905550565b6200052d828262000609565b15620005565760405162461bcd60e51b81526004016200054d9062000aed565b60405180910390fd5b6001600160a01b0316600090815260209190915260409020805460ff19166001179055565b4690565b6000806200058c6200057b565b905060007f8b73c3c69bb8fe3d512ecc4cf759cc79239f7b179b0ffacaa9a75d522b39400f620005bb62000654565b8051602090910120620005cd620006ee565b8051602091820120604051620005ea949392879130910162000ac1565b60408051601f1981840301815291905280516020909101209250505090565b60006001600160a01b038216620006345760405162461bcd60e51b81526004016200054d9062000b24565b506001600160a01b03166000908152602091909152604090205460ff1690565b606060048054620006659062000bf2565b80601f0160208091040260200160405190810160405280929190818152602001828054620006939062000bf2565b8015620006e45780601f10620006b857610100808354040283529160200191620006e4565b820191906000526020600020905b815481529060010190602001808311620006c657829003601f168201915b5050505050905090565b6040805180820190915260018152603160f81b602082015290565b828054620007179062000bf2565b90600052602060002090601f0160209004810192826200073b576000855562000786565b82601f106200075657805160ff191683800117855562000786565b8280016001018555821562000786579182015b828111156200078657825182559160200191906001019062000769565b50620007949291506200082d565b5090565b8280548282559060005260206000209081019282156200078657916020028201828111156200078657825182559160200191906001019062000769565b82805482825590600052602060002090810192821562000786579160200282015b828111156200078657825182546001600160a01b0319166001600160a01b03909116178255602090920191600190910190620007f6565b5b808211156200079457600081556001016200082e565b80516001600160a01b03811681146200085c57600080fd5b919050565b600082601f83011262000872578081fd5b815160206200088b620008858362000b99565b62000b66565b8281528181019085830183850287018401881015620008a8578586fd5b855b85811015620008d157620008be8262000844565b84529284019290840190600101620008aa565b5090979650505050505050565b600082601f830112620008ef578081fd5b8151602062000902620008858362000b99565b82815281810190858301838502870184018810156200091f578586fd5b855b85811015620008d15781518452928401929084019060010162000921565b600082601f83011262000950578081fd5b81516001600160401b038111156200096c576200096c62000c57565b62000981601f8201601f191660200162000b66565b81815284602083860101111562000996578283fd5b620009a982602083016020870162000bbf565b949350505050565b60008060008060008060c08789031215620009ca578182fd5b86516001600160401b0380821115620009e1578384fd5b620009ef8a838b016200093f565b9750602089015191508082111562000a05578384fd5b62000a138a838b016200093f565b965060408901519550606089015191508082111562000a30578384fd5b62000a3e8a838b0162000861565b9450608089015191508082111562000a54578384fd5b5062000a6389828a01620008de565b92505062000a7460a0880162000844565b90509295509295509295565b6000825162000a9481846020870162000bbf565b9190910192915050565b6001600160a01b0393841681526020810192909252909116604082015260600190565b9485526020850193909352604084019190915260608301526001600160a01b0316608082015260a00190565b6020808252601f908201527f526f6c65733a206163636f756e7420616c72656164792068617320726f6c6500604082015260600190565b60208082526022908201527f526f6c65733a206163636f756e7420697320746865207a65726f206164647265604082015261737360f01b606082015260800190565b604051601f8201601f191681016001600160401b038111828210171562000b915762000b9162000c57565b604052919050565b60006001600160401b0382111562000bb55762000bb562000c57565b5060209081020190565b60005b8381101562000bdc57818101518382015260200162000bc2565b8381111562000bec576000848401525b50505050565b60028104600182168062000c0757607f821691505b6020821081141562000c2957634e487b7160e01b600052602260045260246000fd5b50919050565b600060001982141562000c5057634e487b7160e01b81526011600452602481fd5b5060010190565b634e487b7160e01b600052604160045260246000fd5b614b818062000c7d6000396000f3fe608060405234801561001057600080fd5b50600436106102eb5760003560e01c8063010648ca146102f057806306fdde0314610305578063095ea7b3146103235780630a4e4f2214610343578063103ef9e11461034b57806314d1e62f1461035e578063168ecec51461037157806316e1aed41461038457806317ec83ca1461039757806318160ddd146103b75780631d43e1c0146103bf57806323b872dd146103c7578063249cb3fa146103da5780632535f762146103ed57806326ab5650146104005780632f1cae85146104085780633092afd51461041057806330e8280314610423578063313ce567146104365780634c783bf51461044b578063556f0dc71461045357806362eb00681461045b57806367c849191461046e57806369598efe146104815780636c30d170146104965780636d77cad61461049e5780636fd00b34146104b157806370a08231146104b9578063715018a6146104cc578063740ab8f4146104d45780637cc0c3a7146104e75780638357839e146104fc578063861ed3ea1461050f578063895d7386146103055780638c0dee9c146105225780638da5cb5b14610535578063933964c71461054a578063959b8c3f1461055d57806395d89b41146104b15780639675193c14610570578063983b2d5614610583578063986502751461059657806398ddcec71461059e5780639fa5f50b146105b1578063a26734dc146105b9578063a6f4f105146105cc578063a8082cb0146105df578063a9059cbb146105e7578063aa271e1a146105fa578063b10d6b411461060d578063b6363cf21461062f578063bb3acde914610642578063bcfdc0cf14610655578063c35018481461065d578063ca281fd914610670578063dd62ed3e14610678578063e77c646d1461068b578063e83c43f51461069e578063ea74838a146106a6578063ec9a6e87146106b9578063ee532f31146106cc578063f2fde38b146106df578063f3d490db146106f2578063f698da2514610705578063fad8b32a1461070d575b600080fd5b6103036102fe3660046142ce565b610720565b005b61030d61085a565b60405161031a91906146b8565b60405180910390f35b61033661033136600461402b565b6108ed565b60405161031a91906145da565b61030361098a565b61030361035936600461412d565b610a9c565b61033661036c366004614236565b610b00565b61030361037f36600461412d565b610b9e565b610303610392366004614285565b610bff565b6103aa6103a5366004614151565b610c80565b60405161031a91906145e5565b6103aa610cb0565b61030d610cb6565b6103366103d5366004613ec3565b610cd1565b6103aa6103e836600461412d565b610df3565b6103036103fb366004614056565b610e3e565b61030d610e87565b610336610f1e565b61030361041e366004613e53565b610f2d565b6103aa61043136600461412d565b610f75565b61043e610f9a565b60405161031a91906149ec565b610336610f9f565b6103aa610fad565b61030361046936600461431e565b610fb3565b61030361047c36600461425c565b611004565b6104896110b2565b60405161031a91906145a2565b610303611109565b6103366104ac366004614151565b611156565b61030d61116b565b6103aa6104c7366004613e53565b61117a565b610303611199565b6104896104e2366004613e53565b6111e4565b6104ef611250565b60405161031a9190614555565b61030361050a366004613e53565b6112b1565b6104ef61051d366004614115565b611312565b6103aa610530366004614192565b61137d565b61053d611522565b60405161031a91906144cc565b610303610558366004613f73565b611531565b61030361056b366004613e53565b61157e565b61030361057e366004614056565b6115ed565b610303610591366004613e53565b611729565b61030361176e565b6103036105ac36600461425c565b611777565b6104896118e8565b6103aa6105c7366004614115565b61193e565b6103036105da366004613fa7565b611950565b6103aa6119dc565b6103366105f536600461402b565b611a5d565b610336610608366004613e53565b611a84565b61062061061b366004614115565b611a91565b60405161031a939291906146ed565b61033661063d366004613e8b565b611b6f565b610303610650366004614056565b611b82565b610489611c74565b61030361066b366004614115565b611cca565b610303611f62565b6103aa610686366004613e8b565b611fae565b6103036106993660046143fe565b611fd9565b61053d61201b565b6103036106b43660046140af565b6120a1565b6103036106c73660046140ee565b61211c565b6103036106da366004613f03565b612167565b6103036106ed366004613e53565b6122a4565b6103aa61070036600461425c565b612312565b6103aa612370565b61030361071b366004613e53565b61237a565b3360009081526017602052604090205460ff1661073c57600080fd5b604051806060016040528084848080601f0160208091040260200160405190810160405280939291908181526020018383808284376000920182905250938552505050602080830185905242604093840152878252600b81529190208251805191926107ad92849290910190613c57565b5060208281015160018301556040928301516002909201919091556000838152600c909152205461081857600d80546001810182557fd7b6990105719101dabeb77144f2a3385c8033acd3af97e9423a695e81ad1eb501829055546000828152600c60205260409020555b837fb4c22d60cd550a815744f04e3ff5278bf19684565ee00e2b084041b6024bd6f684848460405161084c93929190614694565b60405180910390a250505050565b60606004805461086990614a94565b80601f016020809104026020016040519081016040528092919081815260200182805461089590614a94565b80156108e25780601f106108b7576101008083540402835291602001916108e2565b820191906000526020600020905b8154815290600101906020018083116108c557829003601f168201915b505050505090505b90565b60006001600160a01b03831661091e5760405162461bcd60e51b815260040161091590614814565b60405180910390fd5b336000818152600a602090815260408083206001600160a01b03881680855292529182902085905590519091907f8c5be1e5ebec7d5bd14f71427d1e84f3dd0314c0f7b2291e5b200ac8c7c3b925906109789086906145e5565b60405180910390a35060015b92915050565b600060166000815481106109ae57634e487b7160e01b600052603260045260246000fd5b60009182526020822001546040805160018082528183019092526001600160a01b03909216935081602001602082028036833701905050905060006109f161201b565b90508082600081518110610a1557634e487b7160e01b600052603260045260246000fd5b60200260200101906001600160a01b031690816001600160a01b031681525050610a3e8261251c565b806001600160a01b0316836001600160a01b0316610a5a61116b565b604051610a679190614490565b604051908190038120907fddf698a82db69118eb57511894eba2074acdc5cdf75459415afe7386360314a290600090a4505050565b33600081815260196020908152604080832086845282528083206001600160a01b0386168085529252808320805460ff1916600117905551909185917f3646a897c70797ecc134b0adc32f471b07bf1d6f451133b0384badab531e3fd69190a45050565b60006001600160a01b038316610b285760405162461bcd60e51b815260040161091590614814565b6000848152601860209081526040808320338085529083528184206001600160a01b0388168086529352928190208590555190919086907ff061499aa77c2f6f5e25e34955a06623705344a88256cc861a121ec0bce5cfec90610b8c9087906145e5565b60405180910390a45060019392505050565b33600081815260196020908152604080832086845282528083206001600160a01b0386168085529252808320805460ff1916905551909185917f3b287c4f1bab4df949b33bceacef984f544dc5d5479930d00e4ee8c9d8dd96f29190a45050565b610c07612621565b6001600160a01b0316610c18611522565b6001600160a01b031614610c3e5760405162461bcd60e51b8152600401610915906148a9565b610c7b8383838080602002602001604051908101604052809392919081815260200183836020028082843760009201919091525061262592505050565b505050565b60009283526018602090815260408085206001600160a01b03948516865282528085209290931684525290205490565b60075490565b6040805180820190915260018152603160f81b602082015290565b6000610cdd3385612764565b80610d0b57506001600160a01b0384166000908152600a602090815260408083203384529091529020548211155b610d275760405162461bcd60e51b815260040161091590614920565b6001600160a01b0384166000908152600a602090815260408083203384529091529020548211610da8576001600160a01b0384166000908152600a60209081526040808320338452909152902054610d7f90836127e3565b6001600160a01b0385166000908152600a60209081526040808320338452909152902055610dcd565b6001600160a01b0384166000908152600a602090815260408083203384529091528120555b610de933858585604051806020016040528060008152506127ef565b5060019392505050565b60008281526001602052604081205460ff1615610e3657604051602001610e19906144ac565b604051602081830303815290604052805190602001209050610984565b506000610984565b610e813333868686868080601f0160208091040260200160405190810160405280939291908181526020018383808284376000920191909152506127ef92505050565b50505050565b60606000610e9361201b565b601c54604051637b8baa6760e01b81529192506001600160a01b031690637b8baa6790610ec49084906004016144cc565b60006040518083038186803b158015610edc57600080fd5b505afa158015610ef0573d6000803e3d6000fd5b505050506040513d6000823e601f3d908101601f19168201604052610f189190810190614356565b91505090565b60085462010000900460ff1690565b610f3633611a84565b80610f605750610f44612621565b6001600160a01b0316610f55611522565b6001600160a01b0316145b610f6957600080fd5b610f728161295e565b50565b6001600160a01b03166000908152601360209081526040808320938352929052205490565b601290565b600854610100900460ff1690565b60065490565b610e818433338686868080601f0160208091040260200160405190810160405280939291908181526020018383808284376000920182905250604080516020810190915290815292506129a0915050565b61100d33611a84565b80611037575061101b612621565b6001600160a01b031661102c611522565b6001600160a01b0316145b61104057600080fd5b60085462010000900460ff166110685760405162461bcd60e51b81526004016109159061484c565b6110ab8533868686868080601f016020809104026020016040519081016040528093929190818152602001838380828437600092019190915250612a7092505050565b5050505050565b6060600e8054806020026020016040519081016040528092919081815260200182805480156108e257602002820191906000526020600020905b8154815260200190600101908083116110ec575050505050905090565b611111612621565b6001600160a01b0316611122611522565b6001600160a01b0316146111485760405162461bcd60e51b8152600401610915906148a9565b6008805462ff000019169055565b6000611163848484612b1a565b949350505050565b60606005805461086990614a94565b6001600160a01b0381166000908152600960205260409020545b919050565b6111a1612621565b6001600160a01b03166111b2611522565b6001600160a01b0316146111d85760405162461bcd60e51b8152600401610915906148a9565b6111e26000612ba3565b565b6001600160a01b03811660009081526011602090815260409182902080548351818402810184019094528084526060939283018282801561124457602002820191906000526020600020905b815481526020019060010190808311611230575b50505050509050919050565b606060168054806020026020016040519081016040528092919081815260200182805480156108e257602002820191906000526020600020905b81546001600160a01b0316815260019091019060200180831161128a575050505050905090565b6112b9612621565b6001600160a01b03166112ca611522565b6001600160a01b0316146112f05760405162461bcd60e51b8152600401610915906148a9565b601c80546001600160a01b0319166001600160a01b0392909216919091179055565b6000818152601a602090815260409182902080548351818402810184019094528084526060939283018282801561124457602002820191906000526020600020905b81546001600160a01b031681526001909101906020018083116113545750505050509050919050565b600061138a89338a612b1a565b806113bf575060008981526018602090815260408083206001600160a01b038c16845282528083203384529091529020548611155b6113db5760405162461bcd60e51b815260040161091590614920565b60008981526018602090815260408083206001600160a01b038c168452825280832033845290915290205486116114715760008981526018602090815260408083206001600160a01b038c168452825280832033845290915290205461144190876127e3565b60008a81526018602090815260408083206001600160a01b038d168452825280832033845290915290205561149d565b60008981526018602090815260408083206001600160a01b038c16845282528083203384529091528120555b61151589338a8a8a8a8a8080601f01602080910402602001604051908101604052809392919081815260200183838082843760009201919091525050604080516020601f8e018190048102820181019092528c815292508c91508b9081908401838280828437600092019190915250612bf392505050565b9998505050505050505050565b6000546001600160a01b031690565b611539612621565b6001600160a01b031661154a611522565b6001600160a01b0316146115705760405162461bcd60e51b8152600401610915906148a9565b61157a8282612d49565b5050565b6001600160a01b03811633141561159457600080fd5b6001600160a01b0381166000818152601560209081526040808320338085529252808320805460ff19166001179055519092917ff4caeb2d6ca8932a215a353d0703c326ec2d81fc68170f320eb2ab49e9df61f991a350565b6115f73385612764565b8061162557506001600160a01b0384166000908152600a602090815260408083203384529091529020548311155b6116415760405162461bcd60e51b815260040161091590614920565b6001600160a01b0384166000908152600a6020908152604080832033845290915290205483116116c2576001600160a01b0384166000908152600a6020908152604080832033845290915290205461169990846127e3565b6001600160a01b0385166000908152600a602090815260408083203384529091529020556116e7565b6001600160a01b0384166000908152600a602090815260408083203384529091528120555b610e8133858585858080601f016020809104026020016040519081016040528093929190818152602001838380828437600092019190915250612dba92505050565b61173233611a84565b8061175c5750611740612621565b6001600160a01b0316611751611522565b6001600160a01b0316145b61176557600080fd5b610f7281612f1e565b6111e23361295e565b611782853386612b1a565b806117b7575060008581526018602090815260408083206001600160a01b038816845282528083203384529091529020548311155b6117d35760405162461bcd60e51b815260040161091590614830565b60008581526018602090815260408083206001600160a01b0388168452825280832033845290915290205483116118695760008581526018602090815260408083206001600160a01b0388168452825280832033845290915290205461183990846127e3565b60008681526018602090815260408083206001600160a01b03891684528252808320338452909152902055611895565b60008581526018602090815260408083206001600160a01b038816845282528083203384529091528120555b6110ab853386866040518060200160405280600081525087878080601f0160208091040260200160405190810160405280939291908181526020018383808284376000920191909152506129a092505050565b6060600d8054806020026020016040519081016040528092919081815260200182805480156108e257602002820191906000526020600020908154815260200190600101908083116110ec575050505050905090565b60009081526010602052604090205490565b611958612621565b6001600160a01b0316611969611522565b6001600160a01b03161461198f5760405162461bcd60e51b8152600401610915906148a9565b6119d48686868080601f016020809104026020016040519081016040528093929190818152602001838380828437600092019190915250889250879150869050612f60565b505050505050565b6000806119e761301c565b905060007f8b73c3c69bb8fe3d512ecc4cf759cc79239f7b179b0ffacaa9a75d522b39400f611a1461085a565b80519060200120611a23610cb6565b8051602091820120604051611a3e94939287913091016145ee565b60408051601f1981840301815291905280516020909101209250505090565b6000611a7b33338585604051806020016040528060008152506127ef565b50600192915050565b6000610984600283613020565b6000818152600b602052604081208054606092918291611ab090614a94565b15159050611abd57600080fd5b6000848152600b602052604090206001810154600282015482548390611ae290614a94565b80601f0160208091040260200160405190810160405280929190818152602001828054611b0e90614a94565b8015611b5b5780601f10611b3057610100808354040283529160200191611b5b565b820191906000526020600020905b815481529060010190602001808311611b3e57829003601f168201915b505050505092509250925092509193909250565b6000611b7b8383612764565b9392505050565b611b8b33611a84565b80611bb55750611b99612621565b6001600160a01b0316611baa611522565b6001600160a01b0316145b611bbe57600080fd5b60085462010000900460ff16611be65760405162461bcd60e51b81526004016109159061484c565b601454611c055760405162461bcd60e51b81526004016109159061484c565b610e816014600081548110611c2a57634e487b7160e01b600052603260045260246000fd5b906000526020600020015433868686868080601f016020809104026020016040519081016040528093929190818152602001838380828437600092019190915250612a7092505050565b606060148054806020026020016040519081016040528092919081815260200182805480156108e257602002820191906000526020600020908154815260200190600101908083116110ec575050505050905090565b3360009081526017602052604090205460ff16611cf95760405162461bcd60e51b815260040161091590614765565b6000818152600b602052604090208054611d1290614a94565b15159050611d325760405162461bcd60e51b815260040161091590614974565b6000818152600b6020526040808220815160608101909252805482908290611d5990614a94565b80601f0160208091040260200160405190810160405280929190818152602001828054611d8590614a94565b8015611dd25780601f10611da757610100808354040283529160200191611dd2565b820191906000526020600020905b815481529060010190602001808311611db557829003601f168201915b505050505081526020016001820154815260200160028201548152505090506000600c60008360200151815260200190815260200160002054905060008111611e2d5760405162461bcd60e51b8152600401610915906147ed565b600d805460009190611e4190600190614a51565b81548110611e5f57634e487b7160e01b600052603260045260246000fd5b9060005260206000200154905080600d600184611e7c9190614a51565b81548110611e9a57634e487b7160e01b600052603260045260246000fd5b6000918252602080832090910192909255828152600c90915260409020829055600d805480611ed957634e487b7160e01b600052603160045260246000fd5b600082815260208082208301600019908101839055909201909255848101518252600c81526040808320839055868352600b909152812090611f1b8282613cdb565b506000600182018190556002909101558251602084015160405186927f3d9bba27d3e360d8c80645beed7e991454a8271bf6f269a24f7782be0f0d06549261084c926146cb565b611f6a612621565b6001600160a01b0316611f7b611522565b6001600160a01b031614611fa15760405162461bcd60e51b8152600401610915906148a9565b6008805461ff0019169055565b6001600160a01b039182166000908152600a6020908152604080832093909416825291909152205490565b610c7b33338585858080601f016020809104026020016040519081016040528093929190818152602001838380828437600092019190915250612dba92505050565b601c54604051632814ab3d60e01b81526000916001600160a01b031690632814ab3d9061204c9030906004016144cc565b60206040518083038186803b15801561206457600080fd5b505afa158015612078573d6000803e3d6000fd5b505050506040513d601f19601f8201168201806040525081019061209c9190613e6f565b905090565b6120a9612621565b6001600160a01b03166120ba611522565b6001600160a01b0316146120e05760405162461bcd60e51b8152600401610915906148a9565b61157a82828080602002602001604051908101604052809392919081815260200183836020028082843760009201919091525061251c92505050565b612124612621565b6001600160a01b0316612135611522565b6001600160a01b03161461215b5760405162461bcd60e51b8152600401610915906148a9565b610c7b60148383613d17565b6121713386612764565b8061219f57506001600160a01b0385166000908152600a602090815260408083203384529091529020548311155b6121bb5760405162461bcd60e51b815260040161091590614920565b6001600160a01b0385166000908152600a60209081526040808320338452909152902054831161223c576001600160a01b0385166000908152600a6020908152604080832033845290915290205461221390846127e3565b6001600160a01b0386166000908152600a60209081526040808320338452909152902055612261565b6001600160a01b0385166000908152600a602090815260408083203384529091528120555b6110ab3386868686868080601f0160208091040260200160405190810160405280939291908181526020018383808284376000920191909152506127ef92505050565b6122ac612621565b6001600160a01b03166122bd611522565b6001600160a01b0316146122e35760405162461bcd60e51b8152600401610915906148a9565b6001600160a01b0381166123095760405162461bcd60e51b8152600401610915906147a7565b610f7281612ba3565b6000612366863333888888888080601f016020809104026020016040519081016040528093929190818152602001838380828437600092018290525060408051602081019091529081529250612bf3915050565b9695505050505050565b600061209c613068565b6001600160a01b03811633141561239057600080fd5b6001600160a01b0381166000818152601560209081526040808320338085529252808320805460ff19169055519092917f50546e66e5f44d728365dc3908c63bc5cfeeab470722c1677e3073a6ac294aa191a350565b6000826040516020016123f99190614490565b60408051601f198184030181529082905280516020909101206329965a1d60e01b82529150731820a4b7618bde71dce8cdc73aab6c95905fad24906329965a1d9061244c903090859087906004016144f9565b600060405180830381600087803b15801561246657600080fd5b505af115801561247a573d6000803e3d6000fd5b50505050505050565b6001806000836040516020016124999190614490565b60408051808303601f19018152918152815160209283012083529082019290925201600020805460ff191691151591909117905550565b6124da8282613020565b156124f75760405162461bcd60e51b81526004016109159061472e565b6001600160a01b0316600090815260209190915260409020805460ff19166001179055565b60005b601654811015612596576000601760006016848154811061255057634e487b7160e01b600052603260045260246000fd5b6000918252602080832091909101546001600160a01b031683528201929092526040019020805460ff19169115159190911790558061258e81614acf565b91505061251f565b5060005b815181101561260d576001601760008484815181106125c957634e487b7160e01b600052603260045260246000fd5b6020908102919091018101516001600160a01b03168252810191909152604001600020805460ff19169115159190911790558061260581614acf565b91505061259a565b50805161157a906016906020840190613d52565b3390565b60005b6000838152601a60205260409020548110156126bf576000838152601b60209081526040808320601a909252822080548391908590811061267957634e487b7160e01b600052603260045260246000fd5b6000918252602080832091909101546001600160a01b031683528201929092526040019020805460ff1916911515919091179055806126b781614acf565b915050612628565b5060005b8151811015612744576000838152601b6020526040812083516001929085908590811061270057634e487b7160e01b600052603260045260246000fd5b6020908102919091018101516001600160a01b03168252810191909152604001600020805460ff19169115159190911790558061273c81614acf565b9150506126c3565b506000828152601a602090815260409091208251610c7b92840190613d52565b6000816001600160a01b0316836001600160a01b031614806127ab57506001600160a01b0380841660009081526015602090815260408083209386168352929052205460ff165b80611b7b5750600854610100900460ff168015611b7b575050506001600160a01b031660009081526017602052604090205460ff1690565b6000611b7b8284614a51565b60145461280e5760405162461bcd60e51b81526004016109159061484c565b816000805b60145481101561293f576001600160a01b0387166000908152601360205260408120601480549192918490811061285a57634e487b7160e01b600052603260045260246000fd5b906000526020600020015481526020019081526020016000205491508183116128d0576128c6601482815481106128a157634e487b7160e01b600052603260045260246000fd5b9060005260206000200154898989878960405180602001604052806000815250612bf3565b506000925061293f565b811561292d5761291f601482815481106128fa57634e487b7160e01b600052603260045260246000fd5b9060005260206000200154898989868960405180602001604052806000815250612bf3565b5061292a8284614a51565b92505b8061293781614acf565b915050612813565b50811561247a5760405162461bcd60e51b81526004016109159061493c565b61296960028261309f565b6040516001600160a01b038216907fe94479a9f7e1952cc78f2d6baab678adc1b772d936c6583def489e524cb6669290600090a250565b6001600160a01b03841660009081526013602090815260408083208984529091529020548311156129e35760405162461bcd60e51b81526004016109159061493c565b6129f386868660008787876130e7565b612a0386868660008787876131a9565b612a0e848785613231565b612a1a85858585613544565b836001600160a01b0316856001600160a01b0316877fce306c3dbc4a497124b5a4f2be8388b41084c1d74663da27ecee1186c00239bf8685604051612a609291906149a3565b60405180910390a4505050505050565b612a8f85856000868686604051806020016040528060008152506131a9565b612a9b848484846136c6565b612aa68386846137f5565b612ac58585600086868660405180602001604052806000815250613933565b826001600160a01b0316846001600160a01b0316867ff0ded82afbb1bb3ff3fc48cb2a26584aa84e4af0bf309c804ecdb94d0f6a98bb8585604051612b0b9291906149bc565b60405180910390a45050505050565b6000612b268383612764565b80612b5e57506001600160a01b03808316600090815260196020908152604080832088845282528083209387168352929052205460ff165b806111635750600854610100900460ff168015611163575050506000918252601b602090815260408084206001600160a01b0393909316845291905290205460ff1690565b600080546001600160a01b038381166001600160a01b0319831681178455604051919092169283917f8be0079c531659141344cd1fd0a4f28419497f9722a3daafe3b4186f6b6457e09190a35050565b6001600160a01b03851660009081526013602090815260408083208a8452909152812054841115612c365760405162461bcd60e51b81526004016109159061493c565b8151889015801590612c4a57506040845110155b15612c5c57612c5989856139bb565b90505b612c6b898989898989896130e7565b612c7a898989898989896131a9565b612c85878a87613231565b612c908787876139e7565b612c9b8682876137f5565b612caa81898989898989613933565b856001600160a01b0316876001600160a01b03168a7fff4e9a26af4eb73b8bacfaa4abd4fea03d9448e7b912dc5ff4019048875aa2d48b898989604051612cf4949392919061451c565b60405180910390a4888114612d3d5780897f67c8ba31d2dd11f1384577b3405b04ed91eed1231e408432ad2458cab37b2fa187604051612d3491906145e5565b60405180910390a35b98975050505050505050565b612d756040518060400160405280600a81526020016922a92199182a37b5b2b760b11b815250836123e6565b612da36040518060400160405280600c81526020016b22a921989a18182a37b5b2b760a11b815250836123e6565b801561157a576008805460ff191660011790555050565b601454612dd95760405162461bcd60e51b81526004016109159061484c565b816000805b601454811015612eff576001600160a01b03861660009081526013602052604081206014805491929184908110612e2557634e487b7160e01b600052603260045260246000fd5b90600052602060002001548152602001908152602001600020549150818311612e9957612e9060148281548110612e6c57634e487b7160e01b600052603260045260246000fd5b906000526020600020015488888688604051806020016040528060008152506129a0565b60009250612eff565b612ee160148281548110612ebd57634e487b7160e01b600052603260045260246000fd5b906000526020600020015488888588604051806020016040528060008152506129a0565b612eeb8284614a51565b925080612ef781614acf565b915050612dde565b5081156119d45760405162461bcd60e51b81526004016109159061493c565b612f296002826124d0565b6040516001600160a01b038216907f6ae172837ea30b801fbfcdd4108aa1d5bf8ff775444fd70256b44e6bf3dfc3f690600090a250565b6000612f6c3086613b2c565b90506001600160a01b03811615801590612f835750835b15612fc057612f9181611a84565b15612f9f57612f9f8161295e565b6001600160a01b0381166000908152601760205260409020805460ff191690555b612fca85876123e6565b828015612fdd5750612fdb86611a84565b155b15612feb57612feb86612f1e565b81156119d4576001600160a01b0386166000908152601760205260409020805460ff19166001179055505050505050565b4690565b60006001600160a01b0382166130485760405162461bcd60e51b8152600401610915906148de565b506001600160a01b03166000908152602091909152604090205460ff1690565b6000806003600061307761301c565b8152602081019190915260400160002054905080156130975790506108ea565b610f18613be1565b6130a98282613020565b6130c55760405162461bcd60e51b815260040161091590614868565b6001600160a01b0316600090815260209190915260409020805460ff19169055565b600061311e866040518060400160405280601381526020017222a921989a18182a37b5b2b739a9b2b73232b960691b815250613b2c565b90506001600160a01b0381161561319f5760405163139d569560e21b81526001600160a01b03821690634e755a549061316c9060009036908d908d908d908d908d908d908d9060040161461a565b600060405180830381600087803b15801561318657600080fd5b505af115801561319a573d6000803e3d6000fd5b505050505b5050505050505050565b60006131e3306040518060400160405280601681526020017522a921989a18182a37b5b2b739ab30b634b230ba37b960511b815250613b2c565b90506001600160a01b0381161561319f57604051632907d53b60e11b81526001600160a01b0382169063520faa769061316c9060009036908d908d908d908d908d908d908d9060040161461a565b6001600160a01b038316600090815260136020908152604080832085845290915290205461325f90826127e3565b6001600160a01b038416600090815260136020908152604080832086845282528083209390935560109052205461329690826127e3565b60008381526010602052604090208190556133ad576000828152600f6020526040902054806132d75760405162461bcd60e51b81526004016109159061478b565b600e8054600091906132eb90600190614a51565b8154811061330957634e487b7160e01b600052603260045260246000fd5b9060005260206000200154905080600e6001846133269190614a51565b8154811061334457634e487b7160e01b600052603260045260246000fd5b6000918252602080832090910192909255828152600f90915260409020829055600e80548061338357634e487b7160e01b600052603160045260246000fd5b600082815260208082208301600019908101839055909201909255858252600f9052604081205550505b6001600160a01b0383166000908152601360209081526040808320858452909152902054610c7b576001600160a01b0383166000908152601260209081526040808320858452909152902054806134165760405162461bcd60e51b81526004016109159061478b565b6001600160a01b0384166000908152601160205260408120805461343c90600190614a51565b8154811061345a57634e487b7160e01b600052603260045260246000fd5b60009182526020808320909101546001600160a01b038816835260119091526040909120909150819061348e600185614a51565b815481106134ac57634e487b7160e01b600052603260045260246000fd5b60009182526020808320909101929092556001600160a01b038716808252601283526040808320858452845280832086905590825260119092522080548061350457634e487b7160e01b600052603160045260246000fd5b6000828152602080822083016000199081018390559092019092556001600160a01b03871682526012815260408083208784529091528120555050505050565b60085460ff16156135675760405162461bcd60e51b815260040161091590614712565b61357082613c10565b61358c5760405162461bcd60e51b81526004016109159061478b565b6001600160a01b0383166135b25760405162461bcd60e51b815260040161091590614814565b6001600160a01b0383166000908152600960205260409020548211156135ea5760405162461bcd60e51b81526004016109159061493c565b6001600160a01b03831660009081526009602052604090205461360d90836127e3565b6001600160a01b03841660009081526009602052604090205560075461363390836127e3565b600781905550826001600160a01b0316846001600160a01b03167fb7d0d6b60740753e9f16692a2f479472a1385aec2420fa43225b02f2ffa1afe7848460405161367e9291906149a3565b60405180910390a360006001600160a01b0316836001600160a01b0316600080516020614b2c833981519152846040516136b891906145e5565b60405180910390a350505050565b60085460ff16156136e95760405162461bcd60e51b815260040161091590614712565b6136f282613c10565b61370e5760405162461bcd60e51b81526004016109159061478b565b6001600160a01b0383166137345760405162461bcd60e51b815260040161091590614958565b6007546137419083613c33565b6007556001600160a01b0383166000908152600960205260409020546137679083613c33565b6001600160a01b0380851660008181526009602052604090819020939093559151908616907f0e9905d62635f049c2f4e11678ebf9dc3d1f8c4a653e290759b772e47ba00d00906137bb90869086906149a3565b60405180910390a3826001600160a01b031660006001600160a01b0316600080516020614b2c833981519152846040516136b891906145e5565b8015610c7b576001600160a01b0383166000908152601260209081526040808320858452909152902054613867576001600160a01b0383166000818152601160209081526040808320805460018101825581855283852001879055938352925460128252838320868452909152919020555b6001600160a01b03831660009081526013602090815260408083208584529091529020546138959082613c33565b6001600160a01b0384166000908152601360209081526040808320868452825280832093909355600f9052205461390657600e80546001810182557fbb7b4a454dc3493923482f07822329ed19e8244eff582cc204f8554c3620c3fd01839055546000838152600f60205260409020555b60008281526010602052604090205461391f9082613c33565b600083815260106020526040902055505050565b600061396d8560405180604001604052806016815260200175115490cc4d0c0c151bdad95b9cd49958da5c1a595b9d60521b815250613b2c565b90506001600160a01b0381161561319f57604051637a325abb60e11b81526001600160a01b0382169063f464b5769061316c9060009036908d908d908d908d908d908d908d9060040161461a565b602081015160009060001990808214156139db57604084015192506139df565b8492505b505092915050565b60085460ff1615613a0a5760405162461bcd60e51b815260040161091590614712565b613a1381613c10565b613a2f5760405162461bcd60e51b81526004016109159061478b565b6001600160a01b038216613a555760405162461bcd60e51b815260040161091590614958565b6001600160a01b038316600090815260096020526040902054811115613a8d5760405162461bcd60e51b81526004016109159061493c565b6001600160a01b038316600090815260096020526040902054613ab090826127e3565b6001600160a01b038085166000908152600960205260408082209390935590841681522054613adf9082613c33565b6001600160a01b038084166000818152600960205260409081902093909355915190851690600080516020614b2c83398151915290613b1f9085906145e5565b60405180910390a3505050565b60008082604051602001613b409190614490565b60408051601f1981840301815290829052805160209091012063555ddc6560e11b82529150731820a4b7618bde71dce8cdc73aab6c95905fad249063aabbb8ca90613b9190879085906004016144e0565b60206040518083038186803b158015613ba957600080fd5b505afa158015613bbd573d6000803e3d6000fd5b505050506040513d601f19601f820116820180604052508101906111639190613e6f565b600080613bec61301c565b90506000613bf86119dc565b60009283526003602052604090922082905550905090565b6006546000908290613c2c90613c268382613c3f565b90613c4b565b1492915050565b6000611b7b82846149fa565b6000611b7b8284614a12565b6000611b7b8284614a32565b828054613c6390614a94565b90600052602060002090601f016020900481019282613c855760008555613ccb565b82601f10613c9e57805160ff1916838001178555613ccb565b82800160010185558215613ccb579182015b82811115613ccb578251825591602001919060010190613cb0565b50613cd7929150613da7565b5090565b508054613ce790614a94565b6000825580601f10613cf95750610f72565b601f016020900490600052602060002090810190610f729190613da7565b828054828255906000526020600020908101928215613ccb579160200282015b82811115613ccb578235825591602001919060010190613d37565b828054828255906000526020600020908101928215613ccb579160200282015b82811115613ccb57825182546001600160a01b0319166001600160a01b03909116178255602090920191600190910190613d72565b5b80821115613cd75760008155600101613da8565b60008083601f840112613dcd578081fd5b5081356001600160401b03811115613de3578182fd5b6020830191508360208083028501011115613dfd57600080fd5b9250929050565b8035801515811461119457600080fd5b60008083601f840112613e25578182fd5b5081356001600160401b03811115613e3b578182fd5b602083019150836020828501011115613dfd57600080fd5b600060208284031215613e64578081fd5b8135611b7b81614b16565b600060208284031215613e80578081fd5b8151611b7b81614b16565b60008060408385031215613e9d578081fd5b8235613ea881614b16565b91506020830135613eb881614b16565b809150509250929050565b600080600060608486031215613ed7578081fd5b8335613ee281614b16565b92506020840135613ef281614b16565b929592945050506040919091013590565b600080600080600060808688031215613f1a578081fd5b8535613f2581614b16565b94506020860135613f3581614b16565b93506040860135925060608601356001600160401b03811115613f56578182fd5b613f6288828901613e14565b969995985093965092949392505050565b60008060408385031215613f85578182fd5b8235613f9081614b16565b9150613f9e60208401613e04565b90509250929050565b60008060008060008060a08789031215613fbf578081fd5b8635613fca81614b16565b955060208701356001600160401b03811115613fe4578182fd5b613ff089828a01613e14565b9096509450614003905060408801613e04565b925061401160608801613e04565b915061401f60808801613e04565b90509295509295509295565b6000806040838503121561403d578182fd5b823561404881614b16565b946020939093013593505050565b6000806000806060858703121561406b578384fd5b843561407681614b16565b93506020850135925060408501356001600160401b03811115614097578283fd5b6140a387828801613e14565b95989497509550505050565b600080602083850312156140c1578182fd5b82356001600160401b038111156140d6578283fd5b6140e285828601613dbc565b90969095509350505050565b60008060208385031215614100578081fd5b82356001600160401b038111156140d6578182fd5b600060208284031215614126578081fd5b5035919050565b6000806040838503121561413f578182fd5b823591506020830135613eb881614b16565b600080600060608486031215614165578081fd5b83359250602084013561417781614b16565b9150604084013561418781614b16565b809150509250925092565b60008060008060008060008060c0898b0312156141ad578586fd5b8835975060208901356141bf81614b16565b965060408901356141cf81614b16565b95506060890135945060808901356001600160401b03808211156141f1578384fd5b6141fd8c838d01613e14565b909650945060a08b0135915080821115614215578384fd5b506142228b828c01613e14565b999c989b5096995094979396929594505050565b60008060006060848603121561424a578081fd5b833592506020840135613ef281614b16565b600080600080600060808688031215614273578283fd5b853594506020860135613f3581614b16565b600080600060408486031215614299578081fd5b8335925060208401356001600160401b038111156142b5578182fd5b6142c186828701613dbc565b9497909650939450505050565b600080600080606085870312156142e3578182fd5b8435935060208501356001600160401b038111156142ff578283fd5b61430b87828801613e14565b9598909750949560400135949350505050565b60008060008060608587031215614333578182fd5b843593506020850135925060408501356001600160401b03811115614097578283fd5b600060208284031215614367578081fd5b81516001600160401b038082111561437d578283fd5b818401915084601f830112614390578283fd5b8151818111156143a2576143a2614b00565b604051601f8201601f19908116603f011681019083821181831017156143ca576143ca614b00565b816040528281528760208487010111156143e2578586fd5b6143f3836020830160208801614a68565b979650505050505050565b600080600060408486031215614412578081fd5b8335925060208401356001600160401b0381111561442e578182fd5b6142c186828701613e14565b60008284528282602086013780602084860101526020601f19601f85011685010190509392505050565b6000815180845261447c816020860160208601614a68565b601f01601f19169290920160200192915050565b600082516144a2818460208701614a68565b9190910192915050565b73455243313832305f4143434550545f4d4147494360601b815260140190565b6001600160a01b0391909116815260200190565b6001600160a01b03929092168252602082015260400190565b6001600160a01b0393841681526020810192909252909116604082015260600190565b600060018060a01b0386168252846020830152608060408301526145436080830185614464565b82810360608401526143f38185614464565b6020808252825182820181905260009190848201906040850190845b818110156145965783516001600160a01b031683529284019291840191600101614571565b50909695505050505050565b6020808252825182820181905260009190848201906040850190845b81811015614596578351835292840192918401916001016145be565b901515815260200190565b90815260200190565b9485526020850193909352604084019190915260608301526001600160a01b0316608082015260a00190565b600061010080835261462f8184018c8e61443a565b602084018b90526001600160a01b038a8116604086015289811660608601528816608085015260a0840187905283810360c085015290506146708186614464565b905082810360e08401526146848185614464565b9c9b505050505050505050505050565b6000604082526146a860408301858761443a565b9050826020830152949350505050565b600060208252611b7b6020830184614464565b6000604082526146de6040830185614464565b90508260208301529392505050565b6000606082526147006060830186614464565b60208301949094525060400152919050565b6020808252600290820152610d4d60f21b604082015260600190565b6020808252601f908201527f526f6c65733a206163636f756e7420616c72656164792068617320726f6c6500604082015260600190565b6020808252600c908201526b155b985d5d1a1bdc9a5e995960a21b604082015260600190565b602080825260029082015261035360f41b604082015260600190565b60208082526026908201527f4f776e61626c653a206e6577206f776e657220697320746865207a65726f206160408201526564647265737360d01b606082015260800190565b6020808252600d908201526c092dcecc2d8d2c840d2dcc8caf609b1b604082015260600190565b6020808252600290820152611a9b60f11b604082015260600190565b60208082526002908201526106a760f31b604082015260600190565b602080825260029082015261353560f01b604082015260600190565b60208082526021908201527f526f6c65733a206163636f756e7420646f6573206e6f74206861766520726f6c6040820152606560f81b606082015260800190565b6020808252818101527f4f776e61626c653a2063616c6c6572206973206e6f7420746865206f776e6572604082015260600190565b60208082526022908201527f526f6c65733a206163636f756e7420697320746865207a65726f206164647265604082015261737360f01b606082015260800190565b602080825260029082015261353360f01b604082015260600190565b6020808252600290820152611a9960f11b604082015260600190565b602080825260029082015261353760f01b604082015260600190565b602080825260159082015274111bd8dd5b595b9d08191bd95cdb9d08195e1a5cdd605a1b604082015260600190565b6000838252604060208301526111636040830184614464565b6000838252606060208301526149d56060830184614464565b828103604090930192909252815260200192915050565b60ff91909116815260200190565b60008219821115614a0d57614a0d614aea565b500190565b600082614a2d57634e487b7160e01b81526012600452602481fd5b500490565b6000816000190483118215151615614a4c57614a4c614aea565b500290565b600082821015614a6357614a63614aea565b500390565b60005b83811015614a83578181015183820152602001614a6b565b83811115610e815750506000910152565b600281046001821680614aa857607f821691505b60208210811415614ac957634e487b7160e01b600052602260045260246000fd5b50919050565b6000600019821415614ae357614ae3614aea565b5060010190565b634e487b7160e01b600052601160045260246000fd5b634e487b7160e01b600052604160045260246000fd5b6001600160a01b0381168114610f7257600080fdfeddf252ad1be2c89b69c2b068fc378daa952ba7f163c4a11628f55a4df523b3efa2646970667358221220d4e2b9fbfbd29c6dd965de1c1d998181617e4ecad9d965d719e10b4e9c7aa64b64736f6c63430008010033",
  "devdoc": {
    "kind": "dev",
    "methods": {
      "allowance(address,address)": {
        "details": "Check the value of tokens that an owner allowed to a spender.",
        "params": {
          "owner": "address The address which owns the funds.",
          "spender": "address The address which will spend the funds."
        },
        "returns": {
          "_0": "A uint256 specifying the value of tokens still available for the spender."
        }
      },
      "allowanceByPartition(bytes32,address,address)": {
        "details": "Check the value of tokens that an owner allowed to a spender.",
        "params": {
          "owner": "address The address which owns the funds.",
          "partition": "Name of the partition.",
          "spender": "address The address which will spend the funds."
        },
        "returns": {
          "_0": "A uint256 specifying the value of tokens still available for the spender."
        }
      },
      "approve(address,uint256)": {
        "details": "Approve the passed address to spend the specified amount of tokens on behalf of 'msg.sender'.",
        "params": {
          "spender": "The address which will spend the funds.",
          "value": "The amount of tokens to be spent."
        },
        "returns": {
          "_0": "A boolean that indicates if the operation was successful."
        }
      },
      "approveByPartition(bytes32,address,uint256)": {
        "details": "Approve the passed address to spend the specified amount of tokens on behalf of 'msg.sender'.",
        "params": {
          "partition": "Name of the partition.",
          "spender": "The address which will spend the funds.",
          "value": "The amount of tokens to be spent."
        },
        "returns": {
          "_0": "A boolean that indicates if the operation was successful."
        }
      },
      "authorizeOperator(address)": {
        "details": "Set a third party operator address as an operator of 'msg.sender' to transfer and redeem tokens on its behalf.",
        "params": {
          "operator": "Address to set as an operator for 'msg.sender'."
        }
      },
      "authorizeOperatorByPartition(bytes32,address)": {
        "details": "Set 'operator' as an operator for 'msg.sender' for a given partition.",
        "params": {
          "operator": "Address to set as an operator for 'msg.sender'.",
          "partition": "Name of the partition."
        }
      },
      "balanceOf(address)": {
        "details": "Get the balance of the account with address 'tokenHolder'.",
        "params": {
          "tokenHolder": "Address for which the balance is returned."
        },
        "returns": {
          "_0": "Amount of token held by 'tokenHolder' in the token contract."
        }
      },
      "balanceOfByPartition(bytes32,address)": {
        "details": "Get balance of a tokenholder for a specific partition.",
        "params": {
          "partition": "Name of the partition.",
          "tokenHolder": "Address for which the balance is returned."
        },
        "returns": {
          "_0": "Amount of token of partition 'partition' held by 'tokenHolder' in the token contract."
        }
      },
      "controllers()": {
        "details": "Get the list of controllers as defined by the token contract.",
        "returns": {
          "_0": "List of addresses of all the controllers."
        }
      },
      "controllersByPartition(bytes32)": {
        "details": "Get controllers for a given partition.",
        "params": {
          "partition": "Name of the partition."
        },
        "returns": {
          "_0": "Array of controllers for partition."
        }
      },
      "decimals()": {
        "details": "Get the number of decimals of the token.",
        "returns": {
          "_0": "The number of decimals of the token. For retrocompatibility, decimals are forced to 18 in ERC1400."
        }
      },
      "getDefaultPartitions()": {
        "details": "Get default partitions to transfer from. Function used for ERC20 retrocompatibility. For example, a security token may return the bytes32(\"unrestricted\").",
        "returns": {
          "_0": "Array of default partitions."
        }
      },
      "getDocument(bytes32)": {
        "details": "Access a document associated with the token.",
        "params": {
          "name": "Short name (represented as a bytes32) associated to the document."
        },
        "returns": {
          "_0": "Requested document + document hash + document timestamp."
        }
      },
      "granularity()": {
        "details": "Get the smallest part of the token thats not divisible.",
        "returns": {
          "_0": "The smallest non-divisible part of the token."
        }
      },
      "isControllable()": {
        "details": "Know if the token can be controlled by operators. If a token returns 'false' for 'isControllable()'' then it MUST always return 'false' in the future.",
        "returns": {
          "_0": "bool 'true' if the token can still be controlled by operators, 'false' if it can't anymore."
        }
      },
      "isIssuable()": {
        "details": "Know if new tokens can be issued in the future.",
        "returns": {
          "_0": "bool 'true' if tokens can still be issued by the issuer, 'false' if they can't anymore."
        }
      },
      "isOperator(address,address)": {
        "details": "Indicate whether the operator address is an operator of the tokenHolder address.",
        "params": {
          "operator": "Address which may be an operator of tokenHolder.",
          "tokenHolder": "Address of a token holder which may have the operator address as an operator."
        },
        "returns": {
          "_0": "'true' if operator is an operator of 'tokenHolder' and 'false' otherwise."
        }
      },
      "isOperatorForPartition(bytes32,address,address)": {
        "details": "Indicate whether the operator address is an operator of the tokenHolder address for the given partition.",
        "params": {
          "operator": "Address which may be an operator of tokenHolder for the given partition.",
          "partition": "Name of the partition.",
          "tokenHolder": "Address of a token holder which may have the operator address as an operator for the given partition."
        },
        "returns": {
          "_0": "'true' if 'operator' is an operator of 'tokenHolder' for partition 'partition' and 'false' otherwise."
        }
      },
      "issue(address,uint256,bytes)": {
        "details": "Issue tokens from default partition.",
        "params": {
          "data": "Information attached to the issuance, by the issuer.",
          "tokenHolder": "Address for which we want to issue tokens.",
          "value": "Number of tokens issued."
        }
      },
      "issueByPartition(bytes32,address,uint256,bytes)": {
        "details": "Issue tokens from a specific partition.",
        "params": {
          "data": "Information attached to the issuance, by the issuer.",
          "partition": "Name of the partition.",
          "tokenHolder": "Address for which we want to issue tokens.",
          "value": "Number of tokens issued."
        }
      },
      "migrate(address,bool)": {
        "details": "Migrate contract. ===> CAUTION: DEFINITIVE ACTION  This function shall be called once a new version of the smart contract has been created. Once this function is called:  - The address of the new smart contract is set in ERC1820 registry  - If the choice is definitive, the current smart contract is turned off and can never be used again",
        "params": {
          "definitive": "If set to 'true' the contract is turned off definitely.",
          "newContractAddress": "Address of the new version of the smart contract."
        }
      },
      "name()": {
        "details": "Get the name of the token, e.g., \"MyToken\".",
        "returns": {
          "_0": "Name of the token."
        }
      },
      "operatorRedeemByPartition(bytes32,address,uint256,bytes)": {
        "details": "Redeem tokens of a specific partition.",
        "params": {
          "operatorData": "Information attached to the redemption, by the operator.",
          "partition": "Name of the partition.",
          "tokenHolder": "Address for which we want to redeem tokens.",
          "value": "Number of tokens redeemed"
        }
      },
      "operatorTransferByPartition(bytes32,address,address,uint256,bytes,bytes)": {
        "details": "Transfer tokens from a specific partition through an operator.",
        "params": {
          "data": "Information attached to the transfer. [CAN CONTAIN THE DESTINATION PARTITION]",
          "from": "Token holder.",
          "operatorData": "Information attached to the transfer, by the operator.",
          "partition": "Name of the partition.",
          "to": "Token recipient.",
          "value": "Number of tokens to transfer."
        },
        "returns": {
          "_0": "Destination partition."
        }
      },
      "owner()": {
        "details": "Returns the address of the current owner."
      },
      "partitionsOf(address)": {
        "details": "Get partitions index of a tokenholder.",
        "params": {
          "tokenHolder": "Address for which the partitions index are returned."
        },
        "returns": {
          "_0": "Array of partitions index of 'tokenHolder'."
        }
      },
      "redeem(uint256,bytes)": {
        "details": "Redeem the amount of tokens from the address 'msg.sender'.",
        "params": {
          "data": "Information attached to the redemption, by the token holder.",
          "value": "Number of tokens to redeem."
        }
      },
      "redeemByPartition(bytes32,uint256,bytes)": {
        "details": "Redeem tokens of a specific partition.",
        "params": {
          "data": "Information attached to the redemption, by the redeemer.",
          "partition": "Name of the partition.",
          "value": "Number of tokens redeemed."
        }
      },
      "redeemFrom(address,uint256,bytes)": {
        "details": "Redeem the amount of tokens on behalf of the address from.",
        "params": {
          "data": "Information attached to the redemption.",
          "from": "Token holder whose tokens will be redeemed (or address(0) to set from to msg.sender).",
          "value": "Number of tokens to redeem."
        }
      },
      "renounceControl()": {
        "details": "Definitely renounce the possibility to control tokens on behalf of tokenHolders. Once set to false, '_isControllable' can never be set to 'true' again."
      },
      "renounceIssuance()": {
        "details": "Definitely renounce the possibility to issue new tokens. Once set to false, '_isIssuable' can never be set to 'true' again."
      },
      "renounceOwnership()": {
        "details": "Leaves the contract without owner. It will not be possible to call `onlyOwner` functions anymore. Can only be called by the current owner. NOTE: Renouncing ownership will leave the contract without an owner, thereby removing any functionality that is only available to the owner."
      },
      "revokeOperator(address)": {
        "details": "Remove the right of the operator address to be an operator for 'msg.sender' and to transfer and redeem tokens on its behalf.",
        "params": {
          "operator": "Address to rescind as an operator for 'msg.sender'."
        }
      },
      "revokeOperatorByPartition(bytes32,address)": {
        "details": "Remove the right of the operator address to be an operator on a given partition for 'msg.sender' and to transfer and redeem tokens on its behalf.",
        "params": {
          "operator": "Address to rescind as an operator on given partition for 'msg.sender'.",
          "partition": "Name of the partition."
        }
      },
      "setControllers(address[])": {
        "details": "Set list of token controllers.",
        "params": {
          "operators": "Controller addresses."
        }
      },
      "setDefaultPartitions(bytes32[])": {
        "details": "Set default partitions to transfer from. Function used for ERC20 retrocompatibility.",
        "params": {
          "partitions": "partitions to use by default when not specified."
        }
      },
      "setDocument(bytes32,string,bytes32)": {
        "details": "Associate a document with the token.",
        "params": {
          "documentHash": "Hash of the document [optional parameter].",
          "name": "Short name (represented as a bytes32) associated to the document.",
          "uri": "Document content."
        }
      },
      "setPartitionControllers(bytes32,address[])": {
        "details": "Set list of token partition controllers.",
        "params": {
          "operators": "Controller addresses.",
          "partition": "Name of the partition."
        }
      },
      "setTokenExtension(address,string,bool,bool,bool)": {
        "details": "Set token extension contract address. The extension contract can for example verify \"ERC1400TokensValidator\" or \"ERC1400TokensChecker\" interfaces. If the extension is an \"ERC1400TokensValidator\", it will be called everytime a transfer is executed.",
        "params": {
          "addControllerRoleForExtension": "If set to 'true', the extension contract will be added as controller.",
          "addMinterRoleForExtension": "If set to 'true', the extension contract will be added as minter.",
          "extension": "Address of the extension contract.",
          "interfaceLabel": "Interface label of extension contract.",
          "removeOldExtensionRoles": "If set to 'true', the roles of the old extension(minter, controller) will be removed extension."
        }
      },
      "symbol()": {
        "details": "Get the symbol of the token, e.g., \"MYT\".",
        "returns": {
          "_0": "Symbol of the token."
        }
      },
      "totalPartitions()": {
        "details": "Get list of existing partitions.",
        "returns": {
          "_0": "Array of all exisiting partitions."
        }
      },
      "totalSupply()": {
        "details": "Get the total number of issued tokens.",
        "returns": {
          "_0": "Total supply of tokens currently in circulation."
        }
      },
      "totalSupplyByPartition(bytes32)": {
        "details": "Get the total number of issued tokens for a given partition.",
        "params": {
          "partition": "Name of the partition."
        },
        "returns": {
          "_0": "Total supply of tokens currently in circulation, for a given partition."
        }
      },
      "transfer(address,uint256)": {
        "details": "Transfer token for a specified address.",
        "params": {
          "to": "The address to transfer to.",
          "value": "The value to be transferred."
        },
        "returns": {
          "_0": "A boolean that indicates if the operation was successful."
        }
      },
      "transferByPartition(bytes32,address,uint256,bytes)": {
        "details": "Transfer tokens from a specific partition.",
        "params": {
          "data": "Information attached to the transfer, by the token holder.",
          "partition": "Name of the partition.",
          "to": "Token recipient.",
          "value": "Number of tokens to transfer."
        },
        "returns": {
          "_0": "Destination partition."
        }
      },
      "transferFrom(address,address,uint256)": {
        "details": "Transfer tokens from one address to another.",
        "params": {
          "from": "The address which you want to transfer tokens from.",
          "to": "The address which you want to transfer to.",
          "value": "The amount of tokens to be transferred."
        },
        "returns": {
          "_0": "A boolean that indicates if the operation was successful."
        }
      },
      "transferFromWithData(address,address,uint256,bytes)": {
        "details": "Transfer the amount of tokens on behalf of the address 'from' to the address 'to'.",
        "params": {
          "data": "Information attached to the transfer, and intended for the token holder ('from').",
          "from": "Token holder (or 'address(0)' to set from to 'msg.sender').",
          "to": "Token recipient.",
          "value": "Number of tokens to transfer."
        }
      },
      "transferOwnership(address)": {
        "details": "Transfers ownership of the contract to a new account (`newOwner`). Can only be called by the current owner."
      },
      "transferWithData(address,uint256,bytes)": {
        "details": "Transfer the amount of tokens from the address 'msg.sender' to the address 'to'.",
        "params": {
          "data": "Information attached to the transfer, by the token holder.",
          "to": "Token recipient.",
          "value": "Number of tokens to transfer."
        }
      }
    },
    "version": 1
  },
  "userdoc": {
    "kind": "user",
    "methods": {},
    "version": 1
  },
  "storageLayout": {
    "storage": [
      {
        "astId": 539,
        "contract": "contracts/capTable/CapTable.sol:CapTable",
        "label": "_owner",
        "offset": 0,
        "slot": "0",
        "type": "t_address"
      },
      {
        "astId": 14849,
        "contract": "contracts/capTable/CapTable.sol:CapTable",
        "label": "_interfaceHashes",
        "offset": 0,
        "slot": "1",
        "type": "t_mapping(t_bytes32,t_bool)"
      },
      {
        "astId": 16438,
        "contract": "contracts/capTable/CapTable.sol:CapTable",
        "label": "_minters",
        "offset": 0,
        "slot": "2",
        "type": "t_struct(Role)16686_storage"
      },
      {
        "astId": 20837,
        "contract": "contracts/capTable/CapTable.sol:CapTable",
        "label": "domainSeparators",
        "offset": 0,
        "slot": "3",
        "type": "t_mapping(t_uint256,t_bytes32)"
      },
      {
        "astId": 5107,
        "contract": "contracts/capTable/CapTable.sol:CapTable",
        "label": "_name",
        "offset": 0,
        "slot": "4",
        "type": "t_string_storage"
      },
      {
        "astId": 5109,
        "contract": "contracts/capTable/CapTable.sol:CapTable",
        "label": "_symbol",
        "offset": 0,
        "slot": "5",
        "type": "t_string_storage"
      },
      {
        "astId": 5111,
        "contract": "contracts/capTable/CapTable.sol:CapTable",
        "label": "_granularity",
        "offset": 0,
        "slot": "6",
        "type": "t_uint256"
      },
      {
        "astId": 5113,
        "contract": "contracts/capTable/CapTable.sol:CapTable",
        "label": "_totalSupply",
        "offset": 0,
        "slot": "7",
        "type": "t_uint256"
      },
      {
        "astId": 5115,
        "contract": "contracts/capTable/CapTable.sol:CapTable",
        "label": "_migrated",
        "offset": 0,
        "slot": "8",
        "type": "t_bool"
      },
      {
        "astId": 5117,
        "contract": "contracts/capTable/CapTable.sol:CapTable",
        "label": "_isControllable",
        "offset": 1,
        "slot": "8",
        "type": "t_bool"
      },
      {
        "astId": 5119,
        "contract": "contracts/capTable/CapTable.sol:CapTable",
        "label": "_isIssuable",
        "offset": 2,
        "slot": "8",
        "type": "t_bool"
      },
      {
        "astId": 5123,
        "contract": "contracts/capTable/CapTable.sol:CapTable",
        "label": "_balances",
        "offset": 0,
        "slot": "9",
        "type": "t_mapping(t_address,t_uint256)"
      },
      {
        "astId": 5129,
        "contract": "contracts/capTable/CapTable.sol:CapTable",
        "label": "_allowed",
        "offset": 0,
        "slot": "10",
        "type": "t_mapping(t_address,t_mapping(t_address,t_uint256))"
      },
      {
        "astId": 5141,
        "contract": "contracts/capTable/CapTable.sol:CapTable",
        "label": "_documents",
        "offset": 0,
        "slot": "11",
        "type": "t_mapping(t_bytes32,t_struct(Doc)5136_storage)"
      },
      {
        "astId": 5145,
        "contract": "contracts/capTable/CapTable.sol:CapTable",
        "label": "_indexOfDocHashes",
        "offset": 0,
        "slot": "12",
        "type": "t_mapping(t_bytes32,t_uint256)"
      },
      {
        "astId": 5148,
        "contract": "contracts/capTable/CapTable.sol:CapTable",
        "label": "_docHashes",
        "offset": 0,
        "slot": "13",
        "type": "t_array(t_bytes32)dyn_storage"
      },
      {
        "astId": 5151,
        "contract": "contracts/capTable/CapTable.sol:CapTable",
        "label": "_totalPartitions",
        "offset": 0,
        "slot": "14",
        "type": "t_array(t_bytes32)dyn_storage"
      },
      {
        "astId": 5155,
        "contract": "contracts/capTable/CapTable.sol:CapTable",
        "label": "_indexOfTotalPartitions",
        "offset": 0,
        "slot": "15",
        "type": "t_mapping(t_bytes32,t_uint256)"
      },
      {
        "astId": 5159,
        "contract": "contracts/capTable/CapTable.sol:CapTable",
        "label": "_totalSupplyByPartition",
        "offset": 0,
        "slot": "16",
        "type": "t_mapping(t_bytes32,t_uint256)"
      },
      {
        "astId": 5164,
        "contract": "contracts/capTable/CapTable.sol:CapTable",
        "label": "_partitionsOf",
        "offset": 0,
        "slot": "17",
        "type": "t_mapping(t_address,t_array(t_bytes32)dyn_storage)"
      },
      {
        "astId": 5170,
        "contract": "contracts/capTable/CapTable.sol:CapTable",
        "label": "_indexOfPartitionsOf",
        "offset": 0,
        "slot": "18",
        "type": "t_mapping(t_address,t_mapping(t_bytes32,t_uint256))"
      },
      {
        "astId": 5176,
        "contract": "contracts/capTable/CapTable.sol:CapTable",
        "label": "_balanceOfByPartition",
        "offset": 0,
        "slot": "19",
        "type": "t_mapping(t_address,t_mapping(t_bytes32,t_uint256))"
      },
      {
        "astId": 5179,
        "contract": "contracts/capTable/CapTable.sol:CapTable",
        "label": "_defaultPartitions",
        "offset": 0,
        "slot": "20",
        "type": "t_array(t_bytes32)dyn_storage"
      },
      {
        "astId": 5185,
        "contract": "contracts/capTable/CapTable.sol:CapTable",
        "label": "_authorizedOperator",
        "offset": 0,
        "slot": "21",
        "type": "t_mapping(t_address,t_mapping(t_address,t_bool))"
      },
      {
        "astId": 5188,
        "contract": "contracts/capTable/CapTable.sol:CapTable",
        "label": "_controllers",
        "offset": 0,
        "slot": "22",
        "type": "t_array(t_address)dyn_storage"
      },
      {
        "astId": 5192,
        "contract": "contracts/capTable/CapTable.sol:CapTable",
        "label": "_isController",
        "offset": 0,
        "slot": "23",
        "type": "t_mapping(t_address,t_bool)"
      },
      {
        "astId": 5200,
        "contract": "contracts/capTable/CapTable.sol:CapTable",
        "label": "_allowedByPartition",
        "offset": 0,
        "slot": "24",
        "type": "t_mapping(t_bytes32,t_mapping(t_address,t_mapping(t_address,t_uint256)))"
      },
      {
        "astId": 5208,
        "contract": "contracts/capTable/CapTable.sol:CapTable",
        "label": "_authorizedOperatorByPartition",
        "offset": 0,
        "slot": "25",
        "type": "t_mapping(t_address,t_mapping(t_bytes32,t_mapping(t_address,t_bool)))"
      },
      {
        "astId": 5213,
        "contract": "contracts/capTable/CapTable.sol:CapTable",
        "label": "_controllersByPartition",
        "offset": 0,
        "slot": "26",
        "type": "t_mapping(t_bytes32,t_array(t_address)dyn_storage)"
      },
      {
        "astId": 5219,
        "contract": "contracts/capTable/CapTable.sol:CapTable",
        "label": "_isControllerByPartition",
        "offset": 0,
        "slot": "27",
        "type": "t_mapping(t_bytes32,t_mapping(t_address,t_bool))"
      },
      {
        "astId": 8550,
        "contract": "contracts/capTable/CapTable.sol:CapTable",
        "label": "_capTableRegistry",
        "offset": 0,
        "slot": "28",
        "type": "t_contract(CapTableRegistry)9508"
      }
    ],
    "types": {
      "t_address": {
        "encoding": "inplace",
        "label": "address",
        "numberOfBytes": "20"
      },
      "t_array(t_address)dyn_storage": {
        "base": "t_address",
        "encoding": "dynamic_array",
        "label": "address[]",
        "numberOfBytes": "32"
      },
      "t_array(t_bytes32)dyn_storage": {
        "base": "t_bytes32",
        "encoding": "dynamic_array",
        "label": "bytes32[]",
        "numberOfBytes": "32"
      },
      "t_bool": {
        "encoding": "inplace",
        "label": "bool",
        "numberOfBytes": "1"
      },
      "t_bytes32": {
        "encoding": "inplace",
        "label": "bytes32",
        "numberOfBytes": "32"
      },
      "t_contract(CapTableRegistry)9508": {
        "encoding": "inplace",
        "label": "contract CapTableRegistry",
        "numberOfBytes": "20"
      },
      "t_mapping(t_address,t_array(t_bytes32)dyn_storage)": {
        "encoding": "mapping",
        "key": "t_address",
        "label": "mapping(address => bytes32[])",
        "numberOfBytes": "32",
        "value": "t_array(t_bytes32)dyn_storage"
      },
      "t_mapping(t_address,t_bool)": {
        "encoding": "mapping",
        "key": "t_address",
        "label": "mapping(address => bool)",
        "numberOfBytes": "32",
        "value": "t_bool"
      },
      "t_mapping(t_address,t_mapping(t_address,t_bool))": {
        "encoding": "mapping",
        "key": "t_address",
        "label": "mapping(address => mapping(address => bool))",
        "numberOfBytes": "32",
        "value": "t_mapping(t_address,t_bool)"
      },
      "t_mapping(t_address,t_mapping(t_address,t_uint256))": {
        "encoding": "mapping",
        "key": "t_address",
        "label": "mapping(address => mapping(address => uint256))",
        "numberOfBytes": "32",
        "value": "t_mapping(t_address,t_uint256)"
      },
      "t_mapping(t_address,t_mapping(t_bytes32,t_mapping(t_address,t_bool)))": {
        "encoding": "mapping",
        "key": "t_address",
        "label": "mapping(address => mapping(bytes32 => mapping(address => bool)))",
        "numberOfBytes": "32",
        "value": "t_mapping(t_bytes32,t_mapping(t_address,t_bool))"
      },
      "t_mapping(t_address,t_mapping(t_bytes32,t_uint256))": {
        "encoding": "mapping",
        "key": "t_address",
        "label": "mapping(address => mapping(bytes32 => uint256))",
        "numberOfBytes": "32",
        "value": "t_mapping(t_bytes32,t_uint256)"
      },
      "t_mapping(t_address,t_uint256)": {
        "encoding": "mapping",
        "key": "t_address",
        "label": "mapping(address => uint256)",
        "numberOfBytes": "32",
        "value": "t_uint256"
      },
      "t_mapping(t_bytes32,t_array(t_address)dyn_storage)": {
        "encoding": "mapping",
        "key": "t_bytes32",
        "label": "mapping(bytes32 => address[])",
        "numberOfBytes": "32",
        "value": "t_array(t_address)dyn_storage"
      },
      "t_mapping(t_bytes32,t_bool)": {
        "encoding": "mapping",
        "key": "t_bytes32",
        "label": "mapping(bytes32 => bool)",
        "numberOfBytes": "32",
        "value": "t_bool"
      },
      "t_mapping(t_bytes32,t_mapping(t_address,t_bool))": {
        "encoding": "mapping",
        "key": "t_bytes32",
        "label": "mapping(bytes32 => mapping(address => bool))",
        "numberOfBytes": "32",
        "value": "t_mapping(t_address,t_bool)"
      },
      "t_mapping(t_bytes32,t_mapping(t_address,t_mapping(t_address,t_uint256)))": {
        "encoding": "mapping",
        "key": "t_bytes32",
        "label": "mapping(bytes32 => mapping(address => mapping(address => uint256)))",
        "numberOfBytes": "32",
        "value": "t_mapping(t_address,t_mapping(t_address,t_uint256))"
      },
      "t_mapping(t_bytes32,t_struct(Doc)5136_storage)": {
        "encoding": "mapping",
        "key": "t_bytes32",
        "label": "mapping(bytes32 => struct ERC1400.Doc)",
        "numberOfBytes": "32",
        "value": "t_struct(Doc)5136_storage"
      },
      "t_mapping(t_bytes32,t_uint256)": {
        "encoding": "mapping",
        "key": "t_bytes32",
        "label": "mapping(bytes32 => uint256)",
        "numberOfBytes": "32",
        "value": "t_uint256"
      },
      "t_mapping(t_uint256,t_bytes32)": {
        "encoding": "mapping",
        "key": "t_uint256",
        "label": "mapping(uint256 => bytes32)",
        "numberOfBytes": "32",
        "value": "t_bytes32"
      },
      "t_string_storage": {
        "encoding": "bytes",
        "label": "string",
        "numberOfBytes": "32"
      },
      "t_struct(Doc)5136_storage": {
        "encoding": "inplace",
        "label": "struct ERC1400.Doc",
        "members": [
          {
            "astId": 5131,
            "contract": "contracts/capTable/CapTable.sol:CapTable",
            "label": "docURI",
            "offset": 0,
            "slot": "0",
            "type": "t_string_storage"
          },
          {
            "astId": 5133,
            "contract": "contracts/capTable/CapTable.sol:CapTable",
            "label": "docHash",
            "offset": 0,
            "slot": "1",
            "type": "t_bytes32"
          },
          {
            "astId": 5135,
            "contract": "contracts/capTable/CapTable.sol:CapTable",
            "label": "timestamp",
            "offset": 0,
            "slot": "2",
            "type": "t_uint256"
          }
        ],
        "numberOfBytes": "96"
      },
      "t_struct(Role)16686_storage": {
        "encoding": "inplace",
        "label": "struct Roles.Role",
        "members": [
          {
            "astId": 16685,
            "contract": "contracts/capTable/CapTable.sol:CapTable",
            "label": "bearer",
            "offset": 0,
            "slot": "0",
            "type": "t_mapping(t_address,t_bool)"
          }
        ],
        "numberOfBytes": "32"
      },
      "t_uint256": {
        "encoding": "inplace",
        "label": "uint256",
        "numberOfBytes": "32"
      }
    }
  }
}