{
  "address": "0x3473F3B44d8Daf6AFA2b4e7D0120a62fe341fC70",
  "abi": [
    {
      "anonymous": false,
      "inputs": [
        {
          "indexed": true,
          "internalType": "address",
          "name": "identity",
          "type": "address"
        },
        {
          "indexed": false,
          "internalType": "bytes32",
          "name": "name",
          "type": "bytes32"
        },
        {
          "indexed": false,
          "internalType": "bytes",
          "name": "value",
          "type": "bytes"
        },
        {
          "indexed": false,
          "internalType": "uint256",
          "name": "validTo",
          "type": "uint256"
        },
        {
          "indexed": false,
          "internalType": "uint256",
          "name": "previousChange",
          "type": "uint256"
        }
      ],
      "name": "DIDAttributeChanged",
      "type": "event"
    },
    {
      "anonymous": false,
      "inputs": [
        {
          "indexed": true,
          "internalType": "address",
          "name": "identity",
          "type": "address"
        },
        {
          "indexed": false,
          "internalType": "bytes32",
          "name": "delegateType",
          "type": "bytes32"
        },
        {
          "indexed": false,
          "internalType": "address",
          "name": "delegate",
          "type": "address"
        },
        {
          "indexed": false,
          "internalType": "uint256",
          "name": "validTo",
          "type": "uint256"
        },
        {
          "indexed": false,
          "internalType": "uint256",
          "name": "previousChange",
          "type": "uint256"
        }
      ],
      "name": "DIDDelegateChanged",
      "type": "event"
    },
    {
      "anonymous": false,
      "inputs": [
        {
          "indexed": true,
          "internalType": "address",
          "name": "identity",
          "type": "address"
        },
        {
          "indexed": false,
          "internalType": "address",
          "name": "owner",
          "type": "address"
        },
        {
          "indexed": false,
          "internalType": "uint256",
          "name": "previousChange",
          "type": "uint256"
        }
      ],
      "name": "DIDOwnerChanged",
      "type": "event"
    },
    {
      "inputs": [
        {
          "internalType": "address",
          "name": "identity",
          "type": "address"
        },
        {
          "internalType": "bytes32",
          "name": "delegateType",
          "type": "bytes32"
        },
        {
          "internalType": "address",
          "name": "delegate",
          "type": "address"
        },
        {
          "internalType": "uint256",
          "name": "validity",
          "type": "uint256"
        }
      ],
      "name": "addDelegate",
      "outputs": [],
      "stateMutability": "nonpayable",
      "type": "function"
    },
    {
      "inputs": [
        {
          "internalType": "address",
          "name": "identity",
          "type": "address"
        },
        {
          "internalType": "uint8",
          "name": "sigV",
          "type": "uint8"
        },
        {
          "internalType": "bytes32",
          "name": "sigR",
          "type": "bytes32"
        },
        {
          "internalType": "bytes32",
          "name": "sigS",
          "type": "bytes32"
        },
        {
          "internalType": "bytes32",
          "name": "delegateType",
          "type": "bytes32"
        },
        {
          "internalType": "address",
          "name": "delegate",
          "type": "address"
        },
        {
          "internalType": "uint256",
          "name": "validity",
          "type": "uint256"
        }
      ],
      "name": "addDelegateSigned",
      "outputs": [],
      "stateMutability": "nonpayable",
      "type": "function"
    },
    {
      "inputs": [
        {
          "internalType": "address",
          "name": "identity",
          "type": "address"
        },
        {
          "internalType": "bytes",
          "name": "signature",
          "type": "bytes"
        },
        {
          "internalType": "bytes32",
          "name": "delegateType",
          "type": "bytes32"
        },
        {
          "internalType": "address",
          "name": "delegate",
          "type": "address"
        },
        {
          "internalType": "uint256",
          "name": "validity",
          "type": "uint256"
        }
      ],
      "name": "addDelegateSigned",
      "outputs": [],
      "stateMutability": "nonpayable",
      "type": "function"
    },
    {
      "inputs": [
        {
          "internalType": "address",
          "name": "identity",
          "type": "address"
        },
        {
          "internalType": "address",
          "name": "newOwner",
          "type": "address"
        }
      ],
      "name": "changeOwner",
      "outputs": [],
      "stateMutability": "nonpayable",
      "type": "function"
    },
    {
      "inputs": [
        {
          "internalType": "address",
          "name": "identity",
          "type": "address"
        },
        {
          "internalType": "uint8",
          "name": "sigV",
          "type": "uint8"
        },
        {
          "internalType": "bytes32",
          "name": "sigR",
          "type": "bytes32"
        },
        {
          "internalType": "bytes32",
          "name": "sigS",
          "type": "bytes32"
        },
        {
          "internalType": "address",
          "name": "newOwner",
          "type": "address"
        }
      ],
      "name": "changeOwnerSigned",
      "outputs": [],
      "stateMutability": "nonpayable",
      "type": "function"
    },
    {
      "inputs": [
        {
          "internalType": "address",
          "name": "identity",
          "type": "address"
        },
        {
          "internalType": "bytes",
          "name": "signature",
          "type": "bytes"
        },
        {
          "internalType": "address",
          "name": "newOwner",
          "type": "address"
        }
      ],
      "name": "changeOwnerSigned",
      "outputs": [],
      "stateMutability": "nonpayable",
      "type": "function"
    },
    {
      "inputs": [
        {
          "internalType": "address",
          "name": "",
          "type": "address"
        }
      ],
      "name": "changed",
      "outputs": [
        {
          "internalType": "uint256",
          "name": "",
          "type": "uint256"
        }
      ],
      "stateMutability": "view",
      "type": "function"
    },
    {
      "inputs": [
        {
          "internalType": "address",
          "name": "",
          "type": "address"
        },
        {
          "internalType": "bytes32",
          "name": "",
          "type": "bytes32"
        },
        {
          "internalType": "address",
          "name": "",
          "type": "address"
        }
      ],
      "name": "delegates",
      "outputs": [
        {
          "internalType": "uint256",
          "name": "",
          "type": "uint256"
        }
      ],
      "stateMutability": "view",
      "type": "function"
    },
    {
      "inputs": [
        {
          "internalType": "address",
          "name": "identity",
          "type": "address"
        }
      ],
      "name": "identityOwner",
      "outputs": [
        {
          "internalType": "address",
          "name": "",
          "type": "address"
        }
      ],
      "stateMutability": "view",
      "type": "function"
    },
    {
      "inputs": [
        {
          "internalType": "address",
          "name": "",
          "type": "address"
        }
      ],
      "name": "nonce",
      "outputs": [
        {
          "internalType": "uint256",
          "name": "",
          "type": "uint256"
        }
      ],
      "stateMutability": "view",
      "type": "function"
    },
    {
      "inputs": [
        {
          "internalType": "address",
          "name": "",
          "type": "address"
        }
      ],
      "name": "owners",
      "outputs": [
        {
          "internalType": "address",
          "name": "",
          "type": "address"
        }
      ],
      "stateMutability": "view",
      "type": "function"
    },
    {
      "inputs": [
        {
          "internalType": "address",
          "name": "identity",
          "type": "address"
        },
        {
          "internalType": "bytes32",
          "name": "name",
          "type": "bytes32"
        },
        {
          "internalType": "bytes",
          "name": "value",
          "type": "bytes"
        }
      ],
      "name": "revokeAttribute",
      "outputs": [],
      "stateMutability": "nonpayable",
      "type": "function"
    },
    {
      "inputs": [
        {
          "internalType": "address",
          "name": "identity",
          "type": "address"
        },
        {
          "internalType": "uint8",
          "name": "sigV",
          "type": "uint8"
        },
        {
          "internalType": "bytes32",
          "name": "sigR",
          "type": "bytes32"
        },
        {
          "internalType": "bytes32",
          "name": "sigS",
          "type": "bytes32"
        },
        {
          "internalType": "bytes32",
          "name": "name",
          "type": "bytes32"
        },
        {
          "internalType": "bytes",
          "name": "value",
          "type": "bytes"
        }
      ],
      "name": "revokeAttributeSigned",
      "outputs": [],
      "stateMutability": "nonpayable",
      "type": "function"
    },
    {
      "inputs": [
        {
          "internalType": "address",
          "name": "identity",
          "type": "address"
        },
        {
          "internalType": "bytes",
          "name": "signature",
          "type": "bytes"
        },
        {
          "internalType": "bytes32",
          "name": "name",
          "type": "bytes32"
        },
        {
          "internalType": "bytes",
          "name": "value",
          "type": "bytes"
        }
      ],
      "name": "revokeAttributeSigned",
      "outputs": [],
      "stateMutability": "nonpayable",
      "type": "function"
    },
    {
      "inputs": [
        {
          "internalType": "address",
          "name": "identity",
          "type": "address"
        },
        {
          "internalType": "bytes32",
          "name": "delegateType",
          "type": "bytes32"
        },
        {
          "internalType": "address",
          "name": "delegate",
          "type": "address"
        }
      ],
      "name": "revokeDelegate",
      "outputs": [],
      "stateMutability": "nonpayable",
      "type": "function"
    },
    {
      "inputs": [
        {
          "internalType": "address",
          "name": "identity",
          "type": "address"
        },
        {
          "internalType": "bytes",
          "name": "signature",
          "type": "bytes"
        },
        {
          "internalType": "bytes32",
          "name": "delegateType",
          "type": "bytes32"
        },
        {
          "internalType": "address",
          "name": "delegate",
          "type": "address"
        }
      ],
      "name": "revokeDelegateSigned",
      "outputs": [],
      "stateMutability": "nonpayable",
      "type": "function"
    },
    {
      "inputs": [
        {
          "internalType": "address",
          "name": "identity",
          "type": "address"
        },
        {
          "internalType": "uint8",
          "name": "sigV",
          "type": "uint8"
        },
        {
          "internalType": "bytes32",
          "name": "sigR",
          "type": "bytes32"
        },
        {
          "internalType": "bytes32",
          "name": "sigS",
          "type": "bytes32"
        },
        {
          "internalType": "bytes32",
          "name": "delegateType",
          "type": "bytes32"
        },
        {
          "internalType": "address",
          "name": "delegate",
          "type": "address"
        }
      ],
      "name": "revokeDelegateSigned",
      "outputs": [],
      "stateMutability": "nonpayable",
      "type": "function"
    },
    {
      "inputs": [
        {
          "internalType": "address",
          "name": "identity",
          "type": "address"
        },
        {
          "internalType": "bytes32",
          "name": "name",
          "type": "bytes32"
        },
        {
          "internalType": "bytes",
          "name": "value",
          "type": "bytes"
        },
        {
          "internalType": "uint256",
          "name": "validity",
          "type": "uint256"
        }
      ],
      "name": "setAttribute",
      "outputs": [],
      "stateMutability": "nonpayable",
      "type": "function"
    },
    {
      "inputs": [
        {
          "internalType": "address",
          "name": "identity",
          "type": "address"
        },
        {
          "internalType": "uint8",
          "name": "sigV",
          "type": "uint8"
        },
        {
          "internalType": "bytes32",
          "name": "sigR",
          "type": "bytes32"
        },
        {
          "internalType": "bytes32",
          "name": "sigS",
          "type": "bytes32"
        },
        {
          "internalType": "bytes32",
          "name": "name",
          "type": "bytes32"
        },
        {
          "internalType": "bytes",
          "name": "value",
          "type": "bytes"
        },
        {
          "internalType": "uint256",
          "name": "validity",
          "type": "uint256"
        }
      ],
      "name": "setAttributeSigned",
      "outputs": [],
      "stateMutability": "nonpayable",
      "type": "function"
    },
    {
      "inputs": [
        {
          "internalType": "address",
          "name": "identity",
          "type": "address"
        },
        {
          "internalType": "bytes",
          "name": "signature",
          "type": "bytes"
        },
        {
          "internalType": "bytes32",
          "name": "name",
          "type": "bytes32"
        },
        {
          "internalType": "bytes",
          "name": "value",
          "type": "bytes"
        },
        {
          "internalType": "uint256",
          "name": "validity",
          "type": "uint256"
        }
      ],
      "name": "setAttributeSigned",
      "outputs": [],
      "stateMutability": "nonpayable",
      "type": "function"
    },
    {
      "inputs": [
        {
          "internalType": "address",
          "name": "identity",
          "type": "address"
        },
        {
          "internalType": "bytes32",
          "name": "delegateType",
          "type": "bytes32"
        },
        {
          "internalType": "address",
          "name": "delegate",
          "type": "address"
        }
      ],
      "name": "validDelegate",
      "outputs": [
        {
          "internalType": "bool",
          "name": "",
          "type": "bool"
        }
      ],
      "stateMutability": "view",
      "type": "function"
    }
  ],
  "transactionHash": "0x5d091acd22892b38594bd29a1c73ede355dc35fbb1c97c2e117bc6717767ef6a",
  "args": [],
  "numDeployments": 2,
  "solcInputHash": "e5d81942f96c6da0477ea5ca143b094a",
  "bytecode": "0x608060405234801561001057600080fd5b50611ccf806100206000396000f3fe608060405234801561001057600080fd5b50600436106101065760003560e01c8062c023da1461010b578063022914a7146101205780630d44625b14610149578063123b5e9814610169578063240cf1fa1461017c57806328b7b95e1461018f578063573b2cd8146101a257806357d45c54146101b5578063622b2a3c146101c857806370ae92d2146101e85780637ad4b0a4146101fb57806380b29f7c1461020e5780638733d4e81461022157806393072684146102345780639c2c1b2b14610247578063a7068d661461025a578063bdb31f3b1461026d578063e476af5c14610280578063f00d4b5d14610293578063f2861828146102a6578063f96d0f9f146102b9575b600080fd5b61011e610119366004611294565b6102cc565b005b61013361012e3660046111ca565b6102dd565b6040516101409190611a1a565b60405180910390f35b61015c610157366004611216565b6102f8565b6040516101409190611a11565b61011e6101773660046116f8565b61031b565b61011e61018a366004611564565b6103a7565b61011e61019d366004611344565b61042b565b61011e6101b03660046114e2565b6104a5565b61011e6101c3366004611396565b61051d565b6101db6101d6366004611216565b6105a1565b6040516101409190611a47565b61015c6101f63660046111ca565b610615565b61011e6102093660046112e8565b610627565b61011e61021c366004611216565b610634565b61013361022f3660046111ca565b610640565b61011e6102423660046115ba565b610674565b61011e610255366004611618565b6106f5565b61011e610268366004611251565b610777565b61011e61027b3660046113fb565b610784565b61011e61028e366004611681565b6107fc565b61011e6102a13660046111e4565b61087b565b61011e6102b4366004611468565b61088a565b61015c6102c73660046111ca565b610900565b6102d883338484610912565b505050565b6000602081905290815260409020546001600160a01b031681565b600160209081526000938452604080852082529284528284209052825290205481565b6000601960f81b81306003826103308d610640565b6001600160a01b03166001600160a01b03168152602001908152602001600020548b88888860405160200161036c989796959493929190611920565b60405160208183030381529060405280519060200120905061039d886103958a8a8a8a876109a0565b868686610a4e565b5050505050505050565b6000601960f81b81306003826103bc8b610640565b6001600160a01b03166001600160a01b031681526020019081526020016000205489866040516020016103f496959493929190611850565b6040516020818303038152906040528051906020012090506104238661041d88888888876109a0565b84610af1565b505050505050565b6000601960f81b813060038261044089610640565b6001600160a01b03166001600160a01b0316815260200190815260200160002054878660405160200161047896959493929190611850565b60405160208183030381529060405280519060200120905061049f8461041d868487610baa565b50505050565b6000601960f81b81306003826104ba8b610640565b6001600160a01b03166001600160a01b0316815260200190815260200160002054898888886040516020016104f6989796959493929190611920565b60405160208183030381529060405280519060200120905061042386610395888489610baa565b6000601960f81b81306003826105328a610640565b6001600160a01b03166001600160a01b031681526020019081526020016000205488878760405160200161056c97969594939291906119a6565b60405160208183030381529060405280519060200120905061059a85610593878488610baa565b8585610cf7565b5050505050565b6001600160a01b03831660009081526001602090815260408083209051839283916105ce91889101611a11565b60408051601f19818403018152918152815160209283012083528282019390935290820160009081206001600160a01b0387168252909152205442109150505b9392505050565b60036020526000908152604090205481565b61049f8433858585610a4e565b6102d883338484610cf7565b6001600160a01b03808216600090815260208190526040812054909116801561066a57905061066f565b829150505b919050565b6000601960f81b81306003826106898c610640565b6001600160a01b03166001600160a01b03168152602001908152602001600020548a87876040516020016106c397969594939291906119a6565b6040516020818303038152906040528051906020012090506106ec8761059389898989876109a0565b50505050505050565b6000601960f81b813060038261070a8d610640565b6001600160a01b03166001600160a01b03168152602001908152602001600020548b8888886040516020016107469897969594939291906118b2565b60405160208183030381529060405280519060200120905061039d8861076f8a8a8a8a876109a0565b868686610dbe565b61049f8433858585610dbe565b6000601960f81b81306003826107998b610640565b6001600160a01b03166001600160a01b0316815260200190815260200160002054898888886040516020016107d59897969594939291906118b2565b6040516020818303038152906040528051906020012090506104238661076f888489610baa565b6000601960f81b81306003826108118c610640565b6001600160a01b03166001600160a01b03168152602001908152602001600020548a878760405160200161084b97969594939291906117ce565b6040516020818303038152906040528051906020012090506106ec8761087489898989876109a0565b8585610912565b610886823383610af1565b5050565b6000601960f81b813060038261089f8a610640565b6001600160a01b03166001600160a01b03168152602001908152602001600020548887876040516020016108d997969594939291906117ce565b60405160208183030381529060405280519060200120905061059a85610874878488610baa565b60026020526000908152604090205481565b838361091d82610640565b6001600160a01b0316816001600160a01b03161461093a57600080fd5b6001600160a01b038616600081815260026020526040808220549051600080516020611c7a8339815191529261097592899289929190611a97565b60405180910390a25050506001600160a01b0390921660009081526002602052604090204390555050565b600080600183878787604051600081526020016040526040516109c69493929190611ac3565b6020604051602081039080840390855afa1580156109e8573d6000803e3d6000fd5b5050506020604051035190506109fd87610640565b6001600160a01b0316816001600160a01b031614610a1a57600080fd5b6001600160a01b0381166000908152600360205260408120805491610a3e83611c12565b9091555090979650505050505050565b8484610a5982610640565b6001600160a01b0316816001600160a01b031614610a7657600080fd5b6001600160a01b038716600080516020611c7a8339815191528686610a9b8742611bce565b6001600160a01b038c1660009081526002602052604090819020549051610ac59493929190611a97565b60405180910390a25050506001600160a01b039093166000908152600260205260409020439055505050565b8282610afc82610640565b6001600160a01b0316816001600160a01b031614610b1957600080fd5b6001600160a01b0385811660008181526020818152604080832080546001600160a01b031916958916959095179094556002905282902054915190917f38a5a6e68f30ed1ab45860a4afb34bcb2fc00f22ca462d249b8a8d40cda6f7a391610b82918791611a2e565b60405180910390a2505050506001600160a01b03166000908152600260205260409020439055565b600080610bb685610640565b9050803b15801590610c8f57604051630b135d3f60e11b81526001600160a01b03831690631626ba7e90610bf09088908890600401611a76565b60206040518083038186803b158015610c0857600080fd5b505afa158015610c1c573d6000803e3d6000fd5b505050506040513d601f19601f82011682018060405250810190610c40919061177a565b6001600160e01b031916630b135d3f60e11b14610c5c57600080fd5b6001600160a01b0382166000908152600360205260408120805491610c8083611c12565b9190505550819250505061060e565b6000610c9b8686610ea3565b9050610ca687610640565b6001600160a01b0316816001600160a01b031614610cc357600080fd5b6001600160a01b0381166000908152600360205260408120805491610ce783611c12565b919050555080935050505061060e565b8383610d0282610640565b6001600160a01b0316816001600160a01b031614610d1f57600080fd5b6001600160a01b0386166000908152600160209081526040808320905142939192610d4c91899101611a11565b60408051601f19818403018152918152815160209283012083528282019390935290820160009081206001600160a01b03808916835290835283822094909455928916808452600290915291819020549051600080516020611c5a833981519152916109759188918891429190611a52565b8484610dc982610640565b6001600160a01b0316816001600160a01b031614610de657600080fd5b610df08342611bce565b6001600160a01b03881660009081526001602090815260408083209051909291610e1c918a9101611a11565b60408051601f19818403018152918152815160209283012083528282019390935290820160009081206001600160a01b03808a168352925291909120919091558716600080516020611c5a8339815191528686610e798742611bce565b6001600160a01b038c1660009081526002602052604090819020549051610ac59493929190611a52565b6000806000610eb28585610ec7565b91509150610ebf81610f0d565b509392505050565b600080825160411415610efe5760208301516040840151606085015160001a610ef287828585611046565b94509450505050610f06565b506000905060025b9250929050565b6000816004811115610f2f57634e487b7160e01b600052602160045260246000fd5b1415610f3a57611043565b6001816004811115610f5c57634e487b7160e01b600052602160045260246000fd5b1415610f835760405162461bcd60e51b8152600401610f7a90611ae1565b60405180910390fd5b6002816004811115610fa557634e487b7160e01b600052602160045260246000fd5b1415610fc35760405162461bcd60e51b8152600401610f7a90611b13565b6003816004811115610fe557634e487b7160e01b600052602160045260246000fd5b14156110035760405162461bcd60e51b8152600401610f7a90611b4a565b600481600481111561102557634e487b7160e01b600052602160045260246000fd5b14156110435760405162461bcd60e51b8152600401610f7a90611b8c565b50565b6000806fa2a8918ca85bafe22016d0b997e4df60600160ff1b038311156110735750600090506003611113565b8460ff16601b1415801561108b57508460ff16601c14155b1561109c5750600090506004611113565b6000600187878787604051600081526020016040526040516110c19493929190611ac3565b6020604051602081039080840390855afa1580156110e3573d6000803e3d6000fd5b5050604051601f1901519150506001600160a01b03811661110c57600060019250925050611113565b9150600090505b94509492505050565b80356001600160a01b038116811461066f57600080fd5b600082601f830112611143578081fd5b81356001600160401b038082111561115d5761115d611c43565b604051601f8301601f19908116603f0116810190828211818310171561118557611185611c43565b8160405283815286602085880101111561119d578485fd5b8360208701602083013792830160200193909352509392505050565b803560ff8116811461066f57600080fd5b6000602082840312156111db578081fd5b61060e8261111c565b600080604083850312156111f6578081fd5b6111ff8361111c565b915061120d6020840161111c565b90509250929050565b60008060006060848603121561122a578081fd5b6112338461111c565b9250602084013591506112486040850161111c565b90509250925092565b60008060008060808587031215611266578081fd5b61126f8561111c565b9350602085013592506112846040860161111c565b9396929550929360600135925050565b6000806000606084860312156112a8578283fd5b6112b18461111c565b92506020840135915060408401356001600160401b038111156112d2578182fd5b6112de86828701611133565b9150509250925092565b600080600080608085870312156112fd578384fd5b6113068561111c565b93506020850135925060408501356001600160401b03811115611327578283fd5b61133387828801611133565b949793965093946060013593505050565b600080600060608486031215611358578283fd5b6113618461111c565b925060208401356001600160401b0381111561137b578283fd5b61138786828701611133565b9250506112486040850161111c565b600080600080608085870312156113ab578384fd5b6113b48561111c565b935060208501356001600160401b038111156113ce578384fd5b6113da87828801611133565b935050604085013591506113f06060860161111c565b905092959194509250565b600080600080600060a08688031215611412578081fd5b61141b8661111c565b945060208601356001600160401b03811115611435578182fd5b61144188828901611133565b945050604086013592506114576060870161111c565b949793965091946080013592915050565b6000806000806080858703121561147d578384fd5b6114868561111c565b935060208501356001600160401b03808211156114a1578485fd5b6114ad88838901611133565b94506040870135935060608701359150808211156114c9578283fd5b506114d687828801611133565b91505092959194509250565b600080600080600060a086880312156114f9578283fd5b6115028661111c565b945060208601356001600160401b038082111561151d578485fd5b61152989838a01611133565b9550604088013594506060880135915080821115611545578283fd5b5061155288828901611133565b95989497509295608001359392505050565b600080600080600060a0868803121561157b578283fd5b6115848661111c565b9450611592602087016111b9565b935060408601359250606086013591506115ae6080870161111c565b90509295509295909350565b60008060008060008060c087890312156115d2578384fd5b6115db8761111c565b95506115e9602088016111b9565b945060408701359350606087013592506080870135915061160c60a0880161111c565b90509295509295509295565b600080600080600080600060e0888a031215611632578485fd5b61163b8861111c565b9650611649602089016111b9565b955060408801359450606088013593506080880135925061166c60a0890161111c565b915060c0880135905092959891949750929550565b60008060008060008060c08789031215611699578384fd5b6116a28761111c565b95506116b0602088016111b9565b945060408701359350606087013592506080870135915060a08701356001600160401b038111156116df578182fd5b6116eb89828a01611133565b9150509295509295509295565b600080600080600080600060e0888a031215611712578081fd5b61171b8861111c565b9650611729602089016111b9565b955060408801359450606088013593506080880135925060a08801356001600160401b03811115611758578182fd5b6117648a828b01611133565b92505060c0880135905092959891949750929550565b60006020828403121561178b578081fd5b81516001600160e01b03198116811461060e578182fd5b600081518084526117ba816020860160208601611be6565b601f01601f19169290920160200192915050565b6001600160f81b03198881168252871660018201526001600160601b0319606087811b821660028401526016830187905285901b1660368201526e7265766f6b6541747472696275746560881b604a82015260598101839052815160009061183d816079850160208701611be6565b9190910160790198975050505050505050565b6001600160f81b031996871681529490951660018501526001600160601b0319606093841b811660028601526016850192909252821b811660368401526a31b430b733b2a7bbb732b960a91b604a84015292901b909116605582015260690190565b6001600160f81b031998891681529690971660018701526001600160601b0319606095861b81166002880152601687019490945291841b831660368601526a61646444656c656761746560a81b604a860152605585015290911b166075820152608981019190915260a90190565b6001600160f81b03198981168252881660018201526001600160601b0319606088811b821660028401526016830188905286901b1660368201526b73657441747472696275746560a01b604a82015260568101849052825160009061198c816076850160208801611be6565b607692019182019290925260960198975050505050505050565b6001600160f81b031997881681529590961660018601526001600160601b0319606094851b81166002870152601686019390935290831b821660368501526d7265766f6b6544656c656761746560901b604a850152605884015292901b9091166078820152608c0190565b90815260200190565b6001600160a01b0391909116815260200190565b6001600160a01b03929092168252602082015260400190565b901515815260200190565b9384526001600160a01b039290921660208401526040830152606082015260800190565b600083825260406020830152611a8f60408301846117a2565b949350505050565b600085825260806020830152611ab060808301866117a2565b6040830194909452506060015292915050565b93845260ff9290921660208401526040830152606082015260800190565b60208082526018908201527745434453413a20696e76616c6964207369676e617475726560401b604082015260600190565b6020808252601f908201527f45434453413a20696e76616c6964207369676e6174757265206c656e67746800604082015260600190565b60208082526022908201527f45434453413a20696e76616c6964207369676e6174757265202773272076616c604082015261756560f01b606082015260800190565b60208082526022908201527f45434453413a20696e76616c6964207369676e6174757265202776272076616c604082015261756560f01b606082015260800190565b60008219821115611be157611be1611c2d565b500190565b60005b83811015611c01578181015183820152602001611be9565b8381111561049f5750506000910152565b6000600019821415611c2657611c26611c2d565b5060010190565b634e487b7160e01b600052601160045260246000fd5b634e487b7160e01b600052604160045260246000fdfe5a5084339536bcab65f20799fcc58724588145ca054bd2be626174b27ba156f718ab6b2ae3d64306c00ce663125f2bd680e441a098de1635bd7ad8b0d44965e4a2646970667358221220ebc6a24c9fc1efd92c2282871ae37e3c93e2025d5553c80a11cb4e459107c35964736f6c63430008010033",
  "devdoc": {
    "kind": "dev",
    "methods": {},
    "version": 1
  },
  "userdoc": {
    "kind": "user",
    "methods": {},
    "version": 1
  },
  "storageLayout": {
    "storage": [
      {
        "astId": 9838,
        "contract": "contracts/dids/EthereumDIDRegistry.sol:EthereumDIDRegistry",
        "label": "owners",
        "offset": 0,
        "slot": "0",
        "type": "t_mapping(t_address,t_address)"
      },
      {
        "astId": 9846,
        "contract": "contracts/dids/EthereumDIDRegistry.sol:EthereumDIDRegistry",
        "label": "delegates",
        "offset": 0,
        "slot": "1",
        "type": "t_mapping(t_address,t_mapping(t_bytes32,t_mapping(t_address,t_uint256)))"
      },
      {
        "astId": 9850,
        "contract": "contracts/dids/EthereumDIDRegistry.sol:EthereumDIDRegistry",
        "label": "changed",
        "offset": 0,
        "slot": "2",
        "type": "t_mapping(t_address,t_uint256)"
      },
      {
        "astId": 9854,
        "contract": "contracts/dids/EthereumDIDRegistry.sol:EthereumDIDRegistry",
        "label": "nonce",
        "offset": 0,
        "slot": "3",
        "type": "t_mapping(t_address,t_uint256)"
      }
    ],
    "types": {
      "t_address": {
        "encoding": "inplace",
        "label": "address",
        "numberOfBytes": "20"
      },
      "t_bytes32": {
        "encoding": "inplace",
        "label": "bytes32",
        "numberOfBytes": "32"
      },
      "t_mapping(t_address,t_address)": {
        "encoding": "mapping",
        "key": "t_address",
        "label": "mapping(address => address)",
        "numberOfBytes": "32",
        "value": "t_address"
      },
      "t_mapping(t_address,t_mapping(t_bytes32,t_mapping(t_address,t_uint256)))": {
        "encoding": "mapping",
        "key": "t_address",
        "label": "mapping(address => mapping(bytes32 => mapping(address => uint256)))",
        "numberOfBytes": "32",
        "value": "t_mapping(t_bytes32,t_mapping(t_address,t_uint256))"
      },
      "t_mapping(t_address,t_uint256)": {
        "encoding": "mapping",
        "key": "t_address",
        "label": "mapping(address => uint256)",
        "numberOfBytes": "32",
        "value": "t_uint256"
      },
      "t_mapping(t_bytes32,t_mapping(t_address,t_uint256))": {
        "encoding": "mapping",
        "key": "t_bytes32",
        "label": "mapping(bytes32 => mapping(address => uint256))",
        "numberOfBytes": "32",
        "value": "t_mapping(t_address,t_uint256)"
      },
      "t_uint256": {
        "encoding": "inplace",
        "label": "uint256",
        "numberOfBytes": "32"
      }
    }
  }
}