{
  "address": "0x5b9Af7e5BC5EB4Df1e71EE1Dd6c2D599139c10e9",
  "abi": [
    {
      "anonymous": false,
      "inputs": [
        {
          "indexed": true,
          "internalType": "address",
          "name": "identity",
          "type": "address"
        },
        {
          "indexed": false,
          "internalType": "bytes32",
          "name": "name",
          "type": "bytes32"
        },
        {
          "indexed": false,
          "internalType": "bytes",
          "name": "value",
          "type": "bytes"
        },
        {
          "indexed": false,
          "internalType": "uint256",
          "name": "validTo",
          "type": "uint256"
        },
        {
          "indexed": false,
          "internalType": "uint256",
          "name": "previousChange",
          "type": "uint256"
        }
      ],
      "name": "DIDAttributeChanged",
      "type": "event"
    },
    {
      "anonymous": false,
      "inputs": [
        {
          "indexed": true,
          "internalType": "address",
          "name": "identity",
          "type": "address"
        },
        {
          "indexed": false,
          "internalType": "bytes32",
          "name": "delegateType",
          "type": "bytes32"
        },
        {
          "indexed": false,
          "internalType": "address",
          "name": "delegate",
          "type": "address"
        },
        {
          "indexed": false,
          "internalType": "uint256",
          "name": "validTo",
          "type": "uint256"
        },
        {
          "indexed": false,
          "internalType": "uint256",
          "name": "previousChange",
          "type": "uint256"
        }
      ],
      "name": "DIDDelegateChanged",
      "type": "event"
    },
    {
      "anonymous": false,
      "inputs": [
        {
          "indexed": true,
          "internalType": "address",
          "name": "identity",
          "type": "address"
        },
        {
          "indexed": false,
          "internalType": "address",
          "name": "owner",
          "type": "address"
        },
        {
          "indexed": false,
          "internalType": "uint256",
          "name": "previousChange",
          "type": "uint256"
        }
      ],
      "name": "DIDOwnerChanged",
      "type": "event"
    },
    {
      "inputs": [
        {
          "internalType": "address",
          "name": "identity",
          "type": "address"
        },
        {
          "internalType": "bytes32",
          "name": "delegateType",
          "type": "bytes32"
        },
        {
          "internalType": "address",
          "name": "delegate",
          "type": "address"
        },
        {
          "internalType": "uint256",
          "name": "validity",
          "type": "uint256"
        }
      ],
      "name": "addDelegate",
      "outputs": [],
      "stateMutability": "nonpayable",
      "type": "function"
    },
    {
      "inputs": [
        {
          "internalType": "address",
          "name": "identity",
          "type": "address"
        },
        {
          "internalType": "uint8",
          "name": "sigV",
          "type": "uint8"
        },
        {
          "internalType": "bytes32",
          "name": "sigR",
          "type": "bytes32"
        },
        {
          "internalType": "bytes32",
          "name": "sigS",
          "type": "bytes32"
        },
        {
          "internalType": "bytes32",
          "name": "delegateType",
          "type": "bytes32"
        },
        {
          "internalType": "address",
          "name": "delegate",
          "type": "address"
        },
        {
          "internalType": "uint256",
          "name": "validity",
          "type": "uint256"
        }
      ],
      "name": "addDelegateSigned",
      "outputs": [],
      "stateMutability": "nonpayable",
      "type": "function"
    },
    {
      "inputs": [
        {
          "internalType": "address",
          "name": "identity",
          "type": "address"
        },
        {
          "internalType": "bytes",
          "name": "signature",
          "type": "bytes"
        },
        {
          "internalType": "bytes32",
          "name": "delegateType",
          "type": "bytes32"
        },
        {
          "internalType": "address",
          "name": "delegate",
          "type": "address"
        },
        {
          "internalType": "uint256",
          "name": "validity",
          "type": "uint256"
        }
      ],
      "name": "addDelegateSigned",
      "outputs": [],
      "stateMutability": "nonpayable",
      "type": "function"
    },
    {
      "inputs": [
        {
          "internalType": "address",
          "name": "identity",
          "type": "address"
        },
        {
          "internalType": "address",
          "name": "newOwner",
          "type": "address"
        }
      ],
      "name": "changeOwner",
      "outputs": [],
      "stateMutability": "nonpayable",
      "type": "function"
    },
    {
      "inputs": [
        {
          "internalType": "address",
          "name": "identity",
          "type": "address"
        },
        {
          "internalType": "uint8",
          "name": "sigV",
          "type": "uint8"
        },
        {
          "internalType": "bytes32",
          "name": "sigR",
          "type": "bytes32"
        },
        {
          "internalType": "bytes32",
          "name": "sigS",
          "type": "bytes32"
        },
        {
          "internalType": "address",
          "name": "newOwner",
          "type": "address"
        }
      ],
      "name": "changeOwnerSigned",
      "outputs": [],
      "stateMutability": "nonpayable",
      "type": "function"
    },
    {
      "inputs": [
        {
          "internalType": "address",
          "name": "identity",
          "type": "address"
        },
        {
          "internalType": "bytes",
          "name": "signature",
          "type": "bytes"
        },
        {
          "internalType": "address",
          "name": "newOwner",
          "type": "address"
        }
      ],
      "name": "changeOwnerSigned",
      "outputs": [],
      "stateMutability": "nonpayable",
      "type": "function"
    },
    {
      "inputs": [
        {
          "internalType": "address",
          "name": "",
          "type": "address"
        }
      ],
      "name": "changed",
      "outputs": [
        {
          "internalType": "uint256",
          "name": "",
          "type": "uint256"
        }
      ],
      "stateMutability": "view",
      "type": "function"
    },
    {
      "inputs": [
        {
          "internalType": "address",
          "name": "",
          "type": "address"
        },
        {
          "internalType": "bytes32",
          "name": "",
          "type": "bytes32"
        },
        {
          "internalType": "address",
          "name": "",
          "type": "address"
        }
      ],
      "name": "delegates",
      "outputs": [
        {
          "internalType": "uint256",
          "name": "",
          "type": "uint256"
        }
      ],
      "stateMutability": "view",
      "type": "function"
    },
    {
      "inputs": [
        {
          "internalType": "address",
          "name": "identity",
          "type": "address"
        }
      ],
      "name": "identityOwner",
      "outputs": [
        {
          "internalType": "address",
          "name": "",
          "type": "address"
        }
      ],
      "stateMutability": "view",
      "type": "function"
    },
    {
      "inputs": [
        {
          "internalType": "address",
          "name": "",
          "type": "address"
        }
      ],
      "name": "nonce",
      "outputs": [
        {
          "internalType": "uint256",
          "name": "",
          "type": "uint256"
        }
      ],
      "stateMutability": "view",
      "type": "function"
    },
    {
      "inputs": [
        {
          "internalType": "address",
          "name": "",
          "type": "address"
        }
      ],
      "name": "owners",
      "outputs": [
        {
          "internalType": "address",
          "name": "",
          "type": "address"
        }
      ],
      "stateMutability": "view",
      "type": "function"
    },
    {
      "inputs": [
        {
          "internalType": "address",
          "name": "identity",
          "type": "address"
        },
        {
          "internalType": "bytes32",
          "name": "name",
          "type": "bytes32"
        },
        {
          "internalType": "bytes",
          "name": "value",
          "type": "bytes"
        }
      ],
      "name": "revokeAttribute",
      "outputs": [],
      "stateMutability": "nonpayable",
      "type": "function"
    },
    {
      "inputs": [
        {
          "internalType": "address",
          "name": "identity",
          "type": "address"
        },
        {
          "internalType": "uint8",
          "name": "sigV",
          "type": "uint8"
        },
        {
          "internalType": "bytes32",
          "name": "sigR",
          "type": "bytes32"
        },
        {
          "internalType": "bytes32",
          "name": "sigS",
          "type": "bytes32"
        },
        {
          "internalType": "bytes32",
          "name": "name",
          "type": "bytes32"
        },
        {
          "internalType": "bytes",
          "name": "value",
          "type": "bytes"
        }
      ],
      "name": "revokeAttributeSigned",
      "outputs": [],
      "stateMutability": "nonpayable",
      "type": "function"
    },
    {
      "inputs": [
        {
          "internalType": "address",
          "name": "identity",
          "type": "address"
        },
        {
          "internalType": "bytes",
          "name": "signature",
          "type": "bytes"
        },
        {
          "internalType": "bytes32",
          "name": "name",
          "type": "bytes32"
        },
        {
          "internalType": "bytes",
          "name": "value",
          "type": "bytes"
        }
      ],
      "name": "revokeAttributeSigned",
      "outputs": [],
      "stateMutability": "nonpayable",
      "type": "function"
    },
    {
      "inputs": [
        {
          "internalType": "address",
          "name": "identity",
          "type": "address"
        },
        {
          "internalType": "bytes32",
          "name": "delegateType",
          "type": "bytes32"
        },
        {
          "internalType": "address",
          "name": "delegate",
          "type": "address"
        }
      ],
      "name": "revokeDelegate",
      "outputs": [],
      "stateMutability": "nonpayable",
      "type": "function"
    },
    {
      "inputs": [
        {
          "internalType": "address",
          "name": "identity",
          "type": "address"
        },
        {
          "internalType": "bytes",
          "name": "signature",
          "type": "bytes"
        },
        {
          "internalType": "bytes32",
          "name": "delegateType",
          "type": "bytes32"
        },
        {
          "internalType": "address",
          "name": "delegate",
          "type": "address"
        }
      ],
      "name": "revokeDelegateSigned",
      "outputs": [],
      "stateMutability": "nonpayable",
      "type": "function"
    },
    {
      "inputs": [
        {
          "internalType": "address",
          "name": "identity",
          "type": "address"
        },
        {
          "internalType": "uint8",
          "name": "sigV",
          "type": "uint8"
        },
        {
          "internalType": "bytes32",
          "name": "sigR",
          "type": "bytes32"
        },
        {
          "internalType": "bytes32",
          "name": "sigS",
          "type": "bytes32"
        },
        {
          "internalType": "bytes32",
          "name": "delegateType",
          "type": "bytes32"
        },
        {
          "internalType": "address",
          "name": "delegate",
          "type": "address"
        }
      ],
      "name": "revokeDelegateSigned",
      "outputs": [],
      "stateMutability": "nonpayable",
      "type": "function"
    },
    {
      "inputs": [
        {
          "internalType": "address",
          "name": "identity",
          "type": "address"
        },
        {
          "internalType": "bytes32",
          "name": "name",
          "type": "bytes32"
        },
        {
          "internalType": "bytes",
          "name": "value",
          "type": "bytes"
        },
        {
          "internalType": "uint256",
          "name": "validity",
          "type": "uint256"
        }
      ],
      "name": "setAttribute",
      "outputs": [],
      "stateMutability": "nonpayable",
      "type": "function"
    },
    {
      "inputs": [
        {
          "internalType": "address",
          "name": "identity",
          "type": "address"
        },
        {
          "internalType": "uint8",
          "name": "sigV",
          "type": "uint8"
        },
        {
          "internalType": "bytes32",
          "name": "sigR",
          "type": "bytes32"
        },
        {
          "internalType": "bytes32",
          "name": "sigS",
          "type": "bytes32"
        },
        {
          "internalType": "bytes32",
          "name": "name",
          "type": "bytes32"
        },
        {
          "internalType": "bytes",
          "name": "value",
          "type": "bytes"
        },
        {
          "internalType": "uint256",
          "name": "validity",
          "type": "uint256"
        }
      ],
      "name": "setAttributeSigned",
      "outputs": [],
      "stateMutability": "nonpayable",
      "type": "function"
    },
    {
      "inputs": [
        {
          "internalType": "address",
          "name": "identity",
          "type": "address"
        },
        {
          "internalType": "bytes",
          "name": "signature",
          "type": "bytes"
        },
        {
          "internalType": "bytes32",
          "name": "name",
          "type": "bytes32"
        },
        {
          "internalType": "bytes",
          "name": "value",
          "type": "bytes"
        },
        {
          "internalType": "uint256",
          "name": "validity",
          "type": "uint256"
        }
      ],
      "name": "setAttributeSigned",
      "outputs": [],
      "stateMutability": "nonpayable",
      "type": "function"
    },
    {
      "inputs": [
        {
          "internalType": "address",
          "name": "identity",
          "type": "address"
        },
        {
          "internalType": "bytes32",
          "name": "delegateType",
          "type": "bytes32"
        },
        {
          "internalType": "address",
          "name": "delegate",
          "type": "address"
        }
      ],
      "name": "validDelegate",
      "outputs": [
        {
          "internalType": "bool",
          "name": "",
          "type": "bool"
        }
      ],
      "stateMutability": "view",
      "type": "function"
    }
  ],
  "transactionHash": "0x92bf479e6e1f35678d92be6d3c1c331bc81240862269abf8461bc88aaa7af9dd",
  "args": [],
  "numDeployments": 1,
  "solcInputHash": "04fd44f12852cc16cb485a1ab5c9ee06",
  "bytecode": "0x608060405234801561001057600080fd5b506125d0806100206000396000f3fe608060405234801561001057600080fd5b50600436106101765760003560e01c80637ad4b0a4116100d8578063a7068d661161008c578063f00d4b5d11610066578063f00d4b5d14610303578063f286182814610316578063f96d0f9f1461032957610176565b8063a7068d66146102ca578063bdb31f3b146102dd578063e476af5c146102f057610176565b80638733d4e8116100bd5780638733d4e81461029157806393072684146102a45780639c2c1b2b146102b757610176565b80637ad4b0a41461026b57806380b29f7c1461027e57610176565b806328b7b95e1161012f57806357d45c541161011457806357d45c5414610225578063622b2a3c1461023857806370ae92d21461025857610176565b806328b7b95e146101ff578063573b2cd81461021257610176565b80630d44625b116101605780630d44625b146101b9578063123b5e98146101d9578063240cf1fa146101ec57610176565b8062c023da1461017b578063022914a714610190575b600080fd5b61018e6101893660046119a0565b61033c565b005b6101a361019e3660046118d6565b61034d565b6040516101b091906122a9565b60405180910390f35b6101cc6101c7366004611922565b610375565b6040516101b091906122a0565b61018e6101e7366004611e0c565b610398565b61018e6101fa366004611c77565b61045a565b61018e61020d366004611a52565b610514565b61018e610220366004611bf4565b6105c4565b61018e610233366004611aa5565b610672565b61024b610246366004611922565b61072c565b6040516101b091906122f0565b6101cc6102663660046118d6565b6107d8565b61018e6102793660046119f5565b6107ea565b61018e61028c366004611922565b6107f7565b6101a361029f3660046118d6565b610803565b61018e6102b2366004611ccd565b610844565b61018e6102c5366004611d2b565b6108fb565b61018e6102d836600461195d565b6109b3565b61018e6102eb366004611b0b565b6109c0565b61018e6102fe366004611d94565b610a6e565b61018e6103113660046118f0565b610b23565b61018e610324366004611b79565b610b32565b6101cc6103373660046118d6565b610bde565b61034883338484610bf0565b505050565b60006020819052908152604090205473ffffffffffffffffffffffffffffffffffffffff1681565b600160209081526000938452604080852082529284528284209052825290205481565b60007f190000000000000000000000000000000000000000000000000000000000000081306003826103c98d610803565b73ffffffffffffffffffffffffffffffffffffffff1673ffffffffffffffffffffffffffffffffffffffff168152602001908152602001600020548b88888860405160200161041f98979695949392919061212e565b604051602081830303815290604052805190602001209050610450886104488a8a8a8a87610cc4565b868686610d99565b5050505050505050565b60007f1900000000000000000000000000000000000000000000000000000000000000813060038261048b8b610803565b73ffffffffffffffffffffffffffffffffffffffff1673ffffffffffffffffffffffffffffffffffffffff1681526020019081526020016000205489866040516020016104dd96959493929190611fda565b60405160208183030381529060405280519060200120905061050c866105068888888887610cc4565b84610e8f565b505050505050565b60007f1900000000000000000000000000000000000000000000000000000000000000813060038261054589610803565b73ffffffffffffffffffffffffffffffffffffffff1673ffffffffffffffffffffffffffffffffffffffff16815260200190815260200160002054878660405160200161059796959493929190611fda565b6040516020818303038152906040528051906020012090506105be84610506868487610f94565b50505050565b60007f190000000000000000000000000000000000000000000000000000000000000081306003826105f58b610803565b73ffffffffffffffffffffffffffffffffffffffff1673ffffffffffffffffffffffffffffffffffffffff168152602001908152602001600020548988888860405160200161064b98979695949392919061212e565b60405160208183030381529060405280519060200120905061050c86610448888489610f94565b60007f190000000000000000000000000000000000000000000000000000000000000081306003826106a38a610803565b73ffffffffffffffffffffffffffffffffffffffff1673ffffffffffffffffffffffffffffffffffffffff168152602001908152602001600020548887876040516020016106f797969594939291906121f6565b6040516020818303038152906040528051906020012090506107258561071e878488610f94565b858561116c565b5050505050565b73ffffffffffffffffffffffffffffffffffffffff83166000908152600160209081526040808320905183928391610766918891016122a0565b604080517fffffffffffffffffffffffffffffffffffffffffffffffffffffffffffffffe08184030181529181528151602092830120835282820193909352908201600090812073ffffffffffffffffffffffffffffffffffffffff87168252909152205442109150505b9392505050565b60036020526000908152604090205481565b6105be8433858585610d99565b6103488333848461116c565b73ffffffffffffffffffffffffffffffffffffffff808216600090815260208190526040812054909116801561083a57905061083f565b829150505b919050565b60007f190000000000000000000000000000000000000000000000000000000000000081306003826108758c610803565b73ffffffffffffffffffffffffffffffffffffffff1673ffffffffffffffffffffffffffffffffffffffff168152602001908152602001600020548a87876040516020016108c997969594939291906121f6565b6040516020818303038152906040528051906020012090506108f28761071e8989898987610cc4565b50505050505050565b60007f1900000000000000000000000000000000000000000000000000000000000000813060038261092c8d610803565b73ffffffffffffffffffffffffffffffffffffffff1673ffffffffffffffffffffffffffffffffffffffff168152602001908152602001600020548b88888860405160200161098298979695949392919061207e565b604051602081830303815290604052805190602001209050610450886109ab8a8a8a8a87610cc4565b868686611297565b6105be8433858585611297565b60007f190000000000000000000000000000000000000000000000000000000000000081306003826109f18b610803565b73ffffffffffffffffffffffffffffffffffffffff1673ffffffffffffffffffffffffffffffffffffffff1681526020019081526020016000205489888888604051602001610a4798979695949392919061207e565b60405160208183030381529060405280519060200120905061050c866109ab888489610f94565b60007f19000000000000000000000000000000000000000000000000000000000000008130600382610a9f8c610803565b73ffffffffffffffffffffffffffffffffffffffff1673ffffffffffffffffffffffffffffffffffffffff168152602001908152602001600020548a8787604051602001610af39796959493929190611f19565b6040516020818303038152906040528051906020012090506108f287610b1c8989898987610cc4565b8585610bf0565b610b2e823383610e8f565b5050565b60007f19000000000000000000000000000000000000000000000000000000000000008130600382610b638a610803565b73ffffffffffffffffffffffffffffffffffffffff1673ffffffffffffffffffffffffffffffffffffffff16815260200190815260200160002054888787604051602001610bb79796959493929190611f19565b60405160208183030381529060405280519060200120905061072585610b1c878488610f94565b60026020526000908152604090205481565b8383610bfb82610803565b73ffffffffffffffffffffffffffffffffffffffff168173ffffffffffffffffffffffffffffffffffffffff1614610c3257600080fd5b73ffffffffffffffffffffffffffffffffffffffff86166000818152600260205260408082205490517f18ab6b2ae3d64306c00ce663125f2bd680e441a098de1635bd7ad8b0d44965e492610c8c9289928992919061234d565b60405180910390a250505073ffffffffffffffffffffffffffffffffffffffff90921660009081526002602052604090204390555050565b60008060018387878760405160008152602001604052604051610cea9493929190612379565b6020604051602081039080840390855afa158015610d0c573d6000803e3d6000fd5b505050602060405103519050610d2187610803565b73ffffffffffffffffffffffffffffffffffffffff168173ffffffffffffffffffffffffffffffffffffffff1614610d5857600080fd5b73ffffffffffffffffffffffffffffffffffffffff81166000908152600360205260408120805491610d8983612503565b9091555090979650505050505050565b8484610da482610803565b73ffffffffffffffffffffffffffffffffffffffff168173ffffffffffffffffffffffffffffffffffffffff1614610ddb57600080fd5b73ffffffffffffffffffffffffffffffffffffffff87167f18ab6b2ae3d64306c00ce663125f2bd680e441a098de1635bd7ad8b0d44965e48686610e1f87426124bf565b73ffffffffffffffffffffffffffffffffffffffff8c1660009081526002602052604090819020549051610e56949392919061234d565b60405180910390a250505073ffffffffffffffffffffffffffffffffffffffff9093166000908152600260205260409020439055505050565b8282610e9a82610803565b73ffffffffffffffffffffffffffffffffffffffff168173ffffffffffffffffffffffffffffffffffffffff1614610ed157600080fd5b73ffffffffffffffffffffffffffffffffffffffff85811660008181526020818152604080832080547fffffffffffffffffffffffff000000000000000000000000000000000000000016958916959095179094556002905282902054915190917f38a5a6e68f30ed1ab45860a4afb34bcb2fc00f22ca462d249b8a8d40cda6f7a391610f5f9187916122ca565b60405180910390a25050505073ffffffffffffffffffffffffffffffffffffffff166000908152600260205260409020439055565b600080610fa085610803565b9050803b158015906110dd576040517f1626ba7e00000000000000000000000000000000000000000000000000000000815273ffffffffffffffffffffffffffffffffffffffff831690631626ba7e90611000908890889060040161232c565b60206040518083038186803b15801561101857600080fd5b505afa15801561102c573d6000803e3d6000fd5b505050506040513d601f19601f820116820180604052508101906110509190611e8f565b7fffffffff00000000000000000000000000000000000000000000000000000000167f1626ba7e000000000000000000000000000000000000000000000000000000001461109d57600080fd5b73ffffffffffffffffffffffffffffffffffffffff821660009081526003602052604081208054916110ce83612503565b919050555081925050506107d1565b60006110e986866113ed565b90506110f487610803565b73ffffffffffffffffffffffffffffffffffffffff168173ffffffffffffffffffffffffffffffffffffffff161461112b57600080fd5b73ffffffffffffffffffffffffffffffffffffffff8116600090815260036020526040812080549161115c83612503565b91905055508093505050506107d1565b838361117782610803565b73ffffffffffffffffffffffffffffffffffffffff168173ffffffffffffffffffffffffffffffffffffffff16146111ae57600080fd5b73ffffffffffffffffffffffffffffffffffffffff861660009081526001602090815260408083209051429391926111e8918991016122a0565b604080517fffffffffffffffffffffffffffffffffffffffffffffffffffffffffffffffe08184030181529181528151602092830120835282820193909352908201600090812073ffffffffffffffffffffffffffffffffffffffff8089168352908352838220949094559289168084526002909152918190205490517f5a5084339536bcab65f20799fcc58724588145ca054bd2be626174b27ba156f791610c8c91889188914291906122fb565b84846112a282610803565b73ffffffffffffffffffffffffffffffffffffffff168173ffffffffffffffffffffffffffffffffffffffff16146112d957600080fd5b6112e383426124bf565b73ffffffffffffffffffffffffffffffffffffffff88166000908152600160209081526040808320905190929161131c918a91016122a0565b604080517fffffffffffffffffffffffffffffffffffffffffffffffffffffffffffffffe08184030181529181528151602092830120835282820193909352908201600090812073ffffffffffffffffffffffffffffffffffffffff808a1683529252919091209190915587167f5a5084339536bcab65f20799fcc58724588145ca054bd2be626174b27ba156f786866113b687426124bf565b73ffffffffffffffffffffffffffffffffffffffff8c1660009081526002602052604090819020549051610e5694939291906122fb565b60008060006113fc8585611411565b9150915061140981611481565b509392505050565b6000808251604114156114485760208301516040840151606085015160001a61143c8782858561169f565b9450945050505061147a565b82516040141561147257602083015160408401516114678683836117aa565b93509350505061147a565b506000905060025b9250929050565b60008160048111156114bc577f4e487b7100000000000000000000000000000000000000000000000000000000600052602160045260246000fd5b14156114c75761169c565b6001816004811115611502577f4e487b7100000000000000000000000000000000000000000000000000000000600052602160045260246000fd5b1415611543576040517f08c379a000000000000000000000000000000000000000000000000000000000815260040161153a90612397565b60405180910390fd5b600281600481111561157e577f4e487b7100000000000000000000000000000000000000000000000000000000600052602160045260246000fd5b14156115b6576040517f08c379a000000000000000000000000000000000000000000000000000000000815260040161153a906123ce565b60038160048111156115f1577f4e487b7100000000000000000000000000000000000000000000000000000000600052602160045260246000fd5b1415611629576040517f08c379a000000000000000000000000000000000000000000000000000000000815260040161153a90612405565b6004816004811115611664577f4e487b7100000000000000000000000000000000000000000000000000000000600052602160045260246000fd5b141561169c576040517f08c379a000000000000000000000000000000000000000000000000000000000815260040161153a90612462565b50565b6000807f7fffffffffffffffffffffffffffffff5d576e7357a4501ddfe92f46681b20a08311156116d657506000905060036117a1565b8460ff16601b141580156116ee57508460ff16601c14155b156116ff57506000905060046117a1565b6000600187878787604051600081526020016040526040516117249493929190612379565b6020604051602081039080840390855afa158015611746573d6000803e3d6000fd5b50506040517fffffffffffffffffffffffffffffffffffffffffffffffffffffffffffffffe0015191505073ffffffffffffffffffffffffffffffffffffffff811661179a576000600192509250506117a1565b9150600090505b94509492505050565b6000807f7fffffffffffffffffffffffffffffffffffffffffffffffffffffffffffffff8316816117e060ff86901c601b6124bf565b90506117ee8782888561169f565b935093505050935093915050565b803573ffffffffffffffffffffffffffffffffffffffff8116811461083f57600080fd5b600082601f830112611830578081fd5b813567ffffffffffffffff8082111561184b5761184b61256b565b604051601f83017fffffffffffffffffffffffffffffffffffffffffffffffffffffffffffffffe0908116603f011681019082821181831017156118915761189161256b565b816040528381528660208588010111156118a9578485fd5b8360208701602083013792830160200193909352509392505050565b803560ff8116811461083f57600080fd5b6000602082840312156118e7578081fd5b6107d1826117fc565b60008060408385031215611902578081fd5b61190b836117fc565b9150611919602084016117fc565b90509250929050565b600080600060608486031215611936578081fd5b61193f846117fc565b925060208401359150611954604085016117fc565b90509250925092565b60008060008060808587031215611972578081fd5b61197b856117fc565b935060208501359250611990604086016117fc565b9396929550929360600135925050565b6000806000606084860312156119b4578283fd5b6119bd846117fc565b925060208401359150604084013567ffffffffffffffff8111156119df578182fd5b6119eb86828701611820565b9150509250925092565b60008060008060808587031215611a0a578384fd5b611a13856117fc565b935060208501359250604085013567ffffffffffffffff811115611a35578283fd5b611a4187828801611820565b949793965093946060013593505050565b600080600060608486031215611a66578283fd5b611a6f846117fc565b9250602084013567ffffffffffffffff811115611a8a578283fd5b611a9686828701611820565b925050611954604085016117fc565b60008060008060808587031215611aba578384fd5b611ac3856117fc565b9350602085013567ffffffffffffffff811115611ade578384fd5b611aea87828801611820565b93505060408501359150611b00606086016117fc565b905092959194509250565b600080600080600060a08688031215611b22578081fd5b611b2b866117fc565b9450602086013567ffffffffffffffff811115611b46578182fd5b611b5288828901611820565b94505060408601359250611b68606087016117fc565b949793965091946080013592915050565b60008060008060808587031215611b8e578384fd5b611b97856117fc565b9350602085013567ffffffffffffffff80821115611bb3578485fd5b611bbf88838901611820565b9450604087013593506060870135915080821115611bdb578283fd5b50611be887828801611820565b91505092959194509250565b600080600080600060a08688031215611c0b578283fd5b611c14866117fc565b9450602086013567ffffffffffffffff80821115611c30578485fd5b611c3c89838a01611820565b9550604088013594506060880135915080821115611c58578283fd5b50611c6588828901611820565b95989497509295608001359392505050565b600080600080600060a08688031215611c8e578283fd5b611c97866117fc565b9450611ca5602087016118c5565b93506040860135925060608601359150611cc1608087016117fc565b90509295509295909350565b60008060008060008060c08789031215611ce5578384fd5b611cee876117fc565b9550611cfc602088016118c5565b9450604087013593506060870135925060808701359150611d1f60a088016117fc565b90509295509295509295565b600080600080600080600060e0888a031215611d45578485fd5b611d4e886117fc565b9650611d5c602089016118c5565b9550604088013594506060880135935060808801359250611d7f60a089016117fc565b915060c0880135905092959891949750929550565b60008060008060008060c08789031215611dac578384fd5b611db5876117fc565b9550611dc3602088016118c5565b945060408701359350606087013592506080870135915060a087013567ffffffffffffffff811115611df3578182fd5b611dff89828a01611820565b9150509295509295509295565b600080600080600080600060e0888a031215611e26578081fd5b611e2f886117fc565b9650611e3d602089016118c5565b955060408801359450606088013593506080880135925060a088013567ffffffffffffffff811115611e6d578182fd5b611e798a828b01611820565b92505060c0880135905092959891949750929550565b600060208284031215611ea0578081fd5b81517fffffffff00000000000000000000000000000000000000000000000000000000811681146107d1578182fd5b60008151808452611ee78160208601602086016124d7565b601f017fffffffffffffffffffffffffffffffffffffffffffffffffffffffffffffffe0169290920160200192915050565b60007fff00000000000000000000000000000000000000000000000000000000000000808a1683528089166001840152507fffffffffffffffffffffffffffffffffffffffff000000000000000000000000808860601b166002840152866016840152808660601b166036840152507f7265766f6b654174747269627574650000000000000000000000000000000000604a8301528360598301528251611fc78160798501602087016124d7565b9190910160790198975050505050505050565b7fff0000000000000000000000000000000000000000000000000000000000000096871681529490951660018501527fffffffffffffffffffffffffffffffffffffffff000000000000000000000000606093841b811660028601526016850192909252821b811660368401527f6368616e67654f776e6572000000000000000000000000000000000000000000604a84015292901b909116605582015260690190565b7fff0000000000000000000000000000000000000000000000000000000000000098891681529690971660018701527fffffffffffffffffffffffffffffffffffffffff000000000000000000000000606095861b81166002880152601687019490945291841b831660368601527f61646444656c6567617465000000000000000000000000000000000000000000604a860152605585015290911b166075820152608981019190915260a90190565b60007fff00000000000000000000000000000000000000000000000000000000000000808b168352808a166001840152507fffffffffffffffffffffffffffffffffffffffff000000000000000000000000808960601b166002840152876016840152808760601b166036840152507f7365744174747269627574650000000000000000000000000000000000000000604a83015284605683015283516121dc8160768501602088016124d7565b607692019182019290925260960198975050505050505050565b7fff0000000000000000000000000000000000000000000000000000000000000097881681529590961660018601527fffffffffffffffffffffffffffffffffffffffff000000000000000000000000606094851b81166002870152601686019390935290831b821660368501527f7265766f6b6544656c6567617465000000000000000000000000000000000000604a850152605884015292901b9091166078820152608c0190565b90815260200190565b73ffffffffffffffffffffffffffffffffffffffff91909116815260200190565b73ffffffffffffffffffffffffffffffffffffffff929092168252602082015260400190565b901515815260200190565b93845273ffffffffffffffffffffffffffffffffffffffff9290921660208401526040830152606082015260800190565b6000838252604060208301526123456040830184611ecf565b949350505050565b6000858252608060208301526123666080830186611ecf565b6040830194909452506060015292915050565b93845260ff9290921660208401526040830152606082015260800190565b60208082526018908201527f45434453413a20696e76616c6964207369676e61747572650000000000000000604082015260600190565b6020808252601f908201527f45434453413a20696e76616c6964207369676e6174757265206c656e67746800604082015260600190565b60208082526022908201527f45434453413a20696e76616c6964207369676e6174757265202773272076616c60408201527f7565000000000000000000000000000000000000000000000000000000000000606082015260800190565b60208082526022908201527f45434453413a20696e76616c6964207369676e6174757265202776272076616c60408201527f7565000000000000000000000000000000000000000000000000000000000000606082015260800190565b600082198211156124d2576124d261253c565b500190565b60005b838110156124f25781810151838201526020016124da565b838111156105be5750506000910152565b60007fffffffffffffffffffffffffffffffffffffffffffffffffffffffffffffffff8214156125355761253561253c565b5060010190565b7f4e487b7100000000000000000000000000000000000000000000000000000000600052601160045260246000fd5b7f4e487b7100000000000000000000000000000000000000000000000000000000600052604160045260246000fdfea26469706673582212201fe55dead114afa6733de4e9d80e12b7d452ab081c1016008a751781ea0983a464736f6c63430008010033",
  "devdoc": {
    "kind": "dev",
    "methods": {},
    "version": 1
  },
  "userdoc": {
    "kind": "user",
    "methods": {},
    "version": 1
  },
  "storageLayout": {
    "storage": [
      {
        "astId": 9674,
        "contract": "contracts/dids/EthereumDIDRegistry.sol:EthereumDIDRegistry",
        "label": "owners",
        "offset": 0,
        "slot": "0",
        "type": "t_mapping(t_address,t_address)"
      },
      {
        "astId": 9682,
        "contract": "contracts/dids/EthereumDIDRegistry.sol:EthereumDIDRegistry",
        "label": "delegates",
        "offset": 0,
        "slot": "1",
        "type": "t_mapping(t_address,t_mapping(t_bytes32,t_mapping(t_address,t_uint256)))"
      },
      {
        "astId": 9686,
        "contract": "contracts/dids/EthereumDIDRegistry.sol:EthereumDIDRegistry",
        "label": "changed",
        "offset": 0,
        "slot": "2",
        "type": "t_mapping(t_address,t_uint256)"
      },
      {
        "astId": 9690,
        "contract": "contracts/dids/EthereumDIDRegistry.sol:EthereumDIDRegistry",
        "label": "nonce",
        "offset": 0,
        "slot": "3",
        "type": "t_mapping(t_address,t_uint256)"
      }
    ],
    "types": {
      "t_address": {
        "encoding": "inplace",
        "label": "address",
        "numberOfBytes": "20"
      },
      "t_bytes32": {
        "encoding": "inplace",
        "label": "bytes32",
        "numberOfBytes": "32"
      },
      "t_mapping(t_address,t_address)": {
        "encoding": "mapping",
        "key": "t_address",
        "label": "mapping(address => address)",
        "numberOfBytes": "32",
        "value": "t_address"
      },
      "t_mapping(t_address,t_mapping(t_bytes32,t_mapping(t_address,t_uint256)))": {
        "encoding": "mapping",
        "key": "t_address",
        "label": "mapping(address => mapping(bytes32 => mapping(address => uint256)))",
        "numberOfBytes": "32",
        "value": "t_mapping(t_bytes32,t_mapping(t_address,t_uint256))"
      },
      "t_mapping(t_address,t_uint256)": {
        "encoding": "mapping",
        "key": "t_address",
        "label": "mapping(address => uint256)",
        "numberOfBytes": "32",
        "value": "t_uint256"
      },
      "t_mapping(t_bytes32,t_mapping(t_address,t_uint256))": {
        "encoding": "mapping",
        "key": "t_bytes32",
        "label": "mapping(bytes32 => mapping(address => uint256))",
        "numberOfBytes": "32",
        "value": "t_mapping(t_address,t_uint256)"
      },
      "t_uint256": {
        "encoding": "inplace",
        "label": "uint256",
        "numberOfBytes": "32"
      }
    }
  }
}