{
  "address": "0x3E119078F3b2B51815deAFEaD6d62B9Ac1d72F1f",
  "abi": [
    {
      "inputs": [
        {
          "internalType": "address",
          "name": "fagsystemAdr",
          "type": "address"
        },
        {
          "internalType": "string",
          "name": "fagsystemDid",
          "type": "string"
        }
      ],
      "stateMutability": "nonpayable",
      "type": "constructor"
    },
    {
      "anonymous": false,
      "inputs": [
        {
          "indexed": true,
          "internalType": "bytes32",
          "name": "role",
          "type": "bytes32"
        },
        {
          "indexed": true,
          "internalType": "bytes32",
          "name": "previousAdminRole",
          "type": "bytes32"
        },
        {
          "indexed": true,
          "internalType": "bytes32",
          "name": "newAdminRole",
          "type": "bytes32"
        }
      ],
      "name": "RoleAdminChanged",
      "type": "event"
    },
    {
      "anonymous": false,
      "inputs": [
        {
          "indexed": true,
          "internalType": "bytes32",
          "name": "role",
          "type": "bytes32"
        },
        {
          "indexed": true,
          "internalType": "address",
          "name": "account",
          "type": "address"
        },
        {
          "indexed": true,
          "internalType": "address",
          "name": "sender",
          "type": "address"
        }
      ],
      "name": "RoleGranted",
      "type": "event"
    },
    {
      "anonymous": false,
      "inputs": [
        {
          "indexed": true,
          "internalType": "bytes32",
          "name": "role",
          "type": "bytes32"
        },
        {
          "indexed": true,
          "internalType": "address",
          "name": "account",
          "type": "address"
        },
        {
          "indexed": true,
          "internalType": "address",
          "name": "sender",
          "type": "address"
        }
      ],
      "name": "RoleRevoked",
      "type": "event"
    },
    {
      "anonymous": false,
      "inputs": [
        {
          "indexed": true,
          "internalType": "address",
          "name": "capTableAddress",
          "type": "address"
        }
      ],
      "name": "capTableApproved",
      "type": "event"
    },
    {
      "anonymous": false,
      "inputs": [
        {
          "indexed": true,
          "internalType": "address",
          "name": "capTableAddress",
          "type": "address"
        },
        {
          "indexed": false,
          "internalType": "bytes32",
          "name": "reason",
          "type": "bytes32"
        }
      ],
      "name": "capTableDeclined",
      "type": "event"
    },
    {
      "anonymous": false,
      "inputs": [
        {
          "indexed": true,
          "internalType": "address",
          "name": "from",
          "type": "address"
        },
        {
          "indexed": true,
          "internalType": "address",
          "name": "to",
          "type": "address"
        },
        {
          "indexed": true,
          "internalType": "string",
          "name": "id",
          "type": "string"
        }
      ],
      "name": "capTableMigrate",
      "type": "event"
    },
    {
      "anonymous": false,
      "inputs": [
        {
          "indexed": true,
          "internalType": "address",
          "name": "capTableAddress",
          "type": "address"
        },
        {
          "indexed": false,
          "internalType": "string",
          "name": "id",
          "type": "string"
        }
      ],
      "name": "capTableQued",
      "type": "event"
    },
    {
      "anonymous": false,
      "inputs": [
        {
          "indexed": true,
          "internalType": "address",
          "name": "capTableAddress",
          "type": "address"
        }
      ],
      "name": "capTableRemoved",
      "type": "event"
    },
    {
      "inputs": [],
      "name": "DEFAULT_ADMIN_ROLE",
      "outputs": [
        {
          "internalType": "bytes32",
          "name": "",
          "type": "bytes32"
        }
      ],
      "stateMutability": "view",
      "type": "function"
    },
    {
      "inputs": [],
      "name": "FAGSYSTEM",
      "outputs": [
        {
          "internalType": "bytes32",
          "name": "",
          "type": "bytes32"
        }
      ],
      "stateMutability": "view",
      "type": "function"
    },
    {
      "inputs": [
        {
          "internalType": "address",
          "name": "adr",
          "type": "address"
        }
      ],
      "name": "approve",
      "outputs": [],
      "stateMutability": "nonpayable",
      "type": "function"
    },
    {
      "inputs": [
        {
          "internalType": "address",
          "name": "adr",
          "type": "address"
        },
        {
          "internalType": "bytes32",
          "name": "reason",
          "type": "bytes32"
        }
      ],
      "name": "decline",
      "outputs": [],
      "stateMutability": "nonpayable",
      "type": "function"
    },
    {
      "inputs": [],
      "name": "getActiveCount",
      "outputs": [
        {
          "internalType": "uint256",
          "name": "activeCapTables",
          "type": "uint256"
        }
      ],
      "stateMutability": "view",
      "type": "function"
    },
    {
      "inputs": [
        {
          "internalType": "string",
          "name": "orgnr",
          "type": "string"
        }
      ],
      "name": "getAddress",
      "outputs": [
        {
          "internalType": "address",
          "name": "capTableAddress",
          "type": "address"
        }
      ],
      "stateMutability": "view",
      "type": "function"
    },
    {
      "inputs": [
        {
          "internalType": "address",
          "name": "adr",
          "type": "address"
        }
      ],
      "name": "getDidForFagsystem",
      "outputs": [
        {
          "internalType": "string",
          "name": "",
          "type": "string"
        }
      ],
      "stateMutability": "view",
      "type": "function"
    },
    {
      "inputs": [
        {
          "internalType": "address",
          "name": "adr",
          "type": "address"
        }
      ],
      "name": "getFagsystemForCapTable",
      "outputs": [
        {
          "internalType": "address",
          "name": "",
          "type": "address"
        }
      ],
      "stateMutability": "view",
      "type": "function"
    },
    {
      "inputs": [],
      "name": "getList",
      "outputs": [
        {
          "internalType": "address[]",
          "name": "capTableList",
          "type": "address[]"
        }
      ],
      "stateMutability": "view",
      "type": "function"
    },
    {
      "inputs": [
        {
          "internalType": "string",
          "name": "id",
          "type": "string"
        }
      ],
      "name": "getMigrationAddress",
      "outputs": [
        {
          "internalType": "address",
          "name": "",
          "type": "address"
        }
      ],
      "stateMutability": "view",
      "type": "function"
    },
    {
      "inputs": [],
      "name": "getQuedCount",
      "outputs": [
        {
          "internalType": "uint256",
          "name": "quedCapTables",
          "type": "uint256"
        }
      ],
      "stateMutability": "view",
      "type": "function"
    },
    {
      "inputs": [
        {
          "internalType": "bytes32",
          "name": "role",
          "type": "bytes32"
        }
      ],
      "name": "getRoleAdmin",
      "outputs": [
        {
          "internalType": "bytes32",
          "name": "",
          "type": "bytes32"
        }
      ],
      "stateMutability": "view",
      "type": "function"
    },
    {
      "inputs": [
        {
          "internalType": "address",
          "name": "adr",
          "type": "address"
        }
      ],
      "name": "getStatus",
      "outputs": [
        {
          "internalType": "uint256",
          "name": "status",
          "type": "uint256"
        }
      ],
      "stateMutability": "view",
      "type": "function"
    },
    {
      "inputs": [
        {
          "internalType": "address",
          "name": "adr",
          "type": "address"
        }
      ],
      "name": "getid",
      "outputs": [
        {
          "internalType": "string",
          "name": "id",
          "type": "string"
        }
      ],
      "stateMutability": "view",
      "type": "function"
    },
    {
      "inputs": [
        {
          "internalType": "bytes32",
          "name": "role",
          "type": "bytes32"
        },
        {
          "internalType": "address",
          "name": "account",
          "type": "address"
        }
      ],
      "name": "grantRole",
      "outputs": [],
      "stateMutability": "nonpayable",
      "type": "function"
    },
    {
      "inputs": [
        {
          "internalType": "bytes32",
          "name": "role",
          "type": "bytes32"
        },
        {
          "internalType": "address",
          "name": "account",
          "type": "address"
        }
      ],
      "name": "hasRole",
      "outputs": [
        {
          "internalType": "bool",
          "name": "",
          "type": "bool"
        }
      ],
      "stateMutability": "view",
      "type": "function"
    },
    {
      "inputs": [
        {
          "internalType": "string",
          "name": "id",
          "type": "string"
        }
      ],
      "name": "migrateCaptable",
      "outputs": [],
      "stateMutability": "nonpayable",
      "type": "function"
    },
    {
      "inputs": [
        {
          "internalType": "address",
          "name": "adr",
          "type": "address"
        },
        {
          "internalType": "string",
          "name": "id",
          "type": "string"
        }
      ],
      "name": "que",
      "outputs": [],
      "stateMutability": "nonpayable",
      "type": "function"
    },
    {
      "inputs": [
        {
          "internalType": "address",
          "name": "adr",
          "type": "address"
        }
      ],
      "name": "remove",
      "outputs": [],
      "stateMutability": "nonpayable",
      "type": "function"
    },
    {
      "inputs": [
        {
          "internalType": "address",
          "name": "adr",
          "type": "address"
        }
      ],
      "name": "removeFagsystem",
      "outputs": [],
      "stateMutability": "nonpayable",
      "type": "function"
    },
    {
      "inputs": [
        {
          "internalType": "bytes32",
          "name": "role",
          "type": "bytes32"
        },
        {
          "internalType": "address",
          "name": "account",
          "type": "address"
        }
      ],
      "name": "renounceRole",
      "outputs": [],
      "stateMutability": "nonpayable",
      "type": "function"
    },
    {
      "inputs": [
        {
          "internalType": "bytes32",
          "name": "role",
          "type": "bytes32"
        },
        {
          "internalType": "address",
          "name": "account",
          "type": "address"
        }
      ],
      "name": "revokeRole",
      "outputs": [],
      "stateMutability": "nonpayable",
      "type": "function"
    },
    {
      "inputs": [
        {
          "internalType": "bytes4",
          "name": "interfaceId",
          "type": "bytes4"
        }
      ],
      "name": "supportsInterface",
      "outputs": [
        {
          "internalType": "bool",
          "name": "",
          "type": "bool"
        }
      ],
      "stateMutability": "view",
      "type": "function"
    },
    {
      "inputs": [
        {
          "internalType": "address",
          "name": "adr",
          "type": "address"
        },
        {
          "internalType": "string",
          "name": "did",
          "type": "string"
        }
      ],
      "name": "whitelistFagsystem",
      "outputs": [],
      "stateMutability": "nonpayable",
      "type": "function"
    }
  ],
  "transactionHash": "0x2c020da5bb8a0ba64661af9917ae6bf090f06d044ded68e9783534680c622999",
  "args": [
    "0xb977651ac2f276c3a057003F9a6A245EF04c7147",
    "did:key:z6Mktx33qNK6heU2hoGHBJNRhWCem7NTFp7QERt7wk3aXWim"
  ],
  "numDeployments": 2,
  "solcInputHash": "cff007749c645dd1a0bab33b70710acb",
  "bytecode": "0x60806040523480156200001157600080fd5b50604051620023d6380380620023d68339810160408190526200003491620004b9565b6200004160003362000055565b6200004d828262000065565b505062000765565b620000618282620000bd565b5050565b6001600160a01b03821660009081526008602090815260409091208251620000909284019062000413565b50620000617ff3af6e126247b817cb5090846cb24d285320c2eb1f05b38dae49a0791477d1d58362000147565b620000c9828262000178565b62000061576000828152602081815260408083206001600160a01b03851684529091529020805460ff1916600117905562000103620001a1565b6001600160a01b0316816001600160a01b0316837f2f8788117e7eff1d82e926ec794901d17c78024a50270940304540a733656f0d60405160405180910390a45050565b6200015282620001a5565b620001678162000161620001a1565b620001ba565b620001738383620000bd565b505050565b6000918252602082815260408084206001600160a01b0393909316845291905290205460ff1690565b3390565b60009081526020819052604090206001015490565b620001c6828262000178565b6200006157620001ec816001600160a01b031660146200024660201b620007461760201c565b620002028360206200074662000246821b17811c565b604051602001620002159291906200058f565b60408051601f198184030181529082905262461bcd60e51b82526200023d9160040162000608565b60405180910390fd5b60606000620002578360026200068d565b6200026490600262000672565b6001600160401b038111156200028a57634e487b7160e01b600052604160045260246000fd5b6040519080825280601f01601f191660200182016040528015620002b5576020820181803683370190505b509050600360fc1b81600081518110620002df57634e487b7160e01b600052603260045260246000fd5b60200101906001600160f81b031916908160001a905350600f60fb1b816001815181106200031d57634e487b7160e01b600052603260045260246000fd5b60200101906001600160f81b031916908160001a9053506000620003438460026200068d565b6200035090600162000672565b90505b6001811115620003ea576f181899199a1a9b1b9c1cb0b131b232b360811b85600f16601081106200039457634e487b7160e01b600052603260045260246000fd5b1a60f81b828281518110620003b957634e487b7160e01b600052603260045260246000fd5b60200101906001600160f81b031916908160001a90535060049490941c93620003e281620006e2565b905062000353565b5083156200040c5760405162461bcd60e51b81526004016200023d906200063d565b9392505050565b8280546200042190620006fc565b90600052602060002090601f01602090048101928262000445576000855562000490565b82601f106200046057805160ff191683800117855562000490565b8280016001018555821562000490579182015b828111156200049057825182559160200191906001019062000473565b506200049e929150620004a2565b5090565b5b808211156200049e5760008155600101620004a3565b60008060408385031215620004cc578182fd5b82516001600160a01b0381168114620004e3578283fd5b60208401519092506001600160401b038082111562000500578283fd5b818501915085601f83011262000514578283fd5b8151818111156200052957620005296200074f565b604051601f8201601f19908116603f011681019083821181831017156200055457620005546200074f565b816040528281528860208487010111156200056d578586fd5b62000580836020830160208801620006af565b80955050505050509250929050565b60007f416363657373436f6e74726f6c3a206163636f756e742000000000000000000082528351620005c9816017850160208801620006af565b7001034b99036b4b9b9b4b733903937b6329607d1b6017918401918201528351620005fc816028840160208801620006af565b01602801949350505050565b600060208252825180602084015262000629816040850160208701620006af565b601f01601f19169190910160400192915050565b6020808252818101527f537472696e67733a20686578206c656e67746820696e73756666696369656e74604082015260600190565b6000821982111562000688576200068862000739565b500190565b6000816000190483118215151615620006aa57620006aa62000739565b500290565b60005b83811015620006cc578181015183820152602001620006b2565b83811115620006dc576000848401525b50505050565b600081620006f457620006f462000739565b506000190190565b6002810460018216806200071157607f821691505b602082108114156200073357634e487b7160e01b600052602260045260246000fd5b50919050565b634e487b7160e01b600052601160045260246000fd5b634e487b7160e01b600052604160045260246000fd5b611c6180620007756000396000f3fe608060405234801561001057600080fd5b50600436106101285760003560e01c806301ffc9a71461012d578063094e1ae414610156578063160779561461016b578063248a9ca3146101805780632814ab3d1461019357806329092d0e146101b35780632f2ff15d146101c657806330ccebb5146101d957806336568abe146101ec5780633c41230e146101ff57806343db4ce31461021257806343e3e6af1461022557806363338b17146102385780637b8baa671461024057806391a501a61461026057806391d1485414610273578063942b765a1461028657806398ad2f121461029b578063a217fddf146102ae578063bb7a3855146102b6578063bf40fac1146102c9578063d547741f146102dc578063daea85c5146102ef578063ea30754514610302575b600080fd5b61014061013b3660046116c1565b61030a565b60405161014d919061183d565b60405180910390f35b61015e610335565b60405161014d9190611848565b61017e61017936600461153f565b610347565b005b61015e61018e36600461167a565b610376565b6101a66101a1366004611507565b61038b565b60405161014d91906117c3565b61017e6101c1366004611507565b6103d4565b61017e6101d4366004611692565b6103fc565b61015e6101e7366004611507565b61041b565b61017e6101fa366004611692565b610436565b61017e61020d3660046115bc565b610481565b6101a66102203660046116e9565b610499565b61017e61023336600461156a565b6104a5565b61015e6104e5565b61025361024e366004611507565b6104eb565b60405161014d9190611851565b61017e61026e3660046116e9565b6105c6565b610140610281366004611692565b6105eb565b61028e610614565b60405161014d91906117f0565b6102536102a9366004611507565b610676565b61015e61069d565b61017e6102c4366004611507565b6106a2565b6101a66102d73660046116e9565b6106c8565b61017e6102ea366004611692565b6106fd565b61017e6102fd366004611507565b61071c565b61015e610740565b60006001600160e01b03198216637965db0b60e01b148061032f575061032f826108f7565b92915050565b600080516020611c0c83398151915281565b600080516020611c0c83398151915261036781610362610910565b610914565b6103718383610978565b505050565b60009081526020819052604090206001015490565b6001600160a01b038082166000908152600960205260408120549091166103c0600080516020611c0c833981519152826105eb565b6103cb5760006103cd565b805b9392505050565b600080516020611c0c8339815191526103ef81610362610910565b6103f882610ae6565b5050565b61040582610376565b61041181610362610910565b6103718383610c45565b6001600160a01b031660009081526002602052604090205490565b61043e610910565b6001600160a01b0316816001600160a01b0316146104775760405162461bcd60e51b815260040161046e90611abf565b60405180910390fd5b6103f88282610cca565b600061048f81610362610910565b6103718383610d4d565b60006103cd8383610d8f565b6103718383838080601f016020809104026020016040519081016040528093929190818152602001838380828437600092019190915250610def92505050565b60065490565b6060610505600080516020611c0c833981519152836105eb565b61051e576040518060200160405280600081525061032f565b6001600160a01b0382166000908152600860205260409020805461054190611b8c565b80601f016020809104026020016040519081016040528092919081815260200182805461056d90611b8c565b80156105ba5780601f1061058f576101008083540402835291602001916105ba565b820191906000526020600020905b81548152906001019060200180831161059d57829003601f168201915b50505050509050919050565b600080516020611c0c8339815191526105e181610362610910565b6103718383610f56565b6000918252602082815260408084206001600160a01b0393909316845291905290205460ff1690565b6060600180548060200260200160405190810160405280929190818152602001828054801561066c57602002820191906000526020600020905b81546001600160a01b0316815260019091019060200180831161064e575b5050505050905090565b6001600160a01b038116600090815260036020526040902080546060919061054190611b8c565b600081565b60006106b081610362610910565b6103f8600080516020611c0c833981519152836106fd565b6000600483836040516106dc929190611744565b908152604051908190036020019020546001600160a01b0316905092915050565b61070682610376565b61071281610362610910565b6103718383610cca565b600080516020611c0c83398151915261073781610362610910565b6103f8826110e0565b60075490565b60606000610755836002611b26565b610760906002611b0e565b6001600160401b0381111561078557634e487b7160e01b600052604160045260246000fd5b6040519080825280601f01601f1916602001820160405280156107af576020820181803683370190505b509050600360fc1b816000815181106107d857634e487b7160e01b600052603260045260246000fd5b60200101906001600160f81b031916908160001a905350600f60fb1b8160018151811061081557634e487b7160e01b600052603260045260246000fd5b60200101906001600160f81b031916908160001a9053506000610839846002611b26565b610844906001611b0e565b90505b60018111156108d8576f181899199a1a9b1b9c1cb0b131b232b360811b85600f166010811061088657634e487b7160e01b600052603260045260246000fd5b1a60f81b8282815181106108aa57634e487b7160e01b600052603260045260246000fd5b60200101906001600160f81b031916908160001a90535060049490941c936108d181611b75565b9050610847565b5083156103cd5760405162461bcd60e51b815260040161046e90611884565b6001600160e01b031981166301ffc9a760e01b14919050565b3390565b61091e82826105eb565b6103f857610936816001600160a01b03166014610746565b610941836020610746565b604051602001610952929190611754565b60408051601f198184030181529082905262461bcd60e51b825261046e91600401611851565b6001600160a01b0382166000908152600260205260409020546001146109b05760405162461bcd60e51b815260040161046e906118e8565b6001600160a01b038216600090815260026020908152604080832060039081905560078054600019019055909152812080546109eb90611b8c565b80601f0160208091040260200160405190810160405280929190818152602001828054610a1790611b8c565b8015610a645780601f10610a3957610100808354040283529160200191610a64565b820191906000526020600020905b815481529060010190602001808311610a4757829003601f168201915b505050505090506000600582604051610a7d9190611728565b90815260405190819003602001812080546001600160a01b039384166001600160a01b0319909116179055908416907f871951f6860e8a0ee93166db037de507a4e83ab8a01c1d8a9afad96898f58a9590610ad9908590611848565b60405180910390a2505050565b6001600160a01b03811660009081526002602081905260409091205414610b1f5760405162461bcd60e51b815260040161046e9061196e565b6001600160a01b038116600090815260026020908152604080832060049055600390915281208054610b5090611b8c565b80601f0160208091040260200160405190810160405280929190818152602001828054610b7c90611b8c565b8015610bc95780601f10610b9e57610100808354040283529160200191610bc9565b820191906000526020600020905b815481529060010190602001808311610bac57829003601f168201915b505050505090506000600482604051610be29190611728565b90815260405190819003602001812080546001600160a01b039384166001600160a01b031990911617905560068054600019019055908316907f59f92f7caa16e166e81629c044a7dc429c7ec26acf8a7bae64322c0b91ce09b990600090a25050565b610c4f82826105eb565b6103f8576000828152602081815260408083206001600160a01b03851684529091529020805460ff19166001179055610c86610910565b6001600160a01b0316816001600160a01b0316837f2f8788117e7eff1d82e926ec794901d17c78024a50270940304540a733656f0d60405160405180910390a45050565b610cd482826105eb565b156103f8576000828152602081815260408083206001600160a01b03851684529091529020805460ff19169055610d09610910565b6001600160a01b0316816001600160a01b0316837ff6391f5c32d9c69d2a47ea670b442974b53935d1edc7fd64eb21e047a839171b60405160405180910390a45050565b6001600160a01b03821660009081526008602090815260409091208251610d7692840190611428565b506103f8600080516020611c0c833981519152836103fc565b600080610de760048585604051610da7929190611744565b90815260408051918290036020908101832054838301909252600c83526b22a921989a18182a37b5b2b760a11b908301526001600160a01b031690611373565b949350505050565b6001600160a01b03821660009081526002602052604090205460011415610e285760405162461bcd60e51b815260040161046e90611a73565b6001600160a01b0382166000908152600260208190526040909120541415610e625760405162461bcd60e51b815260040161046e906119b4565b6001805480820182557fb10e2d527612073b26eecdfd717e6a320cf44b4afac2b0732d9fcbe2b7fa0cf60180546001600160a01b0319166001600160a01b038516908117909155600090815260026020908152604080832093909355600381529190208251610ed392840190611428565b5081600582604051610ee59190611728565b90815260405190819003602001812080546001600160a01b039384166001600160a01b0319909116179055600780546001019055908316907f3c79bfacc77ef02e77ad2fa8e708ad74a49712963daf9414fd809416982d22ed90610f4a908490611851565b60405180910390a25050565b600060048383604051610f6a929190611744565b908152604051908190036020019020546001600160a01b031690506000610f918484610d8f565b6001600160a01b03831660009081526002602081905260409091205491925014610fcd5760405162461bcd60e51b815260040161046e9061196e565b816001600160a01b0316816001600160a01b03161415610fff5760405162461bcd60e51b815260040161046e90611a30565b6001600160a01b0381166110255760405162461bcd60e51b815260040161046e906119e8565b6001600160a01b038216600090815260026020819052604091829020555181906004906110559087908790611744565b90815260405190819003602001812080546001600160a01b03939093166001600160a01b0319909316929092179091556110929085908590611744565b6040518091039020816001600160a01b0316836001600160a01b03167fcd1f615175344d2cee6eaf654027ae395f43b05cd0aa7f72a7bd25a6d9a53bb660405160405180910390a450505050565b6001600160a01b0381166000908152600260205260409020546001146111185760405162461bcd60e51b815260040161046e9061192b565b6001600160a01b038116600090815260026020818152604080842092909255600390528120805461114890611b8c565b80601f016020809104026020016040519081016040528092919081815260200182805461117490611b8c565b80156111c15780601f10611196576101008083540402835291602001916111c1565b820191906000526020600020905b8154815290600101906020018083116111a457829003601f168201915b5050505050905060006001600160a01b03166004826040516111e39190611728565b908152604051908190036020019020546001600160a01b0316146112195760405162461bcd60e51b815260040161046e906118b9565b8160048260405161122a9190611728565b908152602001604051809103902060006101000a8154816001600160a01b0302191690836001600160a01b03160217905550600060058260405161126e9190611728565b90815260408051918290036020908101832080546001600160a01b039586166001600160a01b031991821617909155600780546000190190556006805460010190559386166000818152600983528390208054909516331790945560048352602483018252820180516001600160e01b0316630527279160e11b179052516112f69190611728565b6000604051808303816000865af19150503d8060008114611333576040519150601f19603f3d011682016040523d82523d6000602084013e611338565b606091505b50506040516001600160a01b03841691507fd31d7a51ed1f0d96b385ba380d4ed4f90bd2f19dbda21b60e1c16244cc57707690600090a25050565b600080826040516020016113879190611728565b60408051601f1981840301815290829052805160209091012063555ddc6560e11b82529150731820a4b7618bde71dce8cdc73aab6c95905fad249063aabbb8ca906113d890879085906004016117d7565b60206040518083038186803b1580156113f057600080fd5b505afa158015611404573d6000803e3d6000fd5b505050506040513d601f19601f82011682018060405250810190610de79190611523565b82805461143490611b8c565b90600052602060002090601f016020900481019282611456576000855561149c565b82601f1061146f57805160ff191683800117855561149c565b8280016001018555821561149c579182015b8281111561149c578251825591602001919060010190611481565b506114a89291506114ac565b5090565b5b808211156114a857600081556001016114ad565b60008083601f8401126114d2578182fd5b5081356001600160401b038111156114e8578182fd5b60208301915083602082850101111561150057600080fd5b9250929050565b600060208284031215611518578081fd5b81356103cd81611bf3565b600060208284031215611534578081fd5b81516103cd81611bf3565b60008060408385031215611551578081fd5b823561155c81611bf3565b946020939093013593505050565b60008060006040848603121561157e578081fd5b833561158981611bf3565b925060208401356001600160401b038111156115a3578182fd5b6115af868287016114c1565b9497909650939450505050565b600080604083850312156115ce578182fd5b82356115d981611bf3565b915060208301356001600160401b03808211156115f4578283fd5b818501915085601f830112611607578283fd5b81358181111561161957611619611bdd565b604051601f8201601f19908116603f0116810190838211818310171561164157611641611bdd565b81604052828152886020848701011115611659578586fd5b82602086016020830137856020848301015280955050505050509250929050565b60006020828403121561168b578081fd5b5035919050565b600080604083850312156116a4578182fd5b8235915060208301356116b681611bf3565b809150509250929050565b6000602082840312156116d2578081fd5b81356001600160e01b0319811681146103cd578182fd5b600080602083850312156116fb578182fd5b82356001600160401b03811115611710578283fd5b61171c858286016114c1565b90969095509350505050565b6000825161173a818460208701611b45565b9190910192915050565b6000828483379101908152919050565b600076020b1b1b2b9b9a1b7b73a3937b61d1030b1b1b7bab73a1604d1b82528351611786816017850160208801611b45565b7001034b99036b4b9b9b4b733903937b6329607d1b60179184019182015283516117b7816028840160208801611b45565b01602801949350505050565b6001600160a01b0391909116815260200190565b6001600160a01b03929092168252602082015260400190565b6020808252825182820181905260009190848201906040850190845b818110156118315783516001600160a01b03168352928401929184019160010161180c565b50909695505050505050565b901515815260200190565b90815260200190565b6000602082528251806020840152611870816040850160208701611b45565b601f01601f19169190910160400192915050565b6020808252818101527f537472696e67733a20686578206c656e67746820696e73756666696369656e74604082015260600190565b602080825260159082015274696420697320616c6c726561647920696e2075736560581b604082015260600190565b60208082526023908201527f4f6e6c792071756564206361705461626c65732063616e206265206465636c696040820152621b995960ea1b606082015260800190565b60208082526023908201527f4f6e6c792071756564206361705461626c65732063616e20626520617070726f6040820152621d995960ea1b606082015260800190565b60208082526026908201527f4f6e6c7920617070726f766564206361705461626c65732063616e2062652072604082015265195b5bdd995960d21b606082015260800190565b6020808252601a908201527943616e6e6f742071756520616374697665206361705461626c6560301b604082015260600190565b60208082526028908201527f4361707461626c65206973206d6967726174656420746f20616e20656d707479604082015267206164647265737360c01b606082015260800190565b60208082526023908201527f4361707461626c65206973206e6f74206d6967726174656420696e204552433160408201526203832360ec1b606082015260800190565b6020808252602c908201527f51756564206361705461626c6573206d757374206265206465636c696e65642060408201526b6265666f726520726551756560a01b606082015260800190565b6020808252602f908201527f416363657373436f6e74726f6c3a2063616e206f6e6c792072656e6f756e636560408201526e103937b632b9903337b91039b2b63360891b606082015260800190565b60008219821115611b2157611b21611bc7565b500190565b6000816000190483118215151615611b4057611b40611bc7565b500290565b60005b83811015611b60578181015183820152602001611b48565b83811115611b6f576000848401525b50505050565b600081611b8457611b84611bc7565b506000190190565b600281046001821680611ba057607f821691505b60208210811415611bc157634e487b7160e01b600052602260045260246000fd5b50919050565b634e487b7160e01b600052601160045260246000fd5b634e487b7160e01b600052604160045260246000fd5b6001600160a01b0381168114611c0857600080fd5b5056fef3af6e126247b817cb5090846cb24d285320c2eb1f05b38dae49a0791477d1d5a26469706673582212201c87c1c0d863381f49796dd9345322ced16b126c53b756fa293e1cf29f1c704264736f6c63430008010033",
  "devdoc": {
    "kind": "dev",
    "methods": {
      "getRoleAdmin(bytes32)": {
        "details": "Returns the admin role that controls `role`. See {grantRole} and {revokeRole}. To change a role's admin, use {_setRoleAdmin}."
      },
      "grantRole(bytes32,address)": {
        "details": "Grants `role` to `account`. If `account` had not been already granted `role`, emits a {RoleGranted} event. Requirements: - the caller must have ``role``'s admin role."
      },
      "hasRole(bytes32,address)": {
        "details": "Returns `true` if `account` has been granted `role`."
      },
      "renounceRole(bytes32,address)": {
        "details": "Revokes `role` from the calling account. Roles are often managed via {grantRole} and {revokeRole}: this function's purpose is to provide a mechanism for accounts to lose their privileges if they are compromised (such as when a trusted device is misplaced). If the calling account had been revoked `role`, emits a {RoleRevoked} event. Requirements: - the caller must be `account`."
      },
      "revokeRole(bytes32,address)": {
        "details": "Revokes `role` from `account`. If `account` had been granted `role`, emits a {RoleRevoked} event. Requirements: - the caller must have ``role``'s admin role."
      },
      "supportsInterface(bytes4)": {
        "details": "See {IERC165-supportsInterface}."
      }
    },
    "version": 1
  },
  "userdoc": {
    "kind": "user",
    "methods": {},
    "version": 1
  },
  "storageLayout": {
    "storage": [
      {
        "astId": 24,
        "contract": "contracts/capTable/CapTableRegistry.sol:CapTableRegistry",
        "label": "_roles",
        "offset": 0,
        "slot": "0",
        "type": "t_mapping(t_bytes32,t_struct(RoleData)19_storage)"
      },
      {
        "astId": 9072,
        "contract": "contracts/capTable/CapTableRegistry.sol:CapTableRegistry",
        "label": "_capTables",
        "offset": 0,
        "slot": "1",
        "type": "t_array(t_address)dyn_storage"
      },
      {
        "astId": 9076,
        "contract": "contracts/capTable/CapTableRegistry.sol:CapTableRegistry",
        "label": "_status",
        "offset": 0,
        "slot": "2",
        "type": "t_mapping(t_address,t_uint256)"
      },
      {
        "astId": 9080,
        "contract": "contracts/capTable/CapTableRegistry.sol:CapTableRegistry",
        "label": "_addressToId",
        "offset": 0,
        "slot": "3",
        "type": "t_mapping(t_address,t_string_storage)"
      },
      {
        "astId": 9084,
        "contract": "contracts/capTable/CapTableRegistry.sol:CapTableRegistry",
        "label": "_idToAddress",
        "offset": 0,
        "slot": "4",
        "type": "t_mapping(t_string_memory_ptr,t_address)"
      },
      {
        "astId": 9088,
        "contract": "contracts/capTable/CapTableRegistry.sol:CapTableRegistry",
        "label": "_idToQuedAddress",
        "offset": 0,
        "slot": "5",
        "type": "t_mapping(t_string_memory_ptr,t_address)"
      },
      {
        "astId": 9090,
        "contract": "contracts/capTable/CapTableRegistry.sol:CapTableRegistry",
        "label": "_activeCapTables",
        "offset": 0,
        "slot": "6",
        "type": "t_uint256"
      },
      {
        "astId": 9092,
        "contract": "contracts/capTable/CapTableRegistry.sol:CapTableRegistry",
        "label": "_quedCapTables",
        "offset": 0,
        "slot": "7",
        "type": "t_uint256"
      },
      {
        "astId": 9132,
        "contract": "contracts/capTable/CapTableRegistry.sol:CapTableRegistry",
        "label": "_fagsystemToDid",
        "offset": 0,
        "slot": "8",
        "type": "t_mapping(t_address,t_string_storage)"
      },
      {
        "astId": 9136,
        "contract": "contracts/capTable/CapTableRegistry.sol:CapTableRegistry",
        "label": "_capTableAddressToFagsystem",
        "offset": 0,
        "slot": "9",
        "type": "t_mapping(t_address,t_address)"
      }
    ],
    "types": {
      "t_address": {
        "encoding": "inplace",
        "label": "address",
        "numberOfBytes": "20"
      },
      "t_array(t_address)dyn_storage": {
        "base": "t_address",
        "encoding": "dynamic_array",
        "label": "address[]",
        "numberOfBytes": "32"
      },
      "t_bool": {
        "encoding": "inplace",
        "label": "bool",
        "numberOfBytes": "1"
      },
      "t_bytes32": {
        "encoding": "inplace",
        "label": "bytes32",
        "numberOfBytes": "32"
      },
      "t_mapping(t_address,t_address)": {
        "encoding": "mapping",
        "key": "t_address",
        "label": "mapping(address => address)",
        "numberOfBytes": "32",
        "value": "t_address"
      },
      "t_mapping(t_address,t_bool)": {
        "encoding": "mapping",
        "key": "t_address",
        "label": "mapping(address => bool)",
        "numberOfBytes": "32",
        "value": "t_bool"
      },
      "t_mapping(t_address,t_string_storage)": {
        "encoding": "mapping",
        "key": "t_address",
        "label": "mapping(address => string)",
        "numberOfBytes": "32",
        "value": "t_string_storage"
      },
      "t_mapping(t_address,t_uint256)": {
        "encoding": "mapping",
        "key": "t_address",
        "label": "mapping(address => uint256)",
        "numberOfBytes": "32",
        "value": "t_uint256"
      },
      "t_mapping(t_bytes32,t_struct(RoleData)19_storage)": {
        "encoding": "mapping",
        "key": "t_bytes32",
        "label": "mapping(bytes32 => struct AccessControl.RoleData)",
        "numberOfBytes": "32",
        "value": "t_struct(RoleData)19_storage"
      },
      "t_mapping(t_string_memory_ptr,t_address)": {
        "encoding": "mapping",
        "key": "t_string_memory_ptr",
        "label": "mapping(string => address)",
        "numberOfBytes": "32",
        "value": "t_address"
      },
      "t_string_memory_ptr": {
        "encoding": "bytes",
        "label": "string",
        "numberOfBytes": "32"
      },
      "t_string_storage": {
        "encoding": "bytes",
        "label": "string",
        "numberOfBytes": "32"
      },
      "t_struct(RoleData)19_storage": {
        "encoding": "inplace",
        "label": "struct AccessControl.RoleData",
        "members": [
          {
            "astId": 16,
            "contract": "contracts/capTable/CapTableRegistry.sol:CapTableRegistry",
            "label": "members",
            "offset": 0,
            "slot": "0",
            "type": "t_mapping(t_address,t_bool)"
          },
          {
            "astId": 18,
            "contract": "contracts/capTable/CapTableRegistry.sol:CapTableRegistry",
            "label": "adminRole",
            "offset": 0,
            "slot": "1",
            "type": "t_bytes32"
          }
        ],
        "numberOfBytes": "64"
      },
      "t_uint256": {
        "encoding": "inplace",
        "label": "uint256",
        "numberOfBytes": "32"
      }
    }
  }
}