{
  "address": "0x3FA4c9E3318e80285b795C6079B42B65Da591D11",
  "abi": [
    {
      "inputs": [
        {
          "internalType": "address",
          "name": "fagsystemAdr",
          "type": "address"
        },
        {
          "internalType": "string",
          "name": "fagsystemDid",
          "type": "string"
        }
      ],
      "stateMutability": "nonpayable",
      "type": "constructor"
    },
    {
      "anonymous": false,
      "inputs": [
        {
          "indexed": true,
          "internalType": "bytes32",
          "name": "role",
          "type": "bytes32"
        },
        {
          "indexed": true,
          "internalType": "bytes32",
          "name": "previousAdminRole",
          "type": "bytes32"
        },
        {
          "indexed": true,
          "internalType": "bytes32",
          "name": "newAdminRole",
          "type": "bytes32"
        }
      ],
      "name": "RoleAdminChanged",
      "type": "event"
    },
    {
      "anonymous": false,
      "inputs": [
        {
          "indexed": true,
          "internalType": "bytes32",
          "name": "role",
          "type": "bytes32"
        },
        {
          "indexed": true,
          "internalType": "address",
          "name": "account",
          "type": "address"
        },
        {
          "indexed": true,
          "internalType": "address",
          "name": "sender",
          "type": "address"
        }
      ],
      "name": "RoleGranted",
      "type": "event"
    },
    {
      "anonymous": false,
      "inputs": [
        {
          "indexed": true,
          "internalType": "bytes32",
          "name": "role",
          "type": "bytes32"
        },
        {
          "indexed": true,
          "internalType": "address",
          "name": "account",
          "type": "address"
        },
        {
          "indexed": true,
          "internalType": "address",
          "name": "sender",
          "type": "address"
        }
      ],
      "name": "RoleRevoked",
      "type": "event"
    },
    {
      "anonymous": false,
      "inputs": [
        {
          "indexed": true,
          "internalType": "address",
          "name": "capTableAddress",
          "type": "address"
        }
      ],
      "name": "capTableApproved",
      "type": "event"
    },
    {
      "anonymous": false,
      "inputs": [
        {
          "indexed": true,
          "internalType": "address",
          "name": "capTableAddress",
          "type": "address"
        },
        {
          "indexed": false,
          "internalType": "bytes32",
          "name": "reason",
          "type": "bytes32"
        }
      ],
      "name": "capTableDeclined",
      "type": "event"
    },
    {
      "anonymous": false,
      "inputs": [
        {
          "indexed": true,
          "internalType": "address",
          "name": "from",
          "type": "address"
        },
        {
          "indexed": true,
          "internalType": "address",
          "name": "to",
          "type": "address"
        },
        {
          "indexed": true,
          "internalType": "string",
          "name": "id",
          "type": "string"
        }
      ],
      "name": "capTableMigrate",
      "type": "event"
    },
    {
      "anonymous": false,
      "inputs": [
        {
          "indexed": true,
          "internalType": "address",
          "name": "capTableAddress",
          "type": "address"
        },
        {
          "indexed": false,
          "internalType": "string",
          "name": "id",
          "type": "string"
        }
      ],
      "name": "capTableQued",
      "type": "event"
    },
    {
      "anonymous": false,
      "inputs": [
        {
          "indexed": true,
          "internalType": "address",
          "name": "capTableAddress",
          "type": "address"
        }
      ],
      "name": "capTableRemoved",
      "type": "event"
    },
    {
      "inputs": [],
      "name": "DEFAULT_ADMIN_ROLE",
      "outputs": [
        {
          "internalType": "bytes32",
          "name": "",
          "type": "bytes32"
        }
      ],
      "stateMutability": "view",
      "type": "function"
    },
    {
      "inputs": [],
      "name": "FAGSYSTEM",
      "outputs": [
        {
          "internalType": "bytes32",
          "name": "",
          "type": "bytes32"
        }
      ],
      "stateMutability": "view",
      "type": "function"
    },
    {
      "inputs": [
        {
          "internalType": "address",
          "name": "adr",
          "type": "address"
        }
      ],
      "name": "approve",
      "outputs": [],
      "stateMutability": "nonpayable",
      "type": "function"
    },
    {
      "inputs": [
        {
          "internalType": "address",
          "name": "adr",
          "type": "address"
        },
        {
          "internalType": "bytes32",
          "name": "reason",
          "type": "bytes32"
        }
      ],
      "name": "decline",
      "outputs": [],
      "stateMutability": "nonpayable",
      "type": "function"
    },
    {
      "inputs": [],
      "name": "getActiveCount",
      "outputs": [
        {
          "internalType": "uint256",
          "name": "activeCapTables",
          "type": "uint256"
        }
      ],
      "stateMutability": "view",
      "type": "function"
    },
    {
      "inputs": [
        {
          "internalType": "string",
          "name": "orgnr",
          "type": "string"
        }
      ],
      "name": "getAddress",
      "outputs": [
        {
          "internalType": "address",
          "name": "capTableAddress",
          "type": "address"
        }
      ],
      "stateMutability": "view",
      "type": "function"
    },
    {
      "inputs": [
        {
          "internalType": "address",
          "name": "adr",
          "type": "address"
        }
      ],
      "name": "getDidForFagsystem",
      "outputs": [
        {
          "internalType": "string",
          "name": "",
          "type": "string"
        }
      ],
      "stateMutability": "view",
      "type": "function"
    },
    {
      "inputs": [
        {
          "internalType": "address",
          "name": "adr",
          "type": "address"
        }
      ],
      "name": "getFagsystemForCapTable",
      "outputs": [
        {
          "internalType": "address",
          "name": "",
          "type": "address"
        }
      ],
      "stateMutability": "view",
      "type": "function"
    },
    {
      "inputs": [],
      "name": "getList",
      "outputs": [
        {
          "internalType": "address[]",
          "name": "capTableList",
          "type": "address[]"
        }
      ],
      "stateMutability": "view",
      "type": "function"
    },
    {
      "inputs": [
        {
          "internalType": "string",
          "name": "id",
          "type": "string"
        }
      ],
      "name": "getMigrationAddress",
      "outputs": [
        {
          "internalType": "address",
          "name": "",
          "type": "address"
        }
      ],
      "stateMutability": "view",
      "type": "function"
    },
    {
      "inputs": [],
      "name": "getQuedCount",
      "outputs": [
        {
          "internalType": "uint256",
          "name": "quedCapTables",
          "type": "uint256"
        }
      ],
      "stateMutability": "view",
      "type": "function"
    },
    {
      "inputs": [
        {
          "internalType": "bytes32",
          "name": "role",
          "type": "bytes32"
        }
      ],
      "name": "getRoleAdmin",
      "outputs": [
        {
          "internalType": "bytes32",
          "name": "",
          "type": "bytes32"
        }
      ],
      "stateMutability": "view",
      "type": "function"
    },
    {
      "inputs": [
        {
          "internalType": "address",
          "name": "adr",
          "type": "address"
        }
      ],
      "name": "getStatus",
      "outputs": [
        {
          "internalType": "uint256",
          "name": "status",
          "type": "uint256"
        }
      ],
      "stateMutability": "view",
      "type": "function"
    },
    {
      "inputs": [
        {
          "internalType": "address",
          "name": "adr",
          "type": "address"
        }
      ],
      "name": "getid",
      "outputs": [
        {
          "internalType": "string",
          "name": "id",
          "type": "string"
        }
      ],
      "stateMutability": "view",
      "type": "function"
    },
    {
      "inputs": [
        {
          "internalType": "bytes32",
          "name": "role",
          "type": "bytes32"
        },
        {
          "internalType": "address",
          "name": "account",
          "type": "address"
        }
      ],
      "name": "grantRole",
      "outputs": [],
      "stateMutability": "nonpayable",
      "type": "function"
    },
    {
      "inputs": [
        {
          "internalType": "bytes32",
          "name": "role",
          "type": "bytes32"
        },
        {
          "internalType": "address",
          "name": "account",
          "type": "address"
        }
      ],
      "name": "hasRole",
      "outputs": [
        {
          "internalType": "bool",
          "name": "",
          "type": "bool"
        }
      ],
      "stateMutability": "view",
      "type": "function"
    },
    {
      "inputs": [
        {
          "internalType": "string",
          "name": "id",
          "type": "string"
        }
      ],
      "name": "migrateCaptable",
      "outputs": [],
      "stateMutability": "nonpayable",
      "type": "function"
    },
    {
      "inputs": [
        {
          "internalType": "address",
          "name": "adr",
          "type": "address"
        },
        {
          "internalType": "string",
          "name": "id",
          "type": "string"
        }
      ],
      "name": "que",
      "outputs": [],
      "stateMutability": "nonpayable",
      "type": "function"
    },
    {
      "inputs": [
        {
          "internalType": "address",
          "name": "adr",
          "type": "address"
        }
      ],
      "name": "remove",
      "outputs": [],
      "stateMutability": "nonpayable",
      "type": "function"
    },
    {
      "inputs": [
        {
          "internalType": "address",
          "name": "adr",
          "type": "address"
        }
      ],
      "name": "removeFagsystem",
      "outputs": [],
      "stateMutability": "nonpayable",
      "type": "function"
    },
    {
      "inputs": [
        {
          "internalType": "bytes32",
          "name": "role",
          "type": "bytes32"
        },
        {
          "internalType": "address",
          "name": "account",
          "type": "address"
        }
      ],
      "name": "renounceRole",
      "outputs": [],
      "stateMutability": "nonpayable",
      "type": "function"
    },
    {
      "inputs": [
        {
          "internalType": "bytes32",
          "name": "role",
          "type": "bytes32"
        },
        {
          "internalType": "address",
          "name": "account",
          "type": "address"
        }
      ],
      "name": "revokeRole",
      "outputs": [],
      "stateMutability": "nonpayable",
      "type": "function"
    },
    {
      "inputs": [
        {
          "internalType": "bytes4",
          "name": "interfaceId",
          "type": "bytes4"
        }
      ],
      "name": "supportsInterface",
      "outputs": [
        {
          "internalType": "bool",
          "name": "",
          "type": "bool"
        }
      ],
      "stateMutability": "view",
      "type": "function"
    },
    {
      "inputs": [
        {
          "internalType": "address",
          "name": "adr",
          "type": "address"
        },
        {
          "internalType": "string",
          "name": "did",
          "type": "string"
        }
      ],
      "name": "whitelistFagsystem",
      "outputs": [],
      "stateMutability": "nonpayable",
      "type": "function"
    }
  ],
  "transactionHash": "0x909f4978fb4b03633e5eabb47a85c7ab1004074f8fb4d127188f94a5d9dbe169",
  "args": [
    "0xe0B6C61C5215C0Fc34982c9E982b46A301049A7e",
    "did:key:z6MkuVo5mmyytyZLSEGfbAurPgiRNqDSPTQkhQ5j84WMKtDA"
  ],
  "numDeployments": 3,
  "solcInputHash": "e85f38f565e04a04c575741022157475",
  "bytecode": "0x60806040523480156200001157600080fd5b5060405162002d3938038062002d398339810160408190526200003491620004b9565b6200004160003362000055565b6200004d828262000065565b505062000765565b620000618282620000bd565b5050565b6001600160a01b03821660009081526008602090815260409091208251620000909284019062000413565b50620000617ff3af6e126247b817cb5090846cb24d285320c2eb1f05b38dae49a0791477d1d58362000147565b620000c9828262000178565b62000061576000828152602081815260408083206001600160a01b03851684529091529020805460ff1916600117905562000103620001a1565b6001600160a01b0316816001600160a01b0316837f2f8788117e7eff1d82e926ec794901d17c78024a50270940304540a733656f0d60405160405180910390a45050565b6200015282620001a5565b620001678162000161620001a1565b620001ba565b620001738383620000bd565b505050565b6000918252602082815260408084206001600160a01b0393909316845291905290205460ff1690565b3390565b60009081526020819052604090206001015490565b620001c6828262000178565b6200006157620001ec816001600160a01b031660146200024660201b620009061760201c565b620002028360206200090662000246821b17811c565b604051602001620002159291906200058f565b60408051601f198184030181529082905262461bcd60e51b82526200023d9160040162000608565b60405180910390fd5b60606000620002578360026200068d565b6200026490600262000672565b6001600160401b038111156200028a57634e487b7160e01b600052604160045260246000fd5b6040519080825280601f01601f191660200182016040528015620002b5576020820181803683370190505b509050600360fc1b81600081518110620002df57634e487b7160e01b600052603260045260246000fd5b60200101906001600160f81b031916908160001a905350600f60fb1b816001815181106200031d57634e487b7160e01b600052603260045260246000fd5b60200101906001600160f81b031916908160001a9053506000620003438460026200068d565b6200035090600162000672565b90505b6001811115620003ea576f181899199a1a9b1b9c1cb0b131b232b360811b85600f16601081106200039457634e487b7160e01b600052603260045260246000fd5b1a60f81b828281518110620003b957634e487b7160e01b600052603260045260246000fd5b60200101906001600160f81b031916908160001a90535060049490941c93620003e281620006e2565b905062000353565b5083156200040c5760405162461bcd60e51b81526004016200023d906200063d565b9392505050565b8280546200042190620006fc565b90600052602060002090601f01602090048101928262000445576000855562000490565b82601f106200046057805160ff191683800117855562000490565b8280016001018555821562000490579182015b828111156200049057825182559160200191906001019062000473565b506200049e929150620004a2565b5090565b5b808211156200049e5760008155600101620004a3565b60008060408385031215620004cc578182fd5b82516001600160a01b0381168114620004e3578283fd5b60208401519092506001600160401b038082111562000500578283fd5b818501915085601f83011262000514578283fd5b8151818111156200052957620005296200074f565b604051601f8201601f19908116603f011681019083821181831017156200055457620005546200074f565b816040528281528860208487010111156200056d578586fd5b62000580836020830160208801620006af565b80955050505050509250929050565b60007f416363657373436f6e74726f6c3a206163636f756e742000000000000000000082528351620005c9816017850160208801620006af565b7001034b99036b4b9b9b4b733903937b6329607d1b6017918401918201528351620005fc816028840160208801620006af565b01602801949350505050565b600060208252825180602084015262000629816040850160208701620006af565b601f01601f19169190910160400192915050565b6020808252818101527f537472696e67733a20686578206c656e67746820696e73756666696369656e74604082015260600190565b6000821982111562000688576200068862000739565b500190565b6000816000190483118215151615620006aa57620006aa62000739565b500290565b60005b83811015620006cc578181015183820152602001620006b2565b83811115620006dc576000848401525b50505050565b600081620006f457620006f462000739565b506000190190565b6002810460018216806200071157607f821691505b602082108114156200073357634e487b7160e01b600052602260045260246000fd5b50919050565b634e487b7160e01b600052601160045260246000fd5b634e487b7160e01b600052604160045260246000fd5b6125c480620007756000396000f3fe608060405234801561001057600080fd5b50600436106101985760003560e01c806363338b17116100e3578063a217fddf1161008c578063d547741f11610066578063d547741f1461034c578063daea85c51461035f578063ea3075451461037257610198565b8063a217fddf1461031e578063bb7a385514610326578063bf40fac11461033957610198565b806391d14854116100bd57806391d14854146102e3578063942b765a146102f657806398ad2f121461030b57610198565b806363338b17146102a85780637b8baa67146102b057806391a501a6146102d057610198565b80632f2ff15d116101455780633c41230e1161011f5780633c41230e1461026f57806343db4ce31461028257806343e3e6af1461029557610198565b80632f2ff15d1461023657806330ccebb51461024957806336568abe1461025c57610198565b8063248a9ca311610176578063248a9ca3146101f05780632814ab3d1461020357806329092d0e1461022357610198565b806301ffc9a71461019d578063094e1ae4146101c657806316077956146101db575b600080fd5b6101b06101ab366004611e9c565b61037a565b6040516101bd919061206a565b60405180910390f35b6101ce6103d6565b6040516101bd9190612075565b6101ee6101e9366004611cfa565b6103fa565b005b6101ce6101fe366004611e55565b61043b565b610216610211366004611cc2565b610450565b6040516101bd9190611fc9565b6101ee610231366004611cc2565b6104b8565b6101ee610244366004611e6d565b6104f2565b6101ce610257366004611cc2565b610511565b6101ee61026a366004611e6d565b610539565b6101ee61027d366004611d78565b6105b8565b610216610290366004611edc565b6105d0565b6101ee6102a3366004611d25565b6105dc565b6101ce61061c565b6102c36102be366004611cc2565b610622565b6040516101bd919061207e565b6101ee6102de366004611edc565b61071c565b6101b06102f1366004611e6d565b610753565b6102fe610789565b6040516101bd9190612010565b6102c3610319366004611cc2565b6107f8565b6101ce61082c565b6101ee610334366004611cc2565b610831565b610216610347366004611edc565b610869565b6101ee61035a366004611e6d565b6108ab565b6101ee61036d366004611cc2565b6108ca565b6101ce610900565b60007fffffffff0000000000000000000000000000000000000000000000000000000082167f7965db0b0000000000000000000000000000000000000000000000000000000014806103d057506103d082610bdc565b92915050565b7ff3af6e126247b817cb5090846cb24d285320c2eb1f05b38dae49a0791477d1d581565b7ff3af6e126247b817cb5090846cb24d285320c2eb1f05b38dae49a0791477d1d561042c81610427610c26565b610c2a565b6104368383610cd3565b505050565b60009081526020819052604090206001015490565b73ffffffffffffffffffffffffffffffffffffffff8082166000908152600960205260408120549091166104a47ff3af6e126247b817cb5090846cb24d285320c2eb1f05b38dae49a0791477d1d582610753565b6104af5760006104b1565b805b9392505050565b7ff3af6e126247b817cb5090846cb24d285320c2eb1f05b38dae49a0791477d1d56104e581610427610c26565b6104ee82610eb8565b5050565b6104fb8261043b565b61050781610427610c26565b610436838361108e565b73ffffffffffffffffffffffffffffffffffffffff1660009081526002602052604090205490565b610541610c26565b73ffffffffffffffffffffffffffffffffffffffff168173ffffffffffffffffffffffffffffffffffffffff16146105ae576040517f08c379a00000000000000000000000000000000000000000000000000000000081526004016105a5906123a0565b60405180910390fd5b6104ee8282611158565b60006105c681610427610c26565b6104368383611220565b60006104b18383611281565b6104368383838080601f0160208091040260200160405190810160405280939291908181526020018383808284376000920191909152506112ff92505050565b60065490565b606061064e7ff3af6e126247b817cb5090846cb24d285320c2eb1f05b38dae49a0791477d1d583610753565b61066757604051806020016040528060008152506103d0565b73ffffffffffffffffffffffffffffffffffffffff821660009081526008602052604090208054610697906124b7565b80601f01602080910402602001604051908101604052809291908181526020018280546106c3906124b7565b80156107105780601f106106e557610100808354040283529160200191610710565b820191906000526020600020905b8154815290600101906020018083116106f357829003601f168201915b50505050509050919050565b7ff3af6e126247b817cb5090846cb24d285320c2eb1f05b38dae49a0791477d1d561074981610427610c26565b61043683836114fe565b60009182526020828152604080842073ffffffffffffffffffffffffffffffffffffffff93909316845291905290205460ff1690565b606060018054806020026020016040519081016040528092919081815260200182805480156107ee57602002820191906000526020600020905b815473ffffffffffffffffffffffffffffffffffffffff1681526001909101906020018083116107c3575b5050505050905090565b73ffffffffffffffffffffffffffffffffffffffff81166000908152600360205260409020805460609190610697906124b7565b600081565b600061083f81610427610c26565b6104ee7ff3af6e126247b817cb5090846cb24d285320c2eb1f05b38dae49a0791477d1d5836108ab565b60006004838360405161087d929190611f38565b9081526040519081900360200190205473ffffffffffffffffffffffffffffffffffffffff16905092915050565b6108b48261043b565b6108c081610427610c26565b6104368383611158565b7ff3af6e126247b817cb5090846cb24d285320c2eb1f05b38dae49a0791477d1d56108f781610427610c26565b6104ee82611763565b60075490565b60606000610915836002612415565b6109209060026123fd565b67ffffffffffffffff81111561095f577f4e487b7100000000000000000000000000000000000000000000000000000000600052604160045260246000fd5b6040519080825280601f01601f191660200182016040528015610989576020820181803683370190505b5090507f3000000000000000000000000000000000000000000000000000000000000000816000815181106109e7577f4e487b7100000000000000000000000000000000000000000000000000000000600052603260045260246000fd5b60200101907effffffffffffffffffffffffffffffffffffffffffffffffffffffffffffff1916908160001a9053507f780000000000000000000000000000000000000000000000000000000000000081600181518110610a71577f4e487b7100000000000000000000000000000000000000000000000000000000600052603260045260246000fd5b60200101907effffffffffffffffffffffffffffffffffffffffffffffffffffffffffffff1916908160001a9053506000610aad846002612415565b610ab89060016123fd565b90505b6001811115610ba3577f303132333435363738396162636465660000000000000000000000000000000085600f1660108110610b20577f4e487b7100000000000000000000000000000000000000000000000000000000600052603260045260246000fd5b1a60f81b828281518110610b5d577f4e487b7100000000000000000000000000000000000000000000000000000000600052603260045260246000fd5b60200101907effffffffffffffffffffffffffffffffffffffffffffffffffffffffffffff1916908160001a90535060049490941c93610b9c81612482565b9050610abb565b5083156104b1576040517f08c379a00000000000000000000000000000000000000000000000000000000081526004016105a5906120cf565b7fffffffff0000000000000000000000000000000000000000000000000000000081167f01ffc9a70000000000000000000000000000000000000000000000000000000014919050565b3390565b610c348282610753565b6104ee57610c598173ffffffffffffffffffffffffffffffffffffffff166014610906565b610c64836020610906565b604051602001610c75929190611f48565b604080517fffffffffffffffffffffffffffffffffffffffffffffffffffffffffffffffe0818403018152908290527f08c379a00000000000000000000000000000000000000000000000000000000082526105a59160040161207e565b73ffffffffffffffffffffffffffffffffffffffff8216600090815260026020526040902054600114610d32576040517f08c379a00000000000000000000000000000000000000000000000000000000081526004016105a59061213b565b73ffffffffffffffffffffffffffffffffffffffff82166000908152600260209081526040808320600390819055600780547fffffffffffffffffffffffffffffffffffffffffffffffffffffffffffffffff01905590915281208054610d98906124b7565b80601f0160208091040260200160405190810160405280929190818152602001828054610dc4906124b7565b8015610e115780601f10610de657610100808354040283529160200191610e11565b820191906000526020600020905b815481529060010190602001808311610df457829003601f168201915b505050505090506000600582604051610e2a9190611f1c565b908152604051908190036020018120805473ffffffffffffffffffffffffffffffffffffffff9384167fffffffffffffffffffffffff0000000000000000000000000000000000000000909116179055908416907f871951f6860e8a0ee93166db037de507a4e83ab8a01c1d8a9afad96898f58a9590610eab908590612075565b60405180910390a2505050565b73ffffffffffffffffffffffffffffffffffffffff811660009081526002602081905260409091205414610f18576040517f08c379a00000000000000000000000000000000000000000000000000000000081526004016105a5906121f5565b73ffffffffffffffffffffffffffffffffffffffff8116600090815260026020908152604080832060049055600390915281208054610f56906124b7565b80601f0160208091040260200160405190810160405280929190818152602001828054610f82906124b7565b8015610fcf5780601f10610fa457610100808354040283529160200191610fcf565b820191906000526020600020905b815481529060010190602001808311610fb257829003601f168201915b505050505090506000600482604051610fe89190611f1c565b908152604051908190036020018120805473ffffffffffffffffffffffffffffffffffffffff9384167fffffffffffffffffffffffff0000000000000000000000000000000000000000909116179055600680547fffffffffffffffffffffffffffffffffffffffffffffffffffffffffffffffff019055908316907f59f92f7caa16e166e81629c044a7dc429c7ec26acf8a7bae64322c0b91ce09b990600090a25050565b6110988282610753565b6104ee5760008281526020818152604080832073ffffffffffffffffffffffffffffffffffffffff85168452909152902080547fffffffffffffffffffffffffffffffffffffffffffffffffffffffffffffff001660011790556110fa610c26565b73ffffffffffffffffffffffffffffffffffffffff168173ffffffffffffffffffffffffffffffffffffffff16837f2f8788117e7eff1d82e926ec794901d17c78024a50270940304540a733656f0d60405160405180910390a45050565b6111628282610753565b156104ee5760008281526020818152604080832073ffffffffffffffffffffffffffffffffffffffff85168452909152902080547fffffffffffffffffffffffffffffffffffffffffffffffffffffffffffffff001690556111c2610c26565b73ffffffffffffffffffffffffffffffffffffffff168173ffffffffffffffffffffffffffffffffffffffff16837ff6391f5c32d9c69d2a47ea670b442974b53935d1edc7fd64eb21e047a839171b60405160405180910390a45050565b73ffffffffffffffffffffffffffffffffffffffff82166000908152600860209081526040909120825161125692840190611be2565b506104ee7ff3af6e126247b817cb5090846cb24d285320c2eb1f05b38dae49a0791477d1d5836104f2565b6000806112f760048585604051611299929190611f38565b90815260408051918290036020908101832054838301909252600c83527f45524331343030546f6b656e00000000000000000000000000000000000000009083015273ffffffffffffffffffffffffffffffffffffffff1690611af6565b949350505050565b73ffffffffffffffffffffffffffffffffffffffff82166000908152600260205260409020546001141561135f576040517f08c379a00000000000000000000000000000000000000000000000000000000081526004016105a590612343565b73ffffffffffffffffffffffffffffffffffffffff821660009081526002602081905260409091205414156113c0576040517f08c379a00000000000000000000000000000000000000000000000000000000081526004016105a590612252565b6001805480820182557fb10e2d527612073b26eecdfd717e6a320cf44b4afac2b0732d9fcbe2b7fa0cf60180547fffffffffffffffffffffffff00000000000000000000000000000000000000001673ffffffffffffffffffffffffffffffffffffffff851690811790915560009081526002602090815260408083209390935560038152919020825161145692840190611be2565b50816005826040516114689190611f1c565b908152604051908190036020018120805473ffffffffffffffffffffffffffffffffffffffff9384167fffffffffffffffffffffffff0000000000000000000000000000000000000000909116179055600780546001019055908316907f3c79bfacc77ef02e77ad2fa8e708ad74a49712963daf9414fd809416982d22ed906114f290849061207e565b60405180910390a25050565b600060048383604051611512929190611f38565b9081526040519081900360200190205473ffffffffffffffffffffffffffffffffffffffff16905060006115468484611281565b73ffffffffffffffffffffffffffffffffffffffff8316600090815260026020819052604090912054919250146115a9576040517f08c379a00000000000000000000000000000000000000000000000000000000081526004016105a5906121f5565b8173ffffffffffffffffffffffffffffffffffffffff168173ffffffffffffffffffffffffffffffffffffffff16141561160f576040517f08c379a00000000000000000000000000000000000000000000000000000000081526004016105a5906122e6565b73ffffffffffffffffffffffffffffffffffffffff811661165c576040517f08c379a00000000000000000000000000000000000000000000000000000000081526004016105a590612289565b73ffffffffffffffffffffffffffffffffffffffff8216600090815260026020819052604091829020555181906004906116999087908790611f38565b908152604051908190036020018120805473ffffffffffffffffffffffffffffffffffffffff939093167fffffffffffffffffffffffff0000000000000000000000000000000000000000909316929092179091556116fb9085908590611f38565b60405180910390208173ffffffffffffffffffffffffffffffffffffffff168373ffffffffffffffffffffffffffffffffffffffff167fcd1f615175344d2cee6eaf654027ae395f43b05cd0aa7f72a7bd25a6d9a53bb660405160405180910390a450505050565b73ffffffffffffffffffffffffffffffffffffffff81166000908152600260205260409020546001146117c2576040517f08c379a00000000000000000000000000000000000000000000000000000000081526004016105a590612198565b73ffffffffffffffffffffffffffffffffffffffff811660009081526002602081815260408084209290925560039052812080546117ff906124b7565b80601f016020809104026020016040519081016040528092919081815260200182805461182b906124b7565b80156118785780601f1061184d57610100808354040283529160200191611878565b820191906000526020600020905b81548152906001019060200180831161185b57829003601f168201915b50505050509050600073ffffffffffffffffffffffffffffffffffffffff166004826040516118a79190611f1c565b9081526040519081900360200190205473ffffffffffffffffffffffffffffffffffffffff1614611904576040517f08c379a00000000000000000000000000000000000000000000000000000000081526004016105a590612104565b816004826040516119159190611f1c565b908152602001604051809103902060006101000a81548173ffffffffffffffffffffffffffffffffffffffff021916908373ffffffffffffffffffffffffffffffffffffffff16021790555060006005826040516119739190611f1c565b908152604080519182900360209081018320805473ffffffffffffffffffffffffffffffffffffffff9586167fffffffffffffffffffffffff000000000000000000000000000000000000000091821617909155600780547fffffffffffffffffffffffffffffffffffffffffffffffffffffffffffffffff0190556006805460010190559386166000818152600983528390208054909516331790945560048352602483018252820180517bffffffffffffffffffffffffffffffffffffffffffffffffffffffff167f0a4e4f220000000000000000000000000000000000000000000000000000000017905251611a6c9190611f1c565b6000604051808303816000865af19150503d8060008114611aa9576040519150601f19603f3d011682016040523d82523d6000602084013e611aae565b606091505b505060405173ffffffffffffffffffffffffffffffffffffffff841691507fd31d7a51ed1f0d96b385ba380d4ed4f90bd2f19dbda21b60e1c16244cc57707690600090a25050565b60008082604051602001611b0a9190611f1c565b604080517fffffffffffffffffffffffffffffffffffffffffffffffffffffffffffffffe08184030181529082905280516020909101207faabbb8ca0000000000000000000000000000000000000000000000000000000082529150731820a4b7618bde71dce8cdc73aab6c95905fad249063aabbb8ca90611b929087908590600401611fea565b60206040518083038186803b158015611baa57600080fd5b505afa158015611bbe573d6000803e3d6000fd5b505050506040513d601f19601f820116820180604052508101906112f79190611cde565b828054611bee906124b7565b90600052602060002090601f016020900481019282611c105760008555611c56565b82601f10611c2957805160ff1916838001178555611c56565b82800160010185558215611c56579182015b82811115611c56578251825591602001919060010190611c3b565b50611c62929150611c66565b5090565b5b80821115611c625760008155600101611c67565b60008083601f840112611c8c578182fd5b50813567ffffffffffffffff811115611ca3578182fd5b602083019150836020828501011115611cbb57600080fd5b9250929050565b600060208284031215611cd3578081fd5b81356104b181612569565b600060208284031215611cef578081fd5b81516104b181612569565b60008060408385031215611d0c578081fd5b8235611d1781612569565b946020939093013593505050565b600080600060408486031215611d39578081fd5b8335611d4481612569565b9250602084013567ffffffffffffffff811115611d5f578182fd5b611d6b86828701611c7b565b9497909650939450505050565b60008060408385031215611d8a578182fd5b8235611d9581612569565b9150602083013567ffffffffffffffff80821115611db1578283fd5b818501915085601f830112611dc4578283fd5b813581811115611dd657611dd661253a565b604051601f82017fffffffffffffffffffffffffffffffffffffffffffffffffffffffffffffffe0908116603f01168101908382118183101715611e1c57611e1c61253a565b81604052828152886020848701011115611e34578586fd5b82602086016020830137856020848301015280955050505050509250929050565b600060208284031215611e66578081fd5b5035919050565b60008060408385031215611e7f578182fd5b823591506020830135611e9181612569565b809150509250929050565b600060208284031215611ead578081fd5b81357fffffffff00000000000000000000000000000000000000000000000000000000811681146104b1578182fd5b60008060208385031215611eee578182fd5b823567ffffffffffffffff811115611f04578283fd5b611f1085828601611c7b565b90969095509350505050565b60008251611f2e818460208701612452565b9190910192915050565b6000828483379101908152919050565b60007f416363657373436f6e74726f6c3a206163636f756e742000000000000000000082528351611f80816017850160208801612452565b7f206973206d697373696e6720726f6c65200000000000000000000000000000006017918401918201528351611fbd816028840160208801612452565b01602801949350505050565b73ffffffffffffffffffffffffffffffffffffffff91909116815260200190565b73ffffffffffffffffffffffffffffffffffffffff929092168252602082015260400190565b6020808252825182820181905260009190848201906040850190845b8181101561205e57835173ffffffffffffffffffffffffffffffffffffffff168352928401929184019160010161202c565b50909695505050505050565b901515815260200190565b90815260200190565b600060208252825180602084015261209d816040850160208701612452565b601f017fffffffffffffffffffffffffffffffffffffffffffffffffffffffffffffffe0169190910160400192915050565b6020808252818101527f537472696e67733a20686578206c656e67746820696e73756666696369656e74604082015260600190565b60208082526015908201527f696420697320616c6c726561647920696e207573650000000000000000000000604082015260600190565b60208082526023908201527f4f6e6c792071756564206361705461626c65732063616e206265206465636c6960408201527f6e65640000000000000000000000000000000000000000000000000000000000606082015260800190565b60208082526023908201527f4f6e6c792071756564206361705461626c65732063616e20626520617070726f60408201527f7665640000000000000000000000000000000000000000000000000000000000606082015260800190565b60208082526026908201527f4f6e6c7920617070726f766564206361705461626c65732063616e206265207260408201527f656d6f7665640000000000000000000000000000000000000000000000000000606082015260800190565b6020808252601a908201527f43616e6e6f742071756520616374697665206361705461626c65000000000000604082015260600190565b60208082526028908201527f4361707461626c65206973206d6967726174656420746f20616e20656d70747960408201527f2061646472657373000000000000000000000000000000000000000000000000606082015260800190565b60208082526023908201527f4361707461626c65206973206e6f74206d6967726174656420696e204552433160408201527f3832300000000000000000000000000000000000000000000000000000000000606082015260800190565b6020808252602c908201527f51756564206361705461626c6573206d757374206265206465636c696e65642060408201527f6265666f72652072655175650000000000000000000000000000000000000000606082015260800190565b6020808252602f908201527f416363657373436f6e74726f6c3a2063616e206f6e6c792072656e6f756e636560408201527f20726f6c657320666f722073656c660000000000000000000000000000000000606082015260800190565b600082198211156124105761241061250b565b500190565b6000817fffffffffffffffffffffffffffffffffffffffffffffffffffffffffffffffff048311821515161561244d5761244d61250b565b500290565b60005b8381101561246d578181015183820152602001612455565b8381111561247c576000848401525b50505050565b6000816124915761249161250b565b507fffffffffffffffffffffffffffffffffffffffffffffffffffffffffffffffff0190565b6002810460018216806124cb57607f821691505b60208210811415612505577f4e487b7100000000000000000000000000000000000000000000000000000000600052602260045260246000fd5b50919050565b7f4e487b7100000000000000000000000000000000000000000000000000000000600052601160045260246000fd5b7f4e487b7100000000000000000000000000000000000000000000000000000000600052604160045260246000fd5b73ffffffffffffffffffffffffffffffffffffffff8116811461258b57600080fd5b5056fea2646970667358221220b73b86f93b92cfa3c65fe72ea34a0a911a73cbb8ff4bbefd402cda93d0c8c56764736f6c63430008010033",
  "devdoc": {
    "kind": "dev",
    "methods": {
      "getRoleAdmin(bytes32)": {
        "details": "Returns the admin role that controls `role`. See {grantRole} and {revokeRole}. To change a role's admin, use {_setRoleAdmin}."
      },
      "grantRole(bytes32,address)": {
        "details": "Grants `role` to `account`. If `account` had not been already granted `role`, emits a {RoleGranted} event. Requirements: - the caller must have ``role``'s admin role."
      },
      "hasRole(bytes32,address)": {
        "details": "Returns `true` if `account` has been granted `role`."
      },
      "renounceRole(bytes32,address)": {
        "details": "Revokes `role` from the calling account. Roles are often managed via {grantRole} and {revokeRole}: this function's purpose is to provide a mechanism for accounts to lose their privileges if they are compromised (such as when a trusted device is misplaced). If the calling account had been revoked `role`, emits a {RoleRevoked} event. Requirements: - the caller must be `account`."
      },
      "revokeRole(bytes32,address)": {
        "details": "Revokes `role` from `account`. If `account` had been granted `role`, emits a {RoleRevoked} event. Requirements: - the caller must have ``role``'s admin role."
      },
      "supportsInterface(bytes4)": {
        "details": "See {IERC165-supportsInterface}."
      }
    },
    "version": 1
  },
  "userdoc": {
    "kind": "user",
    "methods": {},
    "version": 1
  },
  "storageLayout": {
    "storage": [
      {
        "astId": 24,
        "contract": "contracts/capTable/CapTableRegistry.sol:CapTableRegistry",
        "label": "_roles",
        "offset": 0,
        "slot": "0",
        "type": "t_mapping(t_bytes32,t_struct(RoleData)19_storage)"
      },
      {
        "astId": 8868,
        "contract": "contracts/capTable/CapTableRegistry.sol:CapTableRegistry",
        "label": "_capTables",
        "offset": 0,
        "slot": "1",
        "type": "t_array(t_address)dyn_storage"
      },
      {
        "astId": 8872,
        "contract": "contracts/capTable/CapTableRegistry.sol:CapTableRegistry",
        "label": "_status",
        "offset": 0,
        "slot": "2",
        "type": "t_mapping(t_address,t_uint256)"
      },
      {
        "astId": 8876,
        "contract": "contracts/capTable/CapTableRegistry.sol:CapTableRegistry",
        "label": "_addressToId",
        "offset": 0,
        "slot": "3",
        "type": "t_mapping(t_address,t_string_storage)"
      },
      {
        "astId": 8880,
        "contract": "contracts/capTable/CapTableRegistry.sol:CapTableRegistry",
        "label": "_idToAddress",
        "offset": 0,
        "slot": "4",
        "type": "t_mapping(t_string_memory_ptr,t_address)"
      },
      {
        "astId": 8884,
        "contract": "contracts/capTable/CapTableRegistry.sol:CapTableRegistry",
        "label": "_idToQuedAddress",
        "offset": 0,
        "slot": "5",
        "type": "t_mapping(t_string_memory_ptr,t_address)"
      },
      {
        "astId": 8886,
        "contract": "contracts/capTable/CapTableRegistry.sol:CapTableRegistry",
        "label": "_activeCapTables",
        "offset": 0,
        "slot": "6",
        "type": "t_uint256"
      },
      {
        "astId": 8888,
        "contract": "contracts/capTable/CapTableRegistry.sol:CapTableRegistry",
        "label": "_quedCapTables",
        "offset": 0,
        "slot": "7",
        "type": "t_uint256"
      },
      {
        "astId": 8928,
        "contract": "contracts/capTable/CapTableRegistry.sol:CapTableRegistry",
        "label": "_fagsystemToDid",
        "offset": 0,
        "slot": "8",
        "type": "t_mapping(t_address,t_string_storage)"
      },
      {
        "astId": 8932,
        "contract": "contracts/capTable/CapTableRegistry.sol:CapTableRegistry",
        "label": "_capTableAddressToFagsystem",
        "offset": 0,
        "slot": "9",
        "type": "t_mapping(t_address,t_address)"
      }
    ],
    "types": {
      "t_address": {
        "encoding": "inplace",
        "label": "address",
        "numberOfBytes": "20"
      },
      "t_array(t_address)dyn_storage": {
        "base": "t_address",
        "encoding": "dynamic_array",
        "label": "address[]",
        "numberOfBytes": "32"
      },
      "t_bool": {
        "encoding": "inplace",
        "label": "bool",
        "numberOfBytes": "1"
      },
      "t_bytes32": {
        "encoding": "inplace",
        "label": "bytes32",
        "numberOfBytes": "32"
      },
      "t_mapping(t_address,t_address)": {
        "encoding": "mapping",
        "key": "t_address",
        "label": "mapping(address => address)",
        "numberOfBytes": "32",
        "value": "t_address"
      },
      "t_mapping(t_address,t_bool)": {
        "encoding": "mapping",
        "key": "t_address",
        "label": "mapping(address => bool)",
        "numberOfBytes": "32",
        "value": "t_bool"
      },
      "t_mapping(t_address,t_string_storage)": {
        "encoding": "mapping",
        "key": "t_address",
        "label": "mapping(address => string)",
        "numberOfBytes": "32",
        "value": "t_string_storage"
      },
      "t_mapping(t_address,t_uint256)": {
        "encoding": "mapping",
        "key": "t_address",
        "label": "mapping(address => uint256)",
        "numberOfBytes": "32",
        "value": "t_uint256"
      },
      "t_mapping(t_bytes32,t_struct(RoleData)19_storage)": {
        "encoding": "mapping",
        "key": "t_bytes32",
        "label": "mapping(bytes32 => struct AccessControl.RoleData)",
        "numberOfBytes": "32",
        "value": "t_struct(RoleData)19_storage"
      },
      "t_mapping(t_string_memory_ptr,t_address)": {
        "encoding": "mapping",
        "key": "t_string_memory_ptr",
        "label": "mapping(string => address)",
        "numberOfBytes": "32",
        "value": "t_address"
      },
      "t_string_memory_ptr": {
        "encoding": "bytes",
        "label": "string",
        "numberOfBytes": "32"
      },
      "t_string_storage": {
        "encoding": "bytes",
        "label": "string",
        "numberOfBytes": "32"
      },
      "t_struct(RoleData)19_storage": {
        "encoding": "inplace",
        "label": "struct AccessControl.RoleData",
        "members": [
          {
            "astId": 16,
            "contract": "contracts/capTable/CapTableRegistry.sol:CapTableRegistry",
            "label": "members",
            "offset": 0,
            "slot": "0",
            "type": "t_mapping(t_address,t_bool)"
          },
          {
            "astId": 18,
            "contract": "contracts/capTable/CapTableRegistry.sol:CapTableRegistry",
            "label": "adminRole",
            "offset": 0,
            "slot": "1",
            "type": "t_bytes32"
          }
        ],
        "numberOfBytes": "64"
      },
      "t_uint256": {
        "encoding": "inplace",
        "label": "uint256",
        "numberOfBytes": "32"
      }
    }
  }
}