{
  "_format": "hh-sol-artifact-1",
  "contractName": "CapTableRegistry",
  "sourceName": "contracts/capTable/CapTableRegistry.sol",
  "abi": [
    {
      "inputs": [
        {
          "internalType": "address[]",
          "name": "fagsystemAdr",
          "type": "address[]"
        }
      ],
      "stateMutability": "nonpayable",
      "type": "constructor"
    },
    {
      "anonymous": false,
      "inputs": [
        {
          "indexed": true,
          "internalType": "bytes32",
          "name": "role",
          "type": "bytes32"
        },
        {
          "indexed": true,
          "internalType": "bytes32",
          "name": "previousAdminRole",
          "type": "bytes32"
        },
        {
          "indexed": true,
          "internalType": "bytes32",
          "name": "newAdminRole",
          "type": "bytes32"
        }
      ],
      "name": "RoleAdminChanged",
      "type": "event"
    },
    {
      "anonymous": false,
      "inputs": [
        {
          "indexed": true,
          "internalType": "bytes32",
          "name": "role",
          "type": "bytes32"
        },
        {
          "indexed": true,
          "internalType": "address",
          "name": "account",
          "type": "address"
        },
        {
          "indexed": true,
          "internalType": "address",
          "name": "sender",
          "type": "address"
        }
      ],
      "name": "RoleGranted",
      "type": "event"
    },
    {
      "anonymous": false,
      "inputs": [
        {
          "indexed": true,
          "internalType": "bytes32",
          "name": "role",
          "type": "bytes32"
        },
        {
          "indexed": true,
          "internalType": "address",
          "name": "account",
          "type": "address"
        },
        {
          "indexed": true,
          "internalType": "address",
          "name": "sender",
          "type": "address"
        }
      ],
      "name": "RoleRevoked",
      "type": "event"
    },
    {
      "anonymous": false,
      "inputs": [
        {
          "indexed": true,
          "internalType": "address",
          "name": "capTableAddress",
          "type": "address"
        }
      ],
      "name": "capTableApproved",
      "type": "event"
    },
    {
      "anonymous": false,
      "inputs": [
        {
          "indexed": true,
          "internalType": "address",
          "name": "capTableAddress",
          "type": "address"
        },
        {
          "indexed": false,
          "internalType": "bytes32",
          "name": "reason",
          "type": "bytes32"
        }
      ],
      "name": "capTableDeclined",
      "type": "event"
    },
    {
      "anonymous": false,
      "inputs": [
        {
          "indexed": true,
          "internalType": "address",
          "name": "from",
          "type": "address"
        },
        {
          "indexed": true,
          "internalType": "address",
          "name": "to",
          "type": "address"
        },
        {
          "indexed": true,
          "internalType": "string",
          "name": "id",
          "type": "string"
        }
      ],
      "name": "capTableMigrate",
      "type": "event"
    },
    {
      "anonymous": false,
      "inputs": [
        {
          "indexed": true,
          "internalType": "address",
          "name": "capTableAddress",
          "type": "address"
        },
        {
          "indexed": false,
          "internalType": "string",
          "name": "id",
          "type": "string"
        }
      ],
      "name": "capTableQued",
      "type": "event"
    },
    {
      "anonymous": false,
      "inputs": [
        {
          "indexed": true,
          "internalType": "address",
          "name": "capTableAddress",
          "type": "address"
        }
      ],
      "name": "capTableRemoved",
      "type": "event"
    },
    {
      "inputs": [],
      "name": "DEFAULT_ADMIN_ROLE",
      "outputs": [
        {
          "internalType": "bytes32",
          "name": "",
          "type": "bytes32"
        }
      ],
      "stateMutability": "view",
      "type": "function"
    },
    {
      "inputs": [],
      "name": "FAGSYSTEM",
      "outputs": [
        {
          "internalType": "bytes32",
          "name": "",
          "type": "bytes32"
        }
      ],
      "stateMutability": "view",
      "type": "function"
    },
    {
      "inputs": [
        {
          "internalType": "address",
          "name": "adr",
          "type": "address"
        }
      ],
      "name": "approve",
      "outputs": [],
      "stateMutability": "nonpayable",
      "type": "function"
    },
    {
      "inputs": [
        {
          "internalType": "address",
          "name": "adr",
          "type": "address"
        },
        {
          "internalType": "bytes32",
          "name": "reason",
          "type": "bytes32"
        }
      ],
      "name": "decline",
      "outputs": [],
      "stateMutability": "nonpayable",
      "type": "function"
    },
    {
      "inputs": [],
      "name": "getActiveCount",
      "outputs": [
        {
          "internalType": "uint256",
          "name": "activeCapTables",
          "type": "uint256"
        }
      ],
      "stateMutability": "view",
      "type": "function"
    },
    {
      "inputs": [
        {
          "internalType": "string",
          "name": "orgnr",
          "type": "string"
        }
      ],
      "name": "getAddress",
      "outputs": [
        {
          "internalType": "address",
          "name": "capTableAddress",
          "type": "address"
        }
      ],
      "stateMutability": "view",
      "type": "function"
    },
    {
      "inputs": [],
      "name": "getList",
      "outputs": [
        {
          "internalType": "address[]",
          "name": "capTableList",
          "type": "address[]"
        }
      ],
      "stateMutability": "view",
      "type": "function"
    },
    {
      "inputs": [
        {
          "internalType": "string",
          "name": "id",
          "type": "string"
        }
      ],
      "name": "getMigrationAddress",
      "outputs": [
        {
          "internalType": "address",
          "name": "",
          "type": "address"
        }
      ],
      "stateMutability": "view",
      "type": "function"
    },
    {
      "inputs": [],
      "name": "getQuedCount",
      "outputs": [
        {
          "internalType": "uint256",
          "name": "quedCapTables",
          "type": "uint256"
        }
      ],
      "stateMutability": "view",
      "type": "function"
    },
    {
      "inputs": [
        {
          "internalType": "bytes32",
          "name": "role",
          "type": "bytes32"
        }
      ],
      "name": "getRoleAdmin",
      "outputs": [
        {
          "internalType": "bytes32",
          "name": "",
          "type": "bytes32"
        }
      ],
      "stateMutability": "view",
      "type": "function"
    },
    {
      "inputs": [
        {
          "internalType": "address",
          "name": "adr",
          "type": "address"
        }
      ],
      "name": "getStatus",
      "outputs": [
        {
          "internalType": "uint256",
          "name": "status",
          "type": "uint256"
        }
      ],
      "stateMutability": "view",
      "type": "function"
    },
    {
      "inputs": [
        {
          "internalType": "address",
          "name": "adr",
          "type": "address"
        }
      ],
      "name": "getid",
      "outputs": [
        {
          "internalType": "string",
          "name": "id",
          "type": "string"
        }
      ],
      "stateMutability": "view",
      "type": "function"
    },
    {
      "inputs": [
        {
          "internalType": "bytes32",
          "name": "role",
          "type": "bytes32"
        },
        {
          "internalType": "address",
          "name": "account",
          "type": "address"
        }
      ],
      "name": "grantRole",
      "outputs": [],
      "stateMutability": "nonpayable",
      "type": "function"
    },
    {
      "inputs": [
        {
          "internalType": "bytes32",
          "name": "role",
          "type": "bytes32"
        },
        {
          "internalType": "address",
          "name": "account",
          "type": "address"
        }
      ],
      "name": "hasRole",
      "outputs": [
        {
          "internalType": "bool",
          "name": "",
          "type": "bool"
        }
      ],
      "stateMutability": "view",
      "type": "function"
    },
    {
      "inputs": [
        {
          "internalType": "string",
          "name": "id",
          "type": "string"
        }
      ],
      "name": "migrateCaptable",
      "outputs": [],
      "stateMutability": "nonpayable",
      "type": "function"
    },
    {
      "inputs": [
        {
          "internalType": "address",
          "name": "adr",
          "type": "address"
        },
        {
          "internalType": "string",
          "name": "id",
          "type": "string"
        }
      ],
      "name": "que",
      "outputs": [],
      "stateMutability": "nonpayable",
      "type": "function"
    },
    {
      "inputs": [
        {
          "internalType": "address",
          "name": "adr",
          "type": "address"
        }
      ],
      "name": "remove",
      "outputs": [],
      "stateMutability": "nonpayable",
      "type": "function"
    },
    {
      "inputs": [
        {
          "internalType": "address",
          "name": "adr",
          "type": "address"
        }
      ],
      "name": "removeFagsystem",
      "outputs": [],
      "stateMutability": "nonpayable",
      "type": "function"
    },
    {
      "inputs": [
        {
          "internalType": "bytes32",
          "name": "role",
          "type": "bytes32"
        },
        {
          "internalType": "address",
          "name": "account",
          "type": "address"
        }
      ],
      "name": "renounceRole",
      "outputs": [],
      "stateMutability": "nonpayable",
      "type": "function"
    },
    {
      "inputs": [
        {
          "internalType": "bytes32",
          "name": "role",
          "type": "bytes32"
        },
        {
          "internalType": "address",
          "name": "account",
          "type": "address"
        }
      ],
      "name": "revokeRole",
      "outputs": [],
      "stateMutability": "nonpayable",
      "type": "function"
    },
    {
      "inputs": [
        {
          "internalType": "bytes4",
          "name": "interfaceId",
          "type": "bytes4"
        }
      ],
      "name": "supportsInterface",
      "outputs": [
        {
          "internalType": "bool",
          "name": "",
          "type": "bool"
        }
      ],
      "stateMutability": "view",
      "type": "function"
    },
    {
      "inputs": [
        {
          "internalType": "address",
          "name": "adr",
          "type": "address"
        }
      ],
      "name": "whitelistFagsystem",
      "outputs": [],
      "stateMutability": "nonpayable",
      "type": "function"
    }
  ],
  "bytecode": "0x60806040523480156200001157600080fd5b50604051620029473803806200294783398101604081905262000034916200043a565b62000041600033620000b9565b60005b8151811015620000b157620000a87ff3af6e126247b817cb5090846cb24d285320c2eb1f05b38dae49a0791477d1d58383815181106200009457634e487b7160e01b600052603260045260246000fd5b6020026020010151620000c960201b60201c565b60010162000044565b5050620006a6565b620000c58282620000fa565b5050565b620000d48262000184565b620000e981620000e36200019c565b620001a0565b620000f58383620000fa565b505050565b6200010682826200022c565b620000c5576000828152602081815260408083206001600160a01b03851684529091529020805460ff19166001179055620001406200019c565b6001600160a01b0316816001600160a01b0316837f2f8788117e7eff1d82e926ec794901d17c78024a50270940304540a733656f0d60405160405180910390a45050565b6000818152602081905260409020600101545b919050565b3390565b620001ac82826200022c565b620000c557620001d2816001600160a01b031660146200025560201b620008141760201c565b620001e88360206200081462000255821b17811c565b604051602001620001fb9291906200050d565b60408051601f198184030181529082905262461bcd60e51b8252620002239160040162000586565b60405180910390fd5b6000918252602082815260408084206001600160a01b0393909316845291905290205460ff1690565b60606000620002668360026200060b565b62000273906002620005f0565b6001600160401b038111156200029957634e487b7160e01b600052604160045260246000fd5b6040519080825280601f01601f191660200182016040528015620002c4576020820181803683370190505b509050600360fc1b81600081518110620002ee57634e487b7160e01b600052603260045260246000fd5b60200101906001600160f81b031916908160001a905350600f60fb1b816001815181106200032c57634e487b7160e01b600052603260045260246000fd5b60200101906001600160f81b031916908160001a9053506000620003528460026200060b565b6200035f906001620005f0565b90505b6001811115620003f9576f181899199a1a9b1b9c1cb0b131b232b360811b85600f1660108110620003a357634e487b7160e01b600052603260045260246000fd5b1a60f81b828281518110620003c857634e487b7160e01b600052603260045260246000fd5b60200101906001600160f81b031916908160001a90535060049490941c93620003f18162000660565b905062000362565b5083156200041b5760405162461bcd60e51b81526004016200022390620005bb565b9392505050565b80516001600160a01b03811681146200019757600080fd5b600060208083850312156200044d578182fd5b82516001600160401b038082111562000464578384fd5b818501915085601f83011262000478578384fd5b8151818111156200048d576200048d62000690565b838102604051601f19603f83011681018181108582111715620004b457620004b462000690565b604052828152858101935084860182860187018a1015620004d3578788fd5b8795505b838610156200050057620004eb8162000422565b855260019590950194938601938601620004d7565b5098975050505050505050565b60007f416363657373436f6e74726f6c3a206163636f756e742000000000000000000082528351620005478160178501602088016200062d565b7001034b99036b4b9b9b4b733903937b6329607d1b60179184019182015283516200057a8160288401602088016200062d565b01602801949350505050565b6000602082528251806020840152620005a78160408501602087016200062d565b601f01601f19169190910160400192915050565b6020808252818101527f537472696e67733a20686578206c656e67746820696e73756666696369656e74604082015260600190565b600082198211156200060657620006066200067a565b500190565b60008160001904831182151516156200062857620006286200067a565b500290565b60005b838110156200064a57818101518382015260200162000630565b838111156200065a576000848401525b50505050565b6000816200067257620006726200067a565b506000190190565b634e487b7160e01b600052601160045260246000fd5b634e487b7160e01b600052604160045260246000fd5b61229180620006b66000396000f3fe608060405234801561001057600080fd5b50600436106101825760003560e01c806391a501a6116100d8578063bb7a38551161008c578063d547741f11610066578063d547741f14610310578063daea85c514610323578063ea3075451461033657610182565b8063bb7a3855146102d7578063bd613f0d146102ea578063bf40fac1146102fd57610182565b8063942b765a116100bd578063942b765a1461029a57806398ad2f12146102af578063a217fddf146102cf57610182565b806391a501a61461027457806391d148541461028757610182565b80632f2ff15d1161013a57806343db4ce31161011457806343db4ce31461023957806343e3e6af1461025957806363338b171461026c57610182565b80632f2ff15d1461020057806330ccebb51461021357806336568abe1461022657610182565b8063160779561161016b57806316077956146101c5578063248a9ca3146101da57806329092d0e146101ed57610182565b806301ffc9a714610187578063094e1ae4146101b0575b600080fd5b61019a610195366004611b98565b61033e565b6040516101a79190611d66565b60405180910390f35b6101b861039a565b6040516101a79190611d71565b6101d86101d3366004611ad3565b6103be565b005b6101b86101e8366004611b51565b6103ff565b6101d86101fb366004611a9b565b610414565b6101d861020e366004611b69565b61044e565b6101b8610221366004611a9b565b61046d565b6101d8610234366004611b69565b610495565b61024c610247366004611bd8565b610514565b6040516101a79190611cc5565b6101d8610267366004611afe565b610527565b6101b8610567565b6101d8610282366004611bd8565b61056d565b61019a610295366004611b69565b6105a4565b6102a26105da565b6040516101a79190611d0c565b6102c26102bd366004611a9b565b610649565b6040516101a79190611d7a565b6101b8610702565b6101d86102e5366004611a9b565b610707565b6101d86102f8366004611a9b565b61073f565b61024c61030b366004611bd8565b610777565b6101d861031e366004611b69565b6107b9565b6101d8610331366004611a9b565b6107d8565b6101b861080e565b60007fffffffff0000000000000000000000000000000000000000000000000000000082167f7965db0b000000000000000000000000000000000000000000000000000000001480610394575061039482610aea565b92915050565b7ff3af6e126247b817cb5090846cb24d285320c2eb1f05b38dae49a0791477d1d581565b7ff3af6e126247b817cb5090846cb24d285320c2eb1f05b38dae49a0791477d1d56103f0816103eb610b34565b610b38565b6103fa8383610be1565b505050565b60009081526020819052604090206001015490565b7ff3af6e126247b817cb5090846cb24d285320c2eb1f05b38dae49a0791477d1d5610441816103eb610b34565b61044a82610dc6565b5050565b610457826103ff565b610463816103eb610b34565b6103fa8383610f9c565b73ffffffffffffffffffffffffffffffffffffffff1660009081526002602052604090205490565b61049d610b34565b73ffffffffffffffffffffffffffffffffffffffff168173ffffffffffffffffffffffffffffffffffffffff161461050a576040517f08c379a00000000000000000000000000000000000000000000000000000000081526004016105019061209c565b60405180910390fd5b61044a8282611066565b6000610520838361112e565b9392505050565b6103fa8383838080601f0160208091040260200160405190810160405280939291908181526020018383808284376000920191909152506111ac92505050565b60065490565b7ff3af6e126247b817cb5090846cb24d285320c2eb1f05b38dae49a0791477d1d561059a816103eb610b34565b6103fa83836113ab565b60009182526020828152604080842073ffffffffffffffffffffffffffffffffffffffff93909316845291905290205460ff1690565b6060600180548060200260200160405190810160405280929190818152602001828054801561063f57602002820191906000526020600020905b815473ffffffffffffffffffffffffffffffffffffffff168152600190910190602001808311610614575b5050505050905090565b73ffffffffffffffffffffffffffffffffffffffff8116600090815260036020526040902080546060919061067d906121b3565b80601f01602080910402602001604051908101604052809291908181526020018280546106a9906121b3565b80156106f65780601f106106cb576101008083540402835291602001916106f6565b820191906000526020600020905b8154815290600101906020018083116106d957829003601f168201915b50505050509050919050565b600081565b6000610715816103eb610b34565b61044a7ff3af6e126247b817cb5090846cb24d285320c2eb1f05b38dae49a0791477d1d5836107b9565b600061074d816103eb610b34565b61044a7ff3af6e126247b817cb5090846cb24d285320c2eb1f05b38dae49a0791477d1d58361044e565b60006004838360405161078b929190611c18565b9081526040519081900360200190205473ffffffffffffffffffffffffffffffffffffffff16905092915050565b6107c2826103ff565b6107ce816103eb610b34565b6103fa8383611066565b7ff3af6e126247b817cb5090846cb24d285320c2eb1f05b38dae49a0791477d1d5610805816103eb610b34565b61044a82611610565b60075490565b60606000610823836002612111565b61082e9060026120f9565b67ffffffffffffffff81111561086d577f4e487b7100000000000000000000000000000000000000000000000000000000600052604160045260246000fd5b6040519080825280601f01601f191660200182016040528015610897576020820181803683370190505b5090507f3000000000000000000000000000000000000000000000000000000000000000816000815181106108f5577f4e487b7100000000000000000000000000000000000000000000000000000000600052603260045260246000fd5b60200101907effffffffffffffffffffffffffffffffffffffffffffffffffffffffffffff1916908160001a9053507f78000000000000000000000000000000000000000000000000000000000000008160018151811061097f577f4e487b7100000000000000000000000000000000000000000000000000000000600052603260045260246000fd5b60200101907effffffffffffffffffffffffffffffffffffffffffffffffffffffffffffff1916908160001a90535060006109bb846002612111565b6109c69060016120f9565b90505b6001811115610ab1577f303132333435363738396162636465660000000000000000000000000000000085600f1660108110610a2e577f4e487b7100000000000000000000000000000000000000000000000000000000600052603260045260246000fd5b1a60f81b828281518110610a6b577f4e487b7100000000000000000000000000000000000000000000000000000000600052603260045260246000fd5b60200101907effffffffffffffffffffffffffffffffffffffffffffffffffffffffffffff1916908160001a90535060049490941c93610aaa8161217e565b90506109c9565b508315610520576040517f08c379a000000000000000000000000000000000000000000000000000000000815260040161050190611dcb565b7fffffffff0000000000000000000000000000000000000000000000000000000081167f01ffc9a70000000000000000000000000000000000000000000000000000000014919050565b3390565b610b4282826105a4565b61044a57610b678173ffffffffffffffffffffffffffffffffffffffff166014610814565b610b72836020610814565b604051602001610b83929190611c44565b604080517fffffffffffffffffffffffffffffffffffffffffffffffffffffffffffffffe0818403018152908290527f08c379a000000000000000000000000000000000000000000000000000000000825261050191600401611d7a565b73ffffffffffffffffffffffffffffffffffffffff8216600090815260026020526040902054600114610c40576040517f08c379a000000000000000000000000000000000000000000000000000000000815260040161050190611e37565b73ffffffffffffffffffffffffffffffffffffffff82166000908152600260209081526040808320600390819055600780547fffffffffffffffffffffffffffffffffffffffffffffffffffffffffffffffff01905590915281208054610ca6906121b3565b80601f0160208091040260200160405190810160405280929190818152602001828054610cd2906121b3565b8015610d1f5780601f10610cf457610100808354040283529160200191610d1f565b820191906000526020600020905b815481529060010190602001808311610d0257829003601f168201915b505050505090506000600582604051610d389190611c28565b908152604051908190036020018120805473ffffffffffffffffffffffffffffffffffffffff9384167fffffffffffffffffffffffff0000000000000000000000000000000000000000909116179055908416907f871951f6860e8a0ee93166db037de507a4e83ab8a01c1d8a9afad96898f58a9590610db9908590611d71565b60405180910390a2505050565b73ffffffffffffffffffffffffffffffffffffffff811660009081526002602081905260409091205414610e26576040517f08c379a000000000000000000000000000000000000000000000000000000000815260040161050190611ef1565b73ffffffffffffffffffffffffffffffffffffffff8116600090815260026020908152604080832060049055600390915281208054610e64906121b3565b80601f0160208091040260200160405190810160405280929190818152602001828054610e90906121b3565b8015610edd5780601f10610eb257610100808354040283529160200191610edd565b820191906000526020600020905b815481529060010190602001808311610ec057829003601f168201915b505050505090506000600482604051610ef69190611c28565b908152604051908190036020018120805473ffffffffffffffffffffffffffffffffffffffff9384167fffffffffffffffffffffffff0000000000000000000000000000000000000000909116179055600680547fffffffffffffffffffffffffffffffffffffffffffffffffffffffffffffffff019055908316907f59f92f7caa16e166e81629c044a7dc429c7ec26acf8a7bae64322c0b91ce09b990600090a25050565b610fa682826105a4565b61044a5760008281526020818152604080832073ffffffffffffffffffffffffffffffffffffffff85168452909152902080547fffffffffffffffffffffffffffffffffffffffffffffffffffffffffffffff00166001179055611008610b34565b73ffffffffffffffffffffffffffffffffffffffff168173ffffffffffffffffffffffffffffffffffffffff16837f2f8788117e7eff1d82e926ec794901d17c78024a50270940304540a733656f0d60405160405180910390a45050565b61107082826105a4565b1561044a5760008281526020818152604080832073ffffffffffffffffffffffffffffffffffffffff85168452909152902080547fffffffffffffffffffffffffffffffffffffffffffffffffffffffffffffff001690556110d0610b34565b73ffffffffffffffffffffffffffffffffffffffff168173ffffffffffffffffffffffffffffffffffffffff16837ff6391f5c32d9c69d2a47ea670b442974b53935d1edc7fd64eb21e047a839171b60405160405180910390a45050565b6000806111a460048585604051611146929190611c18565b90815260408051918290036020908101832054838301909252600c83527f45524331343030546f6b656e00000000000000000000000000000000000000009083015273ffffffffffffffffffffffffffffffffffffffff16906118cf565b949350505050565b73ffffffffffffffffffffffffffffffffffffffff82166000908152600260205260409020546001141561120c576040517f08c379a00000000000000000000000000000000000000000000000000000000081526004016105019061203f565b73ffffffffffffffffffffffffffffffffffffffff8216600090815260026020819052604090912054141561126d576040517f08c379a000000000000000000000000000000000000000000000000000000000815260040161050190611f4e565b6001805480820182557fb10e2d527612073b26eecdfd717e6a320cf44b4afac2b0732d9fcbe2b7fa0cf60180547fffffffffffffffffffffffff00000000000000000000000000000000000000001673ffffffffffffffffffffffffffffffffffffffff8516908117909155600090815260026020908152604080832093909355600381529190208251611303928401906119bb565b50816005826040516113159190611c28565b908152604051908190036020018120805473ffffffffffffffffffffffffffffffffffffffff9384167fffffffffffffffffffffffff0000000000000000000000000000000000000000909116179055600780546001019055908316907f3c79bfacc77ef02e77ad2fa8e708ad74a49712963daf9414fd809416982d22ed9061139f908490611d7a565b60405180910390a25050565b6000600483836040516113bf929190611c18565b9081526040519081900360200190205473ffffffffffffffffffffffffffffffffffffffff16905060006113f3848461112e565b73ffffffffffffffffffffffffffffffffffffffff831660009081526002602081905260409091205491925014611456576040517f08c379a000000000000000000000000000000000000000000000000000000000815260040161050190611ef1565b8173ffffffffffffffffffffffffffffffffffffffff168173ffffffffffffffffffffffffffffffffffffffff1614156114bc576040517f08c379a000000000000000000000000000000000000000000000000000000000815260040161050190611fe2565b73ffffffffffffffffffffffffffffffffffffffff8116611509576040517f08c379a000000000000000000000000000000000000000000000000000000000815260040161050190611f85565b73ffffffffffffffffffffffffffffffffffffffff8216600090815260026020819052604091829020555181906004906115469087908790611c18565b908152604051908190036020018120805473ffffffffffffffffffffffffffffffffffffffff939093167fffffffffffffffffffffffff0000000000000000000000000000000000000000909316929092179091556115a89085908590611c18565b60405180910390208173ffffffffffffffffffffffffffffffffffffffff168373ffffffffffffffffffffffffffffffffffffffff167fcd1f615175344d2cee6eaf654027ae395f43b05cd0aa7f72a7bd25a6d9a53bb660405160405180910390a450505050565b73ffffffffffffffffffffffffffffffffffffffff811660009081526002602052604090205460011461166f576040517f08c379a000000000000000000000000000000000000000000000000000000000815260040161050190611e94565b73ffffffffffffffffffffffffffffffffffffffff811660009081526002602081815260408084209290925560039052812080546116ac906121b3565b80601f01602080910402602001604051908101604052809291908181526020018280546116d8906121b3565b80156117255780601f106116fa57610100808354040283529160200191611725565b820191906000526020600020905b81548152906001019060200180831161170857829003601f168201915b50505050509050600073ffffffffffffffffffffffffffffffffffffffff166004826040516117549190611c28565b9081526040519081900360200190205473ffffffffffffffffffffffffffffffffffffffff16146117b1576040517f08c379a000000000000000000000000000000000000000000000000000000000815260040161050190611e00565b816004826040516117c29190611c28565b908152602001604051809103902060006101000a81548173ffffffffffffffffffffffffffffffffffffffff021916908373ffffffffffffffffffffffffffffffffffffffff16021790555060006005826040516118209190611c28565b908152604051908190036020018120805473ffffffffffffffffffffffffffffffffffffffff9384167fffffffffffffffffffffffff0000000000000000000000000000000000000000909116179055600780547fffffffffffffffffffffffffffffffffffffffffffffffffffffffffffffffff019055600680546001019055908316907fd31d7a51ed1f0d96b385ba380d4ed4f90bd2f19dbda21b60e1c16244cc57707690600090a25050565b600080826040516020016118e39190611c28565b604080517fffffffffffffffffffffffffffffffffffffffffffffffffffffffffffffffe08184030181529082905280516020909101207faabbb8ca0000000000000000000000000000000000000000000000000000000082529150731820a4b7618bde71dce8cdc73aab6c95905fad249063aabbb8ca9061196b9087908590600401611ce6565b60206040518083038186803b15801561198357600080fd5b505afa158015611997573d6000803e3d6000fd5b505050506040513d601f19601f820116820180604052508101906111a49190611ab7565b8280546119c7906121b3565b90600052602060002090601f0160209004810192826119e95760008555611a2f565b82601f10611a0257805160ff1916838001178555611a2f565b82800160010185558215611a2f579182015b82811115611a2f578251825591602001919060010190611a14565b50611a3b929150611a3f565b5090565b5b80821115611a3b5760008155600101611a40565b60008083601f840112611a65578182fd5b50813567ffffffffffffffff811115611a7c578182fd5b602083019150836020828501011115611a9457600080fd5b9250929050565b600060208284031215611aac578081fd5b813561052081612236565b600060208284031215611ac8578081fd5b815161052081612236565b60008060408385031215611ae5578081fd5b8235611af081612236565b946020939093013593505050565b600080600060408486031215611b12578081fd5b8335611b1d81612236565b9250602084013567ffffffffffffffff811115611b38578182fd5b611b4486828701611a54565b9497909650939450505050565b600060208284031215611b62578081fd5b5035919050565b60008060408385031215611b7b578182fd5b823591506020830135611b8d81612236565b809150509250929050565b600060208284031215611ba9578081fd5b81357fffffffff0000000000000000000000000000000000000000000000000000000081168114610520578182fd5b60008060208385031215611bea578182fd5b823567ffffffffffffffff811115611c00578283fd5b611c0c85828601611a54565b90969095509350505050565b6000828483379101908152919050565b60008251611c3a81846020870161214e565b9190910192915050565b60007f416363657373436f6e74726f6c3a206163636f756e742000000000000000000082528351611c7c81601785016020880161214e565b7f206973206d697373696e6720726f6c65200000000000000000000000000000006017918401918201528351611cb981602884016020880161214e565b01602801949350505050565b73ffffffffffffffffffffffffffffffffffffffff91909116815260200190565b73ffffffffffffffffffffffffffffffffffffffff929092168252602082015260400190565b6020808252825182820181905260009190848201906040850190845b81811015611d5a57835173ffffffffffffffffffffffffffffffffffffffff1683529284019291840191600101611d28565b50909695505050505050565b901515815260200190565b90815260200190565b6000602082528251806020840152611d9981604085016020870161214e565b601f017fffffffffffffffffffffffffffffffffffffffffffffffffffffffffffffffe0169190910160400192915050565b6020808252818101527f537472696e67733a20686578206c656e67746820696e73756666696369656e74604082015260600190565b60208082526015908201527f696420697320616c6c726561647920696e207573650000000000000000000000604082015260600190565b60208082526023908201527f4f6e6c792071756564206361705461626c65732063616e206265206465636c6960408201527f6e65640000000000000000000000000000000000000000000000000000000000606082015260800190565b60208082526023908201527f4f6e6c792071756564206361705461626c65732063616e20626520617070726f60408201527f7665640000000000000000000000000000000000000000000000000000000000606082015260800190565b60208082526026908201527f4f6e6c7920617070726f766564206361705461626c65732063616e206265207260408201527f656d6f7665640000000000000000000000000000000000000000000000000000606082015260800190565b6020808252601a908201527f43616e6e6f742071756520616374697665206361705461626c65000000000000604082015260600190565b60208082526028908201527f4361707461626c65206973206d6967726174656420746f20616e20656d70747960408201527f2061646472657373000000000000000000000000000000000000000000000000606082015260800190565b60208082526023908201527f4361707461626c65206973206e6f74206d6967726174656420696e204552433160408201527f3832300000000000000000000000000000000000000000000000000000000000606082015260800190565b6020808252602c908201527f51756564206361705461626c6573206d757374206265206465636c696e65642060408201527f6265666f72652072655175650000000000000000000000000000000000000000606082015260800190565b6020808252602f908201527f416363657373436f6e74726f6c3a2063616e206f6e6c792072656e6f756e636560408201527f20726f6c657320666f722073656c660000000000000000000000000000000000606082015260800190565b6000821982111561210c5761210c612207565b500190565b6000817fffffffffffffffffffffffffffffffffffffffffffffffffffffffffffffffff048311821515161561214957612149612207565b500290565b60005b83811015612169578181015183820152602001612151565b83811115612178576000848401525b50505050565b60008161218d5761218d612207565b507fffffffffffffffffffffffffffffffffffffffffffffffffffffffffffffffff0190565b6002810460018216806121c757607f821691505b60208210811415612201577f4e487b7100000000000000000000000000000000000000000000000000000000600052602260045260246000fd5b50919050565b7f4e487b7100000000000000000000000000000000000000000000000000000000600052601160045260246000fd5b73ffffffffffffffffffffffffffffffffffffffff8116811461225857600080fd5b5056fea2646970667358221220bdf338777af431f53d1b0e00780c0b4394a8f9c588283203ab425d159ababe3364736f6c63430008010033",
  "linkReferences": {},
  "deployedLinkReferences": {}
}