{
  "_format": "hh-sol-artifact-1",
  "contractName": "CapTable",
  "sourceName": "contracts/capTable/CapTable.sol",
  "abi": [
    {
      "inputs": [
        {
          "internalType": "string",
          "name": "name",
          "type": "string"
        },
        {
          "internalType": "string",
          "name": "orgnr",
          "type": "string"
        },
        {
          "internalType": "uint256",
          "name": "granularity",
          "type": "uint256"
        },
        {
          "internalType": "address[]",
          "name": "controllers",
          "type": "address[]"
        },
        {
          "internalType": "bytes32[]",
          "name": "defaultPartitions",
          "type": "bytes32[]"
        },
        {
          "internalType": "address",
          "name": "capTableRegistry",
          "type": "address"
        }
      ],
      "stateMutability": "nonpayable",
      "type": "constructor"
    },
    {
      "anonymous": false,
      "inputs": [
        {
          "indexed": true,
          "internalType": "address",
          "name": "owner",
          "type": "address"
        },
        {
          "indexed": true,
          "internalType": "address",
          "name": "spender",
          "type": "address"
        },
        {
          "indexed": false,
          "internalType": "uint256",
          "name": "value",
          "type": "uint256"
        }
      ],
      "name": "Approval",
      "type": "event"
    },
    {
      "anonymous": false,
      "inputs": [
        {
          "indexed": true,
          "internalType": "bytes32",
          "name": "partition",
          "type": "bytes32"
        },
        {
          "indexed": true,
          "internalType": "address",
          "name": "owner",
          "type": "address"
        },
        {
          "indexed": true,
          "internalType": "address",
          "name": "spender",
          "type": "address"
        },
        {
          "indexed": false,
          "internalType": "uint256",
          "name": "value",
          "type": "uint256"
        }
      ],
      "name": "ApprovalByPartition",
      "type": "event"
    },
    {
      "anonymous": false,
      "inputs": [
        {
          "indexed": true,
          "internalType": "address",
          "name": "operator",
          "type": "address"
        },
        {
          "indexed": true,
          "internalType": "address",
          "name": "tokenHolder",
          "type": "address"
        }
      ],
      "name": "AuthorizedOperator",
      "type": "event"
    },
    {
      "anonymous": false,
      "inputs": [
        {
          "indexed": true,
          "internalType": "bytes32",
          "name": "partition",
          "type": "bytes32"
        },
        {
          "indexed": true,
          "internalType": "address",
          "name": "operator",
          "type": "address"
        },
        {
          "indexed": true,
          "internalType": "address",
          "name": "tokenHolder",
          "type": "address"
        }
      ],
      "name": "AuthorizedOperatorByPartition",
      "type": "event"
    },
    {
      "anonymous": false,
      "inputs": [
        {
          "indexed": true,
          "internalType": "string",
          "name": "orgnr",
          "type": "string"
        },
        {
          "indexed": true,
          "internalType": "address",
          "name": "oldFagsystem",
          "type": "address"
        },
        {
          "indexed": true,
          "internalType": "address",
          "name": "newFagsystem",
          "type": "address"
        }
      ],
      "name": "CaptableChangedFagsystem",
      "type": "event"
    },
    {
      "anonymous": false,
      "inputs": [
        {
          "indexed": true,
          "internalType": "bytes32",
          "name": "fromPartition",
          "type": "bytes32"
        },
        {
          "indexed": true,
          "internalType": "bytes32",
          "name": "toPartition",
          "type": "bytes32"
        },
        {
          "indexed": false,
          "internalType": "uint256",
          "name": "value",
          "type": "uint256"
        }
      ],
      "name": "ChangedPartition",
      "type": "event"
    },
    {
      "anonymous": false,
      "inputs": [
        {
          "indexed": true,
          "internalType": "bytes32",
          "name": "name",
          "type": "bytes32"
        },
        {
          "indexed": false,
          "internalType": "string",
          "name": "uri",
          "type": "string"
        },
        {
          "indexed": false,
          "internalType": "bytes32",
          "name": "documentHash",
          "type": "bytes32"
        }
      ],
      "name": "DocumentRemoved",
      "type": "event"
    },
    {
      "anonymous": false,
      "inputs": [
        {
          "indexed": true,
          "internalType": "bytes32",
          "name": "name",
          "type": "bytes32"
        },
        {
          "indexed": false,
          "internalType": "string",
          "name": "uri",
          "type": "string"
        },
        {
          "indexed": false,
          "internalType": "bytes32",
          "name": "documentHash",
          "type": "bytes32"
        }
      ],
      "name": "DocumentUpdated",
      "type": "event"
    },
    {
      "anonymous": false,
      "inputs": [
        {
          "indexed": true,
          "internalType": "address",
          "name": "operator",
          "type": "address"
        },
        {
          "indexed": true,
          "internalType": "address",
          "name": "to",
          "type": "address"
        },
        {
          "indexed": false,
          "internalType": "uint256",
          "name": "value",
          "type": "uint256"
        },
        {
          "indexed": false,
          "internalType": "bytes",
          "name": "data",
          "type": "bytes"
        }
      ],
      "name": "Issued",
      "type": "event"
    },
    {
      "anonymous": false,
      "inputs": [
        {
          "indexed": true,
          "internalType": "bytes32",
          "name": "partition",
          "type": "bytes32"
        },
        {
          "indexed": true,
          "internalType": "address",
          "name": "operator",
          "type": "address"
        },
        {
          "indexed": true,
          "internalType": "address",
          "name": "to",
          "type": "address"
        },
        {
          "indexed": false,
          "internalType": "uint256",
          "name": "value",
          "type": "uint256"
        },
        {
          "indexed": false,
          "internalType": "bytes",
          "name": "data",
          "type": "bytes"
        },
        {
          "indexed": false,
          "internalType": "bytes",
          "name": "operatorData",
          "type": "bytes"
        }
      ],
      "name": "IssuedByPartition",
      "type": "event"
    },
    {
      "anonymous": false,
      "inputs": [
        {
          "indexed": true,
          "internalType": "address",
          "name": "account",
          "type": "address"
        }
      ],
      "name": "MinterAdded",
      "type": "event"
    },
    {
      "anonymous": false,
      "inputs": [
        {
          "indexed": true,
          "internalType": "address",
          "name": "account",
          "type": "address"
        }
      ],
      "name": "MinterRemoved",
      "type": "event"
    },
    {
      "anonymous": false,
      "inputs": [
        {
          "indexed": true,
          "internalType": "string",
          "name": "orgnr",
          "type": "string"
        },
        {
          "indexed": true,
          "internalType": "address",
          "name": "fagsystem",
          "type": "address"
        }
      ],
      "name": "NewCapTable",
      "type": "event"
    },
    {
      "anonymous": false,
      "inputs": [
        {
          "indexed": true,
          "internalType": "address",
          "name": "previousOwner",
          "type": "address"
        },
        {
          "indexed": true,
          "internalType": "address",
          "name": "newOwner",
          "type": "address"
        }
      ],
      "name": "OwnershipTransferred",
      "type": "event"
    },
    {
      "anonymous": false,
      "inputs": [
        {
          "indexed": true,
          "internalType": "address",
          "name": "operator",
          "type": "address"
        },
        {
          "indexed": true,
          "internalType": "address",
          "name": "from",
          "type": "address"
        },
        {
          "indexed": false,
          "internalType": "uint256",
          "name": "value",
          "type": "uint256"
        },
        {
          "indexed": false,
          "internalType": "bytes",
          "name": "data",
          "type": "bytes"
        }
      ],
      "name": "Redeemed",
      "type": "event"
    },
    {
      "anonymous": false,
      "inputs": [
        {
          "indexed": true,
          "internalType": "bytes32",
          "name": "partition",
          "type": "bytes32"
        },
        {
          "indexed": true,
          "internalType": "address",
          "name": "operator",
          "type": "address"
        },
        {
          "indexed": true,
          "internalType": "address",
          "name": "from",
          "type": "address"
        },
        {
          "indexed": false,
          "internalType": "uint256",
          "name": "value",
          "type": "uint256"
        },
        {
          "indexed": false,
          "internalType": "bytes",
          "name": "operatorData",
          "type": "bytes"
        }
      ],
      "name": "RedeemedByPartition",
      "type": "event"
    },
    {
      "anonymous": false,
      "inputs": [
        {
          "indexed": true,
          "internalType": "address",
          "name": "operator",
          "type": "address"
        },
        {
          "indexed": true,
          "internalType": "address",
          "name": "tokenHolder",
          "type": "address"
        }
      ],
      "name": "RevokedOperator",
      "type": "event"
    },
    {
      "anonymous": false,
      "inputs": [
        {
          "indexed": true,
          "internalType": "bytes32",
          "name": "partition",
          "type": "bytes32"
        },
        {
          "indexed": true,
          "internalType": "address",
          "name": "operator",
          "type": "address"
        },
        {
          "indexed": true,
          "internalType": "address",
          "name": "tokenHolder",
          "type": "address"
        }
      ],
      "name": "RevokedOperatorByPartition",
      "type": "event"
    },
    {
      "anonymous": false,
      "inputs": [
        {
          "indexed": true,
          "internalType": "address",
          "name": "from",
          "type": "address"
        },
        {
          "indexed": true,
          "internalType": "address",
          "name": "to",
          "type": "address"
        },
        {
          "indexed": false,
          "internalType": "uint256",
          "name": "value",
          "type": "uint256"
        }
      ],
      "name": "Transfer",
      "type": "event"
    },
    {
      "anonymous": false,
      "inputs": [
        {
          "indexed": true,
          "internalType": "bytes32",
          "name": "fromPartition",
          "type": "bytes32"
        },
        {
          "indexed": false,
          "internalType": "address",
          "name": "operator",
          "type": "address"
        },
        {
          "indexed": true,
          "internalType": "address",
          "name": "from",
          "type": "address"
        },
        {
          "indexed": true,
          "internalType": "address",
          "name": "to",
          "type": "address"
        },
        {
          "indexed": false,
          "internalType": "uint256",
          "name": "value",
          "type": "uint256"
        },
        {
          "indexed": false,
          "internalType": "bytes",
          "name": "data",
          "type": "bytes"
        },
        {
          "indexed": false,
          "internalType": "bytes",
          "name": "operatorData",
          "type": "bytes"
        }
      ],
      "name": "TransferByPartition",
      "type": "event"
    },
    {
      "inputs": [
        {
          "internalType": "address",
          "name": "account",
          "type": "address"
        }
      ],
      "name": "addMinter",
      "outputs": [],
      "stateMutability": "nonpayable",
      "type": "function"
    },
    {
      "inputs": [
        {
          "internalType": "address",
          "name": "owner",
          "type": "address"
        },
        {
          "internalType": "address",
          "name": "spender",
          "type": "address"
        }
      ],
      "name": "allowance",
      "outputs": [
        {
          "internalType": "uint256",
          "name": "",
          "type": "uint256"
        }
      ],
      "stateMutability": "view",
      "type": "function"
    },
    {
      "inputs": [
        {
          "internalType": "bytes32",
          "name": "partition",
          "type": "bytes32"
        },
        {
          "internalType": "address",
          "name": "owner",
          "type": "address"
        },
        {
          "internalType": "address",
          "name": "spender",
          "type": "address"
        }
      ],
      "name": "allowanceByPartition",
      "outputs": [
        {
          "internalType": "uint256",
          "name": "",
          "type": "uint256"
        }
      ],
      "stateMutability": "view",
      "type": "function"
    },
    {
      "inputs": [
        {
          "internalType": "address",
          "name": "spender",
          "type": "address"
        },
        {
          "internalType": "uint256",
          "name": "value",
          "type": "uint256"
        }
      ],
      "name": "approve",
      "outputs": [
        {
          "internalType": "bool",
          "name": "",
          "type": "bool"
        }
      ],
      "stateMutability": "nonpayable",
      "type": "function"
    },
    {
      "inputs": [
        {
          "internalType": "bytes32",
          "name": "partition",
          "type": "bytes32"
        },
        {
          "internalType": "address",
          "name": "spender",
          "type": "address"
        },
        {
          "internalType": "uint256",
          "name": "value",
          "type": "uint256"
        }
      ],
      "name": "approveByPartition",
      "outputs": [
        {
          "internalType": "bool",
          "name": "",
          "type": "bool"
        }
      ],
      "stateMutability": "nonpayable",
      "type": "function"
    },
    {
      "inputs": [
        {
          "internalType": "address",
          "name": "operator",
          "type": "address"
        }
      ],
      "name": "authorizeOperator",
      "outputs": [],
      "stateMutability": "nonpayable",
      "type": "function"
    },
    {
      "inputs": [
        {
          "internalType": "bytes32",
          "name": "partition",
          "type": "bytes32"
        },
        {
          "internalType": "address",
          "name": "operator",
          "type": "address"
        }
      ],
      "name": "authorizeOperatorByPartition",
      "outputs": [],
      "stateMutability": "nonpayable",
      "type": "function"
    },
    {
      "inputs": [
        {
          "internalType": "address",
          "name": "tokenHolder",
          "type": "address"
        }
      ],
      "name": "balanceOf",
      "outputs": [
        {
          "internalType": "uint256",
          "name": "",
          "type": "uint256"
        }
      ],
      "stateMutability": "view",
      "type": "function"
    },
    {
      "inputs": [
        {
          "internalType": "bytes32",
          "name": "partition",
          "type": "bytes32"
        },
        {
          "internalType": "address",
          "name": "tokenHolder",
          "type": "address"
        }
      ],
      "name": "balanceOfByPartition",
      "outputs": [
        {
          "internalType": "uint256",
          "name": "",
          "type": "uint256"
        }
      ],
      "stateMutability": "view",
      "type": "function"
    },
    {
      "inputs": [
        {
          "internalType": "bytes32",
          "name": "interfaceHash",
          "type": "bytes32"
        },
        {
          "internalType": "address",
          "name": "",
          "type": "address"
        }
      ],
      "name": "canImplementInterfaceForAddress",
      "outputs": [
        {
          "internalType": "bytes32",
          "name": "",
          "type": "bytes32"
        }
      ],
      "stateMutability": "view",
      "type": "function"
    },
    {
      "inputs": [],
      "name": "controllers",
      "outputs": [
        {
          "internalType": "address[]",
          "name": "",
          "type": "address[]"
        }
      ],
      "stateMutability": "view",
      "type": "function"
    },
    {
      "inputs": [
        {
          "internalType": "bytes32",
          "name": "partition",
          "type": "bytes32"
        }
      ],
      "name": "controllersByPartition",
      "outputs": [
        {
          "internalType": "address[]",
          "name": "",
          "type": "address[]"
        }
      ],
      "stateMutability": "view",
      "type": "function"
    },
    {
      "inputs": [],
      "name": "decimals",
      "outputs": [
        {
          "internalType": "uint8",
          "name": "",
          "type": "uint8"
        }
      ],
      "stateMutability": "pure",
      "type": "function"
    },
    {
      "inputs": [],
      "name": "domainName",
      "outputs": [
        {
          "internalType": "string",
          "name": "",
          "type": "string"
        }
      ],
      "stateMutability": "view",
      "type": "function"
    },
    {
      "inputs": [],
      "name": "domainSeparator",
      "outputs": [
        {
          "internalType": "bytes32",
          "name": "",
          "type": "bytes32"
        }
      ],
      "stateMutability": "nonpayable",
      "type": "function"
    },
    {
      "inputs": [],
      "name": "domainVersion",
      "outputs": [
        {
          "internalType": "string",
          "name": "",
          "type": "string"
        }
      ],
      "stateMutability": "pure",
      "type": "function"
    },
    {
      "inputs": [],
      "name": "generateDomainSeparator",
      "outputs": [
        {
          "internalType": "bytes32",
          "name": "",
          "type": "bytes32"
        }
      ],
      "stateMutability": "view",
      "type": "function"
    },
    {
      "inputs": [],
      "name": "getAllDocuments",
      "outputs": [
        {
          "internalType": "bytes32[]",
          "name": "",
          "type": "bytes32[]"
        }
      ],
      "stateMutability": "view",
      "type": "function"
    },
    {
      "inputs": [],
      "name": "getDefaultPartitions",
      "outputs": [
        {
          "internalType": "bytes32[]",
          "name": "",
          "type": "bytes32[]"
        }
      ],
      "stateMutability": "view",
      "type": "function"
    },
    {
      "inputs": [
        {
          "internalType": "bytes32",
          "name": "documentName",
          "type": "bytes32"
        }
      ],
      "name": "getDocument",
      "outputs": [
        {
          "internalType": "string",
          "name": "",
          "type": "string"
        },
        {
          "internalType": "bytes32",
          "name": "",
          "type": "bytes32"
        },
        {
          "internalType": "uint256",
          "name": "",
          "type": "uint256"
        }
      ],
      "stateMutability": "view",
      "type": "function"
    },
    {
      "inputs": [],
      "name": "getFagsystem",
      "outputs": [
        {
          "internalType": "address",
          "name": "",
          "type": "address"
        }
      ],
      "stateMutability": "view",
      "type": "function"
    },
    {
      "inputs": [],
      "name": "getFagsystemDid",
      "outputs": [
        {
          "internalType": "string",
          "name": "",
          "type": "string"
        }
      ],
      "stateMutability": "view",
      "type": "function"
    },
    {
      "inputs": [],
      "name": "getOrgnr",
      "outputs": [
        {
          "internalType": "string",
          "name": "",
          "type": "string"
        }
      ],
      "stateMutability": "view",
      "type": "function"
    },
    {
      "inputs": [],
      "name": "granularity",
      "outputs": [
        {
          "internalType": "uint256",
          "name": "",
          "type": "uint256"
        }
      ],
      "stateMutability": "view",
      "type": "function"
    },
    {
      "inputs": [],
      "name": "isControllable",
      "outputs": [
        {
          "internalType": "bool",
          "name": "",
          "type": "bool"
        }
      ],
      "stateMutability": "view",
      "type": "function"
    },
    {
      "inputs": [],
      "name": "isIssuable",
      "outputs": [
        {
          "internalType": "bool",
          "name": "",
          "type": "bool"
        }
      ],
      "stateMutability": "view",
      "type": "function"
    },
    {
      "inputs": [
        {
          "internalType": "address",
          "name": "account",
          "type": "address"
        }
      ],
      "name": "isMinter",
      "outputs": [
        {
          "internalType": "bool",
          "name": "",
          "type": "bool"
        }
      ],
      "stateMutability": "view",
      "type": "function"
    },
    {
      "inputs": [
        {
          "internalType": "address",
          "name": "operator",
          "type": "address"
        },
        {
          "internalType": "address",
          "name": "tokenHolder",
          "type": "address"
        }
      ],
      "name": "isOperator",
      "outputs": [
        {
          "internalType": "bool",
          "name": "",
          "type": "bool"
        }
      ],
      "stateMutability": "view",
      "type": "function"
    },
    {
      "inputs": [
        {
          "internalType": "bytes32",
          "name": "partition",
          "type": "bytes32"
        },
        {
          "internalType": "address",
          "name": "operator",
          "type": "address"
        },
        {
          "internalType": "address",
          "name": "tokenHolder",
          "type": "address"
        }
      ],
      "name": "isOperatorForPartition",
      "outputs": [
        {
          "internalType": "bool",
          "name": "",
          "type": "bool"
        }
      ],
      "stateMutability": "view",
      "type": "function"
    },
    {
      "inputs": [
        {
          "internalType": "address",
          "name": "tokenHolder",
          "type": "address"
        },
        {
          "internalType": "uint256",
          "name": "value",
          "type": "uint256"
        },
        {
          "internalType": "bytes",
          "name": "data",
          "type": "bytes"
        }
      ],
      "name": "issue",
      "outputs": [],
      "stateMutability": "nonpayable",
      "type": "function"
    },
    {
      "inputs": [
        {
          "internalType": "bytes32",
          "name": "partition",
          "type": "bytes32"
        },
        {
          "internalType": "address",
          "name": "tokenHolder",
          "type": "address"
        },
        {
          "internalType": "uint256",
          "name": "value",
          "type": "uint256"
        },
        {
          "internalType": "bytes",
          "name": "data",
          "type": "bytes"
        }
      ],
      "name": "issueByPartition",
      "outputs": [],
      "stateMutability": "nonpayable",
      "type": "function"
    },
    {
      "inputs": [
        {
          "internalType": "bytes32[]",
          "name": "partition",
          "type": "bytes32[]"
        },
        {
          "internalType": "address[]",
          "name": "to",
          "type": "address[]"
        },
        {
          "internalType": "uint256[]",
          "name": "value",
          "type": "uint256[]"
        },
        {
          "internalType": "bytes",
          "name": "data",
          "type": "bytes"
        }
      ],
      "name": "kapitalforhoyselse_nye_aksjer",
      "outputs": [],
      "stateMutability": "nonpayable",
      "type": "function"
    },
    {
      "inputs": [
        {
          "internalType": "bytes32[]",
          "name": "partition",
          "type": "bytes32[]"
        },
        {
          "internalType": "address[]",
          "name": "from",
          "type": "address[]"
        },
        {
          "internalType": "uint256[]",
          "name": "value",
          "type": "uint256[]"
        },
        {
          "internalType": "bytes",
          "name": "data",
          "type": "bytes"
        },
        {
          "internalType": "bytes",
          "name": "operatorData",
          "type": "bytes"
        }
      ],
      "name": "kapitalnedsettelse_reduksjon_aksjer",
      "outputs": [],
      "stateMutability": "nonpayable",
      "type": "function"
    },
    {
      "inputs": [
        {
          "internalType": "address",
          "name": "newContractAddress",
          "type": "address"
        },
        {
          "internalType": "bool",
          "name": "definitive",
          "type": "bool"
        }
      ],
      "name": "migrate",
      "outputs": [],
      "stateMutability": "nonpayable",
      "type": "function"
    },
    {
      "inputs": [],
      "name": "name",
      "outputs": [
        {
          "internalType": "string",
          "name": "",
          "type": "string"
        }
      ],
      "stateMutability": "view",
      "type": "function"
    },
    {
      "inputs": [
        {
          "internalType": "bytes32",
          "name": "partition",
          "type": "bytes32"
        },
        {
          "internalType": "address",
          "name": "tokenHolder",
          "type": "address"
        },
        {
          "internalType": "uint256",
          "name": "value",
          "type": "uint256"
        },
        {
          "internalType": "bytes",
          "name": "operatorData",
          "type": "bytes"
        }
      ],
      "name": "operatorRedeemByPartition",
      "outputs": [],
      "stateMutability": "nonpayable",
      "type": "function"
    },
    {
      "inputs": [
        {
          "internalType": "bytes32",
          "name": "partition",
          "type": "bytes32"
        },
        {
          "internalType": "address",
          "name": "from",
          "type": "address"
        },
        {
          "internalType": "address",
          "name": "to",
          "type": "address"
        },
        {
          "internalType": "uint256",
          "name": "value",
          "type": "uint256"
        },
        {
          "internalType": "bytes",
          "name": "data",
          "type": "bytes"
        },
        {
          "internalType": "bytes",
          "name": "operatorData",
          "type": "bytes"
        }
      ],
      "name": "operatorTransferByPartition",
      "outputs": [
        {
          "internalType": "bytes32",
          "name": "",
          "type": "bytes32"
        }
      ],
      "stateMutability": "nonpayable",
      "type": "function"
    },
    {
      "inputs": [],
      "name": "owner",
      "outputs": [
        {
          "internalType": "address",
          "name": "",
          "type": "address"
        }
      ],
      "stateMutability": "view",
      "type": "function"
    },
    {
      "inputs": [
        {
          "internalType": "address",
          "name": "tokenHolder",
          "type": "address"
        }
      ],
      "name": "partitionsOf",
      "outputs": [
        {
          "internalType": "bytes32[]",
          "name": "",
          "type": "bytes32[]"
        }
      ],
      "stateMutability": "view",
      "type": "function"
    },
    {
      "inputs": [
        {
          "internalType": "uint256",
          "name": "value",
          "type": "uint256"
        },
        {
          "internalType": "bytes",
          "name": "data",
          "type": "bytes"
        }
      ],
      "name": "redeem",
      "outputs": [],
      "stateMutability": "nonpayable",
      "type": "function"
    },
    {
      "inputs": [
        {
          "internalType": "bytes32",
          "name": "partition",
          "type": "bytes32"
        },
        {
          "internalType": "uint256",
          "name": "value",
          "type": "uint256"
        },
        {
          "internalType": "bytes",
          "name": "data",
          "type": "bytes"
        }
      ],
      "name": "redeemByPartition",
      "outputs": [],
      "stateMutability": "nonpayable",
      "type": "function"
    },
    {
      "inputs": [
        {
          "internalType": "address",
          "name": "from",
          "type": "address"
        },
        {
          "internalType": "uint256",
          "name": "value",
          "type": "uint256"
        },
        {
          "internalType": "bytes",
          "name": "data",
          "type": "bytes"
        }
      ],
      "name": "redeemFrom",
      "outputs": [],
      "stateMutability": "nonpayable",
      "type": "function"
    },
    {
      "inputs": [
        {
          "internalType": "bytes32",
          "name": "documentName",
          "type": "bytes32"
        }
      ],
      "name": "removeDocument",
      "outputs": [],
      "stateMutability": "nonpayable",
      "type": "function"
    },
    {
      "inputs": [
        {
          "internalType": "address",
          "name": "account",
          "type": "address"
        }
      ],
      "name": "removeMinter",
      "outputs": [],
      "stateMutability": "nonpayable",
      "type": "function"
    },
    {
      "inputs": [],
      "name": "renounceControl",
      "outputs": [],
      "stateMutability": "nonpayable",
      "type": "function"
    },
    {
      "inputs": [],
      "name": "renounceIssuance",
      "outputs": [],
      "stateMutability": "nonpayable",
      "type": "function"
    },
    {
      "inputs": [],
      "name": "renounceMinter",
      "outputs": [],
      "stateMutability": "nonpayable",
      "type": "function"
    },
    {
      "inputs": [],
      "name": "renounceOwnership",
      "outputs": [],
      "stateMutability": "nonpayable",
      "type": "function"
    },
    {
      "inputs": [
        {
          "internalType": "address",
          "name": "operator",
          "type": "address"
        }
      ],
      "name": "revokeOperator",
      "outputs": [],
      "stateMutability": "nonpayable",
      "type": "function"
    },
    {
      "inputs": [
        {
          "internalType": "bytes32",
          "name": "partition",
          "type": "bytes32"
        },
        {
          "internalType": "address",
          "name": "operator",
          "type": "address"
        }
      ],
      "name": "revokeOperatorByPartition",
      "outputs": [],
      "stateMutability": "nonpayable",
      "type": "function"
    },
    {
      "inputs": [
        {
          "internalType": "address",
          "name": "capTableRegistryAddress",
          "type": "address"
        }
      ],
      "name": "setCapTableRegistry",
      "outputs": [],
      "stateMutability": "nonpayable",
      "type": "function"
    },
    {
      "inputs": [
        {
          "internalType": "address[]",
          "name": "operators",
          "type": "address[]"
        }
      ],
      "name": "setControllers",
      "outputs": [],
      "stateMutability": "nonpayable",
      "type": "function"
    },
    {
      "inputs": [
        {
          "internalType": "bytes32[]",
          "name": "partitions",
          "type": "bytes32[]"
        }
      ],
      "name": "setDefaultPartitions",
      "outputs": [],
      "stateMutability": "nonpayable",
      "type": "function"
    },
    {
      "inputs": [
        {
          "internalType": "bytes32",
          "name": "documentName",
          "type": "bytes32"
        },
        {
          "internalType": "string",
          "name": "uri",
          "type": "string"
        },
        {
          "internalType": "bytes32",
          "name": "documentHash",
          "type": "bytes32"
        }
      ],
      "name": "setDocument",
      "outputs": [],
      "stateMutability": "nonpayable",
      "type": "function"
    },
    {
      "inputs": [
        {
          "internalType": "bytes32",
          "name": "partition",
          "type": "bytes32"
        },
        {
          "internalType": "address[]",
          "name": "operators",
          "type": "address[]"
        }
      ],
      "name": "setPartitionControllers",
      "outputs": [],
      "stateMutability": "nonpayable",
      "type": "function"
    },
    {
      "inputs": [
        {
          "internalType": "address",
          "name": "extension",
          "type": "address"
        },
        {
          "internalType": "string",
          "name": "interfaceLabel",
          "type": "string"
        },
        {
          "internalType": "bool",
          "name": "removeOldExtensionRoles",
          "type": "bool"
        },
        {
          "internalType": "bool",
          "name": "addMinterRoleForExtension",
          "type": "bool"
        },
        {
          "internalType": "bool",
          "name": "addControllerRoleForExtension",
          "type": "bool"
        }
      ],
      "name": "setTokenExtension",
      "outputs": [],
      "stateMutability": "nonpayable",
      "type": "function"
    },
    {
      "inputs": [
        {
          "internalType": "bytes32[]",
          "name": "partition",
          "type": "bytes32[]"
        },
        {
          "internalType": "address[]",
          "name": "from",
          "type": "address[]"
        },
        {
          "internalType": "uint256[]",
          "name": "value",
          "type": "uint256[]"
        },
        {
          "internalType": "bytes",
          "name": "data",
          "type": "bytes"
        },
        {
          "internalType": "bytes",
          "name": "operatorData",
          "type": "bytes"
        }
      ],
      "name": "spleis",
      "outputs": [],
      "stateMutability": "nonpayable",
      "type": "function"
    },
    {
      "inputs": [
        {
          "internalType": "bytes32[]",
          "name": "partition",
          "type": "bytes32[]"
        },
        {
          "internalType": "address[]",
          "name": "to",
          "type": "address[]"
        },
        {
          "internalType": "uint256[]",
          "name": "value",
          "type": "uint256[]"
        },
        {
          "internalType": "bytes",
          "name": "data",
          "type": "bytes"
        }
      ],
      "name": "splitt",
      "outputs": [],
      "stateMutability": "nonpayable",
      "type": "function"
    },
    {
      "inputs": [],
      "name": "symbol",
      "outputs": [
        {
          "internalType": "string",
          "name": "",
          "type": "string"
        }
      ],
      "stateMutability": "view",
      "type": "function"
    },
    {
      "inputs": [],
      "name": "totalPartitions",
      "outputs": [
        {
          "internalType": "bytes32[]",
          "name": "",
          "type": "bytes32[]"
        }
      ],
      "stateMutability": "view",
      "type": "function"
    },
    {
      "inputs": [],
      "name": "totalSupply",
      "outputs": [
        {
          "internalType": "uint256",
          "name": "",
          "type": "uint256"
        }
      ],
      "stateMutability": "view",
      "type": "function"
    },
    {
      "inputs": [
        {
          "internalType": "bytes32",
          "name": "partition",
          "type": "bytes32"
        }
      ],
      "name": "totalSupplyByPartition",
      "outputs": [
        {
          "internalType": "uint256",
          "name": "",
          "type": "uint256"
        }
      ],
      "stateMutability": "view",
      "type": "function"
    },
    {
      "inputs": [
        {
          "internalType": "address",
          "name": "to",
          "type": "address"
        },
        {
          "internalType": "uint256",
          "name": "value",
          "type": "uint256"
        }
      ],
      "name": "transfer",
      "outputs": [
        {
          "internalType": "bool",
          "name": "",
          "type": "bool"
        }
      ],
      "stateMutability": "nonpayable",
      "type": "function"
    },
    {
      "inputs": [
        {
          "internalType": "bytes32",
          "name": "partition",
          "type": "bytes32"
        },
        {
          "internalType": "address",
          "name": "to",
          "type": "address"
        },
        {
          "internalType": "uint256",
          "name": "value",
          "type": "uint256"
        },
        {
          "internalType": "bytes",
          "name": "data",
          "type": "bytes"
        }
      ],
      "name": "transferByPartition",
      "outputs": [
        {
          "internalType": "bytes32",
          "name": "",
          "type": "bytes32"
        }
      ],
      "stateMutability": "nonpayable",
      "type": "function"
    },
    {
      "inputs": [
        {
          "internalType": "address",
          "name": "from",
          "type": "address"
        },
        {
          "internalType": "address",
          "name": "to",
          "type": "address"
        },
        {
          "internalType": "uint256",
          "name": "value",
          "type": "uint256"
        }
      ],
      "name": "transferFrom",
      "outputs": [
        {
          "internalType": "bool",
          "name": "",
          "type": "bool"
        }
      ],
      "stateMutability": "nonpayable",
      "type": "function"
    },
    {
      "inputs": [
        {
          "internalType": "address",
          "name": "from",
          "type": "address"
        },
        {
          "internalType": "address",
          "name": "to",
          "type": "address"
        },
        {
          "internalType": "uint256",
          "name": "value",
          "type": "uint256"
        },
        {
          "internalType": "bytes",
          "name": "data",
          "type": "bytes"
        }
      ],
      "name": "transferFromWithData",
      "outputs": [],
      "stateMutability": "nonpayable",
      "type": "function"
    },
    {
      "inputs": [
        {
          "internalType": "address",
          "name": "newOwner",
          "type": "address"
        }
      ],
      "name": "transferOwnership",
      "outputs": [],
      "stateMutability": "nonpayable",
      "type": "function"
    },
    {
      "inputs": [
        {
          "internalType": "address",
          "name": "to",
          "type": "address"
        },
        {
          "internalType": "uint256",
          "name": "value",
          "type": "uint256"
        },
        {
          "internalType": "bytes",
          "name": "data",
          "type": "bytes"
        }
      ],
      "name": "transferWithData",
      "outputs": [],
      "stateMutability": "nonpayable",
      "type": "function"
    },
    {
      "inputs": [],
      "name": "updateFagsystem",
      "outputs": [],
      "stateMutability": "nonpayable",
      "type": "function"
    }
  ],
  "bytecode": "0x60806040523480156200001157600080fd5b50604051620058c7380380620058c78339810160408190526200003491620009ef565b858585858562000044336200022d565b6200004f336200027d565b62000059620002cf565b5084516200006f90600490602088019062000739565b5083516200008590600590602087019062000739565b50600060075560018310156200009a57600080fd5b6006839055620000aa82620002f5565b8051620000bf906014906020840190620007c8565b506008805462ffff0019166201010017905560408051808201909152600c81526b22a921989a18182a37b5b2b760a11b6020808301919091526200010f91903090620003f2811b6200246117901c565b620001486040518060400160405280600a81526020016922a92199182a37b5b2b760b11b81525030620003f260201b620024611760201c565b620001826040518060400160405280600c81526020016b22a921989a18182a37b5b2b760a11b815250620004a060201b6200250b1760201c565b620001ba6040518060400160405280600a81526020016922a92199182a37b5b2b760b11b815250620004a060201b6200250b1760201c565b5050604051339350620001d1925088915062000ac3565b604051908190038120907fbaae3ce00d3ceedebee4e035d2bab26a15d5d5e0c97fa14e2dee257f25b077f690600090a3601c80546001600160a01b0319166001600160a01b03929092169190911790555062000c009350505050565b600080546001600160a01b038381166001600160a01b0319831681178455604051919092169283917f8be0079c531659141344cd1fd0a4f28419497f9722a3daafe3b4186f6b6457e09190a35050565b62000298816002620004ef60201b620025581790919060201c565b6040516001600160a01b038216907f6ae172837ea30b801fbfcdd4108aa1d5bf8ff775444fd70256b44e6bf3dfc3f690600090a250565b60004681620002dd62000573565b60009283526003602052604090922082905550919050565b60005b6016548110156200036857600060176000601684815481106200031f576200031f62000bd4565b6000918252602080832091909101546001600160a01b031683528201929092526040019020805460ff1916911515919091179055806200035f8162000baa565b915050620002f8565b5060005b8151811015620003d85760016017600084848151811062000391576200039162000bd4565b6020908102919091018101516001600160a01b03168252810191909152604001600020805460ff191691151591909117905580620003cf8162000baa565b9150506200036c565b508051620003ee90601690602084019062000805565b5050565b60008260405160200162000407919062000ac3565b60408051808303601f190181529082905280516020909101206329965a1d60e01b8252306004830152602482018190526001600160a01b03841660448301529150731820a4b7618bde71dce8cdc73aab6c95905fad24906329965a1d90606401600060405180830381600087803b1580156200048257600080fd5b505af115801562000497573d6000803e3d6000fd5b50505050505050565b600180600083604051602001620004b8919062000ac3565b60408051808303601f19018152918152815160209283012083529082019290925201600020805460ff191691151591909117905550565b620004fb82826200061a565b156200054e5760405162461bcd60e51b815260206004820152601f60248201527f526f6c65733a206163636f756e7420616c72656164792068617320726f6c650060448201526064015b60405180910390fd5b6001600160a01b0316600090815260209190915260409020805460ff19166001179055565b600046817f8b73c3c69bb8fe3d512ecc4cf759cc79239f7b179b0ffacaa9a75d522b39400f620005a26200069f565b8051602090910120620005c96040805180820190915260018152603160f81b602082015290565b80516020918201206040805192830194909452928101919091526060810191909152608081018390523060a082015260c00160408051601f1981840301815291905280516020909101209392505050565b60006001600160a01b0382166200067f5760405162461bcd60e51b815260206004820152602260248201527f526f6c65733a206163636f756e7420697320746865207a65726f206164647265604482015261737360f01b606482015260840162000545565b506001600160a01b03166000908152602091909152604090205460ff1690565b606060048054620006b09062000b6d565b80601f0160208091040260200160405190810160405280929190818152602001828054620006de9062000b6d565b80156200072f5780601f1062000703576101008083540402835291602001916200072f565b820191906000526020600020905b8154815290600101906020018083116200071157829003601f168201915b5050505050905090565b828054620007479062000b6d565b90600052602060002090601f0160209004810192826200076b5760008555620007b6565b82601f106200078657805160ff1916838001178555620007b6565b82800160010185558215620007b6579182015b82811115620007b657825182559160200191906001019062000799565b50620007c49291506200085d565b5090565b828054828255906000526020600020908101928215620007b65791602002820182811115620007b657825182559160200191906001019062000799565b828054828255906000526020600020908101928215620007b6579160200282015b82811115620007b657825182546001600160a01b0319166001600160a01b0390911617825560209092019160019091019062000826565b5b80821115620007c457600081556001016200085e565b80516001600160a01b03811681146200088c57600080fd5b919050565b600082601f830112620008a357600080fd5b81516020620008bc620008b68362000b14565b62000ae1565b80838252828201915082860187848660051b8901011115620008dd57600080fd5b60005b858110156200090757620008f48262000874565b84529284019290840190600101620008e0565b5090979650505050505050565b600082601f8301126200092657600080fd5b8151602062000939620008b68362000b14565b80838252828201915082860187848660051b89010111156200095a57600080fd5b60005b8581101562000907578151845292840192908401906001016200095d565b600082601f8301126200098d57600080fd5b81516001600160401b03811115620009a957620009a962000bea565b620009be601f8201601f191660200162000ae1565b818152846020838601011115620009d457600080fd5b620009e782602083016020870162000b3a565b949350505050565b60008060008060008060c0878903121562000a0957600080fd5b86516001600160401b038082111562000a2157600080fd5b62000a2f8a838b016200097b565b9750602089015191508082111562000a4657600080fd5b62000a548a838b016200097b565b965060408901519550606089015191508082111562000a7257600080fd5b62000a808a838b0162000891565b9450608089015191508082111562000a9757600080fd5b5062000aa689828a0162000914565b92505062000ab760a0880162000874565b90509295509295509295565b6000825162000ad781846020870162000b3a565b9190910192915050565b604051601f8201601f191681016001600160401b038111828210171562000b0c5762000b0c62000bea565b604052919050565b60006001600160401b0382111562000b305762000b3062000bea565b5060051b60200190565b60005b8381101562000b5757818101518382015260200162000b3d565b8381111562000b67576000848401525b50505050565b600181811c9082168062000b8257607f821691505b6020821081141562000ba457634e487b7160e01b600052602260045260246000fd5b50919050565b600060001982141562000bcd57634e487b7160e01b600052601160045260246000fd5b5060010190565b634e487b7160e01b600052603260045260246000fd5b634e487b7160e01b600052604160045260246000fd5b614cb78062000c106000396000f3fe608060405234801561001057600080fd5b50600436106103175760003560e01c8063010648ca1461031c57806305494afa1461033157806306fdde0314610344578063095ea7b3146103625780630a4e4f2214610385578063103ef9e11461038d57806314d1e62f146103a0578063168ecec5146103b357806316e1aed4146103c657806317ec83ca146103d957806318160ddd146104255780631d43e1c01461042d57806323b872dd14610435578063249cb3fa146104485780632535f7621461045b57806326ab56501461046e5780632f1cae85146104765780633092afd51461048757806330e828031461049a578063313ce567146104cd5780634c783bf5146104dc57806352ebf263146104ec578063556f0dc7146104ff57806362eb0068146105075780636572974f1461051a57806367c849191461052d57806369598efe146105405780636c30d170146105555780636d77cad61461055d5780636fd00b341461057057806370a0823114610578578063715018a6146105a1578063740ab8f4146105a95780637cc0c3a7146105bc5780638357839e146105d1578063861ed3ea146105e4578063895d7386146103445780638c0dee9c146105f75780638da5cb5b1461060a578063933964c71461061f578063959b8c3f1461063257806395d89b41146105705780639675193c14610645578063983b2d5614610658578063986502751461066b57806398ddcec7146106735780639fa5f50b14610686578063a26734dc1461068e578063a6f4f105146106ae578063a8082cb0146106c1578063a9059cbb146106c9578063aa271e1a146106dc578063b10d6b41146106ef578063b6363cf214610711578063bb3acde914610724578063bb54f8c314610737578063bcfdc0cf1461074a578063c350184814610752578063ca281fd914610765578063dd62ed3e1461076d578063e77c646d146107a6578063e83c43f5146107b9578063ea74838a146107c1578063ec9a6e87146107d4578063ee532f31146107e7578063f2fde38b146107fa578063f3d490db1461080d578063f698da2514610820578063fad8b32a14610828575b600080fd5b61032f61032a3660046145f2565b61083b565b005b61032f61033f36600461435e565b610975565b61034c6109f4565b604051610359919061491e565b60405180910390f35b6103756103703660046141ea565b610a86565b6040519015158152602001610359565b61032f610b1c565b61032f61039b366004614448565b610c12565b6103756103ae366004614556565b610c76565b61032f6103c1366004614448565b610d0e565b61032f6103d43660046145a7565b610d6f565b6104176103e736600461446d565b60009283526018602090815260408085206001600160a01b03948516865282528085209290931684525290205490565b604051908152602001610359565b600754610417565b61034c610db9565b61037561044336600461407c565b610dd4565b610417610456366004614448565b610ef6565b61032f610469366004614216565b610f55565b61034c610f9e565b60085462010000900460ff16610375565b61032f610495366004614009565b611035565b6104176104a8366004614448565b6001600160a01b03166000908152601360209081526040808320938352929052205490565b60405160128152602001610359565b600854610100900460ff16610375565b61032f6104fa36600461435e565b61106d565b600654610417565b61032f610515366004614644565b6110a0565b61032f6105283660046142b2565b6110f1565b61032f61053b36600461457d565b6111c2565b610548611259565b6040516103599190614848565b61032f6112b0565b61037561056b36600461446d565b6112c6565b61034c6112db565b610417610586366004614009565b6001600160a01b031660009081526009602052604090205490565b61032f6112ea565b6105486105b7366004614009565b6112fe565b6105c461136a565b60405161035991906147fb565b61032f6105df366004614009565b6113cb565b6105c46105f236600461442f565b6113f5565b6104176106053660046144af565b611460565b610612611605565b60405161035991906147a3565b61032f61062d36600461412f565b611614565b61032f610640366004614009565b61162a565b61032f610653366004614216565b611699565b61032f610666366004614009565b6117d5565b61032f61180a565b61032f61068136600461457d565b611813565b610548611999565b61041761069c36600461442f565b60009081526010602052604090205490565b61032f6106bc366004614164565b6119ef565b610417611a3c565b6103756106d73660046141ea565b611ac9565b6103756106ea366004614009565b611af0565b6107026106fd36600461442f565b611afd565b60405161035993929190614953565b61037561071f366004614043565b611bdb565b61032f610732366004614216565b611bee565b61032f6107453660046142b2565b611cc2565b610548611d7a565b61032f61076036600461442f565b611dd0565b61032f6120a5565b61041761077b366004614043565b6001600160a01b039182166000908152600a6020908152604080832093909416825291909152205490565b61032f6107b43660046146f4565b6120ba565b6106126120fc565b61032f6107cf366004614271565b612182565b61032f6107e2366004614271565b6121c6565b61032f6107f53660046140bd565b6121da565b61032f610808366004614009565b612317565b61041761081b36600461457d565b61238d565b6104176123eb565b61032f610836366004614009565b6123f5565b3360009081526017602052604090205460ff1661085757600080fd5b604051806060016040528084848080601f0160208091040260200160405190810160405280939291908181526020018383808284376000920182905250938552505050602080830185905242604093840152878252600b81529190208251805191926108c892849290910190613cd9565b5060208281015160018301556040928301516002909201919091556000838152600c909152205461093357600d80546001810182557fd7b6990105719101dabeb77144f2a3385c8033acd3af97e9423a695e81ad1eb501829055546000828152600c60205260409020555b837fb4c22d60cd550a815744f04e3ff5278bf19684565ee00e2b084041b6024bd6f6848484604051610967939291906148fa565b60405180910390a250505050565b60005b84518110156109ec576109da86828151811061099657610996614c20565b6020026020010151338784815181106109b1576109b1614c20565b60200260200101518785815181106109cb576109cb614c20565b602002602001015187876125d4565b806109e481614bd9565b915050610978565b505050505050565b606060048054610a0390614b9e565b80601f0160208091040260200160405190810160405280929190818152602001828054610a2f90614b9e565b8015610a7c5780601f10610a5157610100808354040283529160200191610a7c565b820191906000526020600020905b815481529060010190602001808311610a5f57829003601f168201915b5050505050905090565b60006001600160a01b038316610ab75760405162461bcd60e51b8152600401610aae906149b0565b60405180910390fd5b336000818152600a602090815260408083206001600160a01b03881680855290835292819020869055518581529192917f8c5be1e5ebec7d5bd14f71427d1e84f3dd0314c0f7b2291e5b200ac8c7c3b925910160405180910390a35060015b92915050565b60006016600081548110610b3257610b32614c20565b60009182526020822001546040805160018082528183019092526001600160a01b0390921693508160200160208202803683370190505090506000610b756120fc565b90508082600081518110610b8b57610b8b614c20565b60200260200101906001600160a01b031690816001600160a01b031681525050610bb4826126a4565b806001600160a01b0316836001600160a01b0316610bd06112db565b604051610bdd9190614787565b604051908190038120907fddf698a82db69118eb57511894eba2074acdc5cdf75459415afe7386360314a290600090a4505050565b33600081815260196020908152604080832086845282528083206001600160a01b0386168085529252808320805460ff1916600117905551909185917f3646a897c70797ecc134b0adc32f471b07bf1d6f451133b0384badab531e3fd69190a45050565b60006001600160a01b038316610c9e5760405162461bcd60e51b8152600401610aae906149b0565b6000848152601860209081526040808320338085529083528184206001600160a01b038816808652908452938290208690559051858152909187917ff061499aa77c2f6f5e25e34955a06623705344a88256cc861a121ec0bce5cfec910160405180910390a45060019392505050565b33600081815260196020908152604080832086845282528083206001600160a01b0386168085529252808320805460ff1916905551909185917f3b287c4f1bab4df949b33bceacef984f544dc5d5479930d00e4ee8c9d8dd96f29190a45050565b610d7761278d565b610db4838383808060200260200160405190810160405280939291908181526020018383602002808284376000920191909152506127ec92505050565b505050565b6040805180820190915260018152603160f81b602082015290565b6000610de0338561290f565b80610e0e57506001600160a01b0384166000908152600a602090815260408083203384529091529020548211155b610e2a5760405162461bcd60e51b8152600401610aae906149e8565b6001600160a01b0384166000908152600a602090815260408083203384529091529020548211610eab576001600160a01b0384166000908152600a60209081526040808320338452909152902054610e82908361298e565b6001600160a01b0385166000908152600a60209081526040808320338452909152902055610ed0565b6001600160a01b0384166000908152600a602090815260408083203384529091528120555b610eec338585856040518060200160405280600081525061299a565b5060019392505050565b60008281526001602052604081205460ff1615610f4d5760405173455243313832305f4143434550545f4d4147494360601b6020820152603401604051602081830303815290604052805190602001209050610b16565b506000610b16565b610f983333868686868080601f01602080910402602001604051908101604052809392919081815260200183838082843760009201919091525061299a92505050565b50505050565b60606000610faa6120fc565b601c5460405163039dfdcd60e21b81529192506001600160a01b031690630e77f73490610fdb9084906004016147a3565b60006040518083038186803b158015610ff357600080fd5b505afa158015611007573d6000803e3d6000fd5b505050506040513d6000823e601f3d908101601f1916820160405261102f919081019061467e565b91505090565b61103e33611af0565b8061105857503361104d611605565b6001600160a01b0316145b61106157600080fd5b61106a81612adf565b50565b60005b84518110156109ec5761108e86828151811061099657610996614c20565b8061109881614bd9565b915050611070565b610f988433338686868080601f0160208091040260200160405190810160405280939291908181526020018383808284376000920182905250604080516020810190915290815292506125d4915050565b6110fa33611af0565b80611114575033611109611605565b6001600160a01b0316145b61111d57600080fd5b60085462010000900460ff166111455760405162461bcd60e51b8152600401610aae906149cc565b60005b83518110156111bb576111a985828151811061116657611166614c20565b60200260200101513386848151811061118157611181614c20565b602002602001015186858151811061119b5761119b614c20565b602002602001015186612b21565b806111b381614bd9565b915050611148565b5050505050565b6111cb33611af0565b806111e55750336111da611605565b6001600160a01b0316145b6111ee57600080fd5b60085462010000900460ff166112165760405162461bcd60e51b8152600401610aae906149cc565b6111bb8533868686868080601f016020809104026020016040519081016040528093929190818152602001838380828437600092019190915250612b2192505050565b6060600e805480602002602001604051908101604052809291908181526020018280548015610a7c57602002820191906000526020600020905b815481526020019060010190808311611293575050505050905090565b6112b861278d565b6008805462ff000019169055565b60006112d3848484612bcb565b949350505050565b606060058054610a0390614b9e565b6112f261278d565b6112fc6000612c54565b565b6001600160a01b03811660009081526011602090815260409182902080548351818402810184019094528084526060939283018282801561135e57602002820191906000526020600020905b81548152602001906001019080831161134a575b50505050509050919050565b60606016805480602002602001604051908101604052809291908181526020018280548015610a7c57602002820191906000526020600020905b81546001600160a01b031681526001909101906020018083116113a4575050505050905090565b6113d361278d565b601c80546001600160a01b0319166001600160a01b0392909216919091179055565b6000818152601a602090815260409182902080548351818402810184019094528084526060939283018282801561135e57602002820191906000526020600020905b81546001600160a01b031681526001909101906020018083116114375750505050509050919050565b600061146d89338a612bcb565b806114a2575060008981526018602090815260408083206001600160a01b038c16845282528083203384529091529020548611155b6114be5760405162461bcd60e51b8152600401610aae906149e8565b60008981526018602090815260408083206001600160a01b038c168452825280832033845290915290205486116115545760008981526018602090815260408083206001600160a01b038c1684528252808320338452909152902054611524908761298e565b60008a81526018602090815260408083206001600160a01b038d1684528252808320338452909152902055611580565b60008981526018602090815260408083206001600160a01b038c16845282528083203384529091528120555b6115f889338a8a8a8a8a8080601f01602080910402602001604051908101604052809392919081815260200183838082843760009201919091525050604080516020601f8e018190048102820181019092528c815292508c91508b9081908401838280828437600092019190915250612ca492505050565b9998505050505050505050565b6000546001600160a01b031690565b61161c61278d565b6116268282612dfc565b5050565b6001600160a01b03811633141561164057600080fd5b6001600160a01b0381166000818152601560209081526040808320338085529252808320805460ff19166001179055519092917ff4caeb2d6ca8932a215a353d0703c326ec2d81fc68170f320eb2ab49e9df61f991a350565b6116a3338561290f565b806116d157506001600160a01b0384166000908152600a602090815260408083203384529091529020548311155b6116ed5760405162461bcd60e51b8152600401610aae906149e8565b6001600160a01b0384166000908152600a60209081526040808320338452909152902054831161176e576001600160a01b0384166000908152600a60209081526040808320338452909152902054611745908461298e565b6001600160a01b0385166000908152600a60209081526040808320338452909152902055611793565b6001600160a01b0384166000908152600a602090815260408083203384529091528120555b610f9833858585858080601f016020809104026020016040519081016040528093929190818152602001838380828437600092019190915250612e6d92505050565b6117de33611af0565b806117f85750336117ed611605565b6001600160a01b0316145b61180157600080fd5b61106a81612fa7565b6112fc33612adf565b61181e853386612bcb565b80611853575060008581526018602090815260408083206001600160a01b038816845282528083203384529091529020548311155b6118845760405162461bcd60e51b815260206004820152600260248201526106a760f31b6044820152606401610aae565b60008581526018602090815260408083206001600160a01b03881684528252808320338452909152902054831161191a5760008581526018602090815260408083206001600160a01b038816845282528083203384529091529020546118ea908461298e565b60008681526018602090815260408083206001600160a01b03891684528252808320338452909152902055611946565b60008581526018602090815260408083206001600160a01b038816845282528083203384529091528120555b6111bb853386866040518060200160405280600081525087878080601f0160208091040260200160405190810160405280939291908181526020018383808284376000920191909152506125d492505050565b6060600d805480602002602001604051908101604052809291908181526020018280548015610a7c5760200282019190600052602060002090815481526020019060010190808311611293575050505050905090565b6119f761278d565b6109ec8686868080601f016020809104026020016040519081016040528093929190818152602001838380828437600092019190915250889250879150869050612fe9565b600046817f8b73c3c69bb8fe3d512ecc4cf759cc79239f7b179b0ffacaa9a75d522b39400f611a696109f4565b80519060200120611a78610db9565b80516020918201206040805192830194909452928101919091526060810191909152608081018390523060a082015260c00160408051601f1981840301815291905280516020909101209392505050565b6000611ae7333385856040518060200160405280600081525061299a565b50600192915050565b6000610b166002836130a5565b6000818152600b602052604081208054606092918291611b1c90614b9e565b15159050611b2957600080fd5b6000848152600b602052604090206001810154600282015482548390611b4e90614b9e565b80601f0160208091040260200160405190810160405280929190818152602001828054611b7a90614b9e565b8015611bc75780601f10611b9c57610100808354040283529160200191611bc7565b820191906000526020600020905b815481529060010190602001808311611baa57829003601f168201915b505050505092509250925092509193909250565b6000611be7838361290f565b9392505050565b611bf733611af0565b80611c11575033611c06611605565b6001600160a01b0316145b611c1a57600080fd5b60085462010000900460ff16611c425760405162461bcd60e51b8152600401610aae906149cc565b601454611c615760405162461bcd60e51b8152600401610aae906149cc565b610f986014600081548110611c7857611c78614c20565b906000526020600020015433868686868080601f016020809104026020016040519081016040528093929190818152602001838380828437600092019190915250612b2192505050565b60005b83518110156111bb57600060096000868481518110611ce657611ce6614c20565b60200260200101516001600160a01b03166001600160a01b03168152602001908152602001600020541415611d535760405162461bcd60e51b81526020600482015260136024820152724e6f206e6577207368617265686f6c6465727360681b6044820152606401610aae565b611d6885828151811061116657611166614c20565b80611d7281614bd9565b915050611cc5565b60606014805480602002602001604051908101604052809291908181526020018280548015610a7c5760200282019190600052602060002090815481526020019060010190808311611293575050505050905090565b3360009081526017602052604090205460ff16611e1e5760405162461bcd60e51b815260206004820152600c60248201526b155b985d5d1a1bdc9a5e995960a21b6044820152606401610aae565b6000818152600b602052604090208054611e3790614b9e565b15159050611e7f5760405162461bcd60e51b8152602060048201526015602482015274111bd8dd5b595b9d08191bd95cdb9d08195e1a5cdd605a1b6044820152606401610aae565b6000818152600b6020526040808220815160608101909252805482908290611ea690614b9e565b80601f0160208091040260200160405190810160405280929190818152602001828054611ed290614b9e565b8015611f1f5780601f10611ef457610100808354040283529160200191611f1f565b820191906000526020600020905b815481529060010190602001808311611f0257829003601f168201915b505050505081526020016001820154815260200160028201548152505090506000600c60008360200151815260200190815260200160002054905060008111611f9a5760405162461bcd60e51b815260206004820152600d60248201526c092dcecc2d8d2c840d2dcc8caf609b1b6044820152606401610aae565b600d805460009190611fae90600190614b5b565b81548110611fbe57611fbe614c20565b9060005260206000200154905080600d600184611fdb9190614b5b565b81548110611feb57611feb614c20565b6000918252602080832090910192909255828152600c90915260409020829055600d80548061201c5761201c614c0a565b600082815260208082208301600019908101839055909201909255848101518252600c81526040808320839055868352600b90915281209061205e8282613d5d565b506000600182018190556002909101558251602084015160405186927f3d9bba27d3e360d8c80645beed7e991454a8271bf6f269a24f7782be0f0d06549261096792614931565b6120ad61278d565b6008805461ff0019169055565b610db433338585858080601f016020809104026020016040519081016040528093929190818152602001838380828437600092019190915250612e6d92505050565b601c546040516359fa131b60e01b81526000916001600160a01b0316906359fa131b9061212d9030906004016147a3565b60206040518083038186803b15801561214557600080fd5b505afa158015612159573d6000803e3d6000fd5b505050506040513d601f19601f8201168201806040525081019061217d9190614026565b905090565b61218a61278d565b6116268282808060200260200160405190810160405280939291908181526020018383602002808284376000920191909152506126a492505050565b6121ce61278d565b610db460148383613d97565b6121e4338661290f565b8061221257506001600160a01b0385166000908152600a602090815260408083203384529091529020548311155b61222e5760405162461bcd60e51b8152600401610aae906149e8565b6001600160a01b0385166000908152600a6020908152604080832033845290915290205483116122af576001600160a01b0385166000908152600a60209081526040808320338452909152902054612286908461298e565b6001600160a01b0386166000908152600a602090815260408083203384529091529020556122d4565b6001600160a01b0385166000908152600a602090815260408083203384529091528120555b6111bb3386868686868080601f01602080910402602001604051908101604052809392919081815260200183838082843760009201919091525061299a92505050565b61231f61278d565b6001600160a01b0381166123845760405162461bcd60e51b815260206004820152602660248201527f4f776e61626c653a206e6577206f776e657220697320746865207a65726f206160448201526564647265737360d01b6064820152608401610aae565b61106a81612c54565b60006123e1863333888888888080601f016020809104026020016040519081016040528093929190818152602001838380828437600092018290525060408051602081019091529081529250612ca4915050565b9695505050505050565b600061217d613128565b6001600160a01b03811633141561240b57600080fd5b6001600160a01b0381166000818152601560209081526040808320338085529252808320805460ff19169055519092917f50546e66e5f44d728365dc3908c63bc5cfeeab470722c1677e3073a6ac294aa191a350565b6000826040516020016124749190614787565b60408051808303601f190181529082905280516020909101206329965a1d60e01b8252306004830152602482018190526001600160a01b03841660448301529150731820a4b7618bde71dce8cdc73aab6c95905fad24906329965a1d90606401600060405180830381600087803b1580156124ee57600080fd5b505af1158015612502573d6000803e3d6000fd5b50505050505050565b6001806000836040516020016125219190614787565b60408051808303601f19018152918152815160209283012083529082019290925201600020805460ff191691151591909117905550565b61256282826130a5565b156125af5760405162461bcd60e51b815260206004820152601f60248201527f526f6c65733a206163636f756e7420616c72656164792068617320726f6c65006044820152606401610aae565b6001600160a01b0316600090815260209190915260409020805460ff19166001179055565b6001600160a01b03841660009081526013602090815260408083208984529091529020548311156126175760405162461bcd60e51b8152600401610aae90614a04565b612627868686600087878761314b565b612637868686600087878761320d565b612642848785613295565b61264e85858585613554565b836001600160a01b0316856001600160a01b0316877fce306c3dbc4a497124b5a4f2be8388b41084c1d74663da27ecee1186c00239bf8685604051612694929190614a3c565b60405180910390a4505050505050565b60005b60165481101561271057600060176000601684815481106126ca576126ca614c20565b6000918252602080832091909101546001600160a01b031683528201929092526040019020805460ff19169115159190911790558061270881614bd9565b9150506126a7565b5060005b81518110156127795760016017600084848151811061273557612735614c20565b6020908102919091018101516001600160a01b03168252810191909152604001600020805460ff19169115159190911790558061277181614bd9565b915050612714565b508051611626906016906020840190613dd2565b33612796611605565b6001600160a01b0316146112fc5760405162461bcd60e51b815260206004820181905260248201527f4f776e61626c653a2063616c6c6572206973206e6f7420746865206f776e65726044820152606401610aae565b60005b6000838152601a6020526040902054811015612878576000838152601b60209081526040808320601a909252822080548391908590811061283257612832614c20565b6000918252602080832091909101546001600160a01b031683528201929092526040019020805460ff19169115159190911790558061287081614bd9565b9150506127ef565b5060005b81518110156128ef576000838152601b602052604081208351600192908590859081106128ab576128ab614c20565b6020908102919091018101516001600160a01b03168252810191909152604001600020805460ff1916911515919091179055806128e781614bd9565b91505061287c565b506000828152601a602090815260409091208251610db492840190613dd2565b6000816001600160a01b0316836001600160a01b0316148061295657506001600160a01b0380841660009081526015602090815260408083209386168352929052205460ff165b80611be75750600854610100900460ff168015611be7575050506001600160a01b031660009081526017602052604090205460ff1690565b6000611be78284614b5b565b6014546129b95760405162461bcd60e51b8152600401610aae906149cc565b816000805b601454811015612ac0576001600160a01b038716600090815260136020526040812060148054919291849081106129f7576129f7614c20565b90600052602060002001548152602001908152602001600020549150818311612a5f57612a5560148281548110612a3057612a30614c20565b9060005260206000200154898989878960405180602001604052806000815250612ca4565b5060009250612ac0565b8115612aae57612aa060148281548110612a7b57612a7b614c20565b9060005260206000200154898989868960405180602001604052806000815250612ca4565b50612aab8284614b5b565b92505b80612ab881614bd9565b9150506129be565b5081156125025760405162461bcd60e51b8152600401610aae90614a04565b612aea6002826136cc565b6040516001600160a01b038216907fe94479a9f7e1952cc78f2d6baab678adc1b772d936c6583def489e524cb6669290600090a250565b612b40858560008686866040518060200160405280600081525061320d565b612b4c8484848461374e565b612b57838684613877565b612b7685856000868686604051806020016040528060008152506139b5565b826001600160a01b0316846001600160a01b0316867ff0ded82afbb1bb3ff3fc48cb2a26584aa84e4af0bf309c804ecdb94d0f6a98bb8585604051612bbc929190614a55565b60405180910390a45050505050565b6000612bd7838361290f565b80612c0f57506001600160a01b03808316600090815260196020908152604080832088845282528083209387168352929052205460ff165b806112d35750600854610100900460ff1680156112d3575050506000918252601b602090815260408084206001600160a01b0393909316845291905290205460ff1690565b600080546001600160a01b038381166001600160a01b0319831681178455604051919092169283917f8be0079c531659141344cd1fd0a4f28419497f9722a3daafe3b4186f6b6457e09190a35050565b6001600160a01b03851660009081526013602090815260408083208a8452909152812054841115612ce75760405162461bcd60e51b8152600401610aae90614a04565b8151889015801590612cfb57506040845110155b15612d0d57612d0a8985613a3d565b90505b612d1c8989898989898961314b565b612d2b8989898989898961320d565b612d36878a87613295565b612d41878787613a69565b612d4c868287613877565b612d5b818989898989896139b5565b856001600160a01b0316876001600160a01b03168a7fff4e9a26af4eb73b8bacfaa4abd4fea03d9448e7b912dc5ff4019048875aa2d48b898989604051612da594939291906147b7565b60405180910390a4888114612df05780897f67c8ba31d2dd11f1384577b3405b04ed91eed1231e408432ad2458cab37b2fa187604051612de791815260200190565b60405180910390a35b98975050505050505050565b612e286040518060400160405280600a81526020016922a92199182a37b5b2b760b11b81525083612461565b612e566040518060400160405280600c81526020016b22a921989a18182a37b5b2b760a11b81525083612461565b8015611626576008805460ff191660011790555050565b601454612e8c5760405162461bcd60e51b8152600401610aae906149cc565b816000805b601454811015612f88576001600160a01b03861660009081526013602052604081206014805491929184908110612eca57612eca614c20565b90600052602060002001548152602001908152602001600020549150818311612f3057612f2760148281548110612f0357612f03614c20565b906000526020600020015488888688604051806020016040528060008152506125d4565b60009250612f88565b612f6a60148281548110612f4657612f46614c20565b906000526020600020015488888588604051806020016040528060008152506125d4565b612f748284614b5b565b925080612f8081614bd9565b915050612e91565b5081156109ec5760405162461bcd60e51b8152600401610aae90614a04565b612fb2600282612558565b6040516001600160a01b038216907f6ae172837ea30b801fbfcdd4108aa1d5bf8ff775444fd70256b44e6bf3dfc3f690600090a250565b6000612ff53086613bb0565b90506001600160a01b0381161580159061300c5750835b156130495761301a81611af0565b156130285761302881612adf565b6001600160a01b0381166000908152601760205260409020805460ff191690555b6130538587612461565b828015613066575061306486611af0565b155b156130745761307486612fa7565b81156109ec576001600160a01b0386166000908152601760205260409020805460ff19166001179055505050505050565b60006001600160a01b0382166131085760405162461bcd60e51b815260206004820152602260248201527f526f6c65733a206163636f756e7420697320746865207a65726f206164647265604482015261737360f01b6064820152608401610aae565b506001600160a01b03166000908152602091909152604090205460ff1690565b46600090815260036020526040812054801561314357919050565b61102f613c6e565b6000613182866040518060400160405280601381526020017222a921989a18182a37b5b2b739a9b2b73232b960691b815250613bb0565b90506001600160a01b038116156132035760405163139d569560e21b81526001600160a01b03821690634e755a54906131d09060009036908d908d908d908d908d908d908d90600401614880565b600060405180830381600087803b1580156131ea57600080fd5b505af11580156131fe573d6000803e3d6000fd5b505050505b5050505050505050565b6000613247306040518060400160405280601681526020017522a921989a18182a37b5b2b739ab30b634b230ba37b960511b815250613bb0565b90506001600160a01b0381161561320357604051632907d53b60e11b81526001600160a01b0382169063520faa76906131d09060009036908d908d908d908d908d908d908d90600401614880565b6001600160a01b03831660009081526013602090815260408083208584529091529020546132c3908261298e565b6001600160a01b03841660009081526013602090815260408083208684528252808320939093556010905220546132fa908261298e565b60008381526010602052604090208190556133e7576000828152600f60205260409020548061333b5760405162461bcd60e51b8152600401610aae90614994565b600e80546000919061334f90600190614b5b565b8154811061335f5761335f614c20565b9060005260206000200154905080600e60018461337c9190614b5b565b8154811061338c5761338c614c20565b6000918252602080832090910192909255828152600f90915260409020829055600e8054806133bd576133bd614c0a565b600082815260208082208301600019908101839055909201909255858252600f9052604081205550505b6001600160a01b0383166000908152601360209081526040808320858452909152902054610db4576001600160a01b0383166000908152601260209081526040808320858452909152902054806134505760405162461bcd60e51b8152600401610aae90614994565b6001600160a01b0384166000908152601160205260408120805461347690600190614b5b565b8154811061348657613486614c20565b60009182526020808320909101546001600160a01b03881683526011909152604090912090915081906134ba600185614b5b565b815481106134ca576134ca614c20565b60009182526020808320909101929092556001600160a01b038716808252601283526040808320858452845280832086905590825260119092522080548061351457613514614c0a565b6000828152602080822083016000199081018390559092019092556001600160a01b03871682526012815260408083208784529091528120555050505050565b60085460ff16156135775760405162461bcd60e51b8152600401610aae90614978565b61358082613c92565b61359c5760405162461bcd60e51b8152600401610aae90614994565b6001600160a01b0383166135c25760405162461bcd60e51b8152600401610aae906149b0565b6001600160a01b0383166000908152600960205260409020548211156135fa5760405162461bcd60e51b8152600401610aae90614a04565b6001600160a01b03831660009081526009602052604090205461361d908361298e565b6001600160a01b038416600090815260096020526040902055600754613643908361298e565b600781905550826001600160a01b0316846001600160a01b03167fb7d0d6b60740753e9f16692a2f479472a1385aec2420fa43225b02f2ffa1afe7848460405161368e929190614a3c565b60405180910390a36040518281526000906001600160a01b03851690600080516020614c62833981519152906020015b60405180910390a350505050565b6136d682826130a5565b61372c5760405162461bcd60e51b815260206004820152602160248201527f526f6c65733a206163636f756e7420646f6573206e6f74206861766520726f6c6044820152606560f81b6064820152608401610aae565b6001600160a01b0316600090815260209190915260409020805460ff19169055565b60085460ff16156137715760405162461bcd60e51b8152600401610aae90614978565b61377a82613c92565b6137965760405162461bcd60e51b8152600401610aae90614994565b6001600160a01b0383166137bc5760405162461bcd60e51b8152600401610aae90614a20565b6007546137c99083613cb5565b6007556001600160a01b0383166000908152600960205260409020546137ef9083613cb5565b6001600160a01b0380851660008181526009602052604090819020939093559151908616907f0e9905d62635f049c2f4e11678ebf9dc3d1f8c4a653e290759b772e47ba00d00906138439086908690614a3c565b60405180910390a36040518281526001600160a01b03841690600090600080516020614c62833981519152906020016136be565b8015610db4576001600160a01b03831660009081526012602090815260408083208584529091529020546138e9576001600160a01b0383166000818152601160209081526040808320805460018101825581855283852001879055938352925460128252838320868452909152919020555b6001600160a01b03831660009081526013602090815260408083208584529091529020546139179082613cb5565b6001600160a01b0384166000908152601360209081526040808320868452825280832093909355600f9052205461398857600e80546001810182557fbb7b4a454dc3493923482f07822329ed19e8244eff582cc204f8554c3620c3fd01839055546000838152600f60205260409020555b6000828152601060205260409020546139a19082613cb5565b600083815260106020526040902055505050565b60006139ef8560405180604001604052806016815260200175115490cc4d0c0c151bdad95b9cd49958da5c1a595b9d60521b815250613bb0565b90506001600160a01b0381161561320357604051637a325abb60e11b81526001600160a01b0382169063f464b576906131d09060009036908d908d908d908d908d908d908d90600401614880565b60208101516000906000199080821415613a5d5760408401519250613a61565b8492505b505092915050565b60085460ff1615613a8c5760405162461bcd60e51b8152600401610aae90614978565b613a9581613c92565b613ab15760405162461bcd60e51b8152600401610aae90614994565b6001600160a01b038216613ad75760405162461bcd60e51b8152600401610aae90614a20565b6001600160a01b038316600090815260096020526040902054811115613b0f5760405162461bcd60e51b8152600401610aae90614a04565b6001600160a01b038316600090815260096020526040902054613b32908261298e565b6001600160a01b038085166000908152600960205260408082209390935590841681522054613b619082613cb5565b6001600160a01b038084166000818152600960205260409081902093909355915190851690600080516020614c6283398151915290613ba39085815260200190565b60405180910390a3505050565b60008082604051602001613bc49190614787565b60408051808303601f1901815290829052805160209091012063555ddc6560e11b82526001600160a01b0386166004830152602482018190529150731820a4b7618bde71dce8cdc73aab6c95905fad249063aabbb8ca9060440160206040518083038186803b158015613c3657600080fd5b505afa158015613c4a573d6000803e3d6000fd5b505050506040513d601f19601f820116820180604052508101906112d39190614026565b60004681613c7a611a3c565b60009283526003602052604090922082905550919050565b6006546000908290613cae90613ca88382613cc1565b90613ccd565b1492915050565b6000611be78284614b02565b6000611be78284614b1a565b6000611be78284614b3c565b828054613ce590614b9e565b90600052602060002090601f016020900481019282613d075760008555613d4d565b82601f10613d2057805160ff1916838001178555613d4d565b82800160010185558215613d4d579182015b82811115613d4d578251825591602001919060010190613d32565b50613d59929150613e27565b5090565b508054613d6990614b9e565b6000825580601f10613d79575050565b601f01602090049060005260206000209081019061106a9190613e27565b828054828255906000526020600020908101928215613d4d579160200282015b82811115613d4d578235825591602001919060010190613db7565b828054828255906000526020600020908101928215613d4d579160200282015b82811115613d4d57825182546001600160a01b0319166001600160a01b03909116178255602090920191600190910190613df2565b5b80821115613d595760008155600101613e28565b60008083601f840112613e4e57600080fd5b5081356001600160401b03811115613e6557600080fd5b6020830191508360208260051b8501011115613e8057600080fd5b9250929050565b600082601f830112613e9857600080fd5b81356020613ead613ea883614ab8565b614a88565b80838252828201915082860187848660051b8901011115613ecd57600080fd5b60005b85811015613ef5578135613ee381614c4c565b84529284019290840190600101613ed0565b5090979650505050505050565b600082601f830112613f1357600080fd5b81356020613f23613ea883614ab8565b80838252828201915082860187848660051b8901011115613f4357600080fd5b60005b85811015613ef557813584529284019290840190600101613f46565b80358015158114613f7257600080fd5b919050565b60008083601f840112613f8957600080fd5b5081356001600160401b03811115613fa057600080fd5b602083019150836020828501011115613e8057600080fd5b600082601f830112613fc957600080fd5b8135613fd7613ea882614adb565b818152846020838601011115613fec57600080fd5b816020850160208301376000918101602001919091529392505050565b60006020828403121561401b57600080fd5b8135611be781614c4c565b60006020828403121561403857600080fd5b8151611be781614c4c565b6000806040838503121561405657600080fd5b823561406181614c4c565b9150602083013561407181614c4c565b809150509250929050565b60008060006060848603121561409157600080fd5b833561409c81614c4c565b925060208401356140ac81614c4c565b929592945050506040919091013590565b6000806000806000608086880312156140d557600080fd5b85356140e081614c4c565b945060208601356140f081614c4c565b93506040860135925060608601356001600160401b0381111561411257600080fd5b61411e88828901613f77565b969995985093965092949392505050565b6000806040838503121561414257600080fd5b823561414d81614c4c565b915061415b60208401613f62565b90509250929050565b60008060008060008060a0878903121561417d57600080fd5b863561418881614c4c565b955060208701356001600160401b038111156141a357600080fd5b6141af89828a01613f77565b90965094506141c2905060408801613f62565b92506141d060608801613f62565b91506141de60808801613f62565b90509295509295509295565b600080604083850312156141fd57600080fd5b823561420881614c4c565b946020939093013593505050565b6000806000806060858703121561422c57600080fd5b843561423781614c4c565b93506020850135925060408501356001600160401b0381111561425957600080fd5b61426587828801613f77565b95989497509550505050565b6000806020838503121561428457600080fd5b82356001600160401b0381111561429a57600080fd5b6142a685828601613e3c565b90969095509350505050565b600080600080608085870312156142c857600080fd5b84356001600160401b03808211156142df57600080fd5b6142eb88838901613f02565b9550602087013591508082111561430157600080fd5b61430d88838901613e87565b9450604087013591508082111561432357600080fd5b61432f88838901613f02565b9350606087013591508082111561434557600080fd5b5061435287828801613fb8565b91505092959194509250565b600080600080600060a0868803121561437657600080fd5b85356001600160401b038082111561438d57600080fd5b61439989838a01613f02565b965060208801359150808211156143af57600080fd5b6143bb89838a01613e87565b955060408801359150808211156143d157600080fd5b6143dd89838a01613f02565b945060608801359150808211156143f357600080fd5b6143ff89838a01613fb8565b9350608088013591508082111561441557600080fd5b5061442288828901613fb8565b9150509295509295909350565b60006020828403121561444157600080fd5b5035919050565b6000806040838503121561445b57600080fd5b82359150602083013561407181614c4c565b60008060006060848603121561448257600080fd5b83359250602084013561449481614c4c565b915060408401356144a481614c4c565b809150509250925092565b60008060008060008060008060c0898b0312156144cb57600080fd5b8835975060208901356144dd81614c4c565b965060408901356144ed81614c4c565b95506060890135945060808901356001600160401b038082111561451057600080fd5b61451c8c838d01613f77565b909650945060a08b013591508082111561453557600080fd5b506145428b828c01613f77565b999c989b5096995094979396929594505050565b60008060006060848603121561456b57600080fd5b8335925060208401356140ac81614c4c565b60008060008060006080868803121561459557600080fd5b8535945060208601356140f081614c4c565b6000806000604084860312156145bc57600080fd5b8335925060208401356001600160401b038111156145d957600080fd5b6145e586828701613e3c565b9497909650939450505050565b6000806000806060858703121561460857600080fd5b8435935060208501356001600160401b0381111561462557600080fd5b61463187828801613f77565b9598909750949560400135949350505050565b6000806000806060858703121561465a57600080fd5b843593506020850135925060408501356001600160401b0381111561425957600080fd5b60006020828403121561469057600080fd5b81516001600160401b038111156146a657600080fd5b8201601f810184136146b757600080fd5b80516146c5613ea882614adb565b8181528560208385010111156146da57600080fd5b6146eb826020830160208601614b72565b95945050505050565b60008060006040848603121561470957600080fd5b8335925060208401356001600160401b0381111561472657600080fd5b6145e586828701613f77565b81835281816020850137506000828201602090810191909152601f909101601f19169091010190565b60008151808452614773816020860160208601614b72565b601f01601f19169290920160200192915050565b60008251614799818460208701614b72565b9190910192915050565b6001600160a01b0391909116815260200190565b60018060a01b03851681528360208201526080604082015260006147de608083018561475b565b82810360608401526147f0818561475b565b979650505050505050565b6020808252825182820181905260009190848201906040850190845b8181101561483c5783516001600160a01b031683529284019291840191600101614817565b50909695505050505050565b6020808252825182820181905260009190848201906040850190845b8181101561483c57835183529284019291840191600101614864565b60006101008083526148958184018c8e614732565b602084018b90526001600160a01b038a8116604086015289811660608601528816608085015260a0840187905283810360c085015290506148d6818661475b565b905082810360e08401526148ea818561475b565b9c9b505050505050505050505050565b60408152600061490e604083018587614732565b9050826020830152949350505050565b602081526000611be7602083018461475b565b604081526000614944604083018561475b565b90508260208301529392505050565b606081526000614966606083018661475b565b60208301949094525060400152919050565b6020808252600290820152610d4d60f21b604082015260600190565b602080825260029082015261035360f41b604082015260600190565b6020808252600290820152611a9b60f11b604082015260600190565b602080825260029082015261353560f01b604082015260600190565b602080825260029082015261353360f01b604082015260600190565b6020808252600290820152611a9960f11b604082015260600190565b602080825260029082015261353760f01b604082015260600190565b8281526040602082015260006112d3604083018461475b565b828152606060208201526000614a6e606083018461475b565b828103604084015260008152602081019150509392505050565b604051601f8201601f191681016001600160401b0381118282101715614ab057614ab0614c36565b604052919050565b60006001600160401b03821115614ad157614ad1614c36565b5060051b60200190565b60006001600160401b03821115614af457614af4614c36565b50601f01601f191660200190565b60008219821115614b1557614b15614bf4565b500190565b600082614b3757634e487b7160e01b600052601260045260246000fd5b500490565b6000816000190483118215151615614b5657614b56614bf4565b500290565b600082821015614b6d57614b6d614bf4565b500390565b60005b83811015614b8d578181015183820152602001614b75565b83811115610f985750506000910152565b600181811c90821680614bb257607f821691505b60208210811415614bd357634e487b7160e01b600052602260045260246000fd5b50919050565b6000600019821415614bed57614bed614bf4565b5060010190565b634e487b7160e01b600052601160045260246000fd5b634e487b7160e01b600052603160045260246000fd5b634e487b7160e01b600052603260045260246000fd5b634e487b7160e01b600052604160045260246000fd5b6001600160a01b038116811461106a57600080fdfeddf252ad1be2c89b69c2b068fc378daa952ba7f163c4a11628f55a4df523b3efa2646970667358221220c581509599d6997afd9a226a00bc701d0cda9d7105e39f9c6b4e0639ad63775664736f6c63430008070033",
  "linkReferences": {},
  "deployedLinkReferences": {}
}