{
  "_format": "hh-sol-artifact-1",
  "contractName": "CapTableRegistry",
  "sourceName": "contracts/capTable/CapTableRegistry.sol",
  "abi": [
    {
      "inputs": [],
      "stateMutability": "nonpayable",
      "type": "constructor"
    },
    {
      "anonymous": false,
      "inputs": [
        {
          "indexed": true,
          "internalType": "address",
          "name": "authenticatedAddress",
          "type": "address"
        }
      ],
      "name": "AuthenticatedPerson",
      "type": "event"
    },
    {
      "anonymous": false,
      "inputs": [
        {
          "indexed": true,
          "internalType": "address",
          "name": "capTableAddress",
          "type": "address"
        },
        {
          "indexed": true,
          "internalType": "string",
          "name": "id",
          "type": "string"
        }
      ],
      "name": "CapTableAdded",
      "type": "event"
    },
    {
      "anonymous": false,
      "inputs": [
        {
          "indexed": true,
          "internalType": "address",
          "name": "capTableAddress",
          "type": "address"
        },
        {
          "indexed": true,
          "internalType": "string",
          "name": "id",
          "type": "string"
        }
      ],
      "name": "CapTableRemoved",
      "type": "event"
    },
    {
      "anonymous": false,
      "inputs": [
        {
          "indexed": true,
          "internalType": "address",
          "name": "contractAddress",
          "type": "address"
        },
        {
          "indexed": true,
          "internalType": "address",
          "name": "owner",
          "type": "address"
        }
      ],
      "name": "ContractRevoked",
      "type": "event"
    },
    {
      "anonymous": false,
      "inputs": [
        {
          "indexed": true,
          "internalType": "address",
          "name": "contractAddress",
          "type": "address"
        },
        {
          "indexed": true,
          "internalType": "address",
          "name": "owner",
          "type": "address"
        }
      ],
      "name": "PersonAuthenticatedContract",
      "type": "event"
    },
    {
      "anonymous": false,
      "inputs": [
        {
          "indexed": true,
          "internalType": "bytes32",
          "name": "role",
          "type": "bytes32"
        },
        {
          "indexed": true,
          "internalType": "bytes32",
          "name": "previousAdminRole",
          "type": "bytes32"
        },
        {
          "indexed": true,
          "internalType": "bytes32",
          "name": "newAdminRole",
          "type": "bytes32"
        }
      ],
      "name": "RoleAdminChanged",
      "type": "event"
    },
    {
      "anonymous": false,
      "inputs": [
        {
          "indexed": true,
          "internalType": "bytes32",
          "name": "role",
          "type": "bytes32"
        },
        {
          "indexed": true,
          "internalType": "address",
          "name": "account",
          "type": "address"
        },
        {
          "indexed": true,
          "internalType": "address",
          "name": "sender",
          "type": "address"
        }
      ],
      "name": "RoleGranted",
      "type": "event"
    },
    {
      "anonymous": false,
      "inputs": [
        {
          "indexed": true,
          "internalType": "bytes32",
          "name": "role",
          "type": "bytes32"
        },
        {
          "indexed": true,
          "internalType": "address",
          "name": "account",
          "type": "address"
        },
        {
          "indexed": true,
          "internalType": "address",
          "name": "sender",
          "type": "address"
        }
      ],
      "name": "RoleRevoked",
      "type": "event"
    },
    {
      "inputs": [],
      "name": "DEFAULT_ADMIN_ROLE",
      "outputs": [
        {
          "internalType": "bytes32",
          "name": "",
          "type": "bytes32"
        }
      ],
      "stateMutability": "view",
      "type": "function"
    },
    {
      "inputs": [],
      "name": "OPERATOR_ROLE",
      "outputs": [
        {
          "internalType": "bytes32",
          "name": "",
          "type": "bytes32"
        }
      ],
      "stateMutability": "view",
      "type": "function"
    },
    {
      "inputs": [
        {
          "internalType": "address",
          "name": "adr",
          "type": "address"
        },
        {
          "internalType": "string",
          "name": "id",
          "type": "string"
        }
      ],
      "name": "addCapTable",
      "outputs": [],
      "stateMutability": "nonpayable",
      "type": "function"
    },
    {
      "inputs": [
        {
          "internalType": "address",
          "name": "_operatorAddress",
          "type": "address"
        },
        {
          "internalType": "string",
          "name": "_operatorName",
          "type": "string"
        },
        {
          "internalType": "string",
          "name": "_did",
          "type": "string"
        }
      ],
      "name": "authenticateOperatorWithDID",
      "outputs": [],
      "stateMutability": "nonpayable",
      "type": "function"
    },
    {
      "inputs": [
        {
          "internalType": "address",
          "name": "newAdmin",
          "type": "address"
        }
      ],
      "name": "changeAdmin",
      "outputs": [],
      "stateMutability": "nonpayable",
      "type": "function"
    },
    {
      "inputs": [
        {
          "internalType": "address",
          "name": "_operatorAddress",
          "type": "address"
        },
        {
          "internalType": "string",
          "name": "_operatorName",
          "type": "string"
        }
      ],
      "name": "changeOperatorName",
      "outputs": [],
      "stateMutability": "nonpayable",
      "type": "function"
    },
    {
      "inputs": [
        {
          "internalType": "address",
          "name": "_address",
          "type": "address"
        },
        {
          "internalType": "uint256",
          "name": "timeValid",
          "type": "uint256"
        }
      ],
      "name": "checkAuthenticated",
      "outputs": [
        {
          "internalType": "bool",
          "name": "",
          "type": "bool"
        }
      ],
      "stateMutability": "view",
      "type": "function"
    },
    {
      "inputs": [
        {
          "internalType": "address",
          "name": "_address",
          "type": "address"
        }
      ],
      "name": "checkAuthenticatedOnce",
      "outputs": [
        {
          "internalType": "bool",
          "name": "",
          "type": "bool"
        }
      ],
      "stateMutability": "view",
      "type": "function"
    },
    {
      "inputs": [],
      "name": "getActiveCapTablesCount",
      "outputs": [
        {
          "internalType": "uint256",
          "name": "activeCapTables",
          "type": "uint256"
        }
      ],
      "stateMutability": "view",
      "type": "function"
    },
    {
      "inputs": [
        {
          "internalType": "string",
          "name": "id",
          "type": "string"
        }
      ],
      "name": "getAddress",
      "outputs": [
        {
          "internalType": "address",
          "name": "capTableAddress",
          "type": "address"
        }
      ],
      "stateMutability": "view",
      "type": "function"
    },
    {
      "inputs": [],
      "name": "getCapTableList",
      "outputs": [
        {
          "internalType": "address[]",
          "name": "capTableList",
          "type": "address[]"
        }
      ],
      "stateMutability": "view",
      "type": "function"
    },
    {
      "inputs": [
        {
          "internalType": "address",
          "name": "adr",
          "type": "address"
        }
      ],
      "name": "getId",
      "outputs": [
        {
          "internalType": "string",
          "name": "id",
          "type": "string"
        }
      ],
      "stateMutability": "view",
      "type": "function"
    },
    {
      "inputs": [
        {
          "internalType": "address",
          "name": "adr",
          "type": "address"
        }
      ],
      "name": "getOperatorDID",
      "outputs": [
        {
          "internalType": "string",
          "name": "",
          "type": "string"
        }
      ],
      "stateMutability": "view",
      "type": "function"
    },
    {
      "inputs": [
        {
          "internalType": "address",
          "name": "adr",
          "type": "address"
        }
      ],
      "name": "getOperatorForCapTable",
      "outputs": [
        {
          "internalType": "address",
          "name": "",
          "type": "address"
        }
      ],
      "stateMutability": "view",
      "type": "function"
    },
    {
      "inputs": [
        {
          "internalType": "address",
          "name": "_operatorAddress",
          "type": "address"
        }
      ],
      "name": "getOperatorName",
      "outputs": [
        {
          "internalType": "string",
          "name": "",
          "type": "string"
        }
      ],
      "stateMutability": "view",
      "type": "function"
    },
    {
      "inputs": [
        {
          "internalType": "address",
          "name": "_address",
          "type": "address"
        }
      ],
      "name": "getOperatorOf",
      "outputs": [
        {
          "internalType": "address",
          "name": "",
          "type": "address"
        }
      ],
      "stateMutability": "view",
      "type": "function"
    },
    {
      "inputs": [
        {
          "internalType": "bytes32",
          "name": "role",
          "type": "bytes32"
        }
      ],
      "name": "getRoleAdmin",
      "outputs": [
        {
          "internalType": "bytes32",
          "name": "",
          "type": "bytes32"
        }
      ],
      "stateMutability": "view",
      "type": "function"
    },
    {
      "inputs": [
        {
          "internalType": "address",
          "name": "adr",
          "type": "address"
        }
      ],
      "name": "getStatus",
      "outputs": [
        {
          "internalType": "uint256",
          "name": "status",
          "type": "uint256"
        }
      ],
      "stateMutability": "view",
      "type": "function"
    },
    {
      "inputs": [
        {
          "internalType": "bytes32",
          "name": "role",
          "type": "bytes32"
        },
        {
          "internalType": "address",
          "name": "account",
          "type": "address"
        }
      ],
      "name": "grantRole",
      "outputs": [],
      "stateMutability": "nonpayable",
      "type": "function"
    },
    {
      "inputs": [
        {
          "internalType": "bytes32",
          "name": "role",
          "type": "bytes32"
        },
        {
          "internalType": "address",
          "name": "account",
          "type": "address"
        }
      ],
      "name": "hasRole",
      "outputs": [
        {
          "internalType": "bool",
          "name": "",
          "type": "bool"
        }
      ],
      "stateMutability": "view",
      "type": "function"
    },
    {
      "inputs": [
        {
          "internalType": "address",
          "name": "adr",
          "type": "address"
        }
      ],
      "name": "removeCapTable",
      "outputs": [],
      "stateMutability": "nonpayable",
      "type": "function"
    },
    {
      "inputs": [
        {
          "internalType": "bytes32",
          "name": "role",
          "type": "bytes32"
        },
        {
          "internalType": "address",
          "name": "account",
          "type": "address"
        }
      ],
      "name": "renounceRole",
      "outputs": [],
      "stateMutability": "nonpayable",
      "type": "function"
    },
    {
      "inputs": [
        {
          "internalType": "address",
          "name": "_address",
          "type": "address"
        }
      ],
      "name": "revokeAuthenticationContract",
      "outputs": [],
      "stateMutability": "nonpayable",
      "type": "function"
    },
    {
      "inputs": [
        {
          "internalType": "address",
          "name": "_address",
          "type": "address"
        }
      ],
      "name": "revokeAuthenticationPerson",
      "outputs": [],
      "stateMutability": "nonpayable",
      "type": "function"
    },
    {
      "inputs": [
        {
          "internalType": "address",
          "name": "operator",
          "type": "address"
        }
      ],
      "name": "revokeOperator",
      "outputs": [],
      "stateMutability": "nonpayable",
      "type": "function"
    },
    {
      "inputs": [
        {
          "internalType": "bytes32",
          "name": "role",
          "type": "bytes32"
        },
        {
          "internalType": "address",
          "name": "account",
          "type": "address"
        }
      ],
      "name": "revokeRole",
      "outputs": [],
      "stateMutability": "nonpayable",
      "type": "function"
    },
    {
      "inputs": [
        {
          "internalType": "address",
          "name": "_address",
          "type": "address"
        }
      ],
      "name": "setAuthenticatedContract",
      "outputs": [],
      "stateMutability": "nonpayable",
      "type": "function"
    },
    {
      "inputs": [
        {
          "internalType": "address",
          "name": "_address",
          "type": "address"
        }
      ],
      "name": "setAuthenticatedPerson",
      "outputs": [],
      "stateMutability": "nonpayable",
      "type": "function"
    },
    {
      "inputs": [
        {
          "internalType": "bytes4",
          "name": "interfaceId",
          "type": "bytes4"
        }
      ],
      "name": "supportsInterface",
      "outputs": [
        {
          "internalType": "bool",
          "name": "",
          "type": "bool"
        }
      ],
      "stateMutability": "view",
      "type": "function"
    }
  ],
  "bytecode": "0x608060405234801561001057600080fd5b5061001c60003361004b565b6100467f97667070c54ef182b0f5858b034beac1b6f3089aa2d3188bb1e8929f4fa9b9293361004b565b6100ea565b6000828152602081815260408083206001600160a01b038516845290915290205460ff166100e6576000828152602081815260408083206001600160a01b03851684529091529020805460ff191660011790556100a53390565b6001600160a01b0316816001600160a01b0316837f2f8788117e7eff1d82e926ec794901d17c78024a50270940304540a733656f0d60405160405180910390a45b5050565b611b4480620000fa6000396000f3fe608060405234801561001057600080fd5b506004361061015f5760003560e01c806301ffc9a7146101645780630e77f7341461018c5780631a24cd8f146101ac578063248a9ca3146101c1578063265967b4146101e25780632f2ff15d146101f557806330ccebb51461020857806336568abe1461023157806359fa131b146102445780635c7c363b1461026f57806365f68c89146102825780636ceb121c14610295578063757fa2a5146102aa5780637f7fe058146102b25780638938119e146102de5780638f283970146102f157806391d148541461030457806391e6afa714610317578063936d76e31461032a578063a0e0ce3d1461033d578063a217fddf14610350578063b3cf6e5214610358578063bf40fac11461036b578063d547741f1461037e578063e32313ab14610391578063f1801c99146103a4578063f4f3d37b146103b7578063f5b541a6146103ca578063fad8b32a146103df575b600080fd5b61017761017236600461186d565b6103f2565b60405190151581526020015b60405180910390f35b61019f61019a366004611711565b610429565b60405161018391906119c0565b6101bf6101ba36600461172c565b610503565b005b6101d46101cf366004611828565b610743565b604051908152602001610183565b6101bf6101f0366004611711565b610758565b6101bf610203366004611841565b610804565b6101d4610216366004611711565b6001600160a01b031660009081526008602052604090205490565b6101bf61023f366004611841565b610825565b610257610252366004611711565b6108a3565b6040516001600160a01b039091168152602001610183565b6101bf61027d366004611711565b6108ec565b61019f610290366004611711565b610a17565b61029d610a3e565b6040516101839190611973565b6005546101d4565b6102576102c0366004611711565b6001600160a01b039081166000908152600160205260409020541690565b6101bf6102ec366004611711565b610aa0565b6101bf6102ff366004611711565b610bee565b610177610312366004611841565b610c07565b6101bf610325366004611711565b610c30565b6101bf61033836600461177e565b610d65565b61019f61034b366004611711565b610de5565b6101d4600081565b6101bf61036636600461172c565b610e0c565b610257610379366004611897565b610e41565b6101bf61038c366004611841565b610e76565b6101bf61039f366004611711565b610e92565b6101776103b2366004611711565b61110b565b6101776103c53660046117fe565b61118e565b6101d4600080516020611aef83398151915281565b6101bf6103ed366004611711565b61128f565b60006001600160e01b03198216637965db0b60e01b148061042357506301ffc9a760e01b6001600160e01b03198316145b92915050565b6060610443600080516020611aef83398151915283610c07565b61045c5760405180602001604052806000815250610423565b6001600160a01b0382166000908152600a60205260409020805461047f90611a71565b80601f01602080910402602001604051908101604052809291908181526020018280546104ab90611a71565b80156104f85780601f106104cd576101008083540402835291602001916104f8565b820191906000526020600020905b8154815290600101906020018083116104db57829003601f168201915b505050505092915050565b600080516020611aef83398151915261051b816112a7565b60006001600160a01b0316600784846040516105389291906118d8565b908152604051908190036020019020546001600160a01b03161461059b5760405162461bcd60e51b8152602060048201526015602482015274696420697320616c6c726561647920696e2075736560581b60448201526064015b60405180910390fd5b6001600160a01b038416600090815260066020526040812080546105be90611a71565b15915081905061060d5760405162461bcd60e51b815260206004820152601a6024820152796164647265737320697320616c6c726561647920696e2075736560301b6044820152606401610592565b600480546001810182556000919091527f8a35acfbc15ff81a39ae7d344fd709f28e8600b4aa8c65c6b64bfe7fe36bd19b0180546001600160a01b0319166001600160a01b038716179055604051859060079061066d90879087906118d8565b908152604080516020928190038301902080546001600160a01b0319166001600160a01b0394851617905591871660009081526006909152206106b19085856115a0565b506005805460010190556001600160a01b038516600090815260096020908152604080832080546001600160a01b03191633179055600890915290819020600290555161070190859085906118d8565b604051908190038120906001600160a01b038716907f1f680ae2258d5672c8d8f3f2e4e5d4a4ee688f56e74c9ee8ef327c3d1205247390600090a35050505050565b60009081526020819052604090206001015490565b6001600160a01b038181166000908152600160205260409020541633146107e75760405162461bcd60e51b815260206004820152603e60248201527f4f6e6c7920746865206f70657261746f7220746861742061757468656e74696360448201527f617465642074686520616464726573732063616e207265766f6b6520697400006064820152608401610592565b6001600160a01b0316600090815260016020819052604082200155565b61080d82610743565b610816816112a7565b61082083836112b1565b505050565b6001600160a01b03811633146108955760405162461bcd60e51b815260206004820152602f60248201527f416363657373436f6e74726f6c3a2063616e206f6e6c792072656e6f756e636560448201526e103937b632b9903337b91039b2b63360891b6064820152608401610592565b61089f8282611335565b5050565b6001600160a01b038082166000908152600960205260408120549091166108d8600080516020611aef83398151915282610c07565b6108e35760006108e5565b805b9392505050565b33600090815260016020819052604090912001546109585760405162461bcd60e51b8152602060048201526024808201527f4d73672e73656e646572206e6565647320746f2062652061757468656e746963604482015263185d195960e21b6064820152608401610592565b6001600160a01b0381811660009081526002602052604090205416156109c05760405162461bcd60e51b815260206004820152601e60248201527f436f6e747261637420616c72656164792061757468656e7469636174656400006044820152606401610592565b6001600160a01b03811660008181526002602052604080822080546001600160a01b0319163390811790915590519092917f6923f8bdded817154d389a68dd1653189da4bb64316742f2e8715f5666fe765291a350565b6001600160a01b038116600090815260066020526040902080546060919061047f90611a71565b60606004805480602002602001604051908101604052809291908181526020018280548015610a9657602002820191906000526020600020905b81546001600160a01b03168152600190910190602001808311610a78575b5050505050905090565b600080516020611aef833981519152610ab8816112a7565b6001600160a01b038281166000908152600160205260409020541615610b76576001600160a01b03828116600090815260016020526040902054163314610b765760405162461bcd60e51b815260206004820152604660248201527f41206e6577206f70657261746f722063616e206e6f742061757468656e74696360448201527f61746520612077616c6c6574206f776e656420627920616e6f74686572206f7060648201526532b930ba37b960d11b608482015260a401610592565b6040805180820182523381524260208083019182526001600160a01b038681166000818152600193849052868120955186546001600160a01b03191693169290921785559251939091019290925591517fa9586a145b7f42b11f0f9c50b278e7859233b30d9908848bc7c43e3c3a6895c29190a25050565b610bf9600082610804565b610c04600033610e76565b50565b6000918252602082815260408084206001600160a01b0393909316845291905290205460ff1690565b6001600160a01b03808216600090815260026020908152604080832054841680845260019092529091205490911633821480610c7457506001600160a01b03811633145b610cf85760405162461bcd60e51b815260206004820152604960248201527f4f6e6c7920746865206f776e6572206f662074686520636f6e7472616374206f60448201527f722069742773206f70657261746f722063616e207265766f6b65206175746865606482015268373a34b1b0ba34b7b760b91b608482015260a401610592565b6001600160a01b038084166000818152600260205260408082205490519316927f23dd6441bb4f9d75ec0b57c0dcc3825318a042cb2b024bb8c89dfaf77dbe0e5a9190a350506001600160a01b0316600090815260026020526040902080546001600160a01b0319169055565b600080516020611aef833981519152610d7d816112a7565b6001600160a01b0386166000908152600360205260409020610da09086866115a0565b50610db9600080516020611aef83398151915287610804565b6001600160a01b0386166000908152600a60205260409020610ddc9084846115a0565b50505050505050565b6001600160a01b038116600090815260036020526040902080546060919061047f90611a71565b6000610e17816112a7565b6001600160a01b0384166000908152600360205260409020610e3a9084846115a0565b5050505050565b600060078383604051610e559291906118d8565b908152604051908190036020019020546001600160a01b0316905092915050565b610e7f82610743565b610e88816112a7565b6108208383611335565b600080516020611aef833981519152610eaa816112a7565b6001600160a01b03821660009081526006602052604081208054610ecd90611a71565b80601f0160208091040260200160405190810160405280929190818152602001828054610ef990611a71565b8015610f465780601f10610f1b57610100808354040283529160200191610f46565b820191906000526020600020905b815481529060010190602001808311610f2957829003601f168201915b5050505050905060006001600160a01b0316600782604051610f6891906118e8565b908152604051908190036020019020546001600160a01b03161415610fcd5760405162461bcd60e51b815260206004820152601b60248201527a1b9bc81859191c995cdcc81c9959da5cdd195c9959081bdb881a59602a1b6044820152606401610592565b805115801561101c5760405162461bcd60e51b815260206004820152601b60248201527a6e6f2069642072656769737465726564206f6e206164647265737360281b6044820152606401610592565b600060078360405161102e91906118e8565b908152604080516020928190038301812080546001600160a01b0319166001600160a01b039586161790558281018083526000808352948916855260069093529220915161107d929190611624565b50600580546000190190556001600160a01b038416600090815260096020908152604080832080546001600160a01b031916905560089091529081902060049055516110ca9083906118e8565b604051908190038120906001600160a01b038616907f354a20d8f57c2c26bc5615304de4d496a4b210244ad6f04f55f67e035acc904290600090a350505050565b600080611126600080516020611aef83398151915284610c07565b806111375750611137600084610c07565b6001600160a01b03848116600081815260026020908152604080832054600192839052922001549394509091161515911515901582806111745750815b8061117c5750835b806111845750805b9695505050505050565b60006111a8600080516020611aef83398151915284610c07565b806111b957506111b9600084610c07565b156111c657506001610423565b6001600160a01b038381166000908152600260205260409020541615611220576001600160a01b03808416600090815260026020908152604080832054909316825260019081905291902001541561122057506001610423565b6001600160a01b0383166000908152600160208190526040909120015415611286576001600160a01b0383166000908152600160208190526040822001549061126984836119f3565b90506000808311801561127b57508142105b935061042392505050565b50600092915050565b610c04600080516020611aef83398151915282610e76565b610c04813361139a565b6112bb8282610c07565b61089f576000828152602081815260408083206001600160a01b03851684529091529020805460ff191660011790556112f13390565b6001600160a01b0316816001600160a01b0316837f2f8788117e7eff1d82e926ec794901d17c78024a50270940304540a733656f0d60405160405180910390a45050565b61133f8282610c07565b1561089f576000828152602081815260408083206001600160a01b0385168085529252808320805460ff1916905551339285917ff6391f5c32d9c69d2a47ea670b442974b53935d1edc7fd64eb21e047a839171b9190a45050565b6113a48282610c07565b61089f576113b1816113f3565b6113bc836020611405565b6040516020016113cd929190611904565b60408051601f198184030181529082905262461bcd60e51b8252610592916004016119c0565b60606104236001600160a01b03831660145b60606000611414836002611a0b565b61141f9060026119f3565b6001600160401b0381111561143657611436611ad8565b6040519080825280601f01601f191660200182016040528015611460576020820181803683370190505b509050600360fc1b8160008151811061147b5761147b611ac2565b60200101906001600160f81b031916908160001a905350600f60fb1b816001815181106114aa576114aa611ac2565b60200101906001600160f81b031916908160001a90535060006114ce846002611a0b565b6114d99060016119f3565b90505b6001811115611551576f181899199a1a9b1b9c1cb0b131b232b360811b85600f166010811061150d5761150d611ac2565b1a60f81b82828151811061152357611523611ac2565b60200101906001600160f81b031916908160001a90535060049490941c9361154a81611a5a565b90506114dc565b5083156108e55760405162461bcd60e51b815260206004820181905260248201527f537472696e67733a20686578206c656e67746820696e73756666696369656e746044820152606401610592565b8280546115ac90611a71565b90600052602060002090601f0160209004810192826115ce5760008555611614565b82601f106115e75782800160ff19823516178555611614565b82800160010185558215611614579182015b828111156116145782358255916020019190600101906115f9565b50611620929150611698565b5090565b82805461163090611a71565b90600052602060002090601f0160209004810192826116525760008555611614565b82601f1061166b57805160ff1916838001178555611614565b82800160010185558215611614579182015b8281111561161457825182559160200191906001019061167d565b5b808211156116205760008155600101611699565b80356001600160a01b03811681146116c457600080fd5b919050565b60008083601f8401126116db57600080fd5b5081356001600160401b038111156116f257600080fd5b60208301915083602082850101111561170a57600080fd5b9250929050565b60006020828403121561172357600080fd5b6108e5826116ad565b60008060006040848603121561174157600080fd5b61174a846116ad565b925060208401356001600160401b0381111561176557600080fd5b611771868287016116c9565b9497909650939450505050565b60008060008060006060868803121561179657600080fd5b61179f866116ad565b945060208601356001600160401b03808211156117bb57600080fd5b6117c789838a016116c9565b909650945060408801359150808211156117e057600080fd5b506117ed888289016116c9565b969995985093965092949392505050565b6000806040838503121561181157600080fd5b61181a836116ad565b946020939093013593505050565b60006020828403121561183a57600080fd5b5035919050565b6000806040838503121561185457600080fd5b82359150611864602084016116ad565b90509250929050565b60006020828403121561187f57600080fd5b81356001600160e01b0319811681146108e557600080fd5b600080602083850312156118aa57600080fd5b82356001600160401b038111156118c057600080fd5b6118cc858286016116c9565b90969095509350505050565b8183823760009101908152919050565b600082516118fa818460208701611a2a565b9190910192915050565b76020b1b1b2b9b9a1b7b73a3937b61d1030b1b1b7bab73a1604d1b815260008351611936816017850160208801611a2a565b7001034b99036b4b9b9b4b733903937b6329607d1b6017918401918201528351611967816028840160208801611a2a565b01602801949350505050565b6020808252825182820181905260009190848201906040850190845b818110156119b45783516001600160a01b03168352928401929184019160010161198f565b50909695505050505050565b60208152600082518060208401526119df816040850160208701611a2a565b601f01601f19169190910160400192915050565b60008219821115611a0657611a06611aac565b500190565b6000816000190483118215151615611a2557611a25611aac565b500290565b60005b83811015611a45578181015183820152602001611a2d565b83811115611a54576000848401525b50505050565b600081611a6957611a69611aac565b506000190190565b600181811c90821680611a8557607f821691505b60208210811415611aa657634e487b7160e01b600052602260045260246000fd5b50919050565b634e487b7160e01b600052601160045260246000fd5b634e487b7160e01b600052603260045260246000fd5b634e487b7160e01b600052604160045260246000fdfe97667070c54ef182b0f5858b034beac1b6f3089aa2d3188bb1e8929f4fa9b929a264697066735822122043ec77608af566aac26dbec8f14ae521a68e80c2399bab8a44bcf60850af1fa564736f6c63430008070033",
  "linkReferences": {},
  "deployedLinkReferences": {}
}