{
  "_format": "hh-sol-artifact-1",
  "contractName": "CapTable",
  "sourceName": "contracts/capTable/CapTable.sol",
  "abi": [
    {
      "inputs": [
        {
          "internalType": "string",
          "name": "name",
          "type": "string"
        },
        {
          "internalType": "string",
          "name": "orgnr",
          "type": "string"
        },
        {
          "internalType": "uint256",
          "name": "granularity",
          "type": "uint256"
        },
        {
          "internalType": "address[]",
          "name": "controllers",
          "type": "address[]"
        },
        {
          "internalType": "bytes32[]",
          "name": "defaultPartitions",
          "type": "bytes32[]"
        },
        {
          "internalType": "address",
          "name": "capTableRegistry",
          "type": "address"
        }
      ],
      "stateMutability": "nonpayable",
      "type": "constructor"
    },
    {
      "anonymous": false,
      "inputs": [
        {
          "indexed": true,
          "internalType": "address",
          "name": "owner",
          "type": "address"
        },
        {
          "indexed": true,
          "internalType": "address",
          "name": "spender",
          "type": "address"
        },
        {
          "indexed": false,
          "internalType": "uint256",
          "name": "value",
          "type": "uint256"
        }
      ],
      "name": "Approval",
      "type": "event"
    },
    {
      "anonymous": false,
      "inputs": [
        {
          "indexed": true,
          "internalType": "bytes32",
          "name": "partition",
          "type": "bytes32"
        },
        {
          "indexed": true,
          "internalType": "address",
          "name": "owner",
          "type": "address"
        },
        {
          "indexed": true,
          "internalType": "address",
          "name": "spender",
          "type": "address"
        },
        {
          "indexed": false,
          "internalType": "uint256",
          "name": "value",
          "type": "uint256"
        }
      ],
      "name": "ApprovalByPartition",
      "type": "event"
    },
    {
      "anonymous": false,
      "inputs": [
        {
          "indexed": true,
          "internalType": "address",
          "name": "operator",
          "type": "address"
        },
        {
          "indexed": true,
          "internalType": "address",
          "name": "tokenHolder",
          "type": "address"
        }
      ],
      "name": "AuthorizedOperator",
      "type": "event"
    },
    {
      "anonymous": false,
      "inputs": [
        {
          "indexed": true,
          "internalType": "bytes32",
          "name": "partition",
          "type": "bytes32"
        },
        {
          "indexed": true,
          "internalType": "address",
          "name": "operator",
          "type": "address"
        },
        {
          "indexed": true,
          "internalType": "address",
          "name": "tokenHolder",
          "type": "address"
        }
      ],
      "name": "AuthorizedOperatorByPartition",
      "type": "event"
    },
    {
      "anonymous": false,
      "inputs": [
        {
          "indexed": true,
          "internalType": "string",
          "name": "orgnr",
          "type": "string"
        },
        {
          "indexed": true,
          "internalType": "address",
          "name": "oldFagsystem",
          "type": "address"
        },
        {
          "indexed": true,
          "internalType": "address",
          "name": "newFagsystem",
          "type": "address"
        }
      ],
      "name": "CaptableChangedFagsystem",
      "type": "event"
    },
    {
      "anonymous": false,
      "inputs": [
        {
          "indexed": true,
          "internalType": "bytes32",
          "name": "fromPartition",
          "type": "bytes32"
        },
        {
          "indexed": true,
          "internalType": "bytes32",
          "name": "toPartition",
          "type": "bytes32"
        },
        {
          "indexed": false,
          "internalType": "uint256",
          "name": "value",
          "type": "uint256"
        }
      ],
      "name": "ChangedPartition",
      "type": "event"
    },
    {
      "anonymous": false,
      "inputs": [
        {
          "indexed": true,
          "internalType": "bytes32",
          "name": "name",
          "type": "bytes32"
        },
        {
          "indexed": false,
          "internalType": "string",
          "name": "uri",
          "type": "string"
        },
        {
          "indexed": false,
          "internalType": "bytes32",
          "name": "documentHash",
          "type": "bytes32"
        }
      ],
      "name": "DocumentRemoved",
      "type": "event"
    },
    {
      "anonymous": false,
      "inputs": [
        {
          "indexed": true,
          "internalType": "bytes32",
          "name": "name",
          "type": "bytes32"
        },
        {
          "indexed": false,
          "internalType": "string",
          "name": "uri",
          "type": "string"
        },
        {
          "indexed": false,
          "internalType": "bytes32",
          "name": "documentHash",
          "type": "bytes32"
        }
      ],
      "name": "DocumentUpdated",
      "type": "event"
    },
    {
      "anonymous": false,
      "inputs": [
        {
          "indexed": true,
          "internalType": "address",
          "name": "operator",
          "type": "address"
        },
        {
          "indexed": true,
          "internalType": "address",
          "name": "to",
          "type": "address"
        },
        {
          "indexed": false,
          "internalType": "uint256",
          "name": "value",
          "type": "uint256"
        },
        {
          "indexed": false,
          "internalType": "bytes",
          "name": "data",
          "type": "bytes"
        }
      ],
      "name": "Issued",
      "type": "event"
    },
    {
      "anonymous": false,
      "inputs": [
        {
          "indexed": true,
          "internalType": "bytes32",
          "name": "partition",
          "type": "bytes32"
        },
        {
          "indexed": true,
          "internalType": "address",
          "name": "operator",
          "type": "address"
        },
        {
          "indexed": true,
          "internalType": "address",
          "name": "to",
          "type": "address"
        },
        {
          "indexed": false,
          "internalType": "uint256",
          "name": "value",
          "type": "uint256"
        },
        {
          "indexed": false,
          "internalType": "bytes",
          "name": "data",
          "type": "bytes"
        },
        {
          "indexed": false,
          "internalType": "bytes",
          "name": "operatorData",
          "type": "bytes"
        }
      ],
      "name": "IssuedByPartition",
      "type": "event"
    },
    {
      "anonymous": false,
      "inputs": [
        {
          "indexed": true,
          "internalType": "address",
          "name": "account",
          "type": "address"
        }
      ],
      "name": "MinterAdded",
      "type": "event"
    },
    {
      "anonymous": false,
      "inputs": [
        {
          "indexed": true,
          "internalType": "address",
          "name": "account",
          "type": "address"
        }
      ],
      "name": "MinterRemoved",
      "type": "event"
    },
    {
      "anonymous": false,
      "inputs": [
        {
          "indexed": true,
          "internalType": "string",
          "name": "orgnr",
          "type": "string"
        },
        {
          "indexed": true,
          "internalType": "address",
          "name": "fagsystem",
          "type": "address"
        }
      ],
      "name": "NewCapTable",
      "type": "event"
    },
    {
      "anonymous": false,
      "inputs": [
        {
          "indexed": true,
          "internalType": "address",
          "name": "previousOwner",
          "type": "address"
        },
        {
          "indexed": true,
          "internalType": "address",
          "name": "newOwner",
          "type": "address"
        }
      ],
      "name": "OwnershipTransferred",
      "type": "event"
    },
    {
      "anonymous": false,
      "inputs": [
        {
          "indexed": true,
          "internalType": "address",
          "name": "operator",
          "type": "address"
        },
        {
          "indexed": true,
          "internalType": "address",
          "name": "from",
          "type": "address"
        },
        {
          "indexed": false,
          "internalType": "uint256",
          "name": "value",
          "type": "uint256"
        },
        {
          "indexed": false,
          "internalType": "bytes",
          "name": "data",
          "type": "bytes"
        }
      ],
      "name": "Redeemed",
      "type": "event"
    },
    {
      "anonymous": false,
      "inputs": [
        {
          "indexed": true,
          "internalType": "bytes32",
          "name": "partition",
          "type": "bytes32"
        },
        {
          "indexed": true,
          "internalType": "address",
          "name": "operator",
          "type": "address"
        },
        {
          "indexed": true,
          "internalType": "address",
          "name": "from",
          "type": "address"
        },
        {
          "indexed": false,
          "internalType": "uint256",
          "name": "value",
          "type": "uint256"
        },
        {
          "indexed": false,
          "internalType": "bytes",
          "name": "operatorData",
          "type": "bytes"
        }
      ],
      "name": "RedeemedByPartition",
      "type": "event"
    },
    {
      "anonymous": false,
      "inputs": [
        {
          "indexed": true,
          "internalType": "address",
          "name": "operator",
          "type": "address"
        },
        {
          "indexed": true,
          "internalType": "address",
          "name": "tokenHolder",
          "type": "address"
        }
      ],
      "name": "RevokedOperator",
      "type": "event"
    },
    {
      "anonymous": false,
      "inputs": [
        {
          "indexed": true,
          "internalType": "bytes32",
          "name": "partition",
          "type": "bytes32"
        },
        {
          "indexed": true,
          "internalType": "address",
          "name": "operator",
          "type": "address"
        },
        {
          "indexed": true,
          "internalType": "address",
          "name": "tokenHolder",
          "type": "address"
        }
      ],
      "name": "RevokedOperatorByPartition",
      "type": "event"
    },
    {
      "anonymous": false,
      "inputs": [
        {
          "indexed": true,
          "internalType": "address",
          "name": "from",
          "type": "address"
        },
        {
          "indexed": true,
          "internalType": "address",
          "name": "to",
          "type": "address"
        },
        {
          "indexed": false,
          "internalType": "uint256",
          "name": "value",
          "type": "uint256"
        }
      ],
      "name": "Transfer",
      "type": "event"
    },
    {
      "anonymous": false,
      "inputs": [
        {
          "indexed": true,
          "internalType": "bytes32",
          "name": "fromPartition",
          "type": "bytes32"
        },
        {
          "indexed": false,
          "internalType": "address",
          "name": "operator",
          "type": "address"
        },
        {
          "indexed": true,
          "internalType": "address",
          "name": "from",
          "type": "address"
        },
        {
          "indexed": true,
          "internalType": "address",
          "name": "to",
          "type": "address"
        },
        {
          "indexed": false,
          "internalType": "uint256",
          "name": "value",
          "type": "uint256"
        },
        {
          "indexed": false,
          "internalType": "bytes",
          "name": "data",
          "type": "bytes"
        },
        {
          "indexed": false,
          "internalType": "bytes",
          "name": "operatorData",
          "type": "bytes"
        }
      ],
      "name": "TransferByPartition",
      "type": "event"
    },
    {
      "inputs": [
        {
          "internalType": "address",
          "name": "account",
          "type": "address"
        }
      ],
      "name": "addMinter",
      "outputs": [],
      "stateMutability": "nonpayable",
      "type": "function"
    },
    {
      "inputs": [
        {
          "internalType": "address",
          "name": "owner",
          "type": "address"
        },
        {
          "internalType": "address",
          "name": "spender",
          "type": "address"
        }
      ],
      "name": "allowance",
      "outputs": [
        {
          "internalType": "uint256",
          "name": "",
          "type": "uint256"
        }
      ],
      "stateMutability": "view",
      "type": "function"
    },
    {
      "inputs": [
        {
          "internalType": "bytes32",
          "name": "partition",
          "type": "bytes32"
        },
        {
          "internalType": "address",
          "name": "owner",
          "type": "address"
        },
        {
          "internalType": "address",
          "name": "spender",
          "type": "address"
        }
      ],
      "name": "allowanceByPartition",
      "outputs": [
        {
          "internalType": "uint256",
          "name": "",
          "type": "uint256"
        }
      ],
      "stateMutability": "view",
      "type": "function"
    },
    {
      "inputs": [
        {
          "internalType": "address",
          "name": "spender",
          "type": "address"
        },
        {
          "internalType": "uint256",
          "name": "value",
          "type": "uint256"
        }
      ],
      "name": "approve",
      "outputs": [
        {
          "internalType": "bool",
          "name": "",
          "type": "bool"
        }
      ],
      "stateMutability": "nonpayable",
      "type": "function"
    },
    {
      "inputs": [
        {
          "internalType": "bytes32",
          "name": "partition",
          "type": "bytes32"
        },
        {
          "internalType": "address",
          "name": "spender",
          "type": "address"
        },
        {
          "internalType": "uint256",
          "name": "value",
          "type": "uint256"
        }
      ],
      "name": "approveByPartition",
      "outputs": [
        {
          "internalType": "bool",
          "name": "",
          "type": "bool"
        }
      ],
      "stateMutability": "nonpayable",
      "type": "function"
    },
    {
      "inputs": [
        {
          "internalType": "address",
          "name": "operator",
          "type": "address"
        }
      ],
      "name": "authorizeOperator",
      "outputs": [],
      "stateMutability": "nonpayable",
      "type": "function"
    },
    {
      "inputs": [
        {
          "internalType": "bytes32",
          "name": "partition",
          "type": "bytes32"
        },
        {
          "internalType": "address",
          "name": "operator",
          "type": "address"
        }
      ],
      "name": "authorizeOperatorByPartition",
      "outputs": [],
      "stateMutability": "nonpayable",
      "type": "function"
    },
    {
      "inputs": [
        {
          "internalType": "address",
          "name": "tokenHolder",
          "type": "address"
        }
      ],
      "name": "balanceOf",
      "outputs": [
        {
          "internalType": "uint256",
          "name": "",
          "type": "uint256"
        }
      ],
      "stateMutability": "view",
      "type": "function"
    },
    {
      "inputs": [
        {
          "internalType": "bytes32",
          "name": "partition",
          "type": "bytes32"
        },
        {
          "internalType": "address",
          "name": "tokenHolder",
          "type": "address"
        }
      ],
      "name": "balanceOfByPartition",
      "outputs": [
        {
          "internalType": "uint256",
          "name": "",
          "type": "uint256"
        }
      ],
      "stateMutability": "view",
      "type": "function"
    },
    {
      "inputs": [
        {
          "internalType": "bytes32",
          "name": "interfaceHash",
          "type": "bytes32"
        },
        {
          "internalType": "address",
          "name": "",
          "type": "address"
        }
      ],
      "name": "canImplementInterfaceForAddress",
      "outputs": [
        {
          "internalType": "bytes32",
          "name": "",
          "type": "bytes32"
        }
      ],
      "stateMutability": "view",
      "type": "function"
    },
    {
      "inputs": [],
      "name": "controllers",
      "outputs": [
        {
          "internalType": "address[]",
          "name": "",
          "type": "address[]"
        }
      ],
      "stateMutability": "view",
      "type": "function"
    },
    {
      "inputs": [
        {
          "internalType": "bytes32",
          "name": "partition",
          "type": "bytes32"
        }
      ],
      "name": "controllersByPartition",
      "outputs": [
        {
          "internalType": "address[]",
          "name": "",
          "type": "address[]"
        }
      ],
      "stateMutability": "view",
      "type": "function"
    },
    {
      "inputs": [],
      "name": "decimals",
      "outputs": [
        {
          "internalType": "uint8",
          "name": "",
          "type": "uint8"
        }
      ],
      "stateMutability": "pure",
      "type": "function"
    },
    {
      "inputs": [],
      "name": "domainName",
      "outputs": [
        {
          "internalType": "string",
          "name": "",
          "type": "string"
        }
      ],
      "stateMutability": "view",
      "type": "function"
    },
    {
      "inputs": [],
      "name": "domainSeparator",
      "outputs": [
        {
          "internalType": "bytes32",
          "name": "",
          "type": "bytes32"
        }
      ],
      "stateMutability": "nonpayable",
      "type": "function"
    },
    {
      "inputs": [],
      "name": "domainVersion",
      "outputs": [
        {
          "internalType": "string",
          "name": "",
          "type": "string"
        }
      ],
      "stateMutability": "view",
      "type": "function"
    },
    {
      "inputs": [],
      "name": "generateDomainSeparator",
      "outputs": [
        {
          "internalType": "bytes32",
          "name": "",
          "type": "bytes32"
        }
      ],
      "stateMutability": "view",
      "type": "function"
    },
    {
      "inputs": [],
      "name": "getAllDocuments",
      "outputs": [
        {
          "internalType": "bytes32[]",
          "name": "",
          "type": "bytes32[]"
        }
      ],
      "stateMutability": "view",
      "type": "function"
    },
    {
      "inputs": [],
      "name": "getDefaultPartitions",
      "outputs": [
        {
          "internalType": "bytes32[]",
          "name": "",
          "type": "bytes32[]"
        }
      ],
      "stateMutability": "view",
      "type": "function"
    },
    {
      "inputs": [
        {
          "internalType": "bytes32",
          "name": "name",
          "type": "bytes32"
        }
      ],
      "name": "getDocument",
      "outputs": [
        {
          "internalType": "string",
          "name": "",
          "type": "string"
        },
        {
          "internalType": "bytes32",
          "name": "",
          "type": "bytes32"
        },
        {
          "internalType": "uint256",
          "name": "",
          "type": "uint256"
        }
      ],
      "stateMutability": "view",
      "type": "function"
    },
    {
      "inputs": [],
      "name": "getFagsystem",
      "outputs": [
        {
          "internalType": "address",
          "name": "",
          "type": "address"
        }
      ],
      "stateMutability": "view",
      "type": "function"
    },
    {
      "inputs": [],
      "name": "getFagsystemDid",
      "outputs": [
        {
          "internalType": "string",
          "name": "",
          "type": "string"
        }
      ],
      "stateMutability": "view",
      "type": "function"
    },
    {
      "inputs": [],
      "name": "getOrgnr",
      "outputs": [
        {
          "internalType": "string",
          "name": "",
          "type": "string"
        }
      ],
      "stateMutability": "view",
      "type": "function"
    },
    {
      "inputs": [],
      "name": "granularity",
      "outputs": [
        {
          "internalType": "uint256",
          "name": "",
          "type": "uint256"
        }
      ],
      "stateMutability": "view",
      "type": "function"
    },
    {
      "inputs": [],
      "name": "isControllable",
      "outputs": [
        {
          "internalType": "bool",
          "name": "",
          "type": "bool"
        }
      ],
      "stateMutability": "view",
      "type": "function"
    },
    {
      "inputs": [],
      "name": "isIssuable",
      "outputs": [
        {
          "internalType": "bool",
          "name": "",
          "type": "bool"
        }
      ],
      "stateMutability": "view",
      "type": "function"
    },
    {
      "inputs": [
        {
          "internalType": "address",
          "name": "account",
          "type": "address"
        }
      ],
      "name": "isMinter",
      "outputs": [
        {
          "internalType": "bool",
          "name": "",
          "type": "bool"
        }
      ],
      "stateMutability": "view",
      "type": "function"
    },
    {
      "inputs": [
        {
          "internalType": "address",
          "name": "operator",
          "type": "address"
        },
        {
          "internalType": "address",
          "name": "tokenHolder",
          "type": "address"
        }
      ],
      "name": "isOperator",
      "outputs": [
        {
          "internalType": "bool",
          "name": "",
          "type": "bool"
        }
      ],
      "stateMutability": "view",
      "type": "function"
    },
    {
      "inputs": [
        {
          "internalType": "bytes32",
          "name": "partition",
          "type": "bytes32"
        },
        {
          "internalType": "address",
          "name": "operator",
          "type": "address"
        },
        {
          "internalType": "address",
          "name": "tokenHolder",
          "type": "address"
        }
      ],
      "name": "isOperatorForPartition",
      "outputs": [
        {
          "internalType": "bool",
          "name": "",
          "type": "bool"
        }
      ],
      "stateMutability": "view",
      "type": "function"
    },
    {
      "inputs": [
        {
          "internalType": "address",
          "name": "tokenHolder",
          "type": "address"
        },
        {
          "internalType": "uint256",
          "name": "value",
          "type": "uint256"
        },
        {
          "internalType": "bytes",
          "name": "data",
          "type": "bytes"
        }
      ],
      "name": "issue",
      "outputs": [],
      "stateMutability": "nonpayable",
      "type": "function"
    },
    {
      "inputs": [
        {
          "internalType": "bytes32",
          "name": "partition",
          "type": "bytes32"
        },
        {
          "internalType": "address",
          "name": "tokenHolder",
          "type": "address"
        },
        {
          "internalType": "uint256",
          "name": "value",
          "type": "uint256"
        },
        {
          "internalType": "bytes",
          "name": "data",
          "type": "bytes"
        }
      ],
      "name": "issueByPartition",
      "outputs": [],
      "stateMutability": "nonpayable",
      "type": "function"
    },
    {
      "inputs": [
        {
          "internalType": "address",
          "name": "newContractAddress",
          "type": "address"
        },
        {
          "internalType": "bool",
          "name": "definitive",
          "type": "bool"
        }
      ],
      "name": "migrate",
      "outputs": [],
      "stateMutability": "nonpayable",
      "type": "function"
    },
    {
      "inputs": [],
      "name": "name",
      "outputs": [
        {
          "internalType": "string",
          "name": "",
          "type": "string"
        }
      ],
      "stateMutability": "view",
      "type": "function"
    },
    {
      "inputs": [
        {
          "internalType": "bytes32",
          "name": "partition",
          "type": "bytes32"
        },
        {
          "internalType": "address",
          "name": "tokenHolder",
          "type": "address"
        },
        {
          "internalType": "uint256",
          "name": "value",
          "type": "uint256"
        },
        {
          "internalType": "bytes",
          "name": "operatorData",
          "type": "bytes"
        }
      ],
      "name": "operatorRedeemByPartition",
      "outputs": [],
      "stateMutability": "nonpayable",
      "type": "function"
    },
    {
      "inputs": [
        {
          "internalType": "bytes32",
          "name": "partition",
          "type": "bytes32"
        },
        {
          "internalType": "address",
          "name": "from",
          "type": "address"
        },
        {
          "internalType": "address",
          "name": "to",
          "type": "address"
        },
        {
          "internalType": "uint256",
          "name": "value",
          "type": "uint256"
        },
        {
          "internalType": "bytes",
          "name": "data",
          "type": "bytes"
        },
        {
          "internalType": "bytes",
          "name": "operatorData",
          "type": "bytes"
        }
      ],
      "name": "operatorTransferByPartition",
      "outputs": [
        {
          "internalType": "bytes32",
          "name": "",
          "type": "bytes32"
        }
      ],
      "stateMutability": "nonpayable",
      "type": "function"
    },
    {
      "inputs": [],
      "name": "owner",
      "outputs": [
        {
          "internalType": "address",
          "name": "",
          "type": "address"
        }
      ],
      "stateMutability": "view",
      "type": "function"
    },
    {
      "inputs": [
        {
          "internalType": "address",
          "name": "tokenHolder",
          "type": "address"
        }
      ],
      "name": "partitionsOf",
      "outputs": [
        {
          "internalType": "bytes32[]",
          "name": "",
          "type": "bytes32[]"
        }
      ],
      "stateMutability": "view",
      "type": "function"
    },
    {
      "inputs": [
        {
          "internalType": "uint256",
          "name": "value",
          "type": "uint256"
        },
        {
          "internalType": "bytes",
          "name": "data",
          "type": "bytes"
        }
      ],
      "name": "redeem",
      "outputs": [],
      "stateMutability": "nonpayable",
      "type": "function"
    },
    {
      "inputs": [
        {
          "internalType": "bytes32",
          "name": "partition",
          "type": "bytes32"
        },
        {
          "internalType": "uint256",
          "name": "value",
          "type": "uint256"
        },
        {
          "internalType": "bytes",
          "name": "data",
          "type": "bytes"
        }
      ],
      "name": "redeemByPartition",
      "outputs": [],
      "stateMutability": "nonpayable",
      "type": "function"
    },
    {
      "inputs": [
        {
          "internalType": "address",
          "name": "from",
          "type": "address"
        },
        {
          "internalType": "uint256",
          "name": "value",
          "type": "uint256"
        },
        {
          "internalType": "bytes",
          "name": "data",
          "type": "bytes"
        }
      ],
      "name": "redeemFrom",
      "outputs": [],
      "stateMutability": "nonpayable",
      "type": "function"
    },
    {
      "inputs": [
        {
          "internalType": "bytes32",
          "name": "_name",
          "type": "bytes32"
        }
      ],
      "name": "removeDocument",
      "outputs": [],
      "stateMutability": "nonpayable",
      "type": "function"
    },
    {
      "inputs": [
        {
          "internalType": "address",
          "name": "account",
          "type": "address"
        }
      ],
      "name": "removeMinter",
      "outputs": [],
      "stateMutability": "nonpayable",
      "type": "function"
    },
    {
      "inputs": [],
      "name": "renounceControl",
      "outputs": [],
      "stateMutability": "nonpayable",
      "type": "function"
    },
    {
      "inputs": [],
      "name": "renounceIssuance",
      "outputs": [],
      "stateMutability": "nonpayable",
      "type": "function"
    },
    {
      "inputs": [],
      "name": "renounceMinter",
      "outputs": [],
      "stateMutability": "nonpayable",
      "type": "function"
    },
    {
      "inputs": [],
      "name": "renounceOwnership",
      "outputs": [],
      "stateMutability": "nonpayable",
      "type": "function"
    },
    {
      "inputs": [
        {
          "internalType": "address",
          "name": "operator",
          "type": "address"
        }
      ],
      "name": "revokeOperator",
      "outputs": [],
      "stateMutability": "nonpayable",
      "type": "function"
    },
    {
      "inputs": [
        {
          "internalType": "bytes32",
          "name": "partition",
          "type": "bytes32"
        },
        {
          "internalType": "address",
          "name": "operator",
          "type": "address"
        }
      ],
      "name": "revokeOperatorByPartition",
      "outputs": [],
      "stateMutability": "nonpayable",
      "type": "function"
    },
    {
      "inputs": [
        {
          "internalType": "address",
          "name": "capTableRegistryAddress",
          "type": "address"
        }
      ],
      "name": "setCapTableRegistry",
      "outputs": [],
      "stateMutability": "nonpayable",
      "type": "function"
    },
    {
      "inputs": [
        {
          "internalType": "address[]",
          "name": "operators",
          "type": "address[]"
        }
      ],
      "name": "setControllers",
      "outputs": [],
      "stateMutability": "nonpayable",
      "type": "function"
    },
    {
      "inputs": [
        {
          "internalType": "bytes32[]",
          "name": "partitions",
          "type": "bytes32[]"
        }
      ],
      "name": "setDefaultPartitions",
      "outputs": [],
      "stateMutability": "nonpayable",
      "type": "function"
    },
    {
      "inputs": [
        {
          "internalType": "bytes32",
          "name": "name",
          "type": "bytes32"
        },
        {
          "internalType": "string",
          "name": "uri",
          "type": "string"
        },
        {
          "internalType": "bytes32",
          "name": "documentHash",
          "type": "bytes32"
        }
      ],
      "name": "setDocument",
      "outputs": [],
      "stateMutability": "nonpayable",
      "type": "function"
    },
    {
      "inputs": [
        {
          "internalType": "bytes32",
          "name": "partition",
          "type": "bytes32"
        },
        {
          "internalType": "address[]",
          "name": "operators",
          "type": "address[]"
        }
      ],
      "name": "setPartitionControllers",
      "outputs": [],
      "stateMutability": "nonpayable",
      "type": "function"
    },
    {
      "inputs": [
        {
          "internalType": "address",
          "name": "extension",
          "type": "address"
        },
        {
          "internalType": "string",
          "name": "interfaceLabel",
          "type": "string"
        },
        {
          "internalType": "bool",
          "name": "removeOldExtensionRoles",
          "type": "bool"
        },
        {
          "internalType": "bool",
          "name": "addMinterRoleForExtension",
          "type": "bool"
        },
        {
          "internalType": "bool",
          "name": "addControllerRoleForExtension",
          "type": "bool"
        }
      ],
      "name": "setTokenExtension",
      "outputs": [],
      "stateMutability": "nonpayable",
      "type": "function"
    },
    {
      "inputs": [],
      "name": "symbol",
      "outputs": [
        {
          "internalType": "string",
          "name": "",
          "type": "string"
        }
      ],
      "stateMutability": "view",
      "type": "function"
    },
    {
      "inputs": [],
      "name": "totalPartitions",
      "outputs": [
        {
          "internalType": "bytes32[]",
          "name": "",
          "type": "bytes32[]"
        }
      ],
      "stateMutability": "view",
      "type": "function"
    },
    {
      "inputs": [],
      "name": "totalSupply",
      "outputs": [
        {
          "internalType": "uint256",
          "name": "",
          "type": "uint256"
        }
      ],
      "stateMutability": "view",
      "type": "function"
    },
    {
      "inputs": [
        {
          "internalType": "bytes32",
          "name": "partition",
          "type": "bytes32"
        }
      ],
      "name": "totalSupplyByPartition",
      "outputs": [
        {
          "internalType": "uint256",
          "name": "",
          "type": "uint256"
        }
      ],
      "stateMutability": "view",
      "type": "function"
    },
    {
      "inputs": [
        {
          "internalType": "address",
          "name": "to",
          "type": "address"
        },
        {
          "internalType": "uint256",
          "name": "value",
          "type": "uint256"
        }
      ],
      "name": "transfer",
      "outputs": [
        {
          "internalType": "bool",
          "name": "",
          "type": "bool"
        }
      ],
      "stateMutability": "nonpayable",
      "type": "function"
    },
    {
      "inputs": [
        {
          "internalType": "bytes32",
          "name": "partition",
          "type": "bytes32"
        },
        {
          "internalType": "address",
          "name": "to",
          "type": "address"
        },
        {
          "internalType": "uint256",
          "name": "value",
          "type": "uint256"
        },
        {
          "internalType": "bytes",
          "name": "data",
          "type": "bytes"
        }
      ],
      "name": "transferByPartition",
      "outputs": [
        {
          "internalType": "bytes32",
          "name": "",
          "type": "bytes32"
        }
      ],
      "stateMutability": "nonpayable",
      "type": "function"
    },
    {
      "inputs": [
        {
          "internalType": "address",
          "name": "from",
          "type": "address"
        },
        {
          "internalType": "address",
          "name": "to",
          "type": "address"
        },
        {
          "internalType": "uint256",
          "name": "value",
          "type": "uint256"
        }
      ],
      "name": "transferFrom",
      "outputs": [
        {
          "internalType": "bool",
          "name": "",
          "type": "bool"
        }
      ],
      "stateMutability": "nonpayable",
      "type": "function"
    },
    {
      "inputs": [
        {
          "internalType": "address",
          "name": "from",
          "type": "address"
        },
        {
          "internalType": "address",
          "name": "to",
          "type": "address"
        },
        {
          "internalType": "uint256",
          "name": "value",
          "type": "uint256"
        },
        {
          "internalType": "bytes",
          "name": "data",
          "type": "bytes"
        }
      ],
      "name": "transferFromWithData",
      "outputs": [],
      "stateMutability": "nonpayable",
      "type": "function"
    },
    {
      "inputs": [
        {
          "internalType": "address",
          "name": "newOwner",
          "type": "address"
        }
      ],
      "name": "transferOwnership",
      "outputs": [],
      "stateMutability": "nonpayable",
      "type": "function"
    },
    {
      "inputs": [
        {
          "internalType": "address",
          "name": "to",
          "type": "address"
        },
        {
          "internalType": "uint256",
          "name": "value",
          "type": "uint256"
        },
        {
          "internalType": "bytes",
          "name": "data",
          "type": "bytes"
        }
      ],
      "name": "transferWithData",
      "outputs": [],
      "stateMutability": "nonpayable",
      "type": "function"
    },
    {
      "inputs": [],
      "name": "updateFagsystem",
      "outputs": [],
      "stateMutability": "nonpayable",
      "type": "function"
    }
  ],
  "bytecode": "0x60806040523480156200001157600080fd5b5060405162006e5f38038062006e5f8339810160408190526200003491620009b1565b85858585856200004d6200004762000241565b62000245565b620000583362000295565b62000062620002e7565b5084516200007890600490602088019062000709565b5083516200008e90600590602087019062000709565b5060006007556001831015620000a357600080fd5b6006839055620000b3826200031a565b8051620000c890601490602084019062000798565b506008805462ff00001961ff001990911661010017166201000017905560408051808201909152600c81526b22a921989a18182a37b5b2b760a11b602080830191909152620001239190309062002d6d6200042f821b17901c565b6200015c6040518060400160405280600a81526020016922a92199182a37b5b2b760b11b815250306200042f60201b62002d6d1760201c565b620001966040518060400160405280600c81526020016b22a921989a18182a37b5b2b760a11b815250620004d260201b62002e411760201c565b620001ce6040518060400160405280600a81526020016922a92199182a37b5b2b760b11b815250620004d260201b62002e411760201c565b5050604051339350620001e5925088915062000a80565b604051908190038120907fbaae3ce00d3ceedebee4e035d2bab26a15d5d5e0c97fa14e2dee257f25b077f690600090a3601c80546001600160a01b0319166001600160a01b03929092169190911790555062000c6d9350505050565b3390565b600080546001600160a01b038381166001600160a01b0319831681178455604051919092169283917f8be0079c531659141344cd1fd0a4f28419497f9722a3daafe3b4186f6b6457e09190a35050565b620002b08160026200052160201b62002eca1790919060201c565b6040516001600160a01b038216907f6ae172837ea30b801fbfcdd4108aa1d5bf8ff775444fd70256b44e6bf3dfc3f690600090a250565b600080620002f46200057b565b90506000620003026200057f565b60009283526003602052604090922082905550905090565b60005b6016548110156200039957600060176000601684815481106200035057634e487b7160e01b600052603260045260246000fd5b6000918252602080832091909101546001600160a01b031683528201929092526040019020805460ff191691151591909117905580620003908162000c2f565b9150506200031d565b5060005b81518110156200041557600160176000848481518110620003ce57634e487b7160e01b600052603260045260246000fd5b6020908102919091018101516001600160a01b03168252810191909152604001600020805460ff1916911515919091179055806200040c8162000c2f565b9150506200039d565b5080516200042b906016906020840190620007d5565b5050565b60008260405160200162000444919062000a80565b60408051601f198184030181529082905280516020909101206329965a1d60e01b82529150731820a4b7618bde71dce8cdc73aab6c95905fad24906329965a1d90620004999030908590879060040162000a9e565b600060405180830381600087803b158015620004b457600080fd5b505af1158015620004c9573d6000803e3d6000fd5b50505050505050565b600180600083604051602001620004ea919062000a80565b60408051808303601f19018152918152815160209283012083529082019290925201600020805460ff191691151591909117905550565b6200052d828262000609565b15620005565760405162461bcd60e51b81526004016200054d9062000aed565b60405180910390fd5b6001600160a01b0316600090815260209190915260409020805460ff19166001179055565b4690565b6000806200058c6200057b565b905060007f8b73c3c69bb8fe3d512ecc4cf759cc79239f7b179b0ffacaa9a75d522b39400f620005bb62000654565b8051602090910120620005cd620006ee565b8051602091820120604051620005ea949392879130910162000ac1565b60408051601f1981840301815291905280516020909101209250505090565b60006001600160a01b038216620006345760405162461bcd60e51b81526004016200054d9062000b24565b506001600160a01b03166000908152602091909152604090205460ff1690565b606060048054620006659062000bf2565b80601f0160208091040260200160405190810160405280929190818152602001828054620006939062000bf2565b8015620006e45780601f10620006b857610100808354040283529160200191620006e4565b820191906000526020600020905b815481529060010190602001808311620006c657829003601f168201915b5050505050905090565b6040805180820190915260018152603160f81b602082015290565b828054620007179062000bf2565b90600052602060002090601f0160209004810192826200073b576000855562000786565b82601f106200075657805160ff191683800117855562000786565b8280016001018555821562000786579182015b828111156200078657825182559160200191906001019062000769565b50620007949291506200082d565b5090565b8280548282559060005260206000209081019282156200078657916020028201828111156200078657825182559160200191906001019062000769565b82805482825590600052602060002090810192821562000786579160200282015b828111156200078657825182546001600160a01b0319166001600160a01b03909116178255602090920191600190910190620007f6565b5b808211156200079457600081556001016200082e565b80516001600160a01b03811681146200085c57600080fd5b919050565b600082601f83011262000872578081fd5b815160206200088b620008858362000b99565b62000b66565b8281528181019085830183850287018401881015620008a8578586fd5b855b85811015620008d157620008be8262000844565b84529284019290840190600101620008aa565b5090979650505050505050565b600082601f830112620008ef578081fd5b8151602062000902620008858362000b99565b82815281810190858301838502870184018810156200091f578586fd5b855b85811015620008d15781518452928401929084019060010162000921565b600082601f83011262000950578081fd5b81516001600160401b038111156200096c576200096c62000c57565b62000981601f8201601f191660200162000b66565b81815284602083860101111562000996578283fd5b620009a982602083016020870162000bbf565b949350505050565b60008060008060008060c08789031215620009ca578182fd5b86516001600160401b0380821115620009e1578384fd5b620009ef8a838b016200093f565b9750602089015191508082111562000a05578384fd5b62000a138a838b016200093f565b965060408901519550606089015191508082111562000a30578384fd5b62000a3e8a838b0162000861565b9450608089015191508082111562000a54578384fd5b5062000a6389828a01620008de565b92505062000a7460a0880162000844565b90509295509295509295565b6000825162000a9481846020870162000bbf565b9190910192915050565b6001600160a01b0393841681526020810192909252909116604082015260600190565b9485526020850193909352604084019190915260608301526001600160a01b0316608082015260a00190565b6020808252601f908201527f526f6c65733a206163636f756e7420616c72656164792068617320726f6c6500604082015260600190565b60208082526022908201527f526f6c65733a206163636f756e7420697320746865207a65726f206164647265604082015261737360f01b606082015260800190565b604051601f8201601f191681016001600160401b038111828210171562000b915762000b9162000c57565b604052919050565b60006001600160401b0382111562000bb55762000bb562000c57565b5060209081020190565b60005b8381101562000bdc57818101518382015260200162000bc2565b8381111562000bec576000848401525b50505050565b60028104600182168062000c0757607f821691505b6020821081141562000c2957634e487b7160e01b600052602260045260246000fd5b50919050565b600060001982141562000c5057634e487b7160e01b81526011600452602481fd5b5060010190565b634e487b7160e01b600052604160045260246000fd5b6161e28062000c7d6000396000f3fe608060405234801561001057600080fd5b50600436106103eb5760003560e01c8063861ed3ea1161021a578063aa271e1a11610135578063e77c646d116100c8578063ee532f3111610097578063f3d490db1161007c578063f3d490db146107f2578063f698da2514610805578063fad8b32a1461080d576103eb565b8063ee532f31146107cc578063f2fde38b146107df576103eb565b8063e77c646d1461078b578063e83c43f51461079e578063ea74838a146107a6578063ec9a6e87146107b9576103eb565b8063bcfdc0cf11610104578063bcfdc0cf14610755578063c35018481461075d578063ca281fd914610770578063dd62ed3e14610778576103eb565b8063aa271e1a146106fa578063b10d6b411461070d578063b6363cf21461072f578063bb3acde914610742576103eb565b8063983b2d56116101ad578063a26734dc1161017c578063a26734dc146106b9578063a6f4f105146106cc578063a8082cb0146106df578063a9059cbb146106e7576103eb565b8063983b2d5614610683578063986502751461069657806398ddcec71461069e5780639fa5f50b146106b1576103eb565b8063933964c7116101e9578063933964c71461064a578063959b8c3f1461065d57806395d89b41146105b15780639675193c14610670576103eb565b8063861ed3ea1461060f578063895d7386146104055780638c0dee9c146106225780638da5cb5b14610635576103eb565b80633092afd51161030a5780636c30d1701161029d578063715018a61161026c578063715018a6146105cc578063740ab8f4146105d45780637cc0c3a7146105e75780638357839e146105fc576103eb565b80636c30d170146105965780636d77cad61461059e5780636fd00b34146105b157806370a08231146105b9576103eb565b8063556f0dc7116102d9578063556f0dc71461055357806362eb00681461055b57806367c849191461056e57806369598efe14610581576103eb565b80633092afd51461051057806330e8280314610523578063313ce567146105365780634c783bf51461054b576103eb565b806317ec83ca11610382578063249cb3fa11610351578063249cb3fa146104da5780632535f762146104ed57806326ab5650146105005780632f1cae8514610508576103eb565b806317ec83ca1461049757806318160ddd146104b75780631d43e1c0146104bf57806323b872dd146104c7576103eb565b8063103ef9e1116103be578063103ef9e11461044b57806314d1e62f1461045e578063168ecec51461047157806316e1aed414610484576103eb565b8063010648ca146103f057806306fdde0314610405578063095ea7b3146104235780630a4e4f2214610443575b600080fd5b6104036103fe366004615690565b610820565b005b61040d61095a565b60405161041a9190615b3d565b60405180910390f35b6104366104313660046153e8565b6109ed565b60405161041a9190615a45565b610403610abe565b6104036104593660046154ed565b610c43565b61043661046c3660046155f7565b610cd2565b61040361047f3660046154ed565b610da4565b610403610492366004615646565b610e30565b6104aa6104a5366004615511565b610ee5565b60405161041a9190615a50565b6104aa610f22565b61040d610f28565b6104366104d536600461527e565b610f5f565b6104aa6104e83660046154ed565b6110dc565b6104036104fb366004615413565b611127565b61040d611170565b61043661124b565b61040361051e36600461520e565b61125a565b6104aa6105313660046154ed565b6112bc565b61053e6112ee565b60405161041a9190615fc0565b6104366112f3565b6104aa611301565b6104036105693660046156e1565b611307565b61040361057c36600461561d565b611358565b61058961143a565b60405161041a9190615a0d565b610403611491565b6104366105ac366004615511565b61152e565b61040d611543565b6104aa6105c736600461520e565b611552565b61040361157e565b6105896105e236600461520e565b6115fd565b6105ef611676565b60405161041a91906159b3565b61040361060a36600461520e565b6116e4565b6105ef61061d3660046154d5565b61179e565b6104aa610630366004615552565b611816565b61063d611a16565b60405161041a91906158f5565b61040361065836600461532f565b611a32565b61040361066b36600461520e565b611ab3565b61040361067e366004615413565b611b5a565b61040361069136600461520e565b611cf1565b610403611d50565b6104036106ac36600461561d565b611d59565b610589611f25565b6104aa6106c73660046154d5565b611f7b565b6104036106da366004615363565b611f8d565b6104aa61204d565b6104366106f53660046153e8565b6120ec565b61043661070836600461520e565b612113565b61072061071b3660046154d5565b612120565b60405161041a93929190615b72565b61043661073d366004615246565b6121fe565b610403610750366004615413565b612211565b61058961236a565b61040361076b3660046154d5565b6123c0565b61040361270f565b6104aa610786366004615246565b6127ac565b6104036107993660046157e1565b6127e4565b61063d612826565b6104036107b436600461546d565b6128d2565b6104036107c73660046154ad565b612981565b6104036107da3660046152be565b612a00565b6104036107ed36600461520e565b612b98565b6104aa61080036600461561d565b612c61565b6104aa612cbf565b61040361081b36600461520e565b612cc9565b3360009081526017602052604090205460ff1661083c57600080fd5b604051806060016040528084848080601f0160208091040260200160405190810160405280939291908181526020018383808284376000920182905250938552505050602080830185905242604093840152878252600b81529190208251805191926108ad92849290910190614feb565b5060208281015160018301556040928301516002909201919091556000838152600c909152205461091857600d80546001810182557fd7b6990105719101dabeb77144f2a3385c8033acd3af97e9423a695e81ad1eb501829055546000828152600c60205260409020555b837fb4c22d60cd550a815744f04e3ff5278bf19684565ee00e2b084041b6024bd6f684848460405161094c93929190615b19565b60405180910390a250505050565b6060600480546109699061609f565b80601f01602080910402602001604051908101604052809291908181526020018280546109959061609f565b80156109e25780601f106109b7576101008083540402835291602001916109e2565b820191906000526020600020905b8154815290600101906020018083116109c557829003601f168201915b505050505090505b90565b600073ffffffffffffffffffffffffffffffffffffffff8316610a45576040517f08c379a0000000000000000000000000000000000000000000000000000000008152600401610a3c90615d07565b60405180910390fd5b336000818152600a6020908152604080832073ffffffffffffffffffffffffffffffffffffffff881680855292529182902085905590519091907f8c5be1e5ebec7d5bd14f71427d1e84f3dd0314c0f7b2291e5b200ac8c7c3b92590610aac908690615a50565b60405180910390a35060015b92915050565b60006016600081548110610afb577f4e487b7100000000000000000000000000000000000000000000000000000000600052603260045260246000fd5b600091825260208220015460408051600180825281830190925273ffffffffffffffffffffffffffffffffffffffff90921693508160200160208202803683370190505090506000610b4b612826565b90508082600081518110610b88577f4e487b7100000000000000000000000000000000000000000000000000000000600052603260045260246000fd5b602002602001019073ffffffffffffffffffffffffffffffffffffffff16908173ffffffffffffffffffffffffffffffffffffffff1681525050610bcb82612f5b565b8073ffffffffffffffffffffffffffffffffffffffff168373ffffffffffffffffffffffffffffffffffffffff16610c01611543565b604051610c0e91906158b0565b604051908190038120907fddf698a82db69118eb57511894eba2074acdc5cdf75459415afe7386360314a290600090a4505050565b336000818152601960209081526040808320868452825280832073ffffffffffffffffffffffffffffffffffffffff8616808552925280832080547fffffffffffffffffffffffffffffffffffffffffffffffffffffffffffffff0016600117905551909185917f3646a897c70797ecc134b0adc32f471b07bf1d6f451133b0384badab531e3fd69190a45050565b600073ffffffffffffffffffffffffffffffffffffffff8316610d21576040517f08c379a0000000000000000000000000000000000000000000000000000000008152600401610a3c90615d07565b60008481526018602090815260408083203380855290835281842073ffffffffffffffffffffffffffffffffffffffff88168086529352928190208590555190919086907ff061499aa77c2f6f5e25e34955a06623705344a88256cc861a121ec0bce5cfec90610d92908790615a50565b60405180910390a45060019392505050565b336000818152601960209081526040808320868452825280832073ffffffffffffffffffffffffffffffffffffffff8616808552925280832080547fffffffffffffffffffffffffffffffffffffffffffffffffffffffffffffff0016905551909185917f3b287c4f1bab4df949b33bceacef984f544dc5d5479930d00e4ee8c9d8dd96f29190a45050565b610e386130e8565b73ffffffffffffffffffffffffffffffffffffffff16610e56611a16565b73ffffffffffffffffffffffffffffffffffffffff1614610ea3576040517f08c379a0000000000000000000000000000000000000000000000000000000008152600401610a3c90615e09565b610ee0838383808060200260200160405190810160405280939291908181526020018383602002808284376000920191909152506130ec92505050565b505050565b600092835260186020908152604080852073ffffffffffffffffffffffffffffffffffffffff948516865282528085209290931684525290205490565b60075490565b60408051808201909152600181527f3100000000000000000000000000000000000000000000000000000000000000602082015290565b6000610f6b33856132b3565b80610fa6575073ffffffffffffffffffffffffffffffffffffffff84166000908152600a602090815260408083203384529091529020548211155b610fdc576040517f08c379a0000000000000000000000000000000000000000000000000000000008152600401610a3c90615e9b565b73ffffffffffffffffffffffffffffffffffffffff84166000908152600a6020908152604080832033845290915290205482116110845773ffffffffffffffffffffffffffffffffffffffff84166000908152600a6020908152604080832033845290915290205461104e9083613366565b73ffffffffffffffffffffffffffffffffffffffff85166000908152600a602090815260408083203384529091529020556110b6565b73ffffffffffffffffffffffffffffffffffffffff84166000908152600a602090815260408083203384529091528120555b6110d23385858560405180602001604052806000815250613372565b5060019392505050565b60008281526001602052604081205460ff161561111f57604051602001611102906158cc565b604051602081830303815290604052805190602001209050610ab8565b506000610ab8565b61116a3333868686868080601f01602080910402602001604051908101604052809392919081815260200183838082843760009201919091525061337292505050565b50505050565b6060600061117c612826565b601c546040517f7b8baa6700000000000000000000000000000000000000000000000000000000815291925073ffffffffffffffffffffffffffffffffffffffff1690637b8baa67906111d39084906004016158f5565b60006040518083038186803b1580156111eb57600080fd5b505afa1580156111ff573d6000803e3d6000fd5b505050506040513d6000823e601f3d9081017fffffffffffffffffffffffffffffffffffffffffffffffffffffffffffffffe0168201604052611245919081019061571a565b91505090565b60085462010000900460ff1690565b61126333612113565b806112a757506112716130e8565b73ffffffffffffffffffffffffffffffffffffffff1661128f611a16565b73ffffffffffffffffffffffffffffffffffffffff16145b6112b057600080fd5b6112b98161356d565b50565b73ffffffffffffffffffffffffffffffffffffffff166000908152601360209081526040808320938352929052205490565b601290565b600854610100900460ff1690565b60065490565b61116a8433338686868080601f0160208091040260200160405190810160405280939291908181526020018383808284376000920182905250604080516020810190915290815292506135bc915050565b61136133612113565b806113a5575061136f6130e8565b73ffffffffffffffffffffffffffffffffffffffff1661138d611a16565b73ffffffffffffffffffffffffffffffffffffffff16145b6113ae57600080fd5b60085462010000900460ff166113f0576040517f08c379a0000000000000000000000000000000000000000000000000000000008152600401610a3c90615d75565b6114338533868686868080601f0160208091040260200160405190810160405280939291908181526020018383808284376000920191909152506136cd92505050565b5050505050565b6060600e8054806020026020016040519081016040528092919081815260200182805480156109e257602002820191906000526020600020905b815481526020019060010190808311611474575050505050905090565b6114996130e8565b73ffffffffffffffffffffffffffffffffffffffff166114b7611a16565b73ffffffffffffffffffffffffffffffffffffffff1614611504576040517f08c379a0000000000000000000000000000000000000000000000000000000008152600401610a3c90615e09565b600880547fffffffffffffffffffffffffffffffffffffffffffffffffffffffffff00ffff169055565b600061153b848484613791565b949350505050565b6060600580546109699061609f565b73ffffffffffffffffffffffffffffffffffffffff81166000908152600960205260409020545b919050565b6115866130e8565b73ffffffffffffffffffffffffffffffffffffffff166115a4611a16565b73ffffffffffffffffffffffffffffffffffffffff16146115f1576040517f08c379a0000000000000000000000000000000000000000000000000000000008152600401610a3c90615e09565b6115fb6000613834565b565b73ffffffffffffffffffffffffffffffffffffffff811660009081526011602090815260409182902080548351818402810184019094528084526060939283018282801561166a57602002820191906000526020600020905b815481526020019060010190808311611656575b50505050509050919050565b606060168054806020026020016040519081016040528092919081815260200182805480156109e257602002820191906000526020600020905b815473ffffffffffffffffffffffffffffffffffffffff1681526001909101906020018083116116b0575050505050905090565b6116ec6130e8565b73ffffffffffffffffffffffffffffffffffffffff1661170a611a16565b73ffffffffffffffffffffffffffffffffffffffff1614611757576040517f08c379a0000000000000000000000000000000000000000000000000000000008152600401610a3c90615e09565b601c80547fffffffffffffffffffffffff00000000000000000000000000000000000000001673ffffffffffffffffffffffffffffffffffffffff92909216919091179055565b6000818152601a602090815260409182902080548351818402810184019094528084526060939283018282801561166a57602002820191906000526020600020905b815473ffffffffffffffffffffffffffffffffffffffff1681526001909101906020018083116117e05750505050509050919050565b600061182389338a613791565b806118655750600089815260186020908152604080832073ffffffffffffffffffffffffffffffffffffffff8c16845282528083203384529091529020548611155b61189b576040517f08c379a0000000000000000000000000000000000000000000000000000000008152600401610a3c90615e9b565b600089815260186020908152604080832073ffffffffffffffffffffffffffffffffffffffff8c1684528252808320338452909152902054861161195857600089815260186020908152604080832073ffffffffffffffffffffffffffffffffffffffff8c168452825280832033845290915290205461191b9087613366565b60008a815260186020908152604080832073ffffffffffffffffffffffffffffffffffffffff8d1684528252808320338452909152902055611991565b600089815260186020908152604080832073ffffffffffffffffffffffffffffffffffffffff8c16845282528083203384529091528120555b611a0989338a8a8a8a8a8080601f01602080910402602001604051908101604052809392919081815260200183838082843760009201919091525050604080516020601f8e018190048102820181019092528c815292508c91508b90819084018382808284376000920191909152506138a992505050565b9998505050505050505050565b60005473ffffffffffffffffffffffffffffffffffffffff1690565b611a3a6130e8565b73ffffffffffffffffffffffffffffffffffffffff16611a58611a16565b73ffffffffffffffffffffffffffffffffffffffff1614611aa5576040517f08c379a0000000000000000000000000000000000000000000000000000000008152600401610a3c90615e09565b611aaf8282613a40565b5050565b73ffffffffffffffffffffffffffffffffffffffff8116331415611ad657600080fd5b73ffffffffffffffffffffffffffffffffffffffff8116600081815260156020908152604080832033808552925280832080547fffffffffffffffffffffffffffffffffffffffffffffffffffffffffffffff00166001179055519092917ff4caeb2d6ca8932a215a353d0703c326ec2d81fc68170f320eb2ab49e9df61f991a350565b611b6433856132b3565b80611b9f575073ffffffffffffffffffffffffffffffffffffffff84166000908152600a602090815260408083203384529091529020548311155b611bd5576040517f08c379a0000000000000000000000000000000000000000000000000000000008152600401610a3c90615e9b565b73ffffffffffffffffffffffffffffffffffffffff84166000908152600a602090815260408083203384529091529020548311611c7d5773ffffffffffffffffffffffffffffffffffffffff84166000908152600a60209081526040808320338452909152902054611c479084613366565b73ffffffffffffffffffffffffffffffffffffffff85166000908152600a60209081526040808320338452909152902055611caf565b73ffffffffffffffffffffffffffffffffffffffff84166000908152600a602090815260408083203384529091528120555b61116a33858585858080601f016020809104026020016040519081016040528093929190818152602001838380828437600092019190915250613af392505050565b611cfa33612113565b80611d3e5750611d086130e8565b73ffffffffffffffffffffffffffffffffffffffff16611d26611a16565b73ffffffffffffffffffffffffffffffffffffffff16145b611d4757600080fd5b6112b981613ce3565b6115fb3361356d565b611d64853386613791565b80611da65750600085815260186020908152604080832073ffffffffffffffffffffffffffffffffffffffff8816845282528083203384529091529020548311155b611ddc576040517f08c379a0000000000000000000000000000000000000000000000000000000008152600401610a3c90615d3e565b600085815260186020908152604080832073ffffffffffffffffffffffffffffffffffffffff8816845282528083203384529091529020548311611e9957600085815260186020908152604080832073ffffffffffffffffffffffffffffffffffffffff881684528252808320338452909152902054611e5c9084613366565b600086815260186020908152604080832073ffffffffffffffffffffffffffffffffffffffff891684528252808320338452909152902055611ed2565b600085815260186020908152604080832073ffffffffffffffffffffffffffffffffffffffff8816845282528083203384529091528120555b611433853386866040518060200160405280600081525087878080601f0160208091040260200160405190810160405280939291908181526020018383808284376000920191909152506135bc92505050565b6060600d8054806020026020016040519081016040528092919081815260200182805480156109e25760200282019190600052602060002090815481526020019060010190808311611474575050505050905090565b60009081526010602052604090205490565b611f956130e8565b73ffffffffffffffffffffffffffffffffffffffff16611fb3611a16565b73ffffffffffffffffffffffffffffffffffffffff1614612000576040517f08c379a0000000000000000000000000000000000000000000000000000000008152600401610a3c90615e09565b6120458686868080601f016020809104026020016040519081016040528093929190818152602001838380828437600092019190915250889250879150869050613d32565b505050505050565b600080612058613e51565b905060007f8b73c3c69bb8fe3d512ecc4cf759cc79239f7b179b0ffacaa9a75d522b39400f61208561095a565b80519060200120612094610f28565b80516020918201206040516120af9493928791309101615a59565b604080517fffffffffffffffffffffffffffffffffffffffffffffffffffffffffffffffe081840301815291905280516020909101209250505090565b600061210a3333858560405180602001604052806000815250613372565b50600192915050565b6000610ab8600283613e55565b6000818152600b60205260408120805460609291829161213f9061609f565b1515905061214c57600080fd5b6000848152600b6020526040902060018101546002820154825483906121719061609f565b80601f016020809104026020016040519081016040528092919081815260200182805461219d9061609f565b80156121ea5780601f106121bf576101008083540402835291602001916121ea565b820191906000526020600020905b8154815290600101906020018083116121cd57829003601f168201915b505050505092509250925092509193909250565b600061220a83836132b3565b9392505050565b61221a33612113565b8061225e57506122286130e8565b73ffffffffffffffffffffffffffffffffffffffff16612246611a16565b73ffffffffffffffffffffffffffffffffffffffff16145b61226757600080fd5b60085462010000900460ff166122a9576040517f08c379a0000000000000000000000000000000000000000000000000000000008152600401610a3c90615d75565b6014546122e2576040517f08c379a0000000000000000000000000000000000000000000000000000000008152600401610a3c90615d75565b61116a6014600081548110612320577f4e487b7100000000000000000000000000000000000000000000000000000000600052603260045260246000fd5b906000526020600020015433868686868080601f0160208091040260200160405190810160405280939291908181526020018383808284376000920191909152506136cd92505050565b606060148054806020026020016040519081016040528092919081815260200182805480156109e25760200282019190600052602060002090815481526020019060010190808311611474575050505050905090565b3360009081526017602052604090205460ff16612409576040517f08c379a0000000000000000000000000000000000000000000000000000000008152600401610a3c90615c05565b6000818152600b6020526040902080546124229061609f565b1515905061245c576040517f08c379a0000000000000000000000000000000000000000000000000000000008152600401610a3c90615f40565b6000818152600b60205260408082208151606081019092528054829082906124839061609f565b80601f01602080910402602001604051908101604052809291908181526020018280546124af9061609f565b80156124fc5780601f106124d1576101008083540402835291602001916124fc565b820191906000526020600020905b8154815290600101906020018083116124df57829003601f168201915b505050505081526020016001820154815260200160028201548152505090506000600c60008360200151815260200190815260200160002054905060008111612571576040517f08c379a0000000000000000000000000000000000000000000000000000000008152600401610a3c90615cd0565b600d8054600091906125859060019061605c565b815481106125bc577f4e487b7100000000000000000000000000000000000000000000000000000000600052603260045260246000fd5b9060005260206000200154905080600d6001846125d9919061605c565b81548110612610577f4e487b7100000000000000000000000000000000000000000000000000000000600052603260045260246000fd5b6000918252602080832090910192909255828152600c90915260409020829055600d805480612668577f4e487b7100000000000000000000000000000000000000000000000000000000600052603160045260246000fd5b6000828152602080822083017fffffffffffffffffffffffffffffffffffffffffffffffffffffffffffffffff908101839055909201909255848101518252600c81526040808320839055868352600b9091528120906126c8828261506f565b506000600182018190556002909101558251602084015160405186927f3d9bba27d3e360d8c80645beed7e991454a8271bf6f269a24f7782be0f0d06549261094c92615b50565b6127176130e8565b73ffffffffffffffffffffffffffffffffffffffff16612735611a16565b73ffffffffffffffffffffffffffffffffffffffff1614612782576040517f08c379a0000000000000000000000000000000000000000000000000000000008152600401610a3c90615e09565b600880547fffffffffffffffffffffffffffffffffffffffffffffffffffffffffffff00ff169055565b73ffffffffffffffffffffffffffffffffffffffff9182166000908152600a6020908152604080832093909416825291909152205490565b610ee033338585858080601f016020809104026020016040519081016040528093929190818152602001838380828437600092019190915250613af392505050565b601c546040517f2814ab3d00000000000000000000000000000000000000000000000000000000815260009173ffffffffffffffffffffffffffffffffffffffff1690632814ab3d9061287d9030906004016158f5565b60206040518083038186803b15801561289557600080fd5b505afa1580156128a9573d6000803e3d6000fd5b505050506040513d601f19601f820116820180604052508101906128cd919061522a565b905090565b6128da6130e8565b73ffffffffffffffffffffffffffffffffffffffff166128f8611a16565b73ffffffffffffffffffffffffffffffffffffffff1614612945576040517f08c379a0000000000000000000000000000000000000000000000000000000008152600401610a3c90615e09565b611aaf828280806020026020016040519081016040528093929190818152602001838360200280828437600092019190915250612f5b92505050565b6129896130e8565b73ffffffffffffffffffffffffffffffffffffffff166129a7611a16565b73ffffffffffffffffffffffffffffffffffffffff16146129f4576040517f08c379a0000000000000000000000000000000000000000000000000000000008152600401610a3c90615e09565b610ee0601483836150ab565b612a0a33866132b3565b80612a45575073ffffffffffffffffffffffffffffffffffffffff85166000908152600a602090815260408083203384529091529020548311155b612a7b576040517f08c379a0000000000000000000000000000000000000000000000000000000008152600401610a3c90615e9b565b73ffffffffffffffffffffffffffffffffffffffff85166000908152600a602090815260408083203384529091529020548311612b235773ffffffffffffffffffffffffffffffffffffffff85166000908152600a60209081526040808320338452909152902054612aed9084613366565b73ffffffffffffffffffffffffffffffffffffffff86166000908152600a60209081526040808320338452909152902055612b55565b73ffffffffffffffffffffffffffffffffffffffff85166000908152600a602090815260408083203384529091528120555b6114333386868686868080601f01602080910402602001604051908101604052809392919081815260200183838082843760009201919091525061337292505050565b612ba06130e8565b73ffffffffffffffffffffffffffffffffffffffff16612bbe611a16565b73ffffffffffffffffffffffffffffffffffffffff1614612c0b576040517f08c379a0000000000000000000000000000000000000000000000000000000008152600401610a3c90615e09565b73ffffffffffffffffffffffffffffffffffffffff8116612c58576040517f08c379a0000000000000000000000000000000000000000000000000000000008152600401610a3c90615c73565b6112b981613834565b6000612cb5863333888888888080601f0160208091040260200160405190810160405280939291908181526020018383808284376000920182905250604080516020810190915290815292506138a9915050565b9695505050505050565b60006128cd613ed1565b73ffffffffffffffffffffffffffffffffffffffff8116331415612cec57600080fd5b73ffffffffffffffffffffffffffffffffffffffff8116600081815260156020908152604080832033808552925280832080547fffffffffffffffffffffffffffffffffffffffffffffffffffffffffffffff00169055519092917f50546e66e5f44d728365dc3908c63bc5cfeeab470722c1677e3073a6ac294aa191a350565b600082604051602001612d8091906158b0565b604080517fffffffffffffffffffffffffffffffffffffffffffffffffffffffffffffffe08184030181529082905280516020909101207f29965a1d0000000000000000000000000000000000000000000000000000000082529150731820a4b7618bde71dce8cdc73aab6c95905fad24906329965a1d90612e0a9030908590879060040161593c565b600060405180830381600087803b158015612e2457600080fd5b505af1158015612e38573d6000803e3d6000fd5b50505050505050565b600180600083604051602001612e5791906158b0565b604080518083037fffffffffffffffffffffffffffffffffffffffffffffffffffffffffffffffe001815291815281516020928301208352908201929092520160002080547fffffffffffffffffffffffffffffffffffffffffffffffffffffffffffffff001691151591909117905550565b612ed48282613e55565b15612f0b576040517f08c379a0000000000000000000000000000000000000000000000000000000008152600401610a3c90615bce565b73ffffffffffffffffffffffffffffffffffffffff1660009081526020919091526040902080547fffffffffffffffffffffffffffffffffffffffffffffffffffffffffffffff00166001179055565b60005b6016548110156130195760006017600060168481548110612fa8577f4e487b7100000000000000000000000000000000000000000000000000000000600052603260045260246000fd5b60009182526020808320919091015473ffffffffffffffffffffffffffffffffffffffff168352820192909252604001902080547fffffffffffffffffffffffffffffffffffffffffffffffffffffffffffffff001691151591909117905580613011816160f3565b915050612f5e565b5060005b81518110156130d457600160176000848481518110613065577f4e487b7100000000000000000000000000000000000000000000000000000000600052603260045260246000fd5b60209081029190910181015173ffffffffffffffffffffffffffffffffffffffff16825281019190915260400160002080547fffffffffffffffffffffffffffffffffffffffffffffffffffffffffffffff0016911515919091179055806130cc816160f3565b91505061301d565b508051611aaf9060169060208401906150e6565b3390565b60005b6000838152601a60205260409020548110156131ca576000838152601b60209081526040808320601a9092528220805483919085908110613159577f4e487b7100000000000000000000000000000000000000000000000000000000600052603260045260246000fd5b60009182526020808320919091015473ffffffffffffffffffffffffffffffffffffffff168352820192909252604001902080547fffffffffffffffffffffffffffffffffffffffffffffffffffffffffffffff0016911515919091179055806131c2816160f3565b9150506130ef565b5060005b8151811015613293576000838152601b60205260408120835160019290859085908110613224577f4e487b7100000000000000000000000000000000000000000000000000000000600052603260045260246000fd5b60209081029190910181015173ffffffffffffffffffffffffffffffffffffffff16825281019190915260400160002080547fffffffffffffffffffffffffffffffffffffffffffffffffffffffffffffff00169115159190911790558061328b816160f3565b9150506131ce565b506000828152601a602090815260409091208251610ee0928401906150e6565b60008173ffffffffffffffffffffffffffffffffffffffff168373ffffffffffffffffffffffffffffffffffffffff161480613321575073ffffffffffffffffffffffffffffffffffffffff80841660009081526015602090815260408083209386168352929052205460ff165b8061220a5750600854610100900460ff16801561220a5750505073ffffffffffffffffffffffffffffffffffffffff1660009081526017602052604090205460ff1690565b600061220a828461605c565b6014546133ab576040517f08c379a0000000000000000000000000000000000000000000000000000000008152600401610a3c90615d75565b816000805b6014548110156135345773ffffffffffffffffffffffffffffffffffffffff87166000908152601360205260408120601480549192918490811061341d577f4e487b7100000000000000000000000000000000000000000000000000000000600052603260045260246000fd5b906000526020600020015481526020019081526020016000205491508183116134ac576134a26014828154811061347d577f4e487b7100000000000000000000000000000000000000000000000000000000600052603260045260246000fd5b90600052602060002001548989898789604051806020016040528060008152506138a9565b5060009250613534565b811561352257613514601482815481106134ef577f4e487b7100000000000000000000000000000000000000000000000000000000600052603260045260246000fd5b90600052602060002001548989898689604051806020016040528060008152506138a9565b5061351f828461605c565b92505b8061352c816160f3565b9150506133b0565b508115612e38576040517f08c379a0000000000000000000000000000000000000000000000000000000008152600401610a3c90615ed2565b613578600282613f08565b60405173ffffffffffffffffffffffffffffffffffffffff8216907fe94479a9f7e1952cc78f2d6baab678adc1b772d936c6583def489e524cb6669290600090a250565b73ffffffffffffffffffffffffffffffffffffffff84166000908152601360209081526040808320898452909152902054831115613626576040517f08c379a0000000000000000000000000000000000000000000000000000000008152600401610a3c90615ed2565b6136368686866000878787613f95565b6136468686866000878787614094565b613651848785614156565b61365d858585856145d7565b8373ffffffffffffffffffffffffffffffffffffffff168573ffffffffffffffffffffffffffffffffffffffff16877fce306c3dbc4a497124b5a4f2be8388b41084c1d74663da27ecee1186c00239bf86856040516136bd929190615f77565b60405180910390a4505050505050565b6136ec8585600086868660405180602001604052806000815250614094565b6136f88484848461483b565b613703838684614a0b565b6137228585600086868660405180602001604052806000815250614b7d565b8273ffffffffffffffffffffffffffffffffffffffff168473ffffffffffffffffffffffffffffffffffffffff16867ff0ded82afbb1bb3ff3fc48cb2a26584aa84e4af0bf309c804ecdb94d0f6a98bb8585604051613782929190615f90565b60405180910390a45050505050565b600061379d83836132b3565b806137e2575073ffffffffffffffffffffffffffffffffffffffff808316600090815260196020908152604080832088845282528083209387168352929052205460ff165b8061153b5750600854610100900460ff16801561153b575050506000918252601b6020908152604080842073ffffffffffffffffffffffffffffffffffffffff93909316845291905290205460ff1690565b6000805473ffffffffffffffffffffffffffffffffffffffff8381167fffffffffffffffffffffffff0000000000000000000000000000000000000000831681178455604051919092169283917f8be0079c531659141344cd1fd0a4f28419497f9722a3daafe3b4186f6b6457e09190a35050565b73ffffffffffffffffffffffffffffffffffffffff851660009081526013602090815260408083208a8452909152812054841115613913576040517f08c379a0000000000000000000000000000000000000000000000000000000008152600401610a3c90615ed2565b815188901580159061392757506040845110155b15613939576139368985614c3f565b90505b61394889898989898989613f95565b61395789898989898989614094565b613962878a87614156565b61396d878787614c89565b613978868287614a0b565b61398781898989898989614b7d565b8573ffffffffffffffffffffffffffffffffffffffff168773ffffffffffffffffffffffffffffffffffffffff168a7fff4e9a26af4eb73b8bacfaa4abd4fea03d9448e7b912dc5ff4019048875aa2d48b8989896040516139eb949392919061596c565b60405180910390a4888114613a345780897f67c8ba31d2dd11f1384577b3405b04ed91eed1231e408432ad2458cab37b2fa187604051613a2b9190615a50565b60405180910390a35b98975050505050505050565b613a7f6040518060400160405280600a81526020017f4552433230546f6b656e0000000000000000000000000000000000000000000081525083612d6d565b613abe6040518060400160405280600c81526020017f45524331343030546f6b656e000000000000000000000000000000000000000081525083612d6d565b8015611aaf57600880547fffffffffffffffffffffffffffffffffffffffffffffffffffffffffffffff001660011790555050565b601454613b2c576040517f08c379a0000000000000000000000000000000000000000000000000000000008152600401610a3c90615d75565b816000805b601454811015613caa5773ffffffffffffffffffffffffffffffffffffffff861660009081526013602052604081206014805491929184908110613b9e577f4e487b7100000000000000000000000000000000000000000000000000000000600052603260045260246000fd5b90600052602060002001548152602001908152602001600020549150818311613c2b57613c2260148281548110613bfe577f4e487b7100000000000000000000000000000000000000000000000000000000600052603260045260246000fd5b906000526020600020015488888688604051806020016040528060008152506135bc565b60009250613caa565b613c8c60148281548110613c68577f4e487b7100000000000000000000000000000000000000000000000000000000600052603260045260246000fd5b906000526020600020015488888588604051806020016040528060008152506135bc565b613c96828461605c565b925080613ca2816160f3565b915050613b31565b508115612045576040517f08c379a0000000000000000000000000000000000000000000000000000000008152600401610a3c90615ed2565b613cee600282612eca565b60405173ffffffffffffffffffffffffffffffffffffffff8216907f6ae172837ea30b801fbfcdd4108aa1d5bf8ff775444fd70256b44e6bf3dfc3f690600090a250565b6000613d3e3086614e89565b905073ffffffffffffffffffffffffffffffffffffffff811615801590613d625750835b15613dca57613d7081612113565b15613d7e57613d7e8161356d565b73ffffffffffffffffffffffffffffffffffffffff8116600090815260176020526040902080547fffffffffffffffffffffffffffffffffffffffffffffffffffffffffffffff001690555b613dd48587612d6d565b828015613de75750613de586612113565b155b15613df557613df586613ce3565b81156120455773ffffffffffffffffffffffffffffffffffffffff8616600090815260176020526040902080547fffffffffffffffffffffffffffffffffffffffffffffffffffffffffffffff00166001179055505050505050565b4690565b600073ffffffffffffffffffffffffffffffffffffffff8216613ea4576040517f08c379a0000000000000000000000000000000000000000000000000000000008152600401610a3c90615e3e565b5073ffffffffffffffffffffffffffffffffffffffff166000908152602091909152604090205460ff1690565b60008060036000613ee0613e51565b815260208101919091526040016000205490508015613f005790506109ea565b611245614f75565b613f128282613e55565b613f48576040517f08c379a0000000000000000000000000000000000000000000000000000000008152600401610a3c90615dac565b73ffffffffffffffffffffffffffffffffffffffff1660009081526020919091526040902080547fffffffffffffffffffffffffffffffffffffffffffffffffffffffffffffff00169055565b6000613fd6866040518060400160405280601381526020017f45524331343030546f6b656e7353656e64657200000000000000000000000000815250614e89565b905073ffffffffffffffffffffffffffffffffffffffff81161561408a576040517f4e755a5400000000000000000000000000000000000000000000000000000000815273ffffffffffffffffffffffffffffffffffffffff821690634e755a54906140579060009036908d908d908d908d908d908d908d90600401615a92565b600060405180830381600087803b15801561407157600080fd5b505af1158015614085573d6000803e3d6000fd5b505050505b5050505050505050565b60006140d5306040518060400160405280601681526020017f45524331343030546f6b656e7356616c696461746f7200000000000000000000815250614e89565b905073ffffffffffffffffffffffffffffffffffffffff81161561408a576040517f520faa7600000000000000000000000000000000000000000000000000000000815273ffffffffffffffffffffffffffffffffffffffff82169063520faa76906140579060009036908d908d908d908d908d908d908d90600401615a92565b73ffffffffffffffffffffffffffffffffffffffff831660009081526013602090815260408083208584529091529020546141919082613366565b73ffffffffffffffffffffffffffffffffffffffff841660009081526013602090815260408083208684528252808320939093556010905220546141d59082613366565b600083815260106020526040902081905561436f576000828152600f602052604090205480614230576040517f08c379a0000000000000000000000000000000000000000000000000000000008152600401610a3c90615c3c565b600e8054600091906142449060019061605c565b8154811061427b577f4e487b7100000000000000000000000000000000000000000000000000000000600052603260045260246000fd5b9060005260206000200154905080600e600184614298919061605c565b815481106142cf577f4e487b7100000000000000000000000000000000000000000000000000000000600052603260045260246000fd5b6000918252602080832090910192909255828152600f90915260409020829055600e805480614327577f4e487b7100000000000000000000000000000000000000000000000000000000600052603160045260246000fd5b6000828152602080822083017fffffffffffffffffffffffffffffffffffffffffffffffffffffffffffffffff908101839055909201909255858252600f9052604081205550505b73ffffffffffffffffffffffffffffffffffffffff83166000908152601360209081526040808320858452909152902054610ee05773ffffffffffffffffffffffffffffffffffffffff831660009081526012602090815260408083208584529091529020548061440c576040517f08c379a0000000000000000000000000000000000000000000000000000000008152600401610a3c90615c3c565b73ffffffffffffffffffffffffffffffffffffffff84166000908152601160205260408120805461443f9060019061605c565b81548110614476577f4e487b7100000000000000000000000000000000000000000000000000000000600052603260045260246000fd5b600091825260208083209091015473ffffffffffffffffffffffffffffffffffffffff881683526011909152604090912090915081906144b760018561605c565b815481106144ee577f4e487b7100000000000000000000000000000000000000000000000000000000600052603260045260246000fd5b600091825260208083209091019290925573ffffffffffffffffffffffffffffffffffffffff8716808252601283526040808320858452845280832086905590825260119092522080548061456c577f4e487b7100000000000000000000000000000000000000000000000000000000600052603160045260246000fd5b6000828152602080822083017fffffffffffffffffffffffffffffffffffffffffffffffffffffffffffffffff90810183905590920190925573ffffffffffffffffffffffffffffffffffffffff871682526012815260408083208784529091528120555050505050565b60085460ff1615614614576040517f08c379a0000000000000000000000000000000000000000000000000000000008152600401610a3c90615b97565b61461d82614fa4565b614653576040517f08c379a0000000000000000000000000000000000000000000000000000000008152600401610a3c90615c3c565b73ffffffffffffffffffffffffffffffffffffffff83166146a0576040517f08c379a0000000000000000000000000000000000000000000000000000000008152600401610a3c90615d07565b73ffffffffffffffffffffffffffffffffffffffff83166000908152600960205260409020548211156146ff576040517f08c379a0000000000000000000000000000000000000000000000000000000008152600401610a3c90615ed2565b73ffffffffffffffffffffffffffffffffffffffff831660009081526009602052604090205461472f9083613366565b73ffffffffffffffffffffffffffffffffffffffff84166000908152600960205260409020556007546147629083613366565b6007819055508273ffffffffffffffffffffffffffffffffffffffff168473ffffffffffffffffffffffffffffffffffffffff167fb7d0d6b60740753e9f16692a2f479472a1385aec2420fa43225b02f2ffa1afe784846040516147c7929190615f77565b60405180910390a3600073ffffffffffffffffffffffffffffffffffffffff168373ffffffffffffffffffffffffffffffffffffffff167fddf252ad1be2c89b69c2b068fc378daa952ba7f163c4a11628f55a4df523b3ef8460405161482d9190615a50565b60405180910390a350505050565b60085460ff1615614878576040517f08c379a0000000000000000000000000000000000000000000000000000000008152600401610a3c90615b97565b61488182614fa4565b6148b7576040517f08c379a0000000000000000000000000000000000000000000000000000000008152600401610a3c90615c3c565b73ffffffffffffffffffffffffffffffffffffffff8316614904576040517f08c379a0000000000000000000000000000000000000000000000000000000008152600401610a3c90615f09565b6007546149119083614fc7565b60075573ffffffffffffffffffffffffffffffffffffffff83166000908152600960205260409020546149449083614fc7565b73ffffffffffffffffffffffffffffffffffffffff80851660008181526009602052604090819020939093559151908616907f0e9905d62635f049c2f4e11678ebf9dc3d1f8c4a653e290759b772e47ba00d00906149a59086908690615f77565b60405180910390a38273ffffffffffffffffffffffffffffffffffffffff16600073ffffffffffffffffffffffffffffffffffffffff167fddf252ad1be2c89b69c2b068fc378daa952ba7f163c4a11628f55a4df523b3ef8460405161482d9190615a50565b8015610ee05773ffffffffffffffffffffffffffffffffffffffff83166000908152601260209081526040808320858452909152902054614a975773ffffffffffffffffffffffffffffffffffffffff83166000818152601160209081526040808320805460018101825581855283852001879055938352925460128252838320868452909152919020555b73ffffffffffffffffffffffffffffffffffffffff83166000908152601360209081526040808320858452909152902054614ad29082614fc7565b73ffffffffffffffffffffffffffffffffffffffff84166000908152601360209081526040808320868452825280832093909355600f90522054614b5057600e80546001810182557fbb7b4a454dc3493923482f07822329ed19e8244eff582cc204f8554c3620c3fd01839055546000838152600f60205260409020555b600082815260106020526040902054614b699082614fc7565b600083815260106020526040902055505050565b6000614bbe856040518060400160405280601681526020017f45524331343030546f6b656e73526563697069656e7400000000000000000000815250614e89565b905073ffffffffffffffffffffffffffffffffffffffff81161561408a576040517ff464b57600000000000000000000000000000000000000000000000000000000815273ffffffffffffffffffffffffffffffffffffffff82169063f464b576906140579060009036908d908d908d908d908d908d908d90600401615a92565b60208101516000907fffffffffffffffffffffffffffffffffffffffffffffffffffffffffffffffff9080821415614c7d5760408401519250614c81565b8492505b505092915050565b60085460ff1615614cc6576040517f08c379a0000000000000000000000000000000000000000000000000000000008152600401610a3c90615b97565b614ccf81614fa4565b614d05576040517f08c379a0000000000000000000000000000000000000000000000000000000008152600401610a3c90615c3c565b73ffffffffffffffffffffffffffffffffffffffff8216614d52576040517f08c379a0000000000000000000000000000000000000000000000000000000008152600401610a3c90615f09565b73ffffffffffffffffffffffffffffffffffffffff8316600090815260096020526040902054811115614db1576040517f08c379a0000000000000000000000000000000000000000000000000000000008152600401610a3c90615ed2565b73ffffffffffffffffffffffffffffffffffffffff8316600090815260096020526040902054614de19082613366565b73ffffffffffffffffffffffffffffffffffffffff8085166000908152600960205260408082209390935590841681522054614e1d9082614fc7565b73ffffffffffffffffffffffffffffffffffffffff80841660008181526009602052604090819020939093559151908516907fddf252ad1be2c89b69c2b068fc378daa952ba7f163c4a11628f55a4df523b3ef90614e7c908590615a50565b60405180910390a3505050565b60008082604051602001614e9d91906158b0565b604080517fffffffffffffffffffffffffffffffffffffffffffffffffffffffffffffffe08184030181529082905280516020909101207faabbb8ca0000000000000000000000000000000000000000000000000000000082529150731820a4b7618bde71dce8cdc73aab6c95905fad249063aabbb8ca90614f259087908590600401615916565b60206040518083038186803b158015614f3d57600080fd5b505afa158015614f51573d6000803e3d6000fd5b505050506040513d601f19601f8201168201806040525081019061153b919061522a565b600080614f80613e51565b90506000614f8c61204d565b60009283526003602052604090922082905550905090565b6006546000908290614fc090614fba8382614fd3565b90614fdf565b1492915050565b600061220a8284615fce565b600061220a8284615fe6565b600061220a828461601f565b828054614ff79061609f565b90600052602060002090601f016020900481019282615019576000855561505f565b82601f1061503257805160ff191683800117855561505f565b8280016001018555821561505f579182015b8281111561505f578251825591602001919060010190615044565b5061506b929150615160565b5090565b50805461507b9061609f565b6000825580601f1061508d57506112b9565b601f0160209004906000526020600020908101906112b99190615160565b82805482825590600052602060002090810192821561505f579160200282015b8281111561505f5782358255916020019190600101906150cb565b82805482825590600052602060002090810192821561505f579160200282015b8281111561505f57825182547fffffffffffffffffffffffff00000000000000000000000000000000000000001673ffffffffffffffffffffffffffffffffffffffff909116178255602090920191600190910190615106565b5b8082111561506b5760008155600101615161565b60008083601f840112615186578081fd5b50813567ffffffffffffffff81111561519d578182fd5b60208301915083602080830285010111156151b757600080fd5b9250929050565b8035801515811461157957600080fd5b60008083601f8401126151df578182fd5b50813567ffffffffffffffff8111156151f6578182fd5b6020830191508360208285010111156151b757600080fd5b60006020828403121561521f578081fd5b813561220a8161618a565b60006020828403121561523b578081fd5b815161220a8161618a565b60008060408385031215615258578081fd5b82356152638161618a565b915060208301356152738161618a565b809150509250929050565b600080600060608486031215615292578081fd5b833561529d8161618a565b925060208401356152ad8161618a565b929592945050506040919091013590565b6000806000806000608086880312156152d5578081fd5b85356152e08161618a565b945060208601356152f08161618a565b935060408601359250606086013567ffffffffffffffff811115615312578182fd5b61531e888289016151ce565b969995985093965092949392505050565b60008060408385031215615341578182fd5b823561534c8161618a565b915061535a602084016151be565b90509250929050565b60008060008060008060a0878903121561537b578081fd5b86356153868161618a565b9550602087013567ffffffffffffffff8111156153a1578182fd5b6153ad89828a016151ce565b90965094506153c09050604088016151be565b92506153ce606088016151be565b91506153dc608088016151be565b90509295509295509295565b600080604083850312156153fa578182fd5b82356154058161618a565b946020939093013593505050565b60008060008060608587031215615428578384fd5b84356154338161618a565b935060208501359250604085013567ffffffffffffffff811115615455578283fd5b615461878288016151ce565b95989497509550505050565b6000806020838503121561547f578182fd5b823567ffffffffffffffff811115615495578283fd5b6154a185828601615175565b90969095509350505050565b600080602083850312156154bf578081fd5b823567ffffffffffffffff811115615495578182fd5b6000602082840312156154e6578081fd5b5035919050565b600080604083850312156154ff578182fd5b8235915060208301356152738161618a565b600080600060608486031215615525578081fd5b8335925060208401356155378161618a565b915060408401356155478161618a565b809150509250925092565b60008060008060008060008060c0898b03121561556d578586fd5b88359750602089013561557f8161618a565b9650604089013561558f8161618a565b955060608901359450608089013567ffffffffffffffff808211156155b2578384fd5b6155be8c838d016151ce565b909650945060a08b01359150808211156155d6578384fd5b506155e38b828c016151ce565b999c989b5096995094979396929594505050565b60008060006060848603121561560b578081fd5b8335925060208401356152ad8161618a565b600080600080600060808688031215615634578283fd5b8535945060208601356152f08161618a565b60008060006040848603121561565a578081fd5b83359250602084013567ffffffffffffffff811115615677578182fd5b61568386828701615175565b9497909650939450505050565b600080600080606085870312156156a5578182fd5b84359350602085013567ffffffffffffffff8111156156c2578283fd5b6156ce878288016151ce565b9598909750949560400135949350505050565b600080600080606085870312156156f6578182fd5b8435935060208501359250604085013567ffffffffffffffff811115615455578283fd5b60006020828403121561572b578081fd5b815167ffffffffffffffff80821115615742578283fd5b818401915084601f830112615755578283fd5b8151818111156157675761576761615b565b604051601f82017fffffffffffffffffffffffffffffffffffffffffffffffffffffffffffffffe0908116603f011681019083821181831017156157ad576157ad61615b565b816040528281528760208487010111156157c5578586fd5b6157d6836020830160208801616073565b979650505050505050565b6000806000604084860312156157f5578081fd5b83359250602084013567ffffffffffffffff811115615812578182fd5b615683868287016151ce565b600082845282826020860137806020848601015260207fffffffffffffffffffffffffffffffffffffffffffffffffffffffffffffffe0601f85011685010190509392505050565b6000815180845261587e816020860160208601616073565b601f017fffffffffffffffffffffffffffffffffffffffffffffffffffffffffffffffe0169290920160200192915050565b600082516158c2818460208701616073565b9190910192915050565b7f455243313832305f4143434550545f4d41474943000000000000000000000000815260140190565b73ffffffffffffffffffffffffffffffffffffffff91909116815260200190565b73ffffffffffffffffffffffffffffffffffffffff929092168252602082015260400190565b73ffffffffffffffffffffffffffffffffffffffff93841681526020810192909252909116604082015260600190565b600073ffffffffffffffffffffffffffffffffffffffff86168252846020830152608060408301526159a16080830185615866565b82810360608401526157d68185615866565b6020808252825182820181905260009190848201906040850190845b81811015615a0157835173ffffffffffffffffffffffffffffffffffffffff16835292840192918401916001016159cf565b50909695505050505050565b6020808252825182820181905260009190848201906040850190845b81811015615a0157835183529284019291840191600101615a29565b901515815260200190565b90815260200190565b94855260208501939093526040840191909152606083015273ffffffffffffffffffffffffffffffffffffffff16608082015260a00190565b6000610100808352615aa78184018c8e61581e565b905089602084015273ffffffffffffffffffffffffffffffffffffffff808a16604085015280891660608501528088166080850152508560a084015282810360c0840152615af58186615866565b905082810360e0840152615b098185615866565b9c9b505050505050505050505050565b600060408252615b2d60408301858761581e565b9050826020830152949350505050565b60006020825261220a6020830184615866565b600060408252615b636040830185615866565b90508260208301529392505050565b600060608252615b856060830186615866565b60208301949094525060400152919050565b60208082526002908201527f3534000000000000000000000000000000000000000000000000000000000000604082015260600190565b6020808252601f908201527f526f6c65733a206163636f756e7420616c72656164792068617320726f6c6500604082015260600190565b6020808252600c908201527f556e617574686f72697a65640000000000000000000000000000000000000000604082015260600190565b60208082526002908201527f3530000000000000000000000000000000000000000000000000000000000000604082015260600190565b60208082526026908201527f4f776e61626c653a206e6577206f776e657220697320746865207a65726f206160408201527f6464726573730000000000000000000000000000000000000000000000000000606082015260800190565b6020808252600d908201527f496e76616c696420696e64657800000000000000000000000000000000000000604082015260600190565b60208082526002908201527f3536000000000000000000000000000000000000000000000000000000000000604082015260600190565b60208082526002908201527f3538000000000000000000000000000000000000000000000000000000000000604082015260600190565b60208082526002908201527f3535000000000000000000000000000000000000000000000000000000000000604082015260600190565b60208082526021908201527f526f6c65733a206163636f756e7420646f6573206e6f74206861766520726f6c60408201527f6500000000000000000000000000000000000000000000000000000000000000606082015260800190565b6020808252818101527f4f776e61626c653a2063616c6c6572206973206e6f7420746865206f776e6572604082015260600190565b60208082526022908201527f526f6c65733a206163636f756e7420697320746865207a65726f20616464726560408201527f7373000000000000000000000000000000000000000000000000000000000000606082015260800190565b60208082526002908201527f3533000000000000000000000000000000000000000000000000000000000000604082015260600190565b60208082526002908201527f3532000000000000000000000000000000000000000000000000000000000000604082015260600190565b60208082526002908201527f3537000000000000000000000000000000000000000000000000000000000000604082015260600190565b60208082526015908201527f446f63756d656e7420646f65736e742065786973740000000000000000000000604082015260600190565b60008382526040602083015261153b6040830184615866565b600083825260606020830152615fa96060830184615866565b828103604090930192909252815260200192915050565b60ff91909116815260200190565b60008219821115615fe157615fe161612c565b500190565b60008261601a577f4e487b710000000000000000000000000000000000000000000000000000000081526012600452602481fd5b500490565b6000817fffffffffffffffffffffffffffffffffffffffffffffffffffffffffffffffff04831182151516156160575761605761612c565b500290565b60008282101561606e5761606e61612c565b500390565b60005b8381101561608e578181015183820152602001616076565b8381111561116a5750506000910152565b6002810460018216806160b357607f821691505b602082108114156160ed577f4e487b7100000000000000000000000000000000000000000000000000000000600052602260045260246000fd5b50919050565b60007fffffffffffffffffffffffffffffffffffffffffffffffffffffffffffffffff8214156161255761612561612c565b5060010190565b7f4e487b7100000000000000000000000000000000000000000000000000000000600052601160045260246000fd5b7f4e487b7100000000000000000000000000000000000000000000000000000000600052604160045260246000fd5b73ffffffffffffffffffffffffffffffffffffffff811681146112b957600080fdfea2646970667358221220f014ed88680bfc57e08c05706612586a194fdfb13add2b47b54a0a18de0df30164736f6c63430008010033",
  "linkReferences": {},
  "deployedLinkReferences": {}
}